{
	"data": {
		"bytecode": {
			"linkReferences": {},
			"object": "608060405234801561000f575f80fd5b5060405161590c38038061590c833981810160405281019061003191906101d4565b335f73ffffffffffffffffffffffffffffffffffffffff168173ffffffffffffffffffffffffffffffffffffffff16036100a2575f6040517f1e4fbdf70000000000000000000000000000000000000000000000000000000081526004016100999190610251565b60405180910390fd5b6100b1816100dc60201b60201c565b506001808190555081600281905550806003819055505f6004819055505f600781905550505061026a565b5f805f9054906101000a900473ffffffffffffffffffffffffffffffffffffffff169050815f806101000a81548173ffffffffffffffffffffffffffffffffffffffff021916908373ffffffffffffffffffffffffffffffffffffffff1602179055508173ffffffffffffffffffffffffffffffffffffffff168173ffffffffffffffffffffffffffffffffffffffff167f8be0079c531659141344cd1fd0a4f28419497f9722a3daafe3b4186f6b6457e060405160405180910390a35050565b5f80fd5b5f819050919050565b6101b3816101a1565b81146101bd575f80fd5b50565b5f815190506101ce816101aa565b92915050565b5f80604083850312156101ea576101e961019d565b5b5f6101f7858286016101c0565b9250506020610208858286016101c0565b9150509250929050565b5f73ffffffffffffffffffffffffffffffffffffffff82169050919050565b5f61023b82610212565b9050919050565b61024b81610231565b82525050565b5f6020820190506102645f830184610242565b92915050565b615695806102775f395ff3fe6080604052600436106101ed575f3560e01c8063715018a61161010c578063b77bf6001161009f578063e086e5ec1161006e578063e086e5ec1461075a578063f2fde38b14610770578063f4f3b20014610798578063f79d91ae146107c0578063f7b10808146107e8576101ed565b8063b77bf60014610698578063bafadc3c146106c2578063c361a33514610700578063d78ae22f1461072a576101ed565b80639ace38c2116100db5780639ace38c2146105dc5780639ca1f3631461061e578063a9059be514610646578063b5c604ff1461066e576101ed565b8063715018a6146105245780637eff27691461053a5780638da5cb5b1461057657806390cad32f146105a0576101ed565b80633e3ea54711610184578063572f5eed11610153578063572f5eed14610443578063635e49e51461047f5780636a1b7ecc146104bb57806370e14734146104e5576101ed565b80633e3ea547146103795780634e9798c3146103a157806353bcb3db146103c9578063547ee4ac14610405576101ed565b806317aaf5ed116101c057806317aaf5ed146102be57806318089a0c146102e857806327cc8b5d14610315578063305a67a814610351576101ed565b806306ea4e6a146101f15780630fa683d31461020d578063126dbe431461024f57806314b5e98114610294575b5f80fd5b61020b60048036038101906102069190613a12565b61082d565b005b348015610218575f80fd5b50610233600480360381019061022e9190613a12565b61108c565b6040516102469796959493929190613afb565b60405180910390f35b34801561025a575f80fd5b5061027560048036038101906102709190613a12565b6111f0565b60405161028b9a99989796959493929190613be2565b60405180910390f35b34801561029f575f80fd5b506102a861139f565b6040516102b59190613c8a565b60405180910390f35b3480156102c9575f80fd5b506102d26113a5565b6040516102df9190613c8a565b60405180910390f35b3480156102f3575f80fd5b506102fc6113ae565b60405161030c9493929190613ca3565b60405180910390f35b348015610320575f80fd5b5061033b60048036038101906103369190613a12565b6114a9565b6040516103489190613d9d565b60405180910390f35b34801561035c575f80fd5b5061037760048036038101906103729190613a12565b611587565b005b348015610384575f80fd5b5061039f600480360381019061039a9190613a12565b6117e5565b005b3480156103ac575f80fd5b506103c760048036038101906103c29190613df8565b611a48565b005b3480156103d4575f80fd5b506103ef60048036038101906103ea9190613e72565b611db8565b6040516103fc9190613d9d565b60405180910390f35b348015610410575f80fd5b5061042b60048036038101906104269190613ec2565b6120b4565b60405161043a93929190613f1a565b60405180910390f35b34801561044e575f80fd5b5061046960048036038101906104649190613a12565b61216f565b6040516104769190613f4f565b60405180910390f35b34801561048a575f80fd5b506104a560048036038101906104a09190613e72565b6121dc565b6040516104b29190613d9d565b60405180910390f35b3480156104c6575f80fd5b506104cf61245f565b6040516104dc9190613c8a565b60405180910390f35b3480156104f0575f80fd5b5061050b60048036038101906105069190613ec2565b612465565b60405161051b9493929190613f68565b60405180910390f35b34801561052f575f80fd5b5061053861252a565b005b348015610545575f80fd5b50610560600480360381019061055b9190613fab565b61253d565b60405161056d9190613d9d565b60405180910390f35b348015610581575f80fd5b5061058a61272a565b6040516105979190613ffb565b60405180910390f35b3480156105ab575f80fd5b506105c660048036038101906105c19190614037565b612751565b6040516105d39190613d9d565b60405180910390f35b3480156105e7575f80fd5b5061060260048036038101906105fd9190613a12565b61299e565b6040516106159796959493929190613afb565b60405180910390f35b348015610629575f80fd5b50610644600480360381019061063f9190613a12565b612aa0565b005b348015610651575f80fd5b5061066c600480360381019061066791906141b3565b612b2e565b005b348015610679575f80fd5b50610682612cbd565b60405161068f9190613c8a565b60405180910390f35b3480156106a3575f80fd5b506106ac612cc6565b6040516106b99190613c8a565b60405180910390f35b3480156106cd575f80fd5b506106e860048036038101906106e39190613ec2565b612ccc565b6040516106f79392919061421f565b60405180910390f35b34801561070b575f80fd5b50610714612d96565b6040516107219190613c8a565b60405180910390f35b610744600480360381019061073f91906143d8565b612d9c565b6040516107519190613c8a565b60405180910390f35b348015610765575f80fd5b5061076e6131d9565b005b34801561077b575f80fd5b50610796600480360381019061079191906144bf565b613275565b005b3480156107a3575f80fd5b506107be60048036038101906107b991906144bf565b6132f9565b005b3480156107cb575f80fd5b506107e660048036038101906107e19190613a12565b61344a565b005b3480156107f3575f80fd5b5061080e60048036038101906108099190613a12565b613493565b6040516108249a999897969594939291906144f9565b60405180910390f35b61083561361a565b5f60055f8381526020019081526020015f2090505f600381111561085c5761085b613b6f565b5b816005015f9054906101000a900460ff16600381111561087f5761087e613b6f565b5b14806108bf57506001600381111561089a57610899613b6f565b5b816005015f9054906101000a900460ff1660038111156108bd576108bc613b6f565b5b145b6108fe576040517f08c379a00000000000000000000000000000000000000000000000000000000081526004016108f590614611565b60405180910390fd5b5f80805f90505b8360080154811015610991573373ffffffffffffffffffffffffffffffffffffffff16846009015f8381526020019081526020015f205f015f9054906101000a900473ffffffffffffffffffffffffffffffffffffffff1673ffffffffffffffffffffffffffffffffffffffff16036109845760019250809150610991565b8080600101915050610905565b50816109d2576040517f08c379a00000000000000000000000000000000000000000000000000000000081526004016109c990614679565b60405180910390fd5b826009015f8281526020019081526020015f206003015f9054906101000a900460ff1615610a35576040517f08c379a0000000000000000000000000000000000000000000000000000000008152600401610a2c906146e1565b60405180910390fd5b5f5b8360060154811015610ab257836007015f8281526020019081526020015f206002015f9054906101000a900460ff16610aa5576040517f08c379a0000000000000000000000000000000000000000000000000000000008152600401610a9c9061476f565b60405180910390fd5b8080600101915050610a37565b505f612710846009015f8481526020019081526020015f20600101548560040154610add91906147ba565b610ae79190614828565b90505f61271060035483610afb91906147ba565b610b059190614828565b90505f8183610b149190614858565b905080341015610b59576040517f08c379a0000000000000000000000000000000000000000000000000000000008152600401610b50906148d5565b60405180910390fd5b610b6161272a565b73ffffffffffffffffffffffffffffffffffffffff166108fc8390811502906040515f60405180830381858888f19350505050158015610ba3573d5f803e3d5ffd5b505f805b8760060154811015610d72575f612710896007015f8481526020019081526020015f206001015487610bd991906147ba565b610be39190614828565b9050886007015f8381526020019081526020015f205f015f9054906101000a900473ffffffffffffffffffffffffffffffffffffffff1673ffffffffffffffffffffffffffffffffffffffff166108fc8290811502906040515f60405180830381858888f19350505050158015610c5c573d5f803e3d5ffd5b508083610c699190614858565b9250610ce18a338b6007015f8681526020019081526020015f205f015f9054906101000a900473ffffffffffffffffffffffffffffffffffffffff16846040518060400160405280600e81526020017f526f79616c74795061796d656e74000000000000000000000000000000000000815250613669565b886007015f8381526020019081526020015f205f015f9054906101000a900473ffffffffffffffffffffffffffffffffffffffff1673ffffffffffffffffffffffffffffffffffffffff168a7ff670029fc6f5302baba881b4ae845d1453acdf752b4c19ed81fe0fa6a686409b83604051610d5c9190613c8a565b60405180910390a3508080600101915050610ba7565b505f8185610d8091906148f3565b9050876003015f9054906101000a900473ffffffffffffffffffffffffffffffffffffffff1673ffffffffffffffffffffffffffffffffffffffff166108fc8290811502906040515f60405180830381858888f19350505050158015610de8573d5f803e3d5ffd5b5084886009015f8881526020019081526020015f20600201819055506001886009015f8881526020019081526020015f206003015f6101000a81548160ff021916908315150217905550610e9789338a6003015f9054906101000a900473ffffffffffffffffffffffffffffffffffffffff16886040518060400160405280600881526020017f5075726368617365000000000000000000000000000000000000000000000000815250613669565b5f600190505f5b8960080154811015610ee657896009015f8281526020019081526020015f206003015f9054906101000a900460ff16610ed9575f9150610ee6565b8080600101915050610e9e565b50808015610ef95750610ef8896137fb565b5b15610f79576002896005015f6101000a81548160ff02191690836003811115610f2557610f24613b6f565b5b0217905550897f2029ff33a5cefa752541f9dd453384df0d463d7c42b66cf937f5112f76d4f5458a600401548b6005015f9054906101000a900460ff16604051610f70929190614926565b60405180910390a25b4289600b01819055503373ffffffffffffffffffffffffffffffffffffffff168a7f7ddf640afb9f39f7902a7c2b643b23933a73341268a396d5217d82dd7230f6e888604051610fc99190613c8a565b60405180910390a33373ffffffffffffffffffffffffffffffffffffffff168a7ff447ba1e674406290752c644bdc71e4be50aa21042f65ed5e9a0b140a3835e26886040516110189190613c8a565b60405180910390a383341115611078573373ffffffffffffffffffffffffffffffffffffffff166108fc853461104e91906148f3565b90811502906040515f60405180830381858888f19350505050158015611076573d5f803e3d5ffd5b505b505050505050505050611089613876565b50565b5f805f805f8060605f60065f8a81526020019081526020015f20905088815f0154146110ed576040517f08c379a00000000000000000000000000000000000000000000000000000000081526004016110e490614997565b60405180910390fd5b805f01548160010154826002015f9054906101000a900473ffffffffffffffffffffffffffffffffffffffff16836003015f9054906101000a900473ffffffffffffffffffffffffffffffffffffffff168460040154856005015486600601808054611158906149e2565b80601f0160208091040260200160405190810160405280929190818152602001828054611184906149e2565b80156111cf5780601f106111a6576101008083540402835291602001916111cf565b820191905f5260205f20905b8154815290600101906020018083116111b257829003601f168201915b50505050509050975097509750975097509750975050919395979092949650565b5f6060805f805f805f805f8060055f8d81526020019081526020015f209050805f01548160010182600201836003015f9054906101000a900473ffffffffffffffffffffffffffffffffffffffff168460040154856005015f9054906101000a900460ff168660060154876008015488600a015489600b0154888054611275906149e2565b80601f01602080910402602001604051908101604052809291908181526020018280546112a1906149e2565b80156112ec5780601f106112c3576101008083540402835291602001916112ec565b820191905f5260205f20905b8154815290600101906020018083116112cf57829003601f168201915b505050505098508780546112ff906149e2565b80601f016020809104026020016040519081016040528092919081815260200182805461132b906149e2565b80156113765780601f1061134d57610100808354040283529160200191611376565b820191905f5260205f20905b81548152906001019060200180831161135957829003601f168201915b505050505097509a509a509a509a509a509a509a509a509a509a50509193959799509193959799565b60035481565b5f600454905090565b5f805f805f805f600190505b6004548111611490575f60038111156113d6576113d5613b6f565b5b60055f8381526020019081526020015f206005015f9054906101000a900460ff16600381111561140957611408613b6f565b5b0361142157828061141990614a12565b93505061147d565b6002600381111561143557611434613b6f565b5b60055f8381526020019081526020015f206005015f9054906101000a900460ff16600381111561146857611467613b6f565b5b0361147c57818061147890614a12565b9250505b5b808061148890614a12565b9150506113ba565b5060045460075483839550955095509550505090919293565b60605f60055f8481526020019081526020015f2090505f816006015467ffffffffffffffff8111156114de576114dd61408f565b5b60405190808252806020026020018201604052801561150c5781602001602082028036833780820191505090505b5090505f5b826006015481101561157c57612710836007015f8381526020019081526020015f2060010154846004015461154691906147ba565b6115509190614828565b82828151811061156357611562614a59565b5b6020026020010181815250508080600101915050611511565b508092505050919050565b5f60055f8381526020019081526020015f209050806003015f9054906101000a900473ffffffffffffffffffffffffffffffffffffffff1673ffffffffffffffffffffffffffffffffffffffff163373ffffffffffffffffffffffffffffffffffffffff16148061162a57506115fb61272a565b73ffffffffffffffffffffffffffffffffffffffff163373ffffffffffffffffffffffffffffffffffffffff16145b611669576040517f08c379a000000000000000000000000000000000000000000000000000000000815260040161166090614ad0565b60405180910390fd5b5f600381111561167c5761167b613b6f565b5b816005015f9054906101000a900460ff16600381111561169f5761169e613b6f565b5b146116df576040517f08c379a00000000000000000000000000000000000000000000000000000000081526004016116d690614b38565b60405180910390fd5b5f5b816008015481101561175d57816009015f8281526020019081526020015f206003015f9054906101000a900460ff1615611750576040517f08c379a000000000000000000000000000000000000000000000000000000000815260040161174790614bc6565b60405180910390fd5b80806001019150506116e1565b506003816005015f6101000a81548160ff0219169083600381111561178557611784613b6f565b5b02179055504281600b0181905550817f2029ff33a5cefa752541f9dd453384df0d463d7c42b66cf937f5112f76d4f5458260040154836005015f9054906101000a900460ff166040516117d9929190614926565b60405180910390a25050565b5f60055f8381526020019081526020015f2090505f600381111561180c5761180b613b6f565b5b816005015f9054906101000a900460ff16600381111561182f5761182e613b6f565b5b1461186f576040517f08c379a000000000000000000000000000000000000000000000000000000000815260040161186690614c2e565b60405180910390fd5b5f80805f90505b8360060154811015611902573373ffffffffffffffffffffffffffffffffffffffff16846007015f8381526020019081526020015f205f015f9054906101000a900473ffffffffffffffffffffffffffffffffffffffff1673ffffffffffffffffffffffffffffffffffffffff16036118f55760019250809150611902565b8080600101915050611876565b5081611943576040517f08c379a000000000000000000000000000000000000000000000000000000000815260040161193a90614cbc565b60405180910390fd5b826007015f8281526020019081526020015f206002015f9054906101000a900460ff16156119a6576040517f08c379a000000000000000000000000000000000000000000000000000000000815260040161199d90614d24565b60405180910390fd5b6001836007015f8381526020019081526020015f206002015f6101000a81548160ff0219169083151502179055504283600b01819055503373ffffffffffffffffffffffffffffffffffffffff16847ff7a652de63da46d087a8ab25d4a13102e7a74085819fa17527271f9e5e7f9a5c856007015f8581526020019081526020015f2060010154604051611a3a9190613c8a565b60405180910390a350505050565b5f60055f8581526020019081526020015f2090505f6003811115611a6f57611a6e613b6f565b5b816005015f9054906101000a900460ff166003811115611a9257611a91613b6f565b5b14611ad2576040517f08c379a0000000000000000000000000000000000000000000000000000000008152600401611ac990614c2e565b60405180910390fd5b6003816008015410611b19576040517f08c379a0000000000000000000000000000000000000000000000000000000008152600401611b1090614d8c565b60405180910390fd5b5f82118015611b2a57506127108211155b611b69576040517f08c379a0000000000000000000000000000000000000000000000000000000008152600401611b6090614df4565b60405180910390fd5b5f8290505f5b8260080154811015611bac57826009015f8281526020019081526020015f206001015482611b9d9190614858565b91508080600101915050611b6f565b50612710811115611bf2576040517f08c379a0000000000000000000000000000000000000000000000000000000008152600401611be990614e5c565b60405180910390fd5b60405180608001604052808573ffffffffffffffffffffffffffffffffffffffff1681526020018481526020015f81526020015f1515815250826009015f846008015481526020019081526020015f205f820151815f015f6101000a81548173ffffffffffffffffffffffffffffffffffffffff021916908373ffffffffffffffffffffffffffffffffffffffff16021790555060208201518160010155604082015181600201556060820151816003015f6101000a81548160ff021916908315150217905550905050816008015f815480929190611cd090614a12565b91905055504282600b01819055506127108103611d62576001826005015f6101000a81548160ff02191690836003811115611d0e57611d0d613b6f565b5b0217905550847f2029ff33a5cefa752541f9dd453384df0d463d7c42b66cf937f5112f76d4f5458360040154846005015f9054906101000a900460ff16604051611d59929190614926565b60405180910390a25b8373ffffffffffffffffffffffffffffffffffffffff16857fc6a942827ee49928926ecf863df111a88a435f513d60ff6c606bbe1c39b5e4e185604051611da99190613c8a565b60405180910390a35050505050565b60605f80600190505b6004548111611e88575f60055f8381526020019081526020015f2090505f5b8160080154811015611e73578773ffffffffffffffffffffffffffffffffffffffff16826009015f8381526020019081526020015f205f015f9054906101000a900473ffffffffffffffffffffffffffffffffffffffff1673ffffffffffffffffffffffffffffffffffffffff1603611e66578380611e5e90614a12565b945050611e73565b8080600101915050611de0565b50508080611e8090614a12565b915050611dc1565b505f8103611ee1575f67ffffffffffffffff811115611eaa57611ea961408f565b5b604051908082528060200260200182016040528015611ed85781602001602082028036833780820191505090505b509150506120ad565b5f8490508382611ef191906148f3565b811115611f20575f8483611f0591906148f3565b11611f10575f611f1d565b8382611f1c91906148f3565b5b90505b5f8167ffffffffffffffff811115611f3b57611f3a61408f565b5b604051908082528060200260200182016040528015611f695781602001602082028036833780820191505090505b5090505f8203611f7e578093505050506120ad565b5f805f600190505b6004548111158015611f9757508483105b156120a3575f60055f8381526020019081526020015f2090505f805b826008015481101561203c578c73ffffffffffffffffffffffffffffffffffffffff16836009015f8381526020019081526020015f205f015f9054906101000a900473ffffffffffffffffffffffffffffffffffffffff1673ffffffffffffffffffffffffffffffffffffffff160361202f576001915061203c565b8080600101915050611fb3565b50801561208e578984101561205e57838061205690614a12565b94505061208d565b8286868151811061207257612071614a59565b5b602002602001018181525050848061208990614a12565b9550505b5b5050808061209b90614a12565b915050611f86565b5082955050505050505b9392505050565b5f805f8060055f8781526020019081526020015f20905080600601548510612111576040517f08c379a000000000000000000000000000000000000000000000000000000000815260040161210890614ec4565b60405180910390fd5b5f816007015f8781526020019081526020015f209050805f015f9054906101000a900473ffffffffffffffffffffffffffffffffffffffff168160010154826002015f9054906101000a900460ff1694509450945050509250925092565b5f8060055f8481526020019081526020015f2090505f5b81600601548110156121d057816007015f8281526020019081526020015f206002015f9054906101000a900460ff166121c3575f925050506121d7565b8080600101915050612186565b5060019150505b919050565b60605f80600190505b6004548111612276578573ffffffffffffffffffffffffffffffffffffffff1660055f8381526020019081526020015f206003015f9054906101000a900473ffffffffffffffffffffffffffffffffffffffff1673ffffffffffffffffffffffffffffffffffffffff160361226357818061225f90614a12565b9250505b808061226e90614a12565b9150506121e5565b505f81036122cf575f67ffffffffffffffff8111156122985761229761408f565b5b6040519080825280602002602001820160405280156122c65781602001602082028036833780820191505090505b50915050612458565b5f84905083826122df91906148f3565b81111561230e575f84836122f391906148f3565b116122fe575f61230b565b838261230a91906148f3565b5b90505b5f8167ffffffffffffffff8111156123295761232861408f565b5b6040519080825280602002602001820160405280156123575781602001602082028036833780820191505090505b5090505f820361236c57809350505050612458565b5f805f600190505b600454811115801561238557508483105b1561244e578973ffffffffffffffffffffffffffffffffffffffff1660055f8381526020019081526020015f206003015f9054906101000a900473ffffffffffffffffffffffffffffffffffffffff1673ffffffffffffffffffffffffffffffffffffffff160361243b578782101561240b57818061240390614a12565b92505061243a565b8084848151811061241f5761241e614a59565b5b602002602001018181525050828061243690614a12565b9350505b5b808061244690614a12565b915050612374565b5082955050505050505b9392505050565b60025481565b5f805f805f60055f8881526020019081526020015f209050806008015486106124c3576040517f08c379a00000000000000000000000000000000000000000000000000000000081526004016124ba90614f2c565b60405180910390fd5b5f816009015f8881526020019081526020015f209050805f015f9054906101000a900473ffffffffffffffffffffffffffffffffffffffff1681600101548260020154836003015f9054906101000a900460ff169550955095509550505092959194509250565b61253261387f565b61253b5f613906565b565b60605f80600190505b600754811161258c578560065f8381526020019081526020015f20600101540361257957818061257590614a12565b9250505b808061258490614a12565b915050612546565b505f81036125e5575f67ffffffffffffffff8111156125ae576125ad61408f565b5b6040519080825280602002602001820160405280156125dc5781602001602082028036833780820191505090505b50915050612723565b5f84905083826125f591906148f3565b811115612624575f848361260991906148f3565b11612614575f612621565b838261262091906148f3565b5b90505b5f8167ffffffffffffffff81111561263f5761263e61408f565b5b60405190808252806020026020018201604052801561266d5781602001602082028036833780820191505090505b5090505f820361268257809350505050612723565b5f805f600190505b600754811115801561269b57508483105b15612719578960065f8381526020019081526020015f20600101540361270657878210156126d65781806126ce90614a12565b925050612705565b808484815181106126ea576126e9614a59565b5b602002602001018181525050828061270190614a12565b9350505b5b808061271190614a12565b91505061268a565b5082955050505050505b9392505050565b5f805f9054906101000a900473ffffffffffffffffffffffffffffffffffffffff16905090565b60605f80600190505b60045481116127d05785600381111561277657612775613b6f565b5b60055f8381526020019081526020015f206005015f9054906101000a900460ff1660038111156127a9576127a8613b6f565b5b036127bd5781806127b990614a12565b9250505b80806127c890614a12565b91505061275a565b505f8103612829575f67ffffffffffffffff8111156127f2576127f161408f565b5b6040519080825280602002602001820160405280156128205781602001602082028036833780820191505090505b50915050612997565b5f849050838261283991906148f3565b811115612868575f848361284d91906148f3565b11612858575f612865565b838261286491906148f3565b5b90505b5f8167ffffffffffffffff8111156128835761288261408f565b5b6040519080825280602002602001820160405280156128b15781602001602082028036833780820191505090505b5090505f82036128c657809350505050612997565b5f805f600190505b60045481111580156128df57508483105b1561298d578960038111156128f7576128f6613b6f565b5b60055f8381526020019081526020015f206005015f9054906101000a900460ff16600381111561292a57612929613b6f565b5b0361297a578782101561294a57818061294290614a12565b925050612979565b8084848151811061295e5761295d614a59565b5b602002602001018181525050828061297590614a12565b9350505b5b808061298590614a12565b9150506128ce565b5082955050505050505b9392505050565b6006602052805f5260405f205f91509050805f015490806001015490806002015f9054906101000a900473ffffffffffffffffffffffffffffffffffffffff1690806003015f9054906101000a900473ffffffffffffffffffffffffffffffffffffffff1690806004015490806005015490806006018054612a1f906149e2565b80601f0160208091040260200160405190810160405280929190818152602001828054612a4b906149e2565b8015612a965780601f10612a6d57610100808354040283529160200191612a96565b820191905f5260205f20905b815481529060010190602001808311612a7957829003601f168201915b5050505050905087565b612aa861387f565b6103e8811115612aed576040517f08c379a0000000000000000000000000000000000000000000000000000000008152600401612ae490614f94565b60405180910390fd5b806003819055507f14960ebff9e4fbc7ead924642e621a388c55e6db3d20028e92770a29f9a6ac7c81604051612b239190613c8a565b60405180910390a150565b5f60055f8581526020019081526020015f209050806003015f9054906101000a900473ffffffffffffffffffffffffffffffffffffffff1673ffffffffffffffffffffffffffffffffffffffff163373ffffffffffffffffffffffffffffffffffffffff1614612bd3576040517f08c379a0000000000000000000000000000000000000000000000000000000008152600401612bca90614ffc565b60405180910390fd5b5f6003811115612be657612be5613b6f565b5b816005015f9054906101000a900460ff166003811115612c0957612c08613b6f565b5b14612c49576040517f08c379a0000000000000000000000000000000000000000000000000000000008152600401612c4090614c2e565b60405180910390fd5b82816004018190555081816001019081612c6391906151b7565b504281600b0181905550837f2029ff33a5cefa752541f9dd453384df0d463d7c42b66cf937f5112f76d4f54584836005015f9054906101000a900460ff16604051612caf929190614926565b60405180910390a250505050565b5f600754905090565b60075481565b5f805f8060055f8781526020019081526020015f20905080600801548510612d29576040517f08c379a0000000000000000000000000000000000000000000000000000000008152600401612d2090614f2c565b60405180910390fd5b5f816009015f8781526020019081526020015f20905061271081600101548360040154612d5691906147ba565b612d609190614828565b945061271060035486612d7391906147ba565b612d7d9190614828565b93508385612d8b9190614858565b925050509250925092565b60045481565b5f612da561361a565b600254341015612dea576040517f08c379a0000000000000000000000000000000000000000000000000000000008152600401612de1906152d0565b60405180910390fd5b600383511115612e2f576040517f08c379a0000000000000000000000000000000000000000000000000000000008152600401612e269061535e565b60405180910390fd5b8151835114612e73576040517f08c379a0000000000000000000000000000000000000000000000000000000008152600401612e6a906153c6565b60405180910390fd5b5f805b8351811015612eb457838181518110612e9257612e91614a59565b5b602002602001015182612ea59190614858565b91508080600101915050612e76565b50611388811115612efa576040517f08c379a0000000000000000000000000000000000000000000000000000000008152600401612ef19061542e565b60405180910390fd5b612f0261272a565b73ffffffffffffffffffffffffffffffffffffffff166108fc3490811502906040515f60405180830381858888f19350505050158015612f44573d5f803e3d5ffd5b505f60045f8154612f5490614a12565b91905081905590505f60055f8381526020019081526020015f20905081815f018190555088816001019081612f8991906151b7565b5087816002019081612f9b91906151b7565b5033816003015f6101000a81548173ffffffffffffffffffffffffffffffffffffffff021916908373ffffffffffffffffffffffffffffffffffffffff1602179055508681600401819055505f816005015f6101000a81548160ff0219169083600381111561300d5761300c613b6f565b5b0217905550855181600601819055504281600a01819055504281600b01819055505f5b865181101561313057604051806060016040528088838151811061305757613056614a59565b5b602002602001015173ffffffffffffffffffffffffffffffffffffffff16815260200187838151811061308d5761308c614a59565b5b602002602001015181526020015f1515815250826007015f8381526020019081526020015f205f820151815f015f6101000a81548173ffffffffffffffffffffffffffffffffffffffff021916908373ffffffffffffffffffffffffffffffffffffffff160217905550602082015181600101556040820151816002015f6101000a81548160ff0219169083151502179055509050508080600101915050613030565b50613173823330346040518060400160405280600781526020017f4c697374696e6700000000000000000000000000000000000000000000000000815250613669565b3373ffffffffffffffffffffffffffffffffffffffff16827f23fb658c1698b92f5fe511a079c17ecf7965cbc3f1b873328c67e2c3c0820f1f896040516131ba9190613c8a565b60405180910390a38193505050506131d0613876565b95945050505050565b6131e161387f565b5f4790505f8111613227576040517f08c379a000000000000000000000000000000000000000000000000000000000815260040161321e90615496565b60405180910390fd5b61322f61272a565b73ffffffffffffffffffffffffffffffffffffffff166108fc8290811502906040515f60405180830381858888f19350505050158015613271573d5f803e3d5ffd5b5050565b61327d61387f565b5f73ffffffffffffffffffffffffffffffffffffffff168173ffffffffffffffffffffffffffffffffffffffff16036132ed575f6040517f1e4fbdf70000000000000000000000000000000000000000000000000000000081526004016132e49190613ffb565b60405180910390fd5b6132f681613906565b50565b61330161387f565b5f8190505f8173ffffffffffffffffffffffffffffffffffffffff166370a08231306040518263ffffffff1660e01b815260040161333f9190613ffb565b602060405180830381865afa15801561335a573d5f803e3d5ffd5b505050506040513d601f19601f8201168201806040525081019061337e91906154c8565b90505f81116133c2576040517f08c379a00000000000000000000000000000000000000000000000000000000081526004016133b99061553d565b60405180910390fd5b8173ffffffffffffffffffffffffffffffffffffffff1663a9059cbb6133e661272a565b836040518363ffffffff1660e01b815260040161340492919061555b565b6020604051808303815f875af1158015613420573d5f803e3d5ffd5b505050506040513d601f19601f8201168201806040525081019061344491906155ac565b50505050565b61345261387f565b806002819055507f5fb4654f1efe30c6141eaa6855ffcb27e0b361d899b05e21b1a4d0b3e71e14db816040516134889190613c8a565b60405180910390a150565b6005602052805f5260405f205f91509050805f0154908060010180546134b8906149e2565b80601f01602080910402602001604051908101604052809291908181526020018280546134e4906149e2565b801561352f5780601f106135065761010080835404028352916020019161352f565b820191905f5260205f20905b81548152906001019060200180831161351257829003601f168201915b505050505090806002018054613544906149e2565b80601f0160208091040260200160405190810160405280929190818152602001828054613570906149e2565b80156135bb5780601f10613592576101008083540402835291602001916135bb565b820191905f5260205f20905b81548152906001019060200180831161359e57829003601f168201915b505050505090806003015f9054906101000a900473ffffffffffffffffffffffffffffffffffffffff1690806004015490806005015f9054906101000a900460ff169080600601549080600801549080600a01549080600b015490508a565b60026001540361365f576040517f08c379a000000000000000000000000000000000000000000000000000000000815260040161365690615621565b60405180910390fd5b6002600181905550565b5f60075f815461367890614a12565b91905081905590506040518060e001604052808281526020018781526020018673ffffffffffffffffffffffffffffffffffffffff1681526020018573ffffffffffffffffffffffffffffffffffffffff1681526020018481526020014281526020018381525060065f8381526020019081526020015f205f820151815f0155602082015181600101556040820151816002015f6101000a81548173ffffffffffffffffffffffffffffffffffffffff021916908373ffffffffffffffffffffffffffffffffffffffff1602179055506060820151816003015f6101000a81548173ffffffffffffffffffffffffffffffffffffffff021916908373ffffffffffffffffffffffffffffffffffffffff1602179055506080820151816004015560a0820151816005015560c08201518160060190816137b791906151b7565b50905050807ffda02462c610e439ab97d0498c3c469e7c643692b25df1b7ea76fe26f702bd19836040516137eb919061563f565b60405180910390a2505050505050565b5f805f90505f5b836008015481101561386857836009015f8281526020019081526020015f206003015f9054906101000a900460ff161561385b57836009015f8281526020019081526020015f2060010154826138589190614858565b91505b8080600101915050613802565b506127108114915050919050565b60018081905550565b6138876139c7565b73ffffffffffffffffffffffffffffffffffffffff166138a561272a565b73ffffffffffffffffffffffffffffffffffffffff1614613904576138c86139c7565b6040517f118cdaa70000000000000000000000000000000000000000000000000000000081526004016138fb9190613ffb565b60405180910390fd5b565b5f805f9054906101000a900473ffffffffffffffffffffffffffffffffffffffff169050815f806101000a81548173ffffffffffffffffffffffffffffffffffffffff021916908373ffffffffffffffffffffffffffffffffffffffff1602179055508173ffffffffffffffffffffffffffffffffffffffff168173ffffffffffffffffffffffffffffffffffffffff167f8be0079c531659141344cd1fd0a4f28419497f9722a3daafe3b4186f6b6457e060405160405180910390a35050565b5f33905090565b5f604051905090565b5f80fd5b5f80fd5b5f819050919050565b6139f1816139df565b81146139fb575f80fd5b50565b5f81359050613a0c816139e8565b92915050565b5f60208284031215613a2757613a266139d7565b5b5f613a34848285016139fe565b91505092915050565b613a46816139df565b82525050565b5f73ffffffffffffffffffffffffffffffffffffffff82169050919050565b5f613a7582613a4c565b9050919050565b613a8581613a6b565b82525050565b5f81519050919050565b5f82825260208201905092915050565b8281835e5f83830152505050565b5f601f19601f8301169050919050565b5f613acd82613a8b565b613ad78185613a95565b9350613ae7818560208601613aa5565b613af081613ab3565b840191505092915050565b5f60e082019050613b0e5f83018a613a3d565b613b1b6020830189613a3d565b613b286040830188613a7c565b613b356060830187613a7c565b613b426080830186613a3d565b613b4f60a0830185613a3d565b81810360c0830152613b618184613ac3565b905098975050505050505050565b7f4e487b71000000000000000000000000000000000000000000000000000000005f52602160045260245ffd5b60048110613bad57613bac613b6f565b5b50565b5f819050613bbd82613b9c565b919050565b5f613bcc82613bb0565b9050919050565b613bdc81613bc2565b82525050565b5f61014082019050613bf65f83018d613a3d565b8181036020830152613c08818c613ac3565b90508181036040830152613c1c818b613ac3565b9050613c2b606083018a613a7c565b613c386080830189613a3d565b613c4560a0830188613bd3565b613c5260c0830187613a3d565b613c5f60e0830186613a3d565b613c6d610100830185613a3d565b613c7b610120830184613a3d565b9b9a5050505050505050505050565b5f602082019050613c9d5f830184613a3d565b92915050565b5f608082019050613cb65f830187613a3d565b613cc36020830186613a3d565b613cd06040830185613a3d565b613cdd6060830184613a3d565b95945050505050565b5f81519050919050565b5f82825260208201905092915050565b5f819050602082019050919050565b613d18816139df565b82525050565b5f613d298383613d0f565b60208301905092915050565b5f602082019050919050565b5f613d4b82613ce6565b613d558185613cf0565b9350613d6083613d00565b805f5b83811015613d90578151613d778882613d1e565b9750613d8283613d35565b925050600181019050613d63565b5085935050505092915050565b5f6020820190508181035f830152613db58184613d41565b905092915050565b5f613dc782613a4c565b9050919050565b613dd781613dbd565b8114613de1575f80fd5b50565b5f81359050613df281613dce565b92915050565b5f805f60608486031215613e0f57613e0e6139d7565b5b5f613e1c868287016139fe565b9350506020613e2d86828701613de4565b9250506040613e3e868287016139fe565b9150509250925092565b613e5181613a6b565b8114613e5b575f80fd5b50565b5f81359050613e6c81613e48565b92915050565b5f805f60608486031215613e8957613e886139d7565b5b5f613e9686828701613e5e565b9350506020613ea7868287016139fe565b9250506040613eb8868287016139fe565b9150509250925092565b5f8060408385031215613ed857613ed76139d7565b5b5f613ee5858286016139fe565b9250506020613ef6858286016139fe565b9150509250929050565b5f8115159050919050565b613f1481613f00565b82525050565b5f606082019050613f2d5f830186613a7c565b613f3a6020830185613a3d565b613f476040830184613f0b565b949350505050565b5f602082019050613f625f830184613f0b565b92915050565b5f608082019050613f7b5f830187613a7c565b613f886020830186613a3d565b613f956040830185613a3d565b613fa26060830184613f0b565b95945050505050565b5f805f60608486031215613fc257613fc16139d7565b5b5f613fcf868287016139fe565b9350506020613fe0868287016139fe565b9250506040613ff1868287016139fe565b9150509250925092565b5f60208201905061400e5f830184613a7c565b92915050565b60048110614020575f80fd5b50565b5f8135905061403181614014565b92915050565b5f805f6060848603121561404e5761404d6139d7565b5b5f61405b86828701614023565b935050602061406c868287016139fe565b925050604061407d868287016139fe565b9150509250925092565b5f80fd5b5f80fd5b7f4e487b71000000000000000000000000000000000000000000000000000000005f52604160045260245ffd5b6140c582613ab3565b810181811067ffffffffffffffff821117156140e4576140e361408f565b5b80604052505050565b5f6140f66139ce565b905061410282826140bc565b919050565b5f67ffffffffffffffff8211156141215761412061408f565b5b61412a82613ab3565b9050602081019050919050565b828183375f83830152505050565b5f61415761415284614107565b6140ed565b9050828152602081018484840111156141735761417261408b565b5b61417e848285614137565b509392505050565b5f82601f83011261419a57614199614087565b5b81356141aa848260208601614145565b91505092915050565b5f805f606084860312156141ca576141c96139d7565b5b5f6141d7868287016139fe565b93505060206141e8868287016139fe565b925050604084013567ffffffffffffffff811115614209576142086139db565b5b61421586828701614186565b9150509250925092565b5f6060820190506142325f830186613a3d565b61423f6020830185613a3d565b61424c6040830184613a3d565b949350505050565b5f67ffffffffffffffff82111561426e5761426d61408f565b5b602082029050602081019050919050565b5f80fd5b5f61429561429084614254565b6140ed565b905080838252602082019050602084028301858111156142b8576142b761427f565b5b835b818110156142e157806142cd8882613de4565b8452602084019350506020810190506142ba565b5050509392505050565b5f82601f8301126142ff576142fe614087565b5b813561430f848260208601614283565b91505092915050565b5f67ffffffffffffffff8211156143325761433161408f565b5b602082029050602081019050919050565b5f61435561435084614318565b6140ed565b905080838252602082019050602084028301858111156143785761437761427f565b5b835b818110156143a1578061438d88826139fe565b84526020840193505060208101905061437a565b5050509392505050565b5f82601f8301126143bf576143be614087565b5b81356143cf848260208601614343565b91505092915050565b5f805f805f60a086880312156143f1576143f06139d7565b5b5f86013567ffffffffffffffff81111561440e5761440d6139db565b5b61441a88828901614186565b955050602086013567ffffffffffffffff81111561443b5761443a6139db565b5b61444788828901614186565b9450506040614458888289016139fe565b935050606086013567ffffffffffffffff811115614479576144786139db565b5b614485888289016142eb565b925050608086013567ffffffffffffffff8111156144a6576144a56139db565b5b6144b2888289016143ab565b9150509295509295909350565b5f602082840312156144d4576144d36139d7565b5b5f6144e184828501613e5e565b91505092915050565b6144f381613dbd565b82525050565b5f6101408201905061450d5f83018d613a3d565b818103602083015261451f818c613ac3565b90508181036040830152614533818b613ac3565b9050614542606083018a6144ea565b61454f6080830189613a3d565b61455c60a0830188613bd3565b61456960c0830187613a3d565b61457660e0830186613a3d565b614584610100830185613a3d565b614592610120830184613a3d565b9b9a5050505050505050505050565b7f50726f7065727479206e6f7420617661696c61626c6520666f722070757263685f8201527f6173650000000000000000000000000000000000000000000000000000000000602082015250565b5f6145fb602383613a95565b9150614606826145a1565b604082019050919050565b5f6020820190508181035f830152614628816145ef565b9050919050565b7f4e6f74206120627579657220666f7220746869732070726f70657274790000005f82015250565b5f614663601d83613a95565b915061466e8261462f565b602082019050919050565b5f6020820190508181035f83015261469081614657565b9050919050565b7f416c7265616479207061696400000000000000000000000000000000000000005f82015250565b5f6146cb600c83613a95565b91506146d682614697565b602082019050919050565b5f6020820190508181035f8301526146f8816146bf565b9050919050565b7f4e6f7420616c6c20726f79616c747920686f6c646572732068617665206170705f8201527f726f766564000000000000000000000000000000000000000000000000000000602082015250565b5f614759602583613a95565b9150614764826146ff565b604082019050919050565b5f6020820190508181035f8301526147868161474d565b9050919050565b7f4e487b71000000000000000000000000000000000000000000000000000000005f52601160045260245ffd5b5f6147c4826139df565b91506147cf836139df565b92508282026147dd816139df565b915082820484148315176147f4576147f361478d565b5b5092915050565b7f4e487b71000000000000000000000000000000000000000000000000000000005f52601260045260245ffd5b5f614832826139df565b915061483d836139df565b92508261484d5761484c6147fb565b5b828204905092915050565b5f614862826139df565b915061486d836139df565b92508282019050808211156148855761488461478d565b5b92915050565b7f496e73756666696369656e74207061796d656e740000000000000000000000005f82015250565b5f6148bf601483613a95565b91506148ca8261488b565b602082019050919050565b5f6020820190508181035f8301526148ec816148b3565b9050919050565b5f6148fd826139df565b9150614908836139df565b92508282039050818111156149205761491f61478d565b5b92915050565b5f6040820190506149395f830185613a3d565b6149466020830184613bd3565b9392505050565b7f5472616e73616374696f6e20646f6573206e6f742065786973740000000000005f82015250565b5f614981601a83613a95565b915061498c8261494d565b602082019050919050565b5f6020820190508181035f8301526149ae81614975565b9050919050565b7f4e487b71000000000000000000000000000000000000000000000000000000005f52602260045260245ffd5b5f60028204905060018216806149f957607f821691505b602082108103614a0c57614a0b6149b5565b5b50919050565b5f614a1c826139df565b91507fffffffffffffffffffffffffffffffffffffffffffffffffffffffffffffffff8203614a4e57614a4d61478d565b5b600182019050919050565b7f4e487b71000000000000000000000000000000000000000000000000000000005f52603260045260245ffd5b7f4f6e6c79206f776e6572206f722061646d696e2063616e2063616e63656c00005f82015250565b5f614aba601e83613a95565b9150614ac582614a86565b602082019050919050565b5f6020820190508181035f830152614ae781614aae565b9050919050565b7f50726f7065727479206e6f7420696e20636f72726563742073746174650000005f82015250565b5f614b22601d83613a95565b9150614b2d82614aee565b602082019050919050565b5f6020820190508181035f830152614b4f81614b16565b9050919050565b7f43616e6e6f742063616e63656c3a20627579657273206861766520616c7265615f8201527f6479207061696400000000000000000000000000000000000000000000000000602082015250565b5f614bb0602783613a95565b9150614bbb82614b56565b604082019050919050565b5f6020820190508181035f830152614bdd81614ba4565b9050919050565b7f50726f7065727479206e6f74206c6973746564000000000000000000000000005f82015250565b5f614c18601383613a95565b9150614c2382614be4565b602082019050919050565b5f6020820190508181035f830152614c4581614c0c565b9050919050565b7f4e6f74206120726f79616c747920686f6c64657220666f7220746869732070725f8201527f6f70657274790000000000000000000000000000000000000000000000000000602082015250565b5f614ca6602683613a95565b9150614cb182614c4c565b604082019050919050565b5f6020820190508181035f830152614cd381614c9a565b9050919050565b7f416c726561647920617070726f766564000000000000000000000000000000005f82015250565b5f614d0e601083613a95565b9150614d1982614cda565b602082019050919050565b5f6020820190508181035f830152614d3b81614d02565b9050919050565b7f4d6178696d756d20332062757965727320616c6c6f77656400000000000000005f82015250565b5f614d76601883613a95565b9150614d8182614d42565b602082019050919050565b5f6020820190508181035f830152614da381614d6a565b9050919050565b7f496e76616c69642073686172652070657263656e7461676500000000000000005f82015250565b5f614dde601883613a95565b9150614de982614daa565b602082019050919050565b5f6020820190508181035f830152614e0b81614dd2565b9050919050565b7f546f74616c2073686172652063616e6e6f7420657863656564203130302500005f82015250565b5f614e46601e83613a95565b9150614e5182614e12565b602082019050919050565b5f6020820190508181035f830152614e7381614e3a565b9050919050565b7f496e76616c696420686f6c64657220696e6465780000000000000000000000005f82015250565b5f614eae601483613a95565b9150614eb982614e7a565b602082019050919050565b5f6020820190508181035f830152614edb81614ea2565b9050919050565b7f496e76616c696420627579657220696e646578000000000000000000000000005f82015250565b5f614f16601383613a95565b9150614f2182614ee2565b602082019050919050565b5f6020820190508181035f830152614f4381614f0a565b9050919050565b7f4665652063616e6e6f74206578636565642031302500000000000000000000005f82015250565b5f614f7e601583613a95565b9150614f8982614f4a565b602082019050919050565b5f6020820190508181035f830152614fab81614f72565b9050919050565b7f4f6e6c79206f776e65722063616e207570646174652070726f706572747900005f82015250565b5f614fe6601e83613a95565b9150614ff182614fb2565b602082019050919050565b5f6020820190508181035f83015261501381614fda565b9050919050565b5f819050815f5260205f209050919050565b5f6020601f8301049050919050565b5f82821b905092915050565b5f600883026150767fffffffffffffffffffffffffffffffffffffffffffffffffffffffffffffffff8261503b565b615080868361503b565b95508019841693508086168417925050509392505050565b5f819050919050565b5f6150bb6150b66150b1846139df565b615098565b6139df565b9050919050565b5f819050919050565b6150d4836150a1565b6150e86150e0826150c2565b848454615047565b825550505050565b5f90565b6150fc6150f0565b6151078184846150cb565b505050565b5b8181101561512a5761511f5f826150f4565b60018101905061510d565b5050565b601f82111561516f576151408161501a565b6151498461502c565b81016020851015615158578190505b61516c6151648561502c565b83018261510c565b50505b505050565b5f82821c905092915050565b5f61518f5f1984600802615174565b1980831691505092915050565b5f6151a78383615180565b9150826002028217905092915050565b6151c082613a8b565b67ffffffffffffffff8111156151d9576151d861408f565b5b6151e382546149e2565b6151ee82828561512e565b5f60209050601f83116001811461521f575f841561520d578287015190505b615217858261519c565b86555061527e565b601f19841661522d8661501a565b5f5b828110156152545784890151825560018201915060208501945060208101905061522f565b86831015615271578489015161526d601f891682615180565b8355505b6001600288020188555050505b505050505050565b7f4c697374696e6720666565206e6f742070726f766964656400000000000000005f82015250565b5f6152ba601883613a95565b91506152c582615286565b602082019050919050565b5f6020820190508181035f8301526152e7816152ae565b9050919050565b7f4d6178696d756d203320726f79616c747920686f6c6465727320616c6c6f77655f8201527f6400000000000000000000000000000000000000000000000000000000000000602082015250565b5f615348602183613a95565b9150615353826152ee565b604082019050919050565b5f6020820190508181035f8301526153758161533c565b9050919050565b7f4172726179206c656e677468206d69736d6174636800000000000000000000005f82015250565b5f6153b0601583613a95565b91506153bb8261537c565b602082019050919050565b5f6020820190508181035f8301526153dd816153a4565b9050919050565b7f546f74616c20726f79616c74792063616e6e6f742065786365656420353025005f82015250565b5f615418601f83613a95565b9150615423826153e4565b602082019050919050565b5f6020820190508181035f8301526154458161540c565b9050919050565b7f4e6f2045544820746f20776974686472617700000000000000000000000000005f82015250565b5f615480601283613a95565b915061548b8261544c565b602082019050919050565b5f6020820190508181035f8301526154ad81615474565b9050919050565b5f815190506154c2816139e8565b92915050565b5f602082840312156154dd576154dc6139d7565b5b5f6154ea848285016154b4565b91505092915050565b7f4e6f20746f6b656e7320746f20776974686472617700000000000000000000005f82015250565b5f615527601583613a95565b9150615532826154f3565b602082019050919050565b5f6020820190508181035f8301526155548161551b565b9050919050565b5f60408201905061556e5f830185613a7c565b61557b6020830184613a3d565b9392505050565b61558b81613f00565b8114615595575f80fd5b50565b5f815190506155a681615582565b92915050565b5f602082840312156155c1576155c06139d7565b5b5f6155ce84828501615598565b91505092915050565b7f5265656e7472616e637947756172643a207265656e7472616e742063616c6c005f82015250565b5f61560b601f83613a95565b9150615616826155d7565b602082019050919050565b5f6020820190508181035f830152615638816155ff565b9050919050565b5f6020820190508181035f8301526156578184613ac3565b90509291505056fea2646970667358221220da27712a89728750999cb3eba8ee93534b62080fdb7718f4f486eec2c2e53c5064736f6c634300081a0033",
			"opcodes": "PUSH1 0x80 PUSH1 0x40 MSTORE CALLVALUE DUP1 ISZERO PUSH2 0xF JUMPI PUSH0 DUP1 REVERT JUMPDEST POP PUSH1 0x40 MLOAD PUSH2 0x590C CODESIZE SUB DUP1 PUSH2 0x590C DUP4 CODECOPY DUP2 DUP2 ADD PUSH1 0x40 MSTORE DUP2 ADD SWAP1 PUSH2 0x31 SWAP2 SWAP1 PUSH2 0x1D4 JUMP JUMPDEST CALLER PUSH0 PUSH20 0xFFFFFFFFFFFFFFFFFFFFFFFFFFFFFFFFFFFFFFFF AND DUP2 PUSH20 0xFFFFFFFFFFFFFFFFFFFFFFFFFFFFFFFFFFFFFFFF AND SUB PUSH2 0xA2 JUMPI PUSH0 PUSH1 0x40 MLOAD PUSH32 0x1E4FBDF700000000000000000000000000000000000000000000000000000000 DUP2 MSTORE PUSH1 0x4 ADD PUSH2 0x99 SWAP2 SWAP1 PUSH2 0x251 JUMP JUMPDEST PUSH1 0x40 MLOAD DUP1 SWAP2 SUB SWAP1 REVERT JUMPDEST PUSH2 0xB1 DUP2 PUSH2 0xDC PUSH1 0x20 SHL PUSH1 0x20 SHR JUMP JUMPDEST POP PUSH1 0x1 DUP1 DUP2 SWAP1 SSTORE POP DUP2 PUSH1 0x2 DUP2 SWAP1 SSTORE POP DUP1 PUSH1 0x3 DUP2 SWAP1 SSTORE POP PUSH0 PUSH1 0x4 DUP2 SWAP1 SSTORE POP PUSH0 PUSH1 0x7 DUP2 SWAP1 SSTORE POP POP POP PUSH2 0x26A JUMP JUMPDEST PUSH0 DUP1 PUSH0 SWAP1 SLOAD SWAP1 PUSH2 0x100 EXP SWAP1 DIV PUSH20 0xFFFFFFFFFFFFFFFFFFFFFFFFFFFFFFFFFFFFFFFF AND SWAP1 POP DUP2 PUSH0 DUP1 PUSH2 0x100 EXP DUP2 SLOAD DUP2 PUSH20 0xFFFFFFFFFFFFFFFFFFFFFFFFFFFFFFFFFFFFFFFF MUL NOT AND SWAP1 DUP4 PUSH20 0xFFFFFFFFFFFFFFFFFFFFFFFFFFFFFFFFFFFFFFFF AND MUL OR SWAP1 SSTORE POP DUP2 PUSH20 0xFFFFFFFFFFFFFFFFFFFFFFFFFFFFFFFFFFFFFFFF AND DUP2 PUSH20 0xFFFFFFFFFFFFFFFFFFFFFFFFFFFFFFFFFFFFFFFF AND PUSH32 0x8BE0079C531659141344CD1FD0A4F28419497F9722A3DAAFE3B4186F6B6457E0 PUSH1 0x40 MLOAD PUSH1 0x40 MLOAD DUP1 SWAP2 SUB SWAP1 LOG3 POP POP JUMP JUMPDEST PUSH0 DUP1 REVERT JUMPDEST PUSH0 DUP2 SWAP1 POP SWAP2 SWAP1 POP JUMP JUMPDEST PUSH2 0x1B3 DUP2 PUSH2 0x1A1 JUMP JUMPDEST DUP2 EQ PUSH2 0x1BD JUMPI PUSH0 DUP1 REVERT JUMPDEST POP JUMP JUMPDEST PUSH0 DUP2 MLOAD SWAP1 POP PUSH2 0x1CE DUP2 PUSH2 0x1AA JUMP JUMPDEST SWAP3 SWAP2 POP POP JUMP JUMPDEST PUSH0 DUP1 PUSH1 0x40 DUP4 DUP6 SUB SLT ISZERO PUSH2 0x1EA JUMPI PUSH2 0x1E9 PUSH2 0x19D JUMP JUMPDEST JUMPDEST PUSH0 PUSH2 0x1F7 DUP6 DUP3 DUP7 ADD PUSH2 0x1C0 JUMP JUMPDEST SWAP3 POP POP PUSH1 0x20 PUSH2 0x208 DUP6 DUP3 DUP7 ADD PUSH2 0x1C0 JUMP JUMPDEST SWAP2 POP POP SWAP3 POP SWAP3 SWAP1 POP JUMP JUMPDEST PUSH0 PUSH20 0xFFFFFFFFFFFFFFFFFFFFFFFFFFFFFFFFFFFFFFFF DUP3 AND SWAP1 POP SWAP2 SWAP1 POP JUMP JUMPDEST PUSH0 PUSH2 0x23B DUP3 PUSH2 0x212 JUMP JUMPDEST SWAP1 POP SWAP2 SWAP1 POP JUMP JUMPDEST PUSH2 0x24B DUP2 PUSH2 0x231 JUMP JUMPDEST DUP3 MSTORE POP POP JUMP JUMPDEST PUSH0 PUSH1 0x20 DUP3 ADD SWAP1 POP PUSH2 0x264 PUSH0 DUP4 ADD DUP5 PUSH2 0x242 JUMP JUMPDEST SWAP3 SWAP2 POP POP JUMP JUMPDEST PUSH2 0x5695 DUP1 PUSH2 0x277 PUSH0 CODECOPY PUSH0 RETURN INVALID PUSH1 0x80 PUSH1 0x40 MSTORE PUSH1 0x4 CALLDATASIZE LT PUSH2 0x1ED JUMPI PUSH0 CALLDATALOAD PUSH1 0xE0 SHR DUP1 PUSH4 0x715018A6 GT PUSH2 0x10C JUMPI DUP1 PUSH4 0xB77BF600 GT PUSH2 0x9F JUMPI DUP1 PUSH4 0xE086E5EC GT PUSH2 0x6E JUMPI DUP1 PUSH4 0xE086E5EC EQ PUSH2 0x75A JUMPI DUP1 PUSH4 0xF2FDE38B EQ PUSH2 0x770 JUMPI DUP1 PUSH4 0xF4F3B200 EQ PUSH2 0x798 JUMPI DUP1 PUSH4 0xF79D91AE EQ PUSH2 0x7C0 JUMPI DUP1 PUSH4 0xF7B10808 EQ PUSH2 0x7E8 JUMPI PUSH2 0x1ED JUMP JUMPDEST DUP1 PUSH4 0xB77BF600 EQ PUSH2 0x698 JUMPI DUP1 PUSH4 0xBAFADC3C EQ PUSH2 0x6C2 JUMPI DUP1 PUSH4 0xC361A335 EQ PUSH2 0x700 JUMPI DUP1 PUSH4 0xD78AE22F EQ PUSH2 0x72A JUMPI PUSH2 0x1ED JUMP JUMPDEST DUP1 PUSH4 0x9ACE38C2 GT PUSH2 0xDB JUMPI DUP1 PUSH4 0x9ACE38C2 EQ PUSH2 0x5DC JUMPI DUP1 PUSH4 0x9CA1F363 EQ PUSH2 0x61E JUMPI DUP1 PUSH4 0xA9059BE5 EQ PUSH2 0x646 JUMPI DUP1 PUSH4 0xB5C604FF EQ PUSH2 0x66E JUMPI PUSH2 0x1ED JUMP JUMPDEST DUP1 PUSH4 0x715018A6 EQ PUSH2 0x524 JUMPI DUP1 PUSH4 0x7EFF2769 EQ PUSH2 0x53A JUMPI DUP1 PUSH4 0x8DA5CB5B EQ PUSH2 0x576 JUMPI DUP1 PUSH4 0x90CAD32F EQ PUSH2 0x5A0 JUMPI PUSH2 0x1ED JUMP JUMPDEST DUP1 PUSH4 0x3E3EA547 GT PUSH2 0x184 JUMPI DUP1 PUSH4 0x572F5EED GT PUSH2 0x153 JUMPI DUP1 PUSH4 0x572F5EED EQ PUSH2 0x443 JUMPI DUP1 PUSH4 0x635E49E5 EQ PUSH2 0x47F JUMPI DUP1 PUSH4 0x6A1B7ECC EQ PUSH2 0x4BB JUMPI DUP1 PUSH4 0x70E14734 EQ PUSH2 0x4E5 JUMPI PUSH2 0x1ED JUMP JUMPDEST DUP1 PUSH4 0x3E3EA547 EQ PUSH2 0x379 JUMPI DUP1 PUSH4 0x4E9798C3 EQ PUSH2 0x3A1 JUMPI DUP1 PUSH4 0x53BCB3DB EQ PUSH2 0x3C9 JUMPI DUP1 PUSH4 0x547EE4AC EQ PUSH2 0x405 JUMPI PUSH2 0x1ED JUMP JUMPDEST DUP1 PUSH4 0x17AAF5ED GT PUSH2 0x1C0 JUMPI DUP1 PUSH4 0x17AAF5ED EQ PUSH2 0x2BE JUMPI DUP1 PUSH4 0x18089A0C EQ PUSH2 0x2E8 JUMPI DUP1 PUSH4 0x27CC8B5D EQ PUSH2 0x315 JUMPI DUP1 PUSH4 0x305A67A8 EQ PUSH2 0x351 JUMPI PUSH2 0x1ED JUMP JUMPDEST DUP1 PUSH4 0x6EA4E6A EQ PUSH2 0x1F1 JUMPI DUP1 PUSH4 0xFA683D3 EQ PUSH2 0x20D JUMPI DUP1 PUSH4 0x126DBE43 EQ PUSH2 0x24F JUMPI DUP1 PUSH4 0x14B5E981 EQ PUSH2 0x294 JUMPI JUMPDEST PUSH0 DUP1 REVERT JUMPDEST PUSH2 0x20B PUSH1 0x4 DUP1 CALLDATASIZE SUB DUP2 ADD SWAP1 PUSH2 0x206 SWAP2 SWAP1 PUSH2 0x3A12 JUMP JUMPDEST PUSH2 0x82D JUMP JUMPDEST STOP JUMPDEST CALLVALUE DUP1 ISZERO PUSH2 0x218 JUMPI PUSH0 DUP1 REVERT JUMPDEST POP PUSH2 0x233 PUSH1 0x4 DUP1 CALLDATASIZE SUB DUP2 ADD SWAP1 PUSH2 0x22E SWAP2 SWAP1 PUSH2 0x3A12 JUMP JUMPDEST PUSH2 0x108C JUMP JUMPDEST PUSH1 0x40 MLOAD PUSH2 0x246 SWAP8 SWAP7 SWAP6 SWAP5 SWAP4 SWAP3 SWAP2 SWAP1 PUSH2 0x3AFB JUMP JUMPDEST PUSH1 0x40 MLOAD DUP1 SWAP2 SUB SWAP1 RETURN JUMPDEST CALLVALUE DUP1 ISZERO PUSH2 0x25A JUMPI PUSH0 DUP1 REVERT JUMPDEST POP PUSH2 0x275 PUSH1 0x4 DUP1 CALLDATASIZE SUB DUP2 ADD SWAP1 PUSH2 0x270 SWAP2 SWAP1 PUSH2 0x3A12 JUMP JUMPDEST PUSH2 0x11F0 JUMP JUMPDEST PUSH1 0x40 MLOAD PUSH2 0x28B SWAP11 SWAP10 SWAP9 SWAP8 SWAP7 SWAP6 SWAP5 SWAP4 SWAP3 SWAP2 SWAP1 PUSH2 0x3BE2 JUMP JUMPDEST PUSH1 0x40 MLOAD DUP1 SWAP2 SUB SWAP1 RETURN JUMPDEST CALLVALUE DUP1 ISZERO PUSH2 0x29F JUMPI PUSH0 DUP1 REVERT JUMPDEST POP PUSH2 0x2A8 PUSH2 0x139F JUMP JUMPDEST PUSH1 0x40 MLOAD PUSH2 0x2B5 SWAP2 SWAP1 PUSH2 0x3C8A JUMP JUMPDEST PUSH1 0x40 MLOAD DUP1 SWAP2 SUB SWAP1 RETURN JUMPDEST CALLVALUE DUP1 ISZERO PUSH2 0x2C9 JUMPI PUSH0 DUP1 REVERT JUMPDEST POP PUSH2 0x2D2 PUSH2 0x13A5 JUMP JUMPDEST PUSH1 0x40 MLOAD PUSH2 0x2DF SWAP2 SWAP1 PUSH2 0x3C8A JUMP JUMPDEST PUSH1 0x40 MLOAD DUP1 SWAP2 SUB SWAP1 RETURN JUMPDEST CALLVALUE DUP1 ISZERO PUSH2 0x2F3 JUMPI PUSH0 DUP1 REVERT JUMPDEST POP PUSH2 0x2FC PUSH2 0x13AE JUMP JUMPDEST PUSH1 0x40 MLOAD PUSH2 0x30C SWAP5 SWAP4 SWAP3 SWAP2 SWAP1 PUSH2 0x3CA3 JUMP JUMPDEST PUSH1 0x40 MLOAD DUP1 SWAP2 SUB SWAP1 RETURN JUMPDEST CALLVALUE DUP1 ISZERO PUSH2 0x320 JUMPI PUSH0 DUP1 REVERT JUMPDEST POP PUSH2 0x33B PUSH1 0x4 DUP1 CALLDATASIZE SUB DUP2 ADD SWAP1 PUSH2 0x336 SWAP2 SWAP1 PUSH2 0x3A12 JUMP JUMPDEST PUSH2 0x14A9 JUMP JUMPDEST PUSH1 0x40 MLOAD PUSH2 0x348 SWAP2 SWAP1 PUSH2 0x3D9D JUMP JUMPDEST PUSH1 0x40 MLOAD DUP1 SWAP2 SUB SWAP1 RETURN JUMPDEST CALLVALUE DUP1 ISZERO PUSH2 0x35C JUMPI PUSH0 DUP1 REVERT JUMPDEST POP PUSH2 0x377 PUSH1 0x4 DUP1 CALLDATASIZE SUB DUP2 ADD SWAP1 PUSH2 0x372 SWAP2 SWAP1 PUSH2 0x3A12 JUMP JUMPDEST PUSH2 0x1587 JUMP JUMPDEST STOP JUMPDEST CALLVALUE DUP1 ISZERO PUSH2 0x384 JUMPI PUSH0 DUP1 REVERT JUMPDEST POP PUSH2 0x39F PUSH1 0x4 DUP1 CALLDATASIZE SUB DUP2 ADD SWAP1 PUSH2 0x39A SWAP2 SWAP1 PUSH2 0x3A12 JUMP JUMPDEST PUSH2 0x17E5 JUMP JUMPDEST STOP JUMPDEST CALLVALUE DUP1 ISZERO PUSH2 0x3AC JUMPI PUSH0 DUP1 REVERT JUMPDEST POP PUSH2 0x3C7 PUSH1 0x4 DUP1 CALLDATASIZE SUB DUP2 ADD SWAP1 PUSH2 0x3C2 SWAP2 SWAP1 PUSH2 0x3DF8 JUMP JUMPDEST PUSH2 0x1A48 JUMP JUMPDEST STOP JUMPDEST CALLVALUE DUP1 ISZERO PUSH2 0x3D4 JUMPI PUSH0 DUP1 REVERT JUMPDEST POP PUSH2 0x3EF PUSH1 0x4 DUP1 CALLDATASIZE SUB DUP2 ADD SWAP1 PUSH2 0x3EA SWAP2 SWAP1 PUSH2 0x3E72 JUMP JUMPDEST PUSH2 0x1DB8 JUMP JUMPDEST PUSH1 0x40 MLOAD PUSH2 0x3FC SWAP2 SWAP1 PUSH2 0x3D9D JUMP JUMPDEST PUSH1 0x40 MLOAD DUP1 SWAP2 SUB SWAP1 RETURN JUMPDEST CALLVALUE DUP1 ISZERO PUSH2 0x410 JUMPI PUSH0 DUP1 REVERT JUMPDEST POP PUSH2 0x42B PUSH1 0x4 DUP1 CALLDATASIZE SUB DUP2 ADD SWAP1 PUSH2 0x426 SWAP2 SWAP1 PUSH2 0x3EC2 JUMP JUMPDEST PUSH2 0x20B4 JUMP JUMPDEST PUSH1 0x40 MLOAD PUSH2 0x43A SWAP4 SWAP3 SWAP2 SWAP1 PUSH2 0x3F1A JUMP JUMPDEST PUSH1 0x40 MLOAD DUP1 SWAP2 SUB SWAP1 RETURN JUMPDEST CALLVALUE DUP1 ISZERO PUSH2 0x44E JUMPI PUSH0 DUP1 REVERT JUMPDEST POP PUSH2 0x469 PUSH1 0x4 DUP1 CALLDATASIZE SUB DUP2 ADD SWAP1 PUSH2 0x464 SWAP2 SWAP1 PUSH2 0x3A12 JUMP JUMPDEST PUSH2 0x216F JUMP JUMPDEST PUSH1 0x40 MLOAD PUSH2 0x476 SWAP2 SWAP1 PUSH2 0x3F4F JUMP JUMPDEST PUSH1 0x40 MLOAD DUP1 SWAP2 SUB SWAP1 RETURN JUMPDEST CALLVALUE DUP1 ISZERO PUSH2 0x48A JUMPI PUSH0 DUP1 REVERT JUMPDEST POP PUSH2 0x4A5 PUSH1 0x4 DUP1 CALLDATASIZE SUB DUP2 ADD SWAP1 PUSH2 0x4A0 SWAP2 SWAP1 PUSH2 0x3E72 JUMP JUMPDEST PUSH2 0x21DC JUMP JUMPDEST PUSH1 0x40 MLOAD PUSH2 0x4B2 SWAP2 SWAP1 PUSH2 0x3D9D JUMP JUMPDEST PUSH1 0x40 MLOAD DUP1 SWAP2 SUB SWAP1 RETURN JUMPDEST CALLVALUE DUP1 ISZERO PUSH2 0x4C6 JUMPI PUSH0 DUP1 REVERT JUMPDEST POP PUSH2 0x4CF PUSH2 0x245F JUMP JUMPDEST PUSH1 0x40 MLOAD PUSH2 0x4DC SWAP2 SWAP1 PUSH2 0x3C8A JUMP JUMPDEST PUSH1 0x40 MLOAD DUP1 SWAP2 SUB SWAP1 RETURN JUMPDEST CALLVALUE DUP1 ISZERO PUSH2 0x4F0 JUMPI PUSH0 DUP1 REVERT JUMPDEST POP PUSH2 0x50B PUSH1 0x4 DUP1 CALLDATASIZE SUB DUP2 ADD SWAP1 PUSH2 0x506 SWAP2 SWAP1 PUSH2 0x3EC2 JUMP JUMPDEST PUSH2 0x2465 JUMP JUMPDEST PUSH1 0x40 MLOAD PUSH2 0x51B SWAP5 SWAP4 SWAP3 SWAP2 SWAP1 PUSH2 0x3F68 JUMP JUMPDEST PUSH1 0x40 MLOAD DUP1 SWAP2 SUB SWAP1 RETURN JUMPDEST CALLVALUE DUP1 ISZERO PUSH2 0x52F JUMPI PUSH0 DUP1 REVERT JUMPDEST POP PUSH2 0x538 PUSH2 0x252A JUMP JUMPDEST STOP JUMPDEST CALLVALUE DUP1 ISZERO PUSH2 0x545 JUMPI PUSH0 DUP1 REVERT JUMPDEST POP PUSH2 0x560 PUSH1 0x4 DUP1 CALLDATASIZE SUB DUP2 ADD SWAP1 PUSH2 0x55B SWAP2 SWAP1 PUSH2 0x3FAB JUMP JUMPDEST PUSH2 0x253D JUMP JUMPDEST PUSH1 0x40 MLOAD PUSH2 0x56D SWAP2 SWAP1 PUSH2 0x3D9D JUMP JUMPDEST PUSH1 0x40 MLOAD DUP1 SWAP2 SUB SWAP1 RETURN JUMPDEST CALLVALUE DUP1 ISZERO PUSH2 0x581 JUMPI PUSH0 DUP1 REVERT JUMPDEST POP PUSH2 0x58A PUSH2 0x272A JUMP JUMPDEST PUSH1 0x40 MLOAD PUSH2 0x597 SWAP2 SWAP1 PUSH2 0x3FFB JUMP JUMPDEST PUSH1 0x40 MLOAD DUP1 SWAP2 SUB SWAP1 RETURN JUMPDEST CALLVALUE DUP1 ISZERO PUSH2 0x5AB JUMPI PUSH0 DUP1 REVERT JUMPDEST POP PUSH2 0x5C6 PUSH1 0x4 DUP1 CALLDATASIZE SUB DUP2 ADD SWAP1 PUSH2 0x5C1 SWAP2 SWAP1 PUSH2 0x4037 JUMP JUMPDEST PUSH2 0x2751 JUMP JUMPDEST PUSH1 0x40 MLOAD PUSH2 0x5D3 SWAP2 SWAP1 PUSH2 0x3D9D JUMP JUMPDEST PUSH1 0x40 MLOAD DUP1 SWAP2 SUB SWAP1 RETURN JUMPDEST CALLVALUE DUP1 ISZERO PUSH2 0x5E7 JUMPI PUSH0 DUP1 REVERT JUMPDEST POP PUSH2 0x602 PUSH1 0x4 DUP1 CALLDATASIZE SUB DUP2 ADD SWAP1 PUSH2 0x5FD SWAP2 SWAP1 PUSH2 0x3A12 JUMP JUMPDEST PUSH2 0x299E JUMP JUMPDEST PUSH1 0x40 MLOAD PUSH2 0x615 SWAP8 SWAP7 SWAP6 SWAP5 SWAP4 SWAP3 SWAP2 SWAP1 PUSH2 0x3AFB JUMP JUMPDEST PUSH1 0x40 MLOAD DUP1 SWAP2 SUB SWAP1 RETURN JUMPDEST CALLVALUE DUP1 ISZERO PUSH2 0x629 JUMPI PUSH0 DUP1 REVERT JUMPDEST POP PUSH2 0x644 PUSH1 0x4 DUP1 CALLDATASIZE SUB DUP2 ADD SWAP1 PUSH2 0x63F SWAP2 SWAP1 PUSH2 0x3A12 JUMP JUMPDEST PUSH2 0x2AA0 JUMP JUMPDEST STOP JUMPDEST CALLVALUE DUP1 ISZERO PUSH2 0x651 JUMPI PUSH0 DUP1 REVERT JUMPDEST POP PUSH2 0x66C PUSH1 0x4 DUP1 CALLDATASIZE SUB DUP2 ADD SWAP1 PUSH2 0x667 SWAP2 SWAP1 PUSH2 0x41B3 JUMP JUMPDEST PUSH2 0x2B2E JUMP JUMPDEST STOP JUMPDEST CALLVALUE DUP1 ISZERO PUSH2 0x679 JUMPI PUSH0 DUP1 REVERT JUMPDEST POP PUSH2 0x682 PUSH2 0x2CBD JUMP JUMPDEST PUSH1 0x40 MLOAD PUSH2 0x68F SWAP2 SWAP1 PUSH2 0x3C8A JUMP JUMPDEST PUSH1 0x40 MLOAD DUP1 SWAP2 SUB SWAP1 RETURN JUMPDEST CALLVALUE DUP1 ISZERO PUSH2 0x6A3 JUMPI PUSH0 DUP1 REVERT JUMPDEST POP PUSH2 0x6AC PUSH2 0x2CC6 JUMP JUMPDEST PUSH1 0x40 MLOAD PUSH2 0x6B9 SWAP2 SWAP1 PUSH2 0x3C8A JUMP JUMPDEST PUSH1 0x40 MLOAD DUP1 SWAP2 SUB SWAP1 RETURN JUMPDEST CALLVALUE DUP1 ISZERO PUSH2 0x6CD JUMPI PUSH0 DUP1 REVERT JUMPDEST POP PUSH2 0x6E8 PUSH1 0x4 DUP1 CALLDATASIZE SUB DUP2 ADD SWAP1 PUSH2 0x6E3 SWAP2 SWAP1 PUSH2 0x3EC2 JUMP JUMPDEST PUSH2 0x2CCC JUMP JUMPDEST PUSH1 0x40 MLOAD PUSH2 0x6F7 SWAP4 SWAP3 SWAP2 SWAP1 PUSH2 0x421F JUMP JUMPDEST PUSH1 0x40 MLOAD DUP1 SWAP2 SUB SWAP1 RETURN JUMPDEST CALLVALUE DUP1 ISZERO PUSH2 0x70B JUMPI PUSH0 DUP1 REVERT JUMPDEST POP PUSH2 0x714 PUSH2 0x2D96 JUMP JUMPDEST PUSH1 0x40 MLOAD PUSH2 0x721 SWAP2 SWAP1 PUSH2 0x3C8A JUMP JUMPDEST PUSH1 0x40 MLOAD DUP1 SWAP2 SUB SWAP1 RETURN JUMPDEST PUSH2 0x744 PUSH1 0x4 DUP1 CALLDATASIZE SUB DUP2 ADD SWAP1 PUSH2 0x73F SWAP2 SWAP1 PUSH2 0x43D8 JUMP JUMPDEST PUSH2 0x2D9C JUMP JUMPDEST PUSH1 0x40 MLOAD PUSH2 0x751 SWAP2 SWAP1 PUSH2 0x3C8A JUMP JUMPDEST PUSH1 0x40 MLOAD DUP1 SWAP2 SUB SWAP1 RETURN JUMPDEST CALLVALUE DUP1 ISZERO PUSH2 0x765 JUMPI PUSH0 DUP1 REVERT JUMPDEST POP PUSH2 0x76E PUSH2 0x31D9 JUMP JUMPDEST STOP JUMPDEST CALLVALUE DUP1 ISZERO PUSH2 0x77B JUMPI PUSH0 DUP1 REVERT JUMPDEST POP PUSH2 0x796 PUSH1 0x4 DUP1 CALLDATASIZE SUB DUP2 ADD SWAP1 PUSH2 0x791 SWAP2 SWAP1 PUSH2 0x44BF JUMP JUMPDEST PUSH2 0x3275 JUMP JUMPDEST STOP JUMPDEST CALLVALUE DUP1 ISZERO PUSH2 0x7A3 JUMPI PUSH0 DUP1 REVERT JUMPDEST POP PUSH2 0x7BE PUSH1 0x4 DUP1 CALLDATASIZE SUB DUP2 ADD SWAP1 PUSH2 0x7B9 SWAP2 SWAP1 PUSH2 0x44BF JUMP JUMPDEST PUSH2 0x32F9 JUMP JUMPDEST STOP JUMPDEST CALLVALUE DUP1 ISZERO PUSH2 0x7CB JUMPI PUSH0 DUP1 REVERT JUMPDEST POP PUSH2 0x7E6 PUSH1 0x4 DUP1 CALLDATASIZE SUB DUP2 ADD SWAP1 PUSH2 0x7E1 SWAP2 SWAP1 PUSH2 0x3A12 JUMP JUMPDEST PUSH2 0x344A JUMP JUMPDEST STOP JUMPDEST CALLVALUE DUP1 ISZERO PUSH2 0x7F3 JUMPI PUSH0 DUP1 REVERT JUMPDEST POP PUSH2 0x80E PUSH1 0x4 DUP1 CALLDATASIZE SUB DUP2 ADD SWAP1 PUSH2 0x809 SWAP2 SWAP1 PUSH2 0x3A12 JUMP JUMPDEST PUSH2 0x3493 JUMP JUMPDEST PUSH1 0x40 MLOAD PUSH2 0x824 SWAP11 SWAP10 SWAP9 SWAP8 SWAP7 SWAP6 SWAP5 SWAP4 SWAP3 SWAP2 SWAP1 PUSH2 0x44F9 JUMP JUMPDEST PUSH1 0x40 MLOAD DUP1 SWAP2 SUB SWAP1 RETURN JUMPDEST PUSH2 0x835 PUSH2 0x361A JUMP JUMPDEST PUSH0 PUSH1 0x5 PUSH0 DUP4 DUP2 MSTORE PUSH1 0x20 ADD SWAP1 DUP2 MSTORE PUSH1 0x20 ADD PUSH0 KECCAK256 SWAP1 POP PUSH0 PUSH1 0x3 DUP2 GT ISZERO PUSH2 0x85C JUMPI PUSH2 0x85B PUSH2 0x3B6F JUMP JUMPDEST JUMPDEST DUP2 PUSH1 0x5 ADD PUSH0 SWAP1 SLOAD SWAP1 PUSH2 0x100 EXP SWAP1 DIV PUSH1 0xFF AND PUSH1 0x3 DUP2 GT ISZERO PUSH2 0x87F JUMPI PUSH2 0x87E PUSH2 0x3B6F JUMP JUMPDEST JUMPDEST EQ DUP1 PUSH2 0x8BF JUMPI POP PUSH1 0x1 PUSH1 0x3 DUP2 GT ISZERO PUSH2 0x89A JUMPI PUSH2 0x899 PUSH2 0x3B6F JUMP JUMPDEST JUMPDEST DUP2 PUSH1 0x5 ADD PUSH0 SWAP1 SLOAD SWAP1 PUSH2 0x100 EXP SWAP1 DIV PUSH1 0xFF AND PUSH1 0x3 DUP2 GT ISZERO PUSH2 0x8BD JUMPI PUSH2 0x8BC PUSH2 0x3B6F JUMP JUMPDEST JUMPDEST EQ JUMPDEST PUSH2 0x8FE JUMPI PUSH1 0x40 MLOAD PUSH32 0x8C379A000000000000000000000000000000000000000000000000000000000 DUP2 MSTORE PUSH1 0x4 ADD PUSH2 0x8F5 SWAP1 PUSH2 0x4611 JUMP JUMPDEST PUSH1 0x40 MLOAD DUP1 SWAP2 SUB SWAP1 REVERT JUMPDEST PUSH0 DUP1 DUP1 PUSH0 SWAP1 POP JUMPDEST DUP4 PUSH1 0x8 ADD SLOAD DUP2 LT ISZERO PUSH2 0x991 JUMPI CALLER PUSH20 0xFFFFFFFFFFFFFFFFFFFFFFFFFFFFFFFFFFFFFFFF AND DUP5 PUSH1 0x9 ADD PUSH0 DUP4 DUP2 MSTORE PUSH1 0x20 ADD SWAP1 DUP2 MSTORE PUSH1 0x20 ADD PUSH0 KECCAK256 PUSH0 ADD PUSH0 SWAP1 SLOAD SWAP1 PUSH2 0x100 EXP SWAP1 DIV PUSH20 0xFFFFFFFFFFFFFFFFFFFFFFFFFFFFFFFFFFFFFFFF AND PUSH20 0xFFFFFFFFFFFFFFFFFFFFFFFFFFFFFFFFFFFFFFFF AND SUB PUSH2 0x984 JUMPI PUSH1 0x1 SWAP3 POP DUP1 SWAP2 POP PUSH2 0x991 JUMP JUMPDEST DUP1 DUP1 PUSH1 0x1 ADD SWAP2 POP POP PUSH2 0x905 JUMP JUMPDEST POP DUP2 PUSH2 0x9D2 JUMPI PUSH1 0x40 MLOAD PUSH32 0x8C379A000000000000000000000000000000000000000000000000000000000 DUP2 MSTORE PUSH1 0x4 ADD PUSH2 0x9C9 SWAP1 PUSH2 0x4679 JUMP JUMPDEST PUSH1 0x40 MLOAD DUP1 SWAP2 SUB SWAP1 REVERT JUMPDEST DUP3 PUSH1 0x9 ADD PUSH0 DUP3 DUP2 MSTORE PUSH1 0x20 ADD SWAP1 DUP2 MSTORE PUSH1 0x20 ADD PUSH0 KECCAK256 PUSH1 0x3 ADD PUSH0 SWAP1 SLOAD SWAP1 PUSH2 0x100 EXP SWAP1 DIV PUSH1 0xFF AND ISZERO PUSH2 0xA35 JUMPI PUSH1 0x40 MLOAD PUSH32 0x8C379A000000000000000000000000000000000000000000000000000000000 DUP2 MSTORE PUSH1 0x4 ADD PUSH2 0xA2C SWAP1 PUSH2 0x46E1 JUMP JUMPDEST PUSH1 0x40 MLOAD DUP1 SWAP2 SUB SWAP1 REVERT JUMPDEST PUSH0 JUMPDEST DUP4 PUSH1 0x6 ADD SLOAD DUP2 LT ISZERO PUSH2 0xAB2 JUMPI DUP4 PUSH1 0x7 ADD PUSH0 DUP3 DUP2 MSTORE PUSH1 0x20 ADD SWAP1 DUP2 MSTORE PUSH1 0x20 ADD PUSH0 KECCAK256 PUSH1 0x2 ADD PUSH0 SWAP1 SLOAD SWAP1 PUSH2 0x100 EXP SWAP1 DIV PUSH1 0xFF AND PUSH2 0xAA5 JUMPI PUSH1 0x40 MLOAD PUSH32 0x8C379A000000000000000000000000000000000000000000000000000000000 DUP2 MSTORE PUSH1 0x4 ADD PUSH2 0xA9C SWAP1 PUSH2 0x476F JUMP JUMPDEST PUSH1 0x40 MLOAD DUP1 SWAP2 SUB SWAP1 REVERT JUMPDEST DUP1 DUP1 PUSH1 0x1 ADD SWAP2 POP POP PUSH2 0xA37 JUMP JUMPDEST POP PUSH0 PUSH2 0x2710 DUP5 PUSH1 0x9 ADD PUSH0 DUP5 DUP2 MSTORE PUSH1 0x20 ADD SWAP1 DUP2 MSTORE PUSH1 0x20 ADD PUSH0 KECCAK256 PUSH1 0x1 ADD SLOAD DUP6 PUSH1 0x4 ADD SLOAD PUSH2 0xADD SWAP2 SWAP1 PUSH2 0x47BA JUMP JUMPDEST PUSH2 0xAE7 SWAP2 SWAP1 PUSH2 0x4828 JUMP JUMPDEST SWAP1 POP PUSH0 PUSH2 0x2710 PUSH1 0x3 SLOAD DUP4 PUSH2 0xAFB SWAP2 SWAP1 PUSH2 0x47BA JUMP JUMPDEST PUSH2 0xB05 SWAP2 SWAP1 PUSH2 0x4828 JUMP JUMPDEST SWAP1 POP PUSH0 DUP2 DUP4 PUSH2 0xB14 SWAP2 SWAP1 PUSH2 0x4858 JUMP JUMPDEST SWAP1 POP DUP1 CALLVALUE LT ISZERO PUSH2 0xB59 JUMPI PUSH1 0x40 MLOAD PUSH32 0x8C379A000000000000000000000000000000000000000000000000000000000 DUP2 MSTORE PUSH1 0x4 ADD PUSH2 0xB50 SWAP1 PUSH2 0x48D5 JUMP JUMPDEST PUSH1 0x40 MLOAD DUP1 SWAP2 SUB SWAP1 REVERT JUMPDEST PUSH2 0xB61 PUSH2 0x272A JUMP JUMPDEST PUSH20 0xFFFFFFFFFFFFFFFFFFFFFFFFFFFFFFFFFFFFFFFF AND PUSH2 0x8FC DUP4 SWAP1 DUP2 ISZERO MUL SWAP1 PUSH1 0x40 MLOAD PUSH0 PUSH1 0x40 MLOAD DUP1 DUP4 SUB DUP2 DUP6 DUP9 DUP9 CALL SWAP4 POP POP POP POP ISZERO DUP1 ISZERO PUSH2 0xBA3 JUMPI RETURNDATASIZE PUSH0 DUP1 RETURNDATACOPY RETURNDATASIZE PUSH0 REVERT JUMPDEST POP PUSH0 DUP1 JUMPDEST DUP8 PUSH1 0x6 ADD SLOAD DUP2 LT ISZERO PUSH2 0xD72 JUMPI PUSH0 PUSH2 0x2710 DUP10 PUSH1 0x7 ADD PUSH0 DUP5 DUP2 MSTORE PUSH1 0x20 ADD SWAP1 DUP2 MSTORE PUSH1 0x20 ADD PUSH0 KECCAK256 PUSH1 0x1 ADD SLOAD DUP8 PUSH2 0xBD9 SWAP2 SWAP1 PUSH2 0x47BA JUMP JUMPDEST PUSH2 0xBE3 SWAP2 SWAP1 PUSH2 0x4828 JUMP JUMPDEST SWAP1 POP DUP9 PUSH1 0x7 ADD PUSH0 DUP4 DUP2 MSTORE PUSH1 0x20 ADD SWAP1 DUP2 MSTORE PUSH1 0x20 ADD PUSH0 KECCAK256 PUSH0 ADD PUSH0 SWAP1 SLOAD SWAP1 PUSH2 0x100 EXP SWAP1 DIV PUSH20 0xFFFFFFFFFFFFFFFFFFFFFFFFFFFFFFFFFFFFFFFF AND PUSH20 0xFFFFFFFFFFFFFFFFFFFFFFFFFFFFFFFFFFFFFFFF AND PUSH2 0x8FC DUP3 SWAP1 DUP2 ISZERO MUL SWAP1 PUSH1 0x40 MLOAD PUSH0 PUSH1 0x40 MLOAD DUP1 DUP4 SUB DUP2 DUP6 DUP9 DUP9 CALL SWAP4 POP POP POP POP ISZERO DUP1 ISZERO PUSH2 0xC5C JUMPI RETURNDATASIZE PUSH0 DUP1 RETURNDATACOPY RETURNDATASIZE PUSH0 REVERT JUMPDEST POP DUP1 DUP4 PUSH2 0xC69 SWAP2 SWAP1 PUSH2 0x4858 JUMP JUMPDEST SWAP3 POP PUSH2 0xCE1 DUP11 CALLER DUP12 PUSH1 0x7 ADD PUSH0 DUP7 DUP2 MSTORE PUSH1 0x20 ADD SWAP1 DUP2 MSTORE PUSH1 0x20 ADD PUSH0 KECCAK256 PUSH0 ADD PUSH0 SWAP1 SLOAD SWAP1 PUSH2 0x100 EXP SWAP1 DIV PUSH20 0xFFFFFFFFFFFFFFFFFFFFFFFFFFFFFFFFFFFFFFFF AND DUP5 PUSH1 0x40 MLOAD DUP1 PUSH1 0x40 ADD PUSH1 0x40 MSTORE DUP1 PUSH1 0xE DUP2 MSTORE PUSH1 0x20 ADD PUSH32 0x526F79616C74795061796D656E74000000000000000000000000000000000000 DUP2 MSTORE POP PUSH2 0x3669 JUMP JUMPDEST DUP9 PUSH1 0x7 ADD PUSH0 DUP4 DUP2 MSTORE PUSH1 0x20 ADD SWAP1 DUP2 MSTORE PUSH1 0x20 ADD PUSH0 KECCAK256 PUSH0 ADD PUSH0 SWAP1 SLOAD SWAP1 PUSH2 0x100 EXP SWAP1 DIV PUSH20 0xFFFFFFFFFFFFFFFFFFFFFFFFFFFFFFFFFFFFFFFF AND PUSH20 0xFFFFFFFFFFFFFFFFFFFFFFFFFFFFFFFFFFFFFFFF AND DUP11 PUSH32 0xF670029FC6F5302BABA881B4AE845D1453ACDF752B4C19ED81FE0FA6A686409B DUP4 PUSH1 0x40 MLOAD PUSH2 0xD5C SWAP2 SWAP1 PUSH2 0x3C8A JUMP JUMPDEST PUSH1 0x40 MLOAD DUP1 SWAP2 SUB SWAP1 LOG3 POP DUP1 DUP1 PUSH1 0x1 ADD SWAP2 POP POP PUSH2 0xBA7 JUMP JUMPDEST POP PUSH0 DUP2 DUP6 PUSH2 0xD80 SWAP2 SWAP1 PUSH2 0x48F3 JUMP JUMPDEST SWAP1 POP DUP8 PUSH1 0x3 ADD PUSH0 SWAP1 SLOAD SWAP1 PUSH2 0x100 EXP SWAP1 DIV PUSH20 0xFFFFFFFFFFFFFFFFFFFFFFFFFFFFFFFFFFFFFFFF AND PUSH20 0xFFFFFFFFFFFFFFFFFFFFFFFFFFFFFFFFFFFFFFFF AND PUSH2 0x8FC DUP3 SWAP1 DUP2 ISZERO MUL SWAP1 PUSH1 0x40 MLOAD PUSH0 PUSH1 0x40 MLOAD DUP1 DUP4 SUB DUP2 DUP6 DUP9 DUP9 CALL SWAP4 POP POP POP POP ISZERO DUP1 ISZERO PUSH2 0xDE8 JUMPI RETURNDATASIZE PUSH0 DUP1 RETURNDATACOPY RETURNDATASIZE PUSH0 REVERT JUMPDEST POP DUP5 DUP9 PUSH1 0x9 ADD PUSH0 DUP9 DUP2 MSTORE PUSH1 0x20 ADD SWAP1 DUP2 MSTORE PUSH1 0x20 ADD PUSH0 KECCAK256 PUSH1 0x2 ADD DUP2 SWAP1 SSTORE POP PUSH1 0x1 DUP9 PUSH1 0x9 ADD PUSH0 DUP9 DUP2 MSTORE PUSH1 0x20 ADD SWAP1 DUP2 MSTORE PUSH1 0x20 ADD PUSH0 KECCAK256 PUSH1 0x3 ADD PUSH0 PUSH2 0x100 EXP DUP2 SLOAD DUP2 PUSH1 0xFF MUL NOT AND SWAP1 DUP4 ISZERO ISZERO MUL OR SWAP1 SSTORE POP PUSH2 0xE97 DUP10 CALLER DUP11 PUSH1 0x3 ADD PUSH0 SWAP1 SLOAD SWAP1 PUSH2 0x100 EXP SWAP1 DIV PUSH20 0xFFFFFFFFFFFFFFFFFFFFFFFFFFFFFFFFFFFFFFFF AND DUP9 PUSH1 0x40 MLOAD DUP1 PUSH1 0x40 ADD PUSH1 0x40 MSTORE DUP1 PUSH1 0x8 DUP2 MSTORE PUSH1 0x20 ADD PUSH32 0x5075726368617365000000000000000000000000000000000000000000000000 DUP2 MSTORE POP PUSH2 0x3669 JUMP JUMPDEST PUSH0 PUSH1 0x1 SWAP1 POP PUSH0 JUMPDEST DUP10 PUSH1 0x8 ADD SLOAD DUP2 LT ISZERO PUSH2 0xEE6 JUMPI DUP10 PUSH1 0x9 ADD PUSH0 DUP3 DUP2 MSTORE PUSH1 0x20 ADD SWAP1 DUP2 MSTORE PUSH1 0x20 ADD PUSH0 KECCAK256 PUSH1 0x3 ADD PUSH0 SWAP1 SLOAD SWAP1 PUSH2 0x100 EXP SWAP1 DIV PUSH1 0xFF AND PUSH2 0xED9 JUMPI PUSH0 SWAP2 POP PUSH2 0xEE6 JUMP JUMPDEST DUP1 DUP1 PUSH1 0x1 ADD SWAP2 POP POP PUSH2 0xE9E JUMP JUMPDEST POP DUP1 DUP1 ISZERO PUSH2 0xEF9 JUMPI POP PUSH2 0xEF8 DUP10 PUSH2 0x37FB JUMP JUMPDEST JUMPDEST ISZERO PUSH2 0xF79 JUMPI PUSH1 0x2 DUP10 PUSH1 0x5 ADD PUSH0 PUSH2 0x100 EXP DUP2 SLOAD DUP2 PUSH1 0xFF MUL NOT AND SWAP1 DUP4 PUSH1 0x3 DUP2 GT ISZERO PUSH2 0xF25 JUMPI PUSH2 0xF24 PUSH2 0x3B6F JUMP JUMPDEST JUMPDEST MUL OR SWAP1 SSTORE POP DUP10 PUSH32 0x2029FF33A5CEFA752541F9DD453384DF0D463D7C42B66CF937F5112F76D4F545 DUP11 PUSH1 0x4 ADD SLOAD DUP12 PUSH1 0x5 ADD PUSH0 SWAP1 SLOAD SWAP1 PUSH2 0x100 EXP SWAP1 DIV PUSH1 0xFF AND PUSH1 0x40 MLOAD PUSH2 0xF70 SWAP3 SWAP2 SWAP1 PUSH2 0x4926 JUMP JUMPDEST PUSH1 0x40 MLOAD DUP1 SWAP2 SUB SWAP1 LOG2 JUMPDEST TIMESTAMP DUP10 PUSH1 0xB ADD DUP2 SWAP1 SSTORE POP CALLER PUSH20 0xFFFFFFFFFFFFFFFFFFFFFFFFFFFFFFFFFFFFFFFF AND DUP11 PUSH32 0x7DDF640AFB9F39F7902A7C2B643B23933A73341268A396D5217D82DD7230F6E8 DUP9 PUSH1 0x40 MLOAD PUSH2 0xFC9 SWAP2 SWAP1 PUSH2 0x3C8A JUMP JUMPDEST PUSH1 0x40 MLOAD DUP1 SWAP2 SUB SWAP1 LOG3 CALLER PUSH20 0xFFFFFFFFFFFFFFFFFFFFFFFFFFFFFFFFFFFFFFFF AND DUP11 PUSH32 0xF447BA1E674406290752C644BDC71E4BE50AA21042F65ED5E9A0B140A3835E26 DUP9 PUSH1 0x40 MLOAD PUSH2 0x1018 SWAP2 SWAP1 PUSH2 0x3C8A JUMP JUMPDEST PUSH1 0x40 MLOAD DUP1 SWAP2 SUB SWAP1 LOG3 DUP4 CALLVALUE GT ISZERO PUSH2 0x1078 JUMPI CALLER PUSH20 0xFFFFFFFFFFFFFFFFFFFFFFFFFFFFFFFFFFFFFFFF AND PUSH2 0x8FC DUP6 CALLVALUE PUSH2 0x104E SWAP2 SWAP1 PUSH2 0x48F3 JUMP JUMPDEST SWAP1 DUP2 ISZERO MUL SWAP1 PUSH1 0x40 MLOAD PUSH0 PUSH1 0x40 MLOAD DUP1 DUP4 SUB DUP2 DUP6 DUP9 DUP9 CALL SWAP4 POP POP POP POP ISZERO DUP1 ISZERO PUSH2 0x1076 JUMPI RETURNDATASIZE PUSH0 DUP1 RETURNDATACOPY RETURNDATASIZE PUSH0 REVERT JUMPDEST POP JUMPDEST POP POP POP POP POP POP POP POP POP PUSH2 0x1089 PUSH2 0x3876 JUMP JUMPDEST POP JUMP JUMPDEST PUSH0 DUP1 PUSH0 DUP1 PUSH0 DUP1 PUSH1 0x60 PUSH0 PUSH1 0x6 PUSH0 DUP11 DUP2 MSTORE PUSH1 0x20 ADD SWAP1 DUP2 MSTORE PUSH1 0x20 ADD PUSH0 KECCAK256 SWAP1 POP DUP9 DUP2 PUSH0 ADD SLOAD EQ PUSH2 0x10ED JUMPI PUSH1 0x40 MLOAD PUSH32 0x8C379A000000000000000000000000000000000000000000000000000000000 DUP2 MSTORE PUSH1 0x4 ADD PUSH2 0x10E4 SWAP1 PUSH2 0x4997 JUMP JUMPDEST PUSH1 0x40 MLOAD DUP1 SWAP2 SUB SWAP1 REVERT JUMPDEST DUP1 PUSH0 ADD SLOAD DUP2 PUSH1 0x1 ADD SLOAD DUP3 PUSH1 0x2 ADD PUSH0 SWAP1 SLOAD SWAP1 PUSH2 0x100 EXP SWAP1 DIV PUSH20 0xFFFFFFFFFFFFFFFFFFFFFFFFFFFFFFFFFFFFFFFF AND DUP4 PUSH1 0x3 ADD PUSH0 SWAP1 SLOAD SWAP1 PUSH2 0x100 EXP SWAP1 DIV PUSH20 0xFFFFFFFFFFFFFFFFFFFFFFFFFFFFFFFFFFFFFFFF AND DUP5 PUSH1 0x4 ADD SLOAD DUP6 PUSH1 0x5 ADD SLOAD DUP7 PUSH1 0x6 ADD DUP1 DUP1 SLOAD PUSH2 0x1158 SWAP1 PUSH2 0x49E2 JUMP JUMPDEST DUP1 PUSH1 0x1F ADD PUSH1 0x20 DUP1 SWAP2 DIV MUL PUSH1 0x20 ADD PUSH1 0x40 MLOAD SWAP1 DUP2 ADD PUSH1 0x40 MSTORE DUP1 SWAP3 SWAP2 SWAP1 DUP2 DUP2 MSTORE PUSH1 0x20 ADD DUP3 DUP1 SLOAD PUSH2 0x1184 SWAP1 PUSH2 0x49E2 JUMP JUMPDEST DUP1 ISZERO PUSH2 0x11CF JUMPI DUP1 PUSH1 0x1F LT PUSH2 0x11A6 JUMPI PUSH2 0x100 DUP1 DUP4 SLOAD DIV MUL DUP4 MSTORE SWAP2 PUSH1 0x20 ADD SWAP2 PUSH2 0x11CF JUMP JUMPDEST DUP3 ADD SWAP2 SWAP1 PUSH0 MSTORE PUSH1 0x20 PUSH0 KECCAK256 SWAP1 JUMPDEST DUP2 SLOAD DUP2 MSTORE SWAP1 PUSH1 0x1 ADD SWAP1 PUSH1 0x20 ADD DUP1 DUP4 GT PUSH2 0x11B2 JUMPI DUP3 SWAP1 SUB PUSH1 0x1F AND DUP3 ADD SWAP2 JUMPDEST POP POP POP POP POP SWAP1 POP SWAP8 POP SWAP8 POP SWAP8 POP SWAP8 POP SWAP8 POP SWAP8 POP SWAP8 POP POP SWAP2 SWAP4 SWAP6 SWAP8 SWAP1 SWAP3 SWAP5 SWAP7 POP JUMP JUMPDEST PUSH0 PUSH1 0x60 DUP1 PUSH0 DUP1 PUSH0 DUP1 PUSH0 DUP1 PUSH0 DUP1 PUSH1 0x5 PUSH0 DUP14 DUP2 MSTORE PUSH1 0x20 ADD SWAP1 DUP2 MSTORE PUSH1 0x20 ADD PUSH0 KECCAK256 SWAP1 POP DUP1 PUSH0 ADD SLOAD DUP2 PUSH1 0x1 ADD DUP3 PUSH1 0x2 ADD DUP4 PUSH1 0x3 ADD PUSH0 SWAP1 SLOAD SWAP1 PUSH2 0x100 EXP SWAP1 DIV PUSH20 0xFFFFFFFFFFFFFFFFFFFFFFFFFFFFFFFFFFFFFFFF AND DUP5 PUSH1 0x4 ADD SLOAD DUP6 PUSH1 0x5 ADD PUSH0 SWAP1 SLOAD SWAP1 PUSH2 0x100 EXP SWAP1 DIV PUSH1 0xFF AND DUP7 PUSH1 0x6 ADD SLOAD DUP8 PUSH1 0x8 ADD SLOAD DUP9 PUSH1 0xA ADD SLOAD DUP10 PUSH1 0xB ADD SLOAD DUP9 DUP1 SLOAD PUSH2 0x1275 SWAP1 PUSH2 0x49E2 JUMP JUMPDEST DUP1 PUSH1 0x1F ADD PUSH1 0x20 DUP1 SWAP2 DIV MUL PUSH1 0x20 ADD PUSH1 0x40 MLOAD SWAP1 DUP2 ADD PUSH1 0x40 MSTORE DUP1 SWAP3 SWAP2 SWAP1 DUP2 DUP2 MSTORE PUSH1 0x20 ADD DUP3 DUP1 SLOAD PUSH2 0x12A1 SWAP1 PUSH2 0x49E2 JUMP JUMPDEST DUP1 ISZERO PUSH2 0x12EC JUMPI DUP1 PUSH1 0x1F LT PUSH2 0x12C3 JUMPI PUSH2 0x100 DUP1 DUP4 SLOAD DIV MUL DUP4 MSTORE SWAP2 PUSH1 0x20 ADD SWAP2 PUSH2 0x12EC JUMP JUMPDEST DUP3 ADD SWAP2 SWAP1 PUSH0 MSTORE PUSH1 0x20 PUSH0 KECCAK256 SWAP1 JUMPDEST DUP2 SLOAD DUP2 MSTORE SWAP1 PUSH1 0x1 ADD SWAP1 PUSH1 0x20 ADD DUP1 DUP4 GT PUSH2 0x12CF JUMPI DUP3 SWAP1 SUB PUSH1 0x1F AND DUP3 ADD SWAP2 JUMPDEST POP POP POP POP POP SWAP9 POP DUP8 DUP1 SLOAD PUSH2 0x12FF SWAP1 PUSH2 0x49E2 JUMP JUMPDEST DUP1 PUSH1 0x1F ADD PUSH1 0x20 DUP1 SWAP2 DIV MUL PUSH1 0x20 ADD PUSH1 0x40 MLOAD SWAP1 DUP2 ADD PUSH1 0x40 MSTORE DUP1 SWAP3 SWAP2 SWAP1 DUP2 DUP2 MSTORE PUSH1 0x20 ADD DUP3 DUP1 SLOAD PUSH2 0x132B SWAP1 PUSH2 0x49E2 JUMP JUMPDEST DUP1 ISZERO PUSH2 0x1376 JUMPI DUP1 PUSH1 0x1F LT PUSH2 0x134D JUMPI PUSH2 0x100 DUP1 DUP4 SLOAD DIV MUL DUP4 MSTORE SWAP2 PUSH1 0x20 ADD SWAP2 PUSH2 0x1376 JUMP JUMPDEST DUP3 ADD SWAP2 SWAP1 PUSH0 MSTORE PUSH1 0x20 PUSH0 KECCAK256 SWAP1 JUMPDEST DUP2 SLOAD DUP2 MSTORE SWAP1 PUSH1 0x1 ADD SWAP1 PUSH1 0x20 ADD DUP1 DUP4 GT PUSH2 0x1359 JUMPI DUP3 SWAP1 SUB PUSH1 0x1F AND DUP3 ADD SWAP2 JUMPDEST POP POP POP POP POP SWAP8 POP SWAP11 POP SWAP11 POP SWAP11 POP SWAP11 POP SWAP11 POP SWAP11 POP SWAP11 POP SWAP11 POP SWAP11 POP SWAP11 POP POP SWAP2 SWAP4 SWAP6 SWAP8 SWAP10 POP SWAP2 SWAP4 SWAP6 SWAP8 SWAP10 JUMP JUMPDEST PUSH1 0x3 SLOAD DUP2 JUMP JUMPDEST PUSH0 PUSH1 0x4 SLOAD SWAP1 POP SWAP1 JUMP JUMPDEST PUSH0 DUP1 PUSH0 DUP1 PUSH0 DUP1 PUSH0 PUSH1 0x1 SWAP1 POP JUMPDEST PUSH1 0x4 SLOAD DUP2 GT PUSH2 0x1490 JUMPI PUSH0 PUSH1 0x3 DUP2 GT ISZERO PUSH2 0x13D6 JUMPI PUSH2 0x13D5 PUSH2 0x3B6F JUMP JUMPDEST JUMPDEST PUSH1 0x5 PUSH0 DUP4 DUP2 MSTORE PUSH1 0x20 ADD SWAP1 DUP2 MSTORE PUSH1 0x20 ADD PUSH0 KECCAK256 PUSH1 0x5 ADD PUSH0 SWAP1 SLOAD SWAP1 PUSH2 0x100 EXP SWAP1 DIV PUSH1 0xFF AND PUSH1 0x3 DUP2 GT ISZERO PUSH2 0x1409 JUMPI PUSH2 0x1408 PUSH2 0x3B6F JUMP JUMPDEST JUMPDEST SUB PUSH2 0x1421 JUMPI DUP3 DUP1 PUSH2 0x1419 SWAP1 PUSH2 0x4A12 JUMP JUMPDEST SWAP4 POP POP PUSH2 0x147D JUMP JUMPDEST PUSH1 0x2 PUSH1 0x3 DUP2 GT ISZERO PUSH2 0x1435 JUMPI PUSH2 0x1434 PUSH2 0x3B6F JUMP JUMPDEST JUMPDEST PUSH1 0x5 PUSH0 DUP4 DUP2 MSTORE PUSH1 0x20 ADD SWAP1 DUP2 MSTORE PUSH1 0x20 ADD PUSH0 KECCAK256 PUSH1 0x5 ADD PUSH0 SWAP1 SLOAD SWAP1 PUSH2 0x100 EXP SWAP1 DIV PUSH1 0xFF AND PUSH1 0x3 DUP2 GT ISZERO PUSH2 0x1468 JUMPI PUSH2 0x1467 PUSH2 0x3B6F JUMP JUMPDEST JUMPDEST SUB PUSH2 0x147C JUMPI DUP2 DUP1 PUSH2 0x1478 SWAP1 PUSH2 0x4A12 JUMP JUMPDEST SWAP3 POP POP JUMPDEST JUMPDEST DUP1 DUP1 PUSH2 0x1488 SWAP1 PUSH2 0x4A12 JUMP JUMPDEST SWAP2 POP POP PUSH2 0x13BA JUMP JUMPDEST POP PUSH1 0x4 SLOAD PUSH1 0x7 SLOAD DUP4 DUP4 SWAP6 POP SWAP6 POP SWAP6 POP SWAP6 POP POP POP SWAP1 SWAP2 SWAP3 SWAP4 JUMP JUMPDEST PUSH1 0x60 PUSH0 PUSH1 0x5 PUSH0 DUP5 DUP2 MSTORE PUSH1 0x20 ADD SWAP1 DUP2 MSTORE PUSH1 0x20 ADD PUSH0 KECCAK256 SWAP1 POP PUSH0 DUP2 PUSH1 0x6 ADD SLOAD PUSH8 0xFFFFFFFFFFFFFFFF DUP2 GT ISZERO PUSH2 0x14DE JUMPI PUSH2 0x14DD PUSH2 0x408F JUMP JUMPDEST JUMPDEST PUSH1 0x40 MLOAD SWAP1 DUP1 DUP3 MSTORE DUP1 PUSH1 0x20 MUL PUSH1 0x20 ADD DUP3 ADD PUSH1 0x40 MSTORE DUP1 ISZERO PUSH2 0x150C JUMPI DUP2 PUSH1 0x20 ADD PUSH1 0x20 DUP3 MUL DUP1 CALLDATASIZE DUP4 CALLDATACOPY DUP1 DUP3 ADD SWAP2 POP POP SWAP1 POP JUMPDEST POP SWAP1 POP PUSH0 JUMPDEST DUP3 PUSH1 0x6 ADD SLOAD DUP2 LT ISZERO PUSH2 0x157C JUMPI PUSH2 0x2710 DUP4 PUSH1 0x7 ADD PUSH0 DUP4 DUP2 MSTORE PUSH1 0x20 ADD SWAP1 DUP2 MSTORE PUSH1 0x20 ADD PUSH0 KECCAK256 PUSH1 0x1 ADD SLOAD DUP5 PUSH1 0x4 ADD SLOAD PUSH2 0x1546 SWAP2 SWAP1 PUSH2 0x47BA JUMP JUMPDEST PUSH2 0x1550 SWAP2 SWAP1 PUSH2 0x4828 JUMP JUMPDEST DUP3 DUP3 DUP2 MLOAD DUP2 LT PUSH2 0x1563 JUMPI PUSH2 0x1562 PUSH2 0x4A59 JUMP JUMPDEST JUMPDEST PUSH1 0x20 MUL PUSH1 0x20 ADD ADD DUP2 DUP2 MSTORE POP POP DUP1 DUP1 PUSH1 0x1 ADD SWAP2 POP POP PUSH2 0x1511 JUMP JUMPDEST POP DUP1 SWAP3 POP POP POP SWAP2 SWAP1 POP JUMP JUMPDEST PUSH0 PUSH1 0x5 PUSH0 DUP4 DUP2 MSTORE PUSH1 0x20 ADD SWAP1 DUP2 MSTORE PUSH1 0x20 ADD PUSH0 KECCAK256 SWAP1 POP DUP1 PUSH1 0x3 ADD PUSH0 SWAP1 SLOAD SWAP1 PUSH2 0x100 EXP SWAP1 DIV PUSH20 0xFFFFFFFFFFFFFFFFFFFFFFFFFFFFFFFFFFFFFFFF AND PUSH20 0xFFFFFFFFFFFFFFFFFFFFFFFFFFFFFFFFFFFFFFFF AND CALLER PUSH20 0xFFFFFFFFFFFFFFFFFFFFFFFFFFFFFFFFFFFFFFFF AND EQ DUP1 PUSH2 0x162A JUMPI POP PUSH2 0x15FB PUSH2 0x272A JUMP JUMPDEST PUSH20 0xFFFFFFFFFFFFFFFFFFFFFFFFFFFFFFFFFFFFFFFF AND CALLER PUSH20 0xFFFFFFFFFFFFFFFFFFFFFFFFFFFFFFFFFFFFFFFF AND EQ JUMPDEST PUSH2 0x1669 JUMPI PUSH1 0x40 MLOAD PUSH32 0x8C379A000000000000000000000000000000000000000000000000000000000 DUP2 MSTORE PUSH1 0x4 ADD PUSH2 0x1660 SWAP1 PUSH2 0x4AD0 JUMP JUMPDEST PUSH1 0x40 MLOAD DUP1 SWAP2 SUB SWAP1 REVERT JUMPDEST PUSH0 PUSH1 0x3 DUP2 GT ISZERO PUSH2 0x167C JUMPI PUSH2 0x167B PUSH2 0x3B6F JUMP JUMPDEST JUMPDEST DUP2 PUSH1 0x5 ADD PUSH0 SWAP1 SLOAD SWAP1 PUSH2 0x100 EXP SWAP1 DIV PUSH1 0xFF AND PUSH1 0x3 DUP2 GT ISZERO PUSH2 0x169F JUMPI PUSH2 0x169E PUSH2 0x3B6F JUMP JUMPDEST JUMPDEST EQ PUSH2 0x16DF JUMPI PUSH1 0x40 MLOAD PUSH32 0x8C379A000000000000000000000000000000000000000000000000000000000 DUP2 MSTORE PUSH1 0x4 ADD PUSH2 0x16D6 SWAP1 PUSH2 0x4B38 JUMP JUMPDEST PUSH1 0x40 MLOAD DUP1 SWAP2 SUB SWAP1 REVERT JUMPDEST PUSH0 JUMPDEST DUP2 PUSH1 0x8 ADD SLOAD DUP2 LT ISZERO PUSH2 0x175D JUMPI DUP2 PUSH1 0x9 ADD PUSH0 DUP3 DUP2 MSTORE PUSH1 0x20 ADD SWAP1 DUP2 MSTORE PUSH1 0x20 ADD PUSH0 KECCAK256 PUSH1 0x3 ADD PUSH0 SWAP1 SLOAD SWAP1 PUSH2 0x100 EXP SWAP1 DIV PUSH1 0xFF AND ISZERO PUSH2 0x1750 JUMPI PUSH1 0x40 MLOAD PUSH32 0x8C379A000000000000000000000000000000000000000000000000000000000 DUP2 MSTORE PUSH1 0x4 ADD PUSH2 0x1747 SWAP1 PUSH2 0x4BC6 JUMP JUMPDEST PUSH1 0x40 MLOAD DUP1 SWAP2 SUB SWAP1 REVERT JUMPDEST DUP1 DUP1 PUSH1 0x1 ADD SWAP2 POP POP PUSH2 0x16E1 JUMP JUMPDEST POP PUSH1 0x3 DUP2 PUSH1 0x5 ADD PUSH0 PUSH2 0x100 EXP DUP2 SLOAD DUP2 PUSH1 0xFF MUL NOT AND SWAP1 DUP4 PUSH1 0x3 DUP2 GT ISZERO PUSH2 0x1785 JUMPI PUSH2 0x1784 PUSH2 0x3B6F JUMP JUMPDEST JUMPDEST MUL OR SWAP1 SSTORE POP TIMESTAMP DUP2 PUSH1 0xB ADD DUP2 SWAP1 SSTORE POP DUP2 PUSH32 0x2029FF33A5CEFA752541F9DD453384DF0D463D7C42B66CF937F5112F76D4F545 DUP3 PUSH1 0x4 ADD SLOAD DUP4 PUSH1 0x5 ADD PUSH0 SWAP1 SLOAD SWAP1 PUSH2 0x100 EXP SWAP1 DIV PUSH1 0xFF AND PUSH1 0x40 MLOAD PUSH2 0x17D9 SWAP3 SWAP2 SWAP1 PUSH2 0x4926 JUMP JUMPDEST PUSH1 0x40 MLOAD DUP1 SWAP2 SUB SWAP1 LOG2 POP POP JUMP JUMPDEST PUSH0 PUSH1 0x5 PUSH0 DUP4 DUP2 MSTORE PUSH1 0x20 ADD SWAP1 DUP2 MSTORE PUSH1 0x20 ADD PUSH0 KECCAK256 SWAP1 POP PUSH0 PUSH1 0x3 DUP2 GT ISZERO PUSH2 0x180C JUMPI PUSH2 0x180B PUSH2 0x3B6F JUMP JUMPDEST JUMPDEST DUP2 PUSH1 0x5 ADD PUSH0 SWAP1 SLOAD SWAP1 PUSH2 0x100 EXP SWAP1 DIV PUSH1 0xFF AND PUSH1 0x3 DUP2 GT ISZERO PUSH2 0x182F JUMPI PUSH2 0x182E PUSH2 0x3B6F JUMP JUMPDEST JUMPDEST EQ PUSH2 0x186F JUMPI PUSH1 0x40 MLOAD PUSH32 0x8C379A000000000000000000000000000000000000000000000000000000000 DUP2 MSTORE PUSH1 0x4 ADD PUSH2 0x1866 SWAP1 PUSH2 0x4C2E JUMP JUMPDEST PUSH1 0x40 MLOAD DUP1 SWAP2 SUB SWAP1 REVERT JUMPDEST PUSH0 DUP1 DUP1 PUSH0 SWAP1 POP JUMPDEST DUP4 PUSH1 0x6 ADD SLOAD DUP2 LT ISZERO PUSH2 0x1902 JUMPI CALLER PUSH20 0xFFFFFFFFFFFFFFFFFFFFFFFFFFFFFFFFFFFFFFFF AND DUP5 PUSH1 0x7 ADD PUSH0 DUP4 DUP2 MSTORE PUSH1 0x20 ADD SWAP1 DUP2 MSTORE PUSH1 0x20 ADD PUSH0 KECCAK256 PUSH0 ADD PUSH0 SWAP1 SLOAD SWAP1 PUSH2 0x100 EXP SWAP1 DIV PUSH20 0xFFFFFFFFFFFFFFFFFFFFFFFFFFFFFFFFFFFFFFFF AND PUSH20 0xFFFFFFFFFFFFFFFFFFFFFFFFFFFFFFFFFFFFFFFF AND SUB PUSH2 0x18F5 JUMPI PUSH1 0x1 SWAP3 POP DUP1 SWAP2 POP PUSH2 0x1902 JUMP JUMPDEST DUP1 DUP1 PUSH1 0x1 ADD SWAP2 POP POP PUSH2 0x1876 JUMP JUMPDEST POP DUP2 PUSH2 0x1943 JUMPI PUSH1 0x40 MLOAD PUSH32 0x8C379A000000000000000000000000000000000000000000000000000000000 DUP2 MSTORE PUSH1 0x4 ADD PUSH2 0x193A SWAP1 PUSH2 0x4CBC JUMP JUMPDEST PUSH1 0x40 MLOAD DUP1 SWAP2 SUB SWAP1 REVERT JUMPDEST DUP3 PUSH1 0x7 ADD PUSH0 DUP3 DUP2 MSTORE PUSH1 0x20 ADD SWAP1 DUP2 MSTORE PUSH1 0x20 ADD PUSH0 KECCAK256 PUSH1 0x2 ADD PUSH0 SWAP1 SLOAD SWAP1 PUSH2 0x100 EXP SWAP1 DIV PUSH1 0xFF AND ISZERO PUSH2 0x19A6 JUMPI PUSH1 0x40 MLOAD PUSH32 0x8C379A000000000000000000000000000000000000000000000000000000000 DUP2 MSTORE PUSH1 0x4 ADD PUSH2 0x199D SWAP1 PUSH2 0x4D24 JUMP JUMPDEST PUSH1 0x40 MLOAD DUP1 SWAP2 SUB SWAP1 REVERT JUMPDEST PUSH1 0x1 DUP4 PUSH1 0x7 ADD PUSH0 DUP4 DUP2 MSTORE PUSH1 0x20 ADD SWAP1 DUP2 MSTORE PUSH1 0x20 ADD PUSH0 KECCAK256 PUSH1 0x2 ADD PUSH0 PUSH2 0x100 EXP DUP2 SLOAD DUP2 PUSH1 0xFF MUL NOT AND SWAP1 DUP4 ISZERO ISZERO MUL OR SWAP1 SSTORE POP TIMESTAMP DUP4 PUSH1 0xB ADD DUP2 SWAP1 SSTORE POP CALLER PUSH20 0xFFFFFFFFFFFFFFFFFFFFFFFFFFFFFFFFFFFFFFFF AND DUP5 PUSH32 0xF7A652DE63DA46D087A8AB25D4A13102E7A74085819FA17527271F9E5E7F9A5C DUP6 PUSH1 0x7 ADD PUSH0 DUP6 DUP2 MSTORE PUSH1 0x20 ADD SWAP1 DUP2 MSTORE PUSH1 0x20 ADD PUSH0 KECCAK256 PUSH1 0x1 ADD SLOAD PUSH1 0x40 MLOAD PUSH2 0x1A3A SWAP2 SWAP1 PUSH2 0x3C8A JUMP JUMPDEST PUSH1 0x40 MLOAD DUP1 SWAP2 SUB SWAP1 LOG3 POP POP POP POP JUMP JUMPDEST PUSH0 PUSH1 0x5 PUSH0 DUP6 DUP2 MSTORE PUSH1 0x20 ADD SWAP1 DUP2 MSTORE PUSH1 0x20 ADD PUSH0 KECCAK256 SWAP1 POP PUSH0 PUSH1 0x3 DUP2 GT ISZERO PUSH2 0x1A6F JUMPI PUSH2 0x1A6E PUSH2 0x3B6F JUMP JUMPDEST JUMPDEST DUP2 PUSH1 0x5 ADD PUSH0 SWAP1 SLOAD SWAP1 PUSH2 0x100 EXP SWAP1 DIV PUSH1 0xFF AND PUSH1 0x3 DUP2 GT ISZERO PUSH2 0x1A92 JUMPI PUSH2 0x1A91 PUSH2 0x3B6F JUMP JUMPDEST JUMPDEST EQ PUSH2 0x1AD2 JUMPI PUSH1 0x40 MLOAD PUSH32 0x8C379A000000000000000000000000000000000000000000000000000000000 DUP2 MSTORE PUSH1 0x4 ADD PUSH2 0x1AC9 SWAP1 PUSH2 0x4C2E JUMP JUMPDEST PUSH1 0x40 MLOAD DUP1 SWAP2 SUB SWAP1 REVERT JUMPDEST PUSH1 0x3 DUP2 PUSH1 0x8 ADD SLOAD LT PUSH2 0x1B19 JUMPI PUSH1 0x40 MLOAD PUSH32 0x8C379A000000000000000000000000000000000000000000000000000000000 DUP2 MSTORE PUSH1 0x4 ADD PUSH2 0x1B10 SWAP1 PUSH2 0x4D8C JUMP JUMPDEST PUSH1 0x40 MLOAD DUP1 SWAP2 SUB SWAP1 REVERT JUMPDEST PUSH0 DUP3 GT DUP1 ISZERO PUSH2 0x1B2A JUMPI POP PUSH2 0x2710 DUP3 GT ISZERO JUMPDEST PUSH2 0x1B69 JUMPI PUSH1 0x40 MLOAD PUSH32 0x8C379A000000000000000000000000000000000000000000000000000000000 DUP2 MSTORE PUSH1 0x4 ADD PUSH2 0x1B60 SWAP1 PUSH2 0x4DF4 JUMP JUMPDEST PUSH1 0x40 MLOAD DUP1 SWAP2 SUB SWAP1 REVERT JUMPDEST PUSH0 DUP3 SWAP1 POP PUSH0 JUMPDEST DUP3 PUSH1 0x8 ADD SLOAD DUP2 LT ISZERO PUSH2 0x1BAC JUMPI DUP3 PUSH1 0x9 ADD PUSH0 DUP3 DUP2 MSTORE PUSH1 0x20 ADD SWAP1 DUP2 MSTORE PUSH1 0x20 ADD PUSH0 KECCAK256 PUSH1 0x1 ADD SLOAD DUP3 PUSH2 0x1B9D SWAP2 SWAP1 PUSH2 0x4858 JUMP JUMPDEST SWAP2 POP DUP1 DUP1 PUSH1 0x1 ADD SWAP2 POP POP PUSH2 0x1B6F JUMP JUMPDEST POP PUSH2 0x2710 DUP2 GT ISZERO PUSH2 0x1BF2 JUMPI PUSH1 0x40 MLOAD PUSH32 0x8C379A000000000000000000000000000000000000000000000000000000000 DUP2 MSTORE PUSH1 0x4 ADD PUSH2 0x1BE9 SWAP1 PUSH2 0x4E5C JUMP JUMPDEST PUSH1 0x40 MLOAD DUP1 SWAP2 SUB SWAP1 REVERT JUMPDEST PUSH1 0x40 MLOAD DUP1 PUSH1 0x80 ADD PUSH1 0x40 MSTORE DUP1 DUP6 PUSH20 0xFFFFFFFFFFFFFFFFFFFFFFFFFFFFFFFFFFFFFFFF AND DUP2 MSTORE PUSH1 0x20 ADD DUP5 DUP2 MSTORE PUSH1 0x20 ADD PUSH0 DUP2 MSTORE PUSH1 0x20 ADD PUSH0 ISZERO ISZERO DUP2 MSTORE POP DUP3 PUSH1 0x9 ADD PUSH0 DUP5 PUSH1 0x8 ADD SLOAD DUP2 MSTORE PUSH1 0x20 ADD SWAP1 DUP2 MSTORE PUSH1 0x20 ADD PUSH0 KECCAK256 PUSH0 DUP3 ADD MLOAD DUP2 PUSH0 ADD PUSH0 PUSH2 0x100 EXP DUP2 SLOAD DUP2 PUSH20 0xFFFFFFFFFFFFFFFFFFFFFFFFFFFFFFFFFFFFFFFF MUL NOT AND SWAP1 DUP4 PUSH20 0xFFFFFFFFFFFFFFFFFFFFFFFFFFFFFFFFFFFFFFFF AND MUL OR SWAP1 SSTORE POP PUSH1 0x20 DUP3 ADD MLOAD DUP2 PUSH1 0x1 ADD SSTORE PUSH1 0x40 DUP3 ADD MLOAD DUP2 PUSH1 0x2 ADD SSTORE PUSH1 0x60 DUP3 ADD MLOAD DUP2 PUSH1 0x3 ADD PUSH0 PUSH2 0x100 EXP DUP2 SLOAD DUP2 PUSH1 0xFF MUL NOT AND SWAP1 DUP4 ISZERO ISZERO MUL OR SWAP1 SSTORE POP SWAP1 POP POP DUP2 PUSH1 0x8 ADD PUSH0 DUP2 SLOAD DUP1 SWAP3 SWAP2 SWAP1 PUSH2 0x1CD0 SWAP1 PUSH2 0x4A12 JUMP JUMPDEST SWAP2 SWAP1 POP SSTORE POP TIMESTAMP DUP3 PUSH1 0xB ADD DUP2 SWAP1 SSTORE POP PUSH2 0x2710 DUP2 SUB PUSH2 0x1D62 JUMPI PUSH1 0x1 DUP3 PUSH1 0x5 ADD PUSH0 PUSH2 0x100 EXP DUP2 SLOAD DUP2 PUSH1 0xFF MUL NOT AND SWAP1 DUP4 PUSH1 0x3 DUP2 GT ISZERO PUSH2 0x1D0E JUMPI PUSH2 0x1D0D PUSH2 0x3B6F JUMP JUMPDEST JUMPDEST MUL OR SWAP1 SSTORE POP DUP5 PUSH32 0x2029FF33A5CEFA752541F9DD453384DF0D463D7C42B66CF937F5112F76D4F545 DUP4 PUSH1 0x4 ADD SLOAD DUP5 PUSH1 0x5 ADD PUSH0 SWAP1 SLOAD SWAP1 PUSH2 0x100 EXP SWAP1 DIV PUSH1 0xFF AND PUSH1 0x40 MLOAD PUSH2 0x1D59 SWAP3 SWAP2 SWAP1 PUSH2 0x4926 JUMP JUMPDEST PUSH1 0x40 MLOAD DUP1 SWAP2 SUB SWAP1 LOG2 JUMPDEST DUP4 PUSH20 0xFFFFFFFFFFFFFFFFFFFFFFFFFFFFFFFFFFFFFFFF AND DUP6 PUSH32 0xC6A942827EE49928926ECF863DF111A88A435F513D60FF6C606BBE1C39B5E4E1 DUP6 PUSH1 0x40 MLOAD PUSH2 0x1DA9 SWAP2 SWAP1 PUSH2 0x3C8A JUMP JUMPDEST PUSH1 0x40 MLOAD DUP1 SWAP2 SUB SWAP1 LOG3 POP POP POP POP POP JUMP JUMPDEST PUSH1 0x60 PUSH0 DUP1 PUSH1 0x1 SWAP1 POP JUMPDEST PUSH1 0x4 SLOAD DUP2 GT PUSH2 0x1E88 JUMPI PUSH0 PUSH1 0x5 PUSH0 DUP4 DUP2 MSTORE PUSH1 0x20 ADD SWAP1 DUP2 MSTORE PUSH1 0x20 ADD PUSH0 KECCAK256 SWAP1 POP PUSH0 JUMPDEST DUP2 PUSH1 0x8 ADD SLOAD DUP2 LT ISZERO PUSH2 0x1E73 JUMPI DUP8 PUSH20 0xFFFFFFFFFFFFFFFFFFFFFFFFFFFFFFFFFFFFFFFF AND DUP3 PUSH1 0x9 ADD PUSH0 DUP4 DUP2 MSTORE PUSH1 0x20 ADD SWAP1 DUP2 MSTORE PUSH1 0x20 ADD PUSH0 KECCAK256 PUSH0 ADD PUSH0 SWAP1 SLOAD SWAP1 PUSH2 0x100 EXP SWAP1 DIV PUSH20 0xFFFFFFFFFFFFFFFFFFFFFFFFFFFFFFFFFFFFFFFF AND PUSH20 0xFFFFFFFFFFFFFFFFFFFFFFFFFFFFFFFFFFFFFFFF AND SUB PUSH2 0x1E66 JUMPI DUP4 DUP1 PUSH2 0x1E5E SWAP1 PUSH2 0x4A12 JUMP JUMPDEST SWAP5 POP POP PUSH2 0x1E73 JUMP JUMPDEST DUP1 DUP1 PUSH1 0x1 ADD SWAP2 POP POP PUSH2 0x1DE0 JUMP JUMPDEST POP POP DUP1 DUP1 PUSH2 0x1E80 SWAP1 PUSH2 0x4A12 JUMP JUMPDEST SWAP2 POP POP PUSH2 0x1DC1 JUMP JUMPDEST POP PUSH0 DUP2 SUB PUSH2 0x1EE1 JUMPI PUSH0 PUSH8 0xFFFFFFFFFFFFFFFF DUP2 GT ISZERO PUSH2 0x1EAA JUMPI PUSH2 0x1EA9 PUSH2 0x408F JUMP JUMPDEST JUMPDEST PUSH1 0x40 MLOAD SWAP1 DUP1 DUP3 MSTORE DUP1 PUSH1 0x20 MUL PUSH1 0x20 ADD DUP3 ADD PUSH1 0x40 MSTORE DUP1 ISZERO PUSH2 0x1ED8 JUMPI DUP2 PUSH1 0x20 ADD PUSH1 0x20 DUP3 MUL DUP1 CALLDATASIZE DUP4 CALLDATACOPY DUP1 DUP3 ADD SWAP2 POP POP SWAP1 POP JUMPDEST POP SWAP2 POP POP PUSH2 0x20AD JUMP JUMPDEST PUSH0 DUP5 SWAP1 POP DUP4 DUP3 PUSH2 0x1EF1 SWAP2 SWAP1 PUSH2 0x48F3 JUMP JUMPDEST DUP2 GT ISZERO PUSH2 0x1F20 JUMPI PUSH0 DUP5 DUP4 PUSH2 0x1F05 SWAP2 SWAP1 PUSH2 0x48F3 JUMP JUMPDEST GT PUSH2 0x1F10 JUMPI PUSH0 PUSH2 0x1F1D JUMP JUMPDEST DUP4 DUP3 PUSH2 0x1F1C SWAP2 SWAP1 PUSH2 0x48F3 JUMP JUMPDEST JUMPDEST SWAP1 POP JUMPDEST PUSH0 DUP2 PUSH8 0xFFFFFFFFFFFFFFFF DUP2 GT ISZERO PUSH2 0x1F3B JUMPI PUSH2 0x1F3A PUSH2 0x408F JUMP JUMPDEST JUMPDEST PUSH1 0x40 MLOAD SWAP1 DUP1 DUP3 MSTORE DUP1 PUSH1 0x20 MUL PUSH1 0x20 ADD DUP3 ADD PUSH1 0x40 MSTORE DUP1 ISZERO PUSH2 0x1F69 JUMPI DUP2 PUSH1 0x20 ADD PUSH1 0x20 DUP3 MUL DUP1 CALLDATASIZE DUP4 CALLDATACOPY DUP1 DUP3 ADD SWAP2 POP POP SWAP1 POP JUMPDEST POP SWAP1 POP PUSH0 DUP3 SUB PUSH2 0x1F7E JUMPI DUP1 SWAP4 POP POP POP POP PUSH2 0x20AD JUMP JUMPDEST PUSH0 DUP1 PUSH0 PUSH1 0x1 SWAP1 POP JUMPDEST PUSH1 0x4 SLOAD DUP2 GT ISZERO DUP1 ISZERO PUSH2 0x1F97 JUMPI POP DUP5 DUP4 LT JUMPDEST ISZERO PUSH2 0x20A3 JUMPI PUSH0 PUSH1 0x5 PUSH0 DUP4 DUP2 MSTORE PUSH1 0x20 ADD SWAP1 DUP2 MSTORE PUSH1 0x20 ADD PUSH0 KECCAK256 SWAP1 POP PUSH0 DUP1 JUMPDEST DUP3 PUSH1 0x8 ADD SLOAD DUP2 LT ISZERO PUSH2 0x203C JUMPI DUP13 PUSH20 0xFFFFFFFFFFFFFFFFFFFFFFFFFFFFFFFFFFFFFFFF AND DUP4 PUSH1 0x9 ADD PUSH0 DUP4 DUP2 MSTORE PUSH1 0x20 ADD SWAP1 DUP2 MSTORE PUSH1 0x20 ADD PUSH0 KECCAK256 PUSH0 ADD PUSH0 SWAP1 SLOAD SWAP1 PUSH2 0x100 EXP SWAP1 DIV PUSH20 0xFFFFFFFFFFFFFFFFFFFFFFFFFFFFFFFFFFFFFFFF AND PUSH20 0xFFFFFFFFFFFFFFFFFFFFFFFFFFFFFFFFFFFFFFFF AND SUB PUSH2 0x202F JUMPI PUSH1 0x1 SWAP2 POP PUSH2 0x203C JUMP JUMPDEST DUP1 DUP1 PUSH1 0x1 ADD SWAP2 POP POP PUSH2 0x1FB3 JUMP JUMPDEST POP DUP1 ISZERO PUSH2 0x208E JUMPI DUP10 DUP5 LT ISZERO PUSH2 0x205E JUMPI DUP4 DUP1 PUSH2 0x2056 SWAP1 PUSH2 0x4A12 JUMP JUMPDEST SWAP5 POP POP PUSH2 0x208D JUMP JUMPDEST DUP3 DUP7 DUP7 DUP2 MLOAD DUP2 LT PUSH2 0x2072 JUMPI PUSH2 0x2071 PUSH2 0x4A59 JUMP JUMPDEST JUMPDEST PUSH1 0x20 MUL PUSH1 0x20 ADD ADD DUP2 DUP2 MSTORE POP POP DUP5 DUP1 PUSH2 0x2089 SWAP1 PUSH2 0x4A12 JUMP JUMPDEST SWAP6 POP POP JUMPDEST JUMPDEST POP POP DUP1 DUP1 PUSH2 0x209B SWAP1 PUSH2 0x4A12 JUMP JUMPDEST SWAP2 POP POP PUSH2 0x1F86 JUMP JUMPDEST POP DUP3 SWAP6 POP POP POP POP POP POP JUMPDEST SWAP4 SWAP3 POP POP POP JUMP JUMPDEST PUSH0 DUP1 PUSH0 DUP1 PUSH1 0x5 PUSH0 DUP8 DUP2 MSTORE PUSH1 0x20 ADD SWAP1 DUP2 MSTORE PUSH1 0x20 ADD PUSH0 KECCAK256 SWAP1 POP DUP1 PUSH1 0x6 ADD SLOAD DUP6 LT PUSH2 0x2111 JUMPI PUSH1 0x40 MLOAD PUSH32 0x8C379A000000000000000000000000000000000000000000000000000000000 DUP2 MSTORE PUSH1 0x4 ADD PUSH2 0x2108 SWAP1 PUSH2 0x4EC4 JUMP JUMPDEST PUSH1 0x40 MLOAD DUP1 SWAP2 SUB SWAP1 REVERT JUMPDEST PUSH0 DUP2 PUSH1 0x7 ADD PUSH0 DUP8 DUP2 MSTORE PUSH1 0x20 ADD SWAP1 DUP2 MSTORE PUSH1 0x20 ADD PUSH0 KECCAK256 SWAP1 POP DUP1 PUSH0 ADD PUSH0 SWAP1 SLOAD SWAP1 PUSH2 0x100 EXP SWAP1 DIV PUSH20 0xFFFFFFFFFFFFFFFFFFFFFFFFFFFFFFFFFFFFFFFF AND DUP2 PUSH1 0x1 ADD SLOAD DUP3 PUSH1 0x2 ADD PUSH0 SWAP1 SLOAD SWAP1 PUSH2 0x100 EXP SWAP1 DIV PUSH1 0xFF AND SWAP5 POP SWAP5 POP SWAP5 POP POP POP SWAP3 POP SWAP3 POP SWAP3 JUMP JUMPDEST PUSH0 DUP1 PUSH1 0x5 PUSH0 DUP5 DUP2 MSTORE PUSH1 0x20 ADD SWAP1 DUP2 MSTORE PUSH1 0x20 ADD PUSH0 KECCAK256 SWAP1 POP PUSH0 JUMPDEST DUP2 PUSH1 0x6 ADD SLOAD DUP2 LT ISZERO PUSH2 0x21D0 JUMPI DUP2 PUSH1 0x7 ADD PUSH0 DUP3 DUP2 MSTORE PUSH1 0x20 ADD SWAP1 DUP2 MSTORE PUSH1 0x20 ADD PUSH0 KECCAK256 PUSH1 0x2 ADD PUSH0 SWAP1 SLOAD SWAP1 PUSH2 0x100 EXP SWAP1 DIV PUSH1 0xFF AND PUSH2 0x21C3 JUMPI PUSH0 SWAP3 POP POP POP PUSH2 0x21D7 JUMP JUMPDEST DUP1 DUP1 PUSH1 0x1 ADD SWAP2 POP POP PUSH2 0x2186 JUMP JUMPDEST POP PUSH1 0x1 SWAP2 POP POP JUMPDEST SWAP2 SWAP1 POP JUMP JUMPDEST PUSH1 0x60 PUSH0 DUP1 PUSH1 0x1 SWAP1 POP JUMPDEST PUSH1 0x4 SLOAD DUP2 GT PUSH2 0x2276 JUMPI DUP6 PUSH20 0xFFFFFFFFFFFFFFFFFFFFFFFFFFFFFFFFFFFFFFFF AND PUSH1 0x5 PUSH0 DUP4 DUP2 MSTORE PUSH1 0x20 ADD SWAP1 DUP2 MSTORE PUSH1 0x20 ADD PUSH0 KECCAK256 PUSH1 0x3 ADD PUSH0 SWAP1 SLOAD SWAP1 PUSH2 0x100 EXP SWAP1 DIV PUSH20 0xFFFFFFFFFFFFFFFFFFFFFFFFFFFFFFFFFFFFFFFF AND PUSH20 0xFFFFFFFFFFFFFFFFFFFFFFFFFFFFFFFFFFFFFFFF AND SUB PUSH2 0x2263 JUMPI DUP2 DUP1 PUSH2 0x225F SWAP1 PUSH2 0x4A12 JUMP JUMPDEST SWAP3 POP POP JUMPDEST DUP1 DUP1 PUSH2 0x226E SWAP1 PUSH2 0x4A12 JUMP JUMPDEST SWAP2 POP POP PUSH2 0x21E5 JUMP JUMPDEST POP PUSH0 DUP2 SUB PUSH2 0x22CF JUMPI PUSH0 PUSH8 0xFFFFFFFFFFFFFFFF DUP2 GT ISZERO PUSH2 0x2298 JUMPI PUSH2 0x2297 PUSH2 0x408F JUMP JUMPDEST JUMPDEST PUSH1 0x40 MLOAD SWAP1 DUP1 DUP3 MSTORE DUP1 PUSH1 0x20 MUL PUSH1 0x20 ADD DUP3 ADD PUSH1 0x40 MSTORE DUP1 ISZERO PUSH2 0x22C6 JUMPI DUP2 PUSH1 0x20 ADD PUSH1 0x20 DUP3 MUL DUP1 CALLDATASIZE DUP4 CALLDATACOPY DUP1 DUP3 ADD SWAP2 POP POP SWAP1 POP JUMPDEST POP SWAP2 POP POP PUSH2 0x2458 JUMP JUMPDEST PUSH0 DUP5 SWAP1 POP DUP4 DUP3 PUSH2 0x22DF SWAP2 SWAP1 PUSH2 0x48F3 JUMP JUMPDEST DUP2 GT ISZERO PUSH2 0x230E JUMPI PUSH0 DUP5 DUP4 PUSH2 0x22F3 SWAP2 SWAP1 PUSH2 0x48F3 JUMP JUMPDEST GT PUSH2 0x22FE JUMPI PUSH0 PUSH2 0x230B JUMP JUMPDEST DUP4 DUP3 PUSH2 0x230A SWAP2 SWAP1 PUSH2 0x48F3 JUMP JUMPDEST JUMPDEST SWAP1 POP JUMPDEST PUSH0 DUP2 PUSH8 0xFFFFFFFFFFFFFFFF DUP2 GT ISZERO PUSH2 0x2329 JUMPI PUSH2 0x2328 PUSH2 0x408F JUMP JUMPDEST JUMPDEST PUSH1 0x40 MLOAD SWAP1 DUP1 DUP3 MSTORE DUP1 PUSH1 0x20 MUL PUSH1 0x20 ADD DUP3 ADD PUSH1 0x40 MSTORE DUP1 ISZERO PUSH2 0x2357 JUMPI DUP2 PUSH1 0x20 ADD PUSH1 0x20 DUP3 MUL DUP1 CALLDATASIZE DUP4 CALLDATACOPY DUP1 DUP3 ADD SWAP2 POP POP SWAP1 POP JUMPDEST POP SWAP1 POP PUSH0 DUP3 SUB PUSH2 0x236C JUMPI DUP1 SWAP4 POP POP POP POP PUSH2 0x2458 JUMP JUMPDEST PUSH0 DUP1 PUSH0 PUSH1 0x1 SWAP1 POP JUMPDEST PUSH1 0x4 SLOAD DUP2 GT ISZERO DUP1 ISZERO PUSH2 0x2385 JUMPI POP DUP5 DUP4 LT JUMPDEST ISZERO PUSH2 0x244E JUMPI DUP10 PUSH20 0xFFFFFFFFFFFFFFFFFFFFFFFFFFFFFFFFFFFFFFFF AND PUSH1 0x5 PUSH0 DUP4 DUP2 MSTORE PUSH1 0x20 ADD SWAP1 DUP2 MSTORE PUSH1 0x20 ADD PUSH0 KECCAK256 PUSH1 0x3 ADD PUSH0 SWAP1 SLOAD SWAP1 PUSH2 0x100 EXP SWAP1 DIV PUSH20 0xFFFFFFFFFFFFFFFFFFFFFFFFFFFFFFFFFFFFFFFF AND PUSH20 0xFFFFFFFFFFFFFFFFFFFFFFFFFFFFFFFFFFFFFFFF AND SUB PUSH2 0x243B JUMPI DUP8 DUP3 LT ISZERO PUSH2 0x240B JUMPI DUP2 DUP1 PUSH2 0x2403 SWAP1 PUSH2 0x4A12 JUMP JUMPDEST SWAP3 POP POP PUSH2 0x243A JUMP JUMPDEST DUP1 DUP5 DUP5 DUP2 MLOAD DUP2 LT PUSH2 0x241F JUMPI PUSH2 0x241E PUSH2 0x4A59 JUMP JUMPDEST JUMPDEST PUSH1 0x20 MUL PUSH1 0x20 ADD ADD DUP2 DUP2 MSTORE POP POP DUP3 DUP1 PUSH2 0x2436 SWAP1 PUSH2 0x4A12 JUMP JUMPDEST SWAP4 POP POP JUMPDEST JUMPDEST DUP1 DUP1 PUSH2 0x2446 SWAP1 PUSH2 0x4A12 JUMP JUMPDEST SWAP2 POP POP PUSH2 0x2374 JUMP JUMPDEST POP DUP3 SWAP6 POP POP POP POP POP POP JUMPDEST SWAP4 SWAP3 POP POP POP JUMP JUMPDEST PUSH1 0x2 SLOAD DUP2 JUMP JUMPDEST PUSH0 DUP1 PUSH0 DUP1 PUSH0 PUSH1 0x5 PUSH0 DUP9 DUP2 MSTORE PUSH1 0x20 ADD SWAP1 DUP2 MSTORE PUSH1 0x20 ADD PUSH0 KECCAK256 SWAP1 POP DUP1 PUSH1 0x8 ADD SLOAD DUP7 LT PUSH2 0x24C3 JUMPI PUSH1 0x40 MLOAD PUSH32 0x8C379A000000000000000000000000000000000000000000000000000000000 DUP2 MSTORE PUSH1 0x4 ADD PUSH2 0x24BA SWAP1 PUSH2 0x4F2C JUMP JUMPDEST PUSH1 0x40 MLOAD DUP1 SWAP2 SUB SWAP1 REVERT JUMPDEST PUSH0 DUP2 PUSH1 0x9 ADD PUSH0 DUP9 DUP2 MSTORE PUSH1 0x20 ADD SWAP1 DUP2 MSTORE PUSH1 0x20 ADD PUSH0 KECCAK256 SWAP1 POP DUP1 PUSH0 ADD PUSH0 SWAP1 SLOAD SWAP1 PUSH2 0x100 EXP SWAP1 DIV PUSH20 0xFFFFFFFFFFFFFFFFFFFFFFFFFFFFFFFFFFFFFFFF AND DUP2 PUSH1 0x1 ADD SLOAD DUP3 PUSH1 0x2 ADD SLOAD DUP4 PUSH1 0x3 ADD PUSH0 SWAP1 SLOAD SWAP1 PUSH2 0x100 EXP SWAP1 DIV PUSH1 0xFF AND SWAP6 POP SWAP6 POP SWAP6 POP SWAP6 POP POP POP SWAP3 SWAP6 SWAP2 SWAP5 POP SWAP3 POP JUMP JUMPDEST PUSH2 0x2532 PUSH2 0x387F JUMP JUMPDEST PUSH2 0x253B PUSH0 PUSH2 0x3906 JUMP JUMPDEST JUMP JUMPDEST PUSH1 0x60 PUSH0 DUP1 PUSH1 0x1 SWAP1 POP JUMPDEST PUSH1 0x7 SLOAD DUP2 GT PUSH2 0x258C JUMPI DUP6 PUSH1 0x6 PUSH0 DUP4 DUP2 MSTORE PUSH1 0x20 ADD SWAP1 DUP2 MSTORE PUSH1 0x20 ADD PUSH0 KECCAK256 PUSH1 0x1 ADD SLOAD SUB PUSH2 0x2579 JUMPI DUP2 DUP1 PUSH2 0x2575 SWAP1 PUSH2 0x4A12 JUMP JUMPDEST SWAP3 POP POP JUMPDEST DUP1 DUP1 PUSH2 0x2584 SWAP1 PUSH2 0x4A12 JUMP JUMPDEST SWAP2 POP POP PUSH2 0x2546 JUMP JUMPDEST POP PUSH0 DUP2 SUB PUSH2 0x25E5 JUMPI PUSH0 PUSH8 0xFFFFFFFFFFFFFFFF DUP2 GT ISZERO PUSH2 0x25AE JUMPI PUSH2 0x25AD PUSH2 0x408F JUMP JUMPDEST JUMPDEST PUSH1 0x40 MLOAD SWAP1 DUP1 DUP3 MSTORE DUP1 PUSH1 0x20 MUL PUSH1 0x20 ADD DUP3 ADD PUSH1 0x40 MSTORE DUP1 ISZERO PUSH2 0x25DC JUMPI DUP2 PUSH1 0x20 ADD PUSH1 0x20 DUP3 MUL DUP1 CALLDATASIZE DUP4 CALLDATACOPY DUP1 DUP3 ADD SWAP2 POP POP SWAP1 POP JUMPDEST POP SWAP2 POP POP PUSH2 0x2723 JUMP JUMPDEST PUSH0 DUP5 SWAP1 POP DUP4 DUP3 PUSH2 0x25F5 SWAP2 SWAP1 PUSH2 0x48F3 JUMP JUMPDEST DUP2 GT ISZERO PUSH2 0x2624 JUMPI PUSH0 DUP5 DUP4 PUSH2 0x2609 SWAP2 SWAP1 PUSH2 0x48F3 JUMP JUMPDEST GT PUSH2 0x2614 JUMPI PUSH0 PUSH2 0x2621 JUMP JUMPDEST DUP4 DUP3 PUSH2 0x2620 SWAP2 SWAP1 PUSH2 0x48F3 JUMP JUMPDEST JUMPDEST SWAP1 POP JUMPDEST PUSH0 DUP2 PUSH8 0xFFFFFFFFFFFFFFFF DUP2 GT ISZERO PUSH2 0x263F JUMPI PUSH2 0x263E PUSH2 0x408F JUMP JUMPDEST JUMPDEST PUSH1 0x40 MLOAD SWAP1 DUP1 DUP3 MSTORE DUP1 PUSH1 0x20 MUL PUSH1 0x20 ADD DUP3 ADD PUSH1 0x40 MSTORE DUP1 ISZERO PUSH2 0x266D JUMPI DUP2 PUSH1 0x20 ADD PUSH1 0x20 DUP3 MUL DUP1 CALLDATASIZE DUP4 CALLDATACOPY DUP1 DUP3 ADD SWAP2 POP POP SWAP1 POP JUMPDEST POP SWAP1 POP PUSH0 DUP3 SUB PUSH2 0x2682 JUMPI DUP1 SWAP4 POP POP POP POP PUSH2 0x2723 JUMP JUMPDEST PUSH0 DUP1 PUSH0 PUSH1 0x1 SWAP1 POP JUMPDEST PUSH1 0x7 SLOAD DUP2 GT ISZERO DUP1 ISZERO PUSH2 0x269B JUMPI POP DUP5 DUP4 LT JUMPDEST ISZERO PUSH2 0x2719 JUMPI DUP10 PUSH1 0x6 PUSH0 DUP4 DUP2 MSTORE PUSH1 0x20 ADD SWAP1 DUP2 MSTORE PUSH1 0x20 ADD PUSH0 KECCAK256 PUSH1 0x1 ADD SLOAD SUB PUSH2 0x2706 JUMPI DUP8 DUP3 LT ISZERO PUSH2 0x26D6 JUMPI DUP2 DUP1 PUSH2 0x26CE SWAP1 PUSH2 0x4A12 JUMP JUMPDEST SWAP3 POP POP PUSH2 0x2705 JUMP JUMPDEST DUP1 DUP5 DUP5 DUP2 MLOAD DUP2 LT PUSH2 0x26EA JUMPI PUSH2 0x26E9 PUSH2 0x4A59 JUMP JUMPDEST JUMPDEST PUSH1 0x20 MUL PUSH1 0x20 ADD ADD DUP2 DUP2 MSTORE POP POP DUP3 DUP1 PUSH2 0x2701 SWAP1 PUSH2 0x4A12 JUMP JUMPDEST SWAP4 POP POP JUMPDEST JUMPDEST DUP1 DUP1 PUSH2 0x2711 SWAP1 PUSH2 0x4A12 JUMP JUMPDEST SWAP2 POP POP PUSH2 0x268A JUMP JUMPDEST POP DUP3 SWAP6 POP POP POP POP POP POP JUMPDEST SWAP4 SWAP3 POP POP POP JUMP JUMPDEST PUSH0 DUP1 PUSH0 SWAP1 SLOAD SWAP1 PUSH2 0x100 EXP SWAP1 DIV PUSH20 0xFFFFFFFFFFFFFFFFFFFFFFFFFFFFFFFFFFFFFFFF AND SWAP1 POP SWAP1 JUMP JUMPDEST PUSH1 0x60 PUSH0 DUP1 PUSH1 0x1 SWAP1 POP JUMPDEST PUSH1 0x4 SLOAD DUP2 GT PUSH2 0x27D0 JUMPI DUP6 PUSH1 0x3 DUP2 GT ISZERO PUSH2 0x2776 JUMPI PUSH2 0x2775 PUSH2 0x3B6F JUMP JUMPDEST JUMPDEST PUSH1 0x5 PUSH0 DUP4 DUP2 MSTORE PUSH1 0x20 ADD SWAP1 DUP2 MSTORE PUSH1 0x20 ADD PUSH0 KECCAK256 PUSH1 0x5 ADD PUSH0 SWAP1 SLOAD SWAP1 PUSH2 0x100 EXP SWAP1 DIV PUSH1 0xFF AND PUSH1 0x3 DUP2 GT ISZERO PUSH2 0x27A9 JUMPI PUSH2 0x27A8 PUSH2 0x3B6F JUMP JUMPDEST JUMPDEST SUB PUSH2 0x27BD JUMPI DUP2 DUP1 PUSH2 0x27B9 SWAP1 PUSH2 0x4A12 JUMP JUMPDEST SWAP3 POP POP JUMPDEST DUP1 DUP1 PUSH2 0x27C8 SWAP1 PUSH2 0x4A12 JUMP JUMPDEST SWAP2 POP POP PUSH2 0x275A JUMP JUMPDEST POP PUSH0 DUP2 SUB PUSH2 0x2829 JUMPI PUSH0 PUSH8 0xFFFFFFFFFFFFFFFF DUP2 GT ISZERO PUSH2 0x27F2 JUMPI PUSH2 0x27F1 PUSH2 0x408F JUMP JUMPDEST JUMPDEST PUSH1 0x40 MLOAD SWAP1 DUP1 DUP3 MSTORE DUP1 PUSH1 0x20 MUL PUSH1 0x20 ADD DUP3 ADD PUSH1 0x40 MSTORE DUP1 ISZERO PUSH2 0x2820 JUMPI DUP2 PUSH1 0x20 ADD PUSH1 0x20 DUP3 MUL DUP1 CALLDATASIZE DUP4 CALLDATACOPY DUP1 DUP3 ADD SWAP2 POP POP SWAP1 POP JUMPDEST POP SWAP2 POP POP PUSH2 0x2997 JUMP JUMPDEST PUSH0 DUP5 SWAP1 POP DUP4 DUP3 PUSH2 0x2839 SWAP2 SWAP1 PUSH2 0x48F3 JUMP JUMPDEST DUP2 GT ISZERO PUSH2 0x2868 JUMPI PUSH0 DUP5 DUP4 PUSH2 0x284D SWAP2 SWAP1 PUSH2 0x48F3 JUMP JUMPDEST GT PUSH2 0x2858 JUMPI PUSH0 PUSH2 0x2865 JUMP JUMPDEST DUP4 DUP3 PUSH2 0x2864 SWAP2 SWAP1 PUSH2 0x48F3 JUMP JUMPDEST JUMPDEST SWAP1 POP JUMPDEST PUSH0 DUP2 PUSH8 0xFFFFFFFFFFFFFFFF DUP2 GT ISZERO PUSH2 0x2883 JUMPI PUSH2 0x2882 PUSH2 0x408F JUMP JUMPDEST JUMPDEST PUSH1 0x40 MLOAD SWAP1 DUP1 DUP3 MSTORE DUP1 PUSH1 0x20 MUL PUSH1 0x20 ADD DUP3 ADD PUSH1 0x40 MSTORE DUP1 ISZERO PUSH2 0x28B1 JUMPI DUP2 PUSH1 0x20 ADD PUSH1 0x20 DUP3 MUL DUP1 CALLDATASIZE DUP4 CALLDATACOPY DUP1 DUP3 ADD SWAP2 POP POP SWAP1 POP JUMPDEST POP SWAP1 POP PUSH0 DUP3 SUB PUSH2 0x28C6 JUMPI DUP1 SWAP4 POP POP POP POP PUSH2 0x2997 JUMP JUMPDEST PUSH0 DUP1 PUSH0 PUSH1 0x1 SWAP1 POP JUMPDEST PUSH1 0x4 SLOAD DUP2 GT ISZERO DUP1 ISZERO PUSH2 0x28DF JUMPI POP DUP5 DUP4 LT JUMPDEST ISZERO PUSH2 0x298D JUMPI DUP10 PUSH1 0x3 DUP2 GT ISZERO PUSH2 0x28F7 JUMPI PUSH2 0x28F6 PUSH2 0x3B6F JUMP JUMPDEST JUMPDEST PUSH1 0x5 PUSH0 DUP4 DUP2 MSTORE PUSH1 0x20 ADD SWAP1 DUP2 MSTORE PUSH1 0x20 ADD PUSH0 KECCAK256 PUSH1 0x5 ADD PUSH0 SWAP1 SLOAD SWAP1 PUSH2 0x100 EXP SWAP1 DIV PUSH1 0xFF AND PUSH1 0x3 DUP2 GT ISZERO PUSH2 0x292A JUMPI PUSH2 0x2929 PUSH2 0x3B6F JUMP JUMPDEST JUMPDEST SUB PUSH2 0x297A JUMPI DUP8 DUP3 LT ISZERO PUSH2 0x294A JUMPI DUP2 DUP1 PUSH2 0x2942 SWAP1 PUSH2 0x4A12 JUMP JUMPDEST SWAP3 POP POP PUSH2 0x2979 JUMP JUMPDEST DUP1 DUP5 DUP5 DUP2 MLOAD DUP2 LT PUSH2 0x295E JUMPI PUSH2 0x295D PUSH2 0x4A59 JUMP JUMPDEST JUMPDEST PUSH1 0x20 MUL PUSH1 0x20 ADD ADD DUP2 DUP2 MSTORE POP POP DUP3 DUP1 PUSH2 0x2975 SWAP1 PUSH2 0x4A12 JUMP JUMPDEST SWAP4 POP POP JUMPDEST JUMPDEST DUP1 DUP1 PUSH2 0x2985 SWAP1 PUSH2 0x4A12 JUMP JUMPDEST SWAP2 POP POP PUSH2 0x28CE JUMP JUMPDEST POP DUP3 SWAP6 POP POP POP POP POP POP JUMPDEST SWAP4 SWAP3 POP POP POP JUMP JUMPDEST PUSH1 0x6 PUSH1 0x20 MSTORE DUP1 PUSH0 MSTORE PUSH1 0x40 PUSH0 KECCAK256 PUSH0 SWAP2 POP SWAP1 POP DUP1 PUSH0 ADD SLOAD SWAP1 DUP1 PUSH1 0x1 ADD SLOAD SWAP1 DUP1 PUSH1 0x2 ADD PUSH0 SWAP1 SLOAD SWAP1 PUSH2 0x100 EXP SWAP1 DIV PUSH20 0xFFFFFFFFFFFFFFFFFFFFFFFFFFFFFFFFFFFFFFFF AND SWAP1 DUP1 PUSH1 0x3 ADD PUSH0 SWAP1 SLOAD SWAP1 PUSH2 0x100 EXP SWAP1 DIV PUSH20 0xFFFFFFFFFFFFFFFFFFFFFFFFFFFFFFFFFFFFFFFF AND SWAP1 DUP1 PUSH1 0x4 ADD SLOAD SWAP1 DUP1 PUSH1 0x5 ADD SLOAD SWAP1 DUP1 PUSH1 0x6 ADD DUP1 SLOAD PUSH2 0x2A1F SWAP1 PUSH2 0x49E2 JUMP JUMPDEST DUP1 PUSH1 0x1F ADD PUSH1 0x20 DUP1 SWAP2 DIV MUL PUSH1 0x20 ADD PUSH1 0x40 MLOAD SWAP1 DUP2 ADD PUSH1 0x40 MSTORE DUP1 SWAP3 SWAP2 SWAP1 DUP2 DUP2 MSTORE PUSH1 0x20 ADD DUP3 DUP1 SLOAD PUSH2 0x2A4B SWAP1 PUSH2 0x49E2 JUMP JUMPDEST DUP1 ISZERO PUSH2 0x2A96 JUMPI DUP1 PUSH1 0x1F LT PUSH2 0x2A6D JUMPI PUSH2 0x100 DUP1 DUP4 SLOAD DIV MUL DUP4 MSTORE SWAP2 PUSH1 0x20 ADD SWAP2 PUSH2 0x2A96 JUMP JUMPDEST DUP3 ADD SWAP2 SWAP1 PUSH0 MSTORE PUSH1 0x20 PUSH0 KECCAK256 SWAP1 JUMPDEST DUP2 SLOAD DUP2 MSTORE SWAP1 PUSH1 0x1 ADD SWAP1 PUSH1 0x20 ADD DUP1 DUP4 GT PUSH2 0x2A79 JUMPI DUP3 SWAP1 SUB PUSH1 0x1F AND DUP3 ADD SWAP2 JUMPDEST POP POP POP POP POP SWAP1 POP DUP8 JUMP JUMPDEST PUSH2 0x2AA8 PUSH2 0x387F JUMP JUMPDEST PUSH2 0x3E8 DUP2 GT ISZERO PUSH2 0x2AED JUMPI PUSH1 0x40 MLOAD PUSH32 0x8C379A000000000000000000000000000000000000000000000000000000000 DUP2 MSTORE PUSH1 0x4 ADD PUSH2 0x2AE4 SWAP1 PUSH2 0x4F94 JUMP JUMPDEST PUSH1 0x40 MLOAD DUP1 SWAP2 SUB SWAP1 REVERT JUMPDEST DUP1 PUSH1 0x3 DUP2 SWAP1 SSTORE POP PUSH32 0x14960EBFF9E4FBC7EAD924642E621A388C55E6DB3D20028E92770A29F9A6AC7C DUP2 PUSH1 0x40 MLOAD PUSH2 0x2B23 SWAP2 SWAP1 PUSH2 0x3C8A JUMP JUMPDEST PUSH1 0x40 MLOAD DUP1 SWAP2 SUB SWAP1 LOG1 POP JUMP JUMPDEST PUSH0 PUSH1 0x5 PUSH0 DUP6 DUP2 MSTORE PUSH1 0x20 ADD SWAP1 DUP2 MSTORE PUSH1 0x20 ADD PUSH0 KECCAK256 SWAP1 POP DUP1 PUSH1 0x3 ADD PUSH0 SWAP1 SLOAD SWAP1 PUSH2 0x100 EXP SWAP1 DIV PUSH20 0xFFFFFFFFFFFFFFFFFFFFFFFFFFFFFFFFFFFFFFFF AND PUSH20 0xFFFFFFFFFFFFFFFFFFFFFFFFFFFFFFFFFFFFFFFF AND CALLER PUSH20 0xFFFFFFFFFFFFFFFFFFFFFFFFFFFFFFFFFFFFFFFF AND EQ PUSH2 0x2BD3 JUMPI PUSH1 0x40 MLOAD PUSH32 0x8C379A000000000000000000000000000000000000000000000000000000000 DUP2 MSTORE PUSH1 0x4 ADD PUSH2 0x2BCA SWAP1 PUSH2 0x4FFC JUMP JUMPDEST PUSH1 0x40 MLOAD DUP1 SWAP2 SUB SWAP1 REVERT JUMPDEST PUSH0 PUSH1 0x3 DUP2 GT ISZERO PUSH2 0x2BE6 JUMPI PUSH2 0x2BE5 PUSH2 0x3B6F JUMP JUMPDEST JUMPDEST DUP2 PUSH1 0x5 ADD PUSH0 SWAP1 SLOAD SWAP1 PUSH2 0x100 EXP SWAP1 DIV PUSH1 0xFF AND PUSH1 0x3 DUP2 GT ISZERO PUSH2 0x2C09 JUMPI PUSH2 0x2C08 PUSH2 0x3B6F JUMP JUMPDEST JUMPDEST EQ PUSH2 0x2C49 JUMPI PUSH1 0x40 MLOAD PUSH32 0x8C379A000000000000000000000000000000000000000000000000000000000 DUP2 MSTORE PUSH1 0x4 ADD PUSH2 0x2C40 SWAP1 PUSH2 0x4C2E JUMP JUMPDEST PUSH1 0x40 MLOAD DUP1 SWAP2 SUB SWAP1 REVERT JUMPDEST DUP3 DUP2 PUSH1 0x4 ADD DUP2 SWAP1 SSTORE POP DUP2 DUP2 PUSH1 0x1 ADD SWAP1 DUP2 PUSH2 0x2C63 SWAP2 SWAP1 PUSH2 0x51B7 JUMP JUMPDEST POP TIMESTAMP DUP2 PUSH1 0xB ADD DUP2 SWAP1 SSTORE POP DUP4 PUSH32 0x2029FF33A5CEFA752541F9DD453384DF0D463D7C42B66CF937F5112F76D4F545 DUP5 DUP4 PUSH1 0x5 ADD PUSH0 SWAP1 SLOAD SWAP1 PUSH2 0x100 EXP SWAP1 DIV PUSH1 0xFF AND PUSH1 0x40 MLOAD PUSH2 0x2CAF SWAP3 SWAP2 SWAP1 PUSH2 0x4926 JUMP JUMPDEST PUSH1 0x40 MLOAD DUP1 SWAP2 SUB SWAP1 LOG2 POP POP POP POP JUMP JUMPDEST PUSH0 PUSH1 0x7 SLOAD SWAP1 POP SWAP1 JUMP JUMPDEST PUSH1 0x7 SLOAD DUP2 JUMP JUMPDEST PUSH0 DUP1 PUSH0 DUP1 PUSH1 0x5 PUSH0 DUP8 DUP2 MSTORE PUSH1 0x20 ADD SWAP1 DUP2 MSTORE PUSH1 0x20 ADD PUSH0 KECCAK256 SWAP1 POP DUP1 PUSH1 0x8 ADD SLOAD DUP6 LT PUSH2 0x2D29 JUMPI PUSH1 0x40 MLOAD PUSH32 0x8C379A000000000000000000000000000000000000000000000000000000000 DUP2 MSTORE PUSH1 0x4 ADD PUSH2 0x2D20 SWAP1 PUSH2 0x4F2C JUMP JUMPDEST PUSH1 0x40 MLOAD DUP1 SWAP2 SUB SWAP1 REVERT JUMPDEST PUSH0 DUP2 PUSH1 0x9 ADD PUSH0 DUP8 DUP2 MSTORE PUSH1 0x20 ADD SWAP1 DUP2 MSTORE PUSH1 0x20 ADD PUSH0 KECCAK256 SWAP1 POP PUSH2 0x2710 DUP2 PUSH1 0x1 ADD SLOAD DUP4 PUSH1 0x4 ADD SLOAD PUSH2 0x2D56 SWAP2 SWAP1 PUSH2 0x47BA JUMP JUMPDEST PUSH2 0x2D60 SWAP2 SWAP1 PUSH2 0x4828 JUMP JUMPDEST SWAP5 POP PUSH2 0x2710 PUSH1 0x3 SLOAD DUP7 PUSH2 0x2D73 SWAP2 SWAP1 PUSH2 0x47BA JUMP JUMPDEST PUSH2 0x2D7D SWAP2 SWAP1 PUSH2 0x4828 JUMP JUMPDEST SWAP4 POP DUP4 DUP6 PUSH2 0x2D8B SWAP2 SWAP1 PUSH2 0x4858 JUMP JUMPDEST SWAP3 POP POP POP SWAP3 POP SWAP3 POP SWAP3 JUMP JUMPDEST PUSH1 0x4 SLOAD DUP2 JUMP JUMPDEST PUSH0 PUSH2 0x2DA5 PUSH2 0x361A JUMP JUMPDEST PUSH1 0x2 SLOAD CALLVALUE LT ISZERO PUSH2 0x2DEA JUMPI PUSH1 0x40 MLOAD PUSH32 0x8C379A000000000000000000000000000000000000000000000000000000000 DUP2 MSTORE PUSH1 0x4 ADD PUSH2 0x2DE1 SWAP1 PUSH2 0x52D0 JUMP JUMPDEST PUSH1 0x40 MLOAD DUP1 SWAP2 SUB SWAP1 REVERT JUMPDEST PUSH1 0x3 DUP4 MLOAD GT ISZERO PUSH2 0x2E2F JUMPI PUSH1 0x40 MLOAD PUSH32 0x8C379A000000000000000000000000000000000000000000000000000000000 DUP2 MSTORE PUSH1 0x4 ADD PUSH2 0x2E26 SWAP1 PUSH2 0x535E JUMP JUMPDEST PUSH1 0x40 MLOAD DUP1 SWAP2 SUB SWAP1 REVERT JUMPDEST DUP2 MLOAD DUP4 MLOAD EQ PUSH2 0x2E73 JUMPI PUSH1 0x40 MLOAD PUSH32 0x8C379A000000000000000000000000000000000000000000000000000000000 DUP2 MSTORE PUSH1 0x4 ADD PUSH2 0x2E6A SWAP1 PUSH2 0x53C6 JUMP JUMPDEST PUSH1 0x40 MLOAD DUP1 SWAP2 SUB SWAP1 REVERT JUMPDEST PUSH0 DUP1 JUMPDEST DUP4 MLOAD DUP2 LT ISZERO PUSH2 0x2EB4 JUMPI DUP4 DUP2 DUP2 MLOAD DUP2 LT PUSH2 0x2E92 JUMPI PUSH2 0x2E91 PUSH2 0x4A59 JUMP JUMPDEST JUMPDEST PUSH1 0x20 MUL PUSH1 0x20 ADD ADD MLOAD DUP3 PUSH2 0x2EA5 SWAP2 SWAP1 PUSH2 0x4858 JUMP JUMPDEST SWAP2 POP DUP1 DUP1 PUSH1 0x1 ADD SWAP2 POP POP PUSH2 0x2E76 JUMP JUMPDEST POP PUSH2 0x1388 DUP2 GT ISZERO PUSH2 0x2EFA JUMPI PUSH1 0x40 MLOAD PUSH32 0x8C379A000000000000000000000000000000000000000000000000000000000 DUP2 MSTORE PUSH1 0x4 ADD PUSH2 0x2EF1 SWAP1 PUSH2 0x542E JUMP JUMPDEST PUSH1 0x40 MLOAD DUP1 SWAP2 SUB SWAP1 REVERT JUMPDEST PUSH2 0x2F02 PUSH2 0x272A JUMP JUMPDEST PUSH20 0xFFFFFFFFFFFFFFFFFFFFFFFFFFFFFFFFFFFFFFFF AND PUSH2 0x8FC CALLVALUE SWAP1 DUP2 ISZERO MUL SWAP1 PUSH1 0x40 MLOAD PUSH0 PUSH1 0x40 MLOAD DUP1 DUP4 SUB DUP2 DUP6 DUP9 DUP9 CALL SWAP4 POP POP POP POP ISZERO DUP1 ISZERO PUSH2 0x2F44 JUMPI RETURNDATASIZE PUSH0 DUP1 RETURNDATACOPY RETURNDATASIZE PUSH0 REVERT JUMPDEST POP PUSH0 PUSH1 0x4 PUSH0 DUP2 SLOAD PUSH2 0x2F54 SWAP1 PUSH2 0x4A12 JUMP JUMPDEST SWAP2 SWAP1 POP DUP2 SWAP1 SSTORE SWAP1 POP PUSH0 PUSH1 0x5 PUSH0 DUP4 DUP2 MSTORE PUSH1 0x20 ADD SWAP1 DUP2 MSTORE PUSH1 0x20 ADD PUSH0 KECCAK256 SWAP1 POP DUP2 DUP2 PUSH0 ADD DUP2 SWAP1 SSTORE POP DUP9 DUP2 PUSH1 0x1 ADD SWAP1 DUP2 PUSH2 0x2F89 SWAP2 SWAP1 PUSH2 0x51B7 JUMP JUMPDEST POP DUP8 DUP2 PUSH1 0x2 ADD SWAP1 DUP2 PUSH2 0x2F9B SWAP2 SWAP1 PUSH2 0x51B7 JUMP JUMPDEST POP CALLER DUP2 PUSH1 0x3 ADD PUSH0 PUSH2 0x100 EXP DUP2 SLOAD DUP2 PUSH20 0xFFFFFFFFFFFFFFFFFFFFFFFFFFFFFFFFFFFFFFFF MUL NOT AND SWAP1 DUP4 PUSH20 0xFFFFFFFFFFFFFFFFFFFFFFFFFFFFFFFFFFFFFFFF AND MUL OR SWAP1 SSTORE POP DUP7 DUP2 PUSH1 0x4 ADD DUP2 SWAP1 SSTORE POP PUSH0 DUP2 PUSH1 0x5 ADD PUSH0 PUSH2 0x100 EXP DUP2 SLOAD DUP2 PUSH1 0xFF MUL NOT AND SWAP1 DUP4 PUSH1 0x3 DUP2 GT ISZERO PUSH2 0x300D JUMPI PUSH2 0x300C PUSH2 0x3B6F JUMP JUMPDEST JUMPDEST MUL OR SWAP1 SSTORE POP DUP6 MLOAD DUP2 PUSH1 0x6 ADD DUP2 SWAP1 SSTORE POP TIMESTAMP DUP2 PUSH1 0xA ADD DUP2 SWAP1 SSTORE POP TIMESTAMP DUP2 PUSH1 0xB ADD DUP2 SWAP1 SSTORE POP PUSH0 JUMPDEST DUP7 MLOAD DUP2 LT ISZERO PUSH2 0x3130 JUMPI PUSH1 0x40 MLOAD DUP1 PUSH1 0x60 ADD PUSH1 0x40 MSTORE DUP1 DUP9 DUP4 DUP2 MLOAD DUP2 LT PUSH2 0x3057 JUMPI PUSH2 0x3056 PUSH2 0x4A59 JUMP JUMPDEST JUMPDEST PUSH1 0x20 MUL PUSH1 0x20 ADD ADD MLOAD PUSH20 0xFFFFFFFFFFFFFFFFFFFFFFFFFFFFFFFFFFFFFFFF AND DUP2 MSTORE PUSH1 0x20 ADD DUP8 DUP4 DUP2 MLOAD DUP2 LT PUSH2 0x308D JUMPI PUSH2 0x308C PUSH2 0x4A59 JUMP JUMPDEST JUMPDEST PUSH1 0x20 MUL PUSH1 0x20 ADD ADD MLOAD DUP2 MSTORE PUSH1 0x20 ADD PUSH0 ISZERO ISZERO DUP2 MSTORE POP DUP3 PUSH1 0x7 ADD PUSH0 DUP4 DUP2 MSTORE PUSH1 0x20 ADD SWAP1 DUP2 MSTORE PUSH1 0x20 ADD PUSH0 KECCAK256 PUSH0 DUP3 ADD MLOAD DUP2 PUSH0 ADD PUSH0 PUSH2 0x100 EXP DUP2 SLOAD DUP2 PUSH20 0xFFFFFFFFFFFFFFFFFFFFFFFFFFFFFFFFFFFFFFFF MUL NOT AND SWAP1 DUP4 PUSH20 0xFFFFFFFFFFFFFFFFFFFFFFFFFFFFFFFFFFFFFFFF AND MUL OR SWAP1 SSTORE POP PUSH1 0x20 DUP3 ADD MLOAD DUP2 PUSH1 0x1 ADD SSTORE PUSH1 0x40 DUP3 ADD MLOAD DUP2 PUSH1 0x2 ADD PUSH0 PUSH2 0x100 EXP DUP2 SLOAD DUP2 PUSH1 0xFF MUL NOT AND SWAP1 DUP4 ISZERO ISZERO MUL OR SWAP1 SSTORE POP SWAP1 POP POP DUP1 DUP1 PUSH1 0x1 ADD SWAP2 POP POP PUSH2 0x3030 JUMP JUMPDEST POP PUSH2 0x3173 DUP3 CALLER ADDRESS CALLVALUE PUSH1 0x40 MLOAD DUP1 PUSH1 0x40 ADD PUSH1 0x40 MSTORE DUP1 PUSH1 0x7 DUP2 MSTORE PUSH1 0x20 ADD PUSH32 0x4C697374696E6700000000000000000000000000000000000000000000000000 DUP2 MSTORE POP PUSH2 0x3669 JUMP JUMPDEST CALLER PUSH20 0xFFFFFFFFFFFFFFFFFFFFFFFFFFFFFFFFFFFFFFFF AND DUP3 PUSH32 0x23FB658C1698B92F5FE511A079C17ECF7965CBC3F1B873328C67E2C3C0820F1F DUP10 PUSH1 0x40 MLOAD PUSH2 0x31BA SWAP2 SWAP1 PUSH2 0x3C8A JUMP JUMPDEST PUSH1 0x40 MLOAD DUP1 SWAP2 SUB SWAP1 LOG3 DUP2 SWAP4 POP POP POP POP PUSH2 0x31D0 PUSH2 0x3876 JUMP JUMPDEST SWAP6 SWAP5 POP POP POP POP POP JUMP JUMPDEST PUSH2 0x31E1 PUSH2 0x387F JUMP JUMPDEST PUSH0 SELFBALANCE SWAP1 POP PUSH0 DUP2 GT PUSH2 0x3227 JUMPI PUSH1 0x40 MLOAD PUSH32 0x8C379A000000000000000000000000000000000000000000000000000000000 DUP2 MSTORE PUSH1 0x4 ADD PUSH2 0x321E SWAP1 PUSH2 0x5496 JUMP JUMPDEST PUSH1 0x40 MLOAD DUP1 SWAP2 SUB SWAP1 REVERT JUMPDEST PUSH2 0x322F PUSH2 0x272A JUMP JUMPDEST PUSH20 0xFFFFFFFFFFFFFFFFFFFFFFFFFFFFFFFFFFFFFFFF AND PUSH2 0x8FC DUP3 SWAP1 DUP2 ISZERO MUL SWAP1 PUSH1 0x40 MLOAD PUSH0 PUSH1 0x40 MLOAD DUP1 DUP4 SUB DUP2 DUP6 DUP9 DUP9 CALL SWAP4 POP POP POP POP ISZERO DUP1 ISZERO PUSH2 0x3271 JUMPI RETURNDATASIZE PUSH0 DUP1 RETURNDATACOPY RETURNDATASIZE PUSH0 REVERT JUMPDEST POP POP JUMP JUMPDEST PUSH2 0x327D PUSH2 0x387F JUMP JUMPDEST PUSH0 PUSH20 0xFFFFFFFFFFFFFFFFFFFFFFFFFFFFFFFFFFFFFFFF AND DUP2 PUSH20 0xFFFFFFFFFFFFFFFFFFFFFFFFFFFFFFFFFFFFFFFF AND SUB PUSH2 0x32ED JUMPI PUSH0 PUSH1 0x40 MLOAD PUSH32 0x1E4FBDF700000000000000000000000000000000000000000000000000000000 DUP2 MSTORE PUSH1 0x4 ADD PUSH2 0x32E4 SWAP2 SWAP1 PUSH2 0x3FFB JUMP JUMPDEST PUSH1 0x40 MLOAD DUP1 SWAP2 SUB SWAP1 REVERT JUMPDEST PUSH2 0x32F6 DUP2 PUSH2 0x3906 JUMP JUMPDEST POP JUMP JUMPDEST PUSH2 0x3301 PUSH2 0x387F JUMP JUMPDEST PUSH0 DUP2 SWAP1 POP PUSH0 DUP2 PUSH20 0xFFFFFFFFFFFFFFFFFFFFFFFFFFFFFFFFFFFFFFFF AND PUSH4 0x70A08231 ADDRESS PUSH1 0x40 MLOAD DUP3 PUSH4 0xFFFFFFFF AND PUSH1 0xE0 SHL DUP2 MSTORE PUSH1 0x4 ADD PUSH2 0x333F SWAP2 SWAP1 PUSH2 0x3FFB JUMP JUMPDEST PUSH1 0x20 PUSH1 0x40 MLOAD DUP1 DUP4 SUB DUP2 DUP7 GAS STATICCALL ISZERO DUP1 ISZERO PUSH2 0x335A JUMPI RETURNDATASIZE PUSH0 DUP1 RETURNDATACOPY RETURNDATASIZE PUSH0 REVERT JUMPDEST POP POP POP POP PUSH1 0x40 MLOAD RETURNDATASIZE PUSH1 0x1F NOT PUSH1 0x1F DUP3 ADD AND DUP3 ADD DUP1 PUSH1 0x40 MSTORE POP DUP2 ADD SWAP1 PUSH2 0x337E SWAP2 SWAP1 PUSH2 0x54C8 JUMP JUMPDEST SWAP1 POP PUSH0 DUP2 GT PUSH2 0x33C2 JUMPI PUSH1 0x40 MLOAD PUSH32 0x8C379A000000000000000000000000000000000000000000000000000000000 DUP2 MSTORE PUSH1 0x4 ADD PUSH2 0x33B9 SWAP1 PUSH2 0x553D JUMP JUMPDEST PUSH1 0x40 MLOAD DUP1 SWAP2 SUB SWAP1 REVERT JUMPDEST DUP2 PUSH20 0xFFFFFFFFFFFFFFFFFFFFFFFFFFFFFFFFFFFFFFFF AND PUSH4 0xA9059CBB PUSH2 0x33E6 PUSH2 0x272A JUMP JUMPDEST DUP4 PUSH1 0x40 MLOAD DUP4 PUSH4 0xFFFFFFFF AND PUSH1 0xE0 SHL DUP2 MSTORE PUSH1 0x4 ADD PUSH2 0x3404 SWAP3 SWAP2 SWAP1 PUSH2 0x555B JUMP JUMPDEST PUSH1 0x20 PUSH1 0x40 MLOAD DUP1 DUP4 SUB DUP2 PUSH0 DUP8 GAS CALL ISZERO DUP1 ISZERO PUSH2 0x3420 JUMPI RETURNDATASIZE PUSH0 DUP1 RETURNDATACOPY RETURNDATASIZE PUSH0 REVERT JUMPDEST POP POP POP POP PUSH1 0x40 MLOAD RETURNDATASIZE PUSH1 0x1F NOT PUSH1 0x1F DUP3 ADD AND DUP3 ADD DUP1 PUSH1 0x40 MSTORE POP DUP2 ADD SWAP1 PUSH2 0x3444 SWAP2 SWAP1 PUSH2 0x55AC JUMP JUMPDEST POP POP POP POP JUMP JUMPDEST PUSH2 0x3452 PUSH2 0x387F JUMP JUMPDEST DUP1 PUSH1 0x2 DUP2 SWAP1 SSTORE POP PUSH32 0x5FB4654F1EFE30C6141EAA6855FFCB27E0B361D899B05E21B1A4D0B3E71E14DB DUP2 PUSH1 0x40 MLOAD PUSH2 0x3488 SWAP2 SWAP1 PUSH2 0x3C8A JUMP JUMPDEST PUSH1 0x40 MLOAD DUP1 SWAP2 SUB SWAP1 LOG1 POP JUMP JUMPDEST PUSH1 0x5 PUSH1 0x20 MSTORE DUP1 PUSH0 MSTORE PUSH1 0x40 PUSH0 KECCAK256 PUSH0 SWAP2 POP SWAP1 POP DUP1 PUSH0 ADD SLOAD SWAP1 DUP1 PUSH1 0x1 ADD DUP1 SLOAD PUSH2 0x34B8 SWAP1 PUSH2 0x49E2 JUMP JUMPDEST DUP1 PUSH1 0x1F ADD PUSH1 0x20 DUP1 SWAP2 DIV MUL PUSH1 0x20 ADD PUSH1 0x40 MLOAD SWAP1 DUP2 ADD PUSH1 0x40 MSTORE DUP1 SWAP3 SWAP2 SWAP1 DUP2 DUP2 MSTORE PUSH1 0x20 ADD DUP3 DUP1 SLOAD PUSH2 0x34E4 SWAP1 PUSH2 0x49E2 JUMP JUMPDEST DUP1 ISZERO PUSH2 0x352F JUMPI DUP1 PUSH1 0x1F LT PUSH2 0x3506 JUMPI PUSH2 0x100 DUP1 DUP4 SLOAD DIV MUL DUP4 MSTORE SWAP2 PUSH1 0x20 ADD SWAP2 PUSH2 0x352F JUMP JUMPDEST DUP3 ADD SWAP2 SWAP1 PUSH0 MSTORE PUSH1 0x20 PUSH0 KECCAK256 SWAP1 JUMPDEST DUP2 SLOAD DUP2 MSTORE SWAP1 PUSH1 0x1 ADD SWAP1 PUSH1 0x20 ADD DUP1 DUP4 GT PUSH2 0x3512 JUMPI DUP3 SWAP1 SUB PUSH1 0x1F AND DUP3 ADD SWAP2 JUMPDEST POP POP POP POP POP SWAP1 DUP1 PUSH1 0x2 ADD DUP1 SLOAD PUSH2 0x3544 SWAP1 PUSH2 0x49E2 JUMP JUMPDEST DUP1 PUSH1 0x1F ADD PUSH1 0x20 DUP1 SWAP2 DIV MUL PUSH1 0x20 ADD PUSH1 0x40 MLOAD SWAP1 DUP2 ADD PUSH1 0x40 MSTORE DUP1 SWAP3 SWAP2 SWAP1 DUP2 DUP2 MSTORE PUSH1 0x20 ADD DUP3 DUP1 SLOAD PUSH2 0x3570 SWAP1 PUSH2 0x49E2 JUMP JUMPDEST DUP1 ISZERO PUSH2 0x35BB JUMPI DUP1 PUSH1 0x1F LT PUSH2 0x3592 JUMPI PUSH2 0x100 DUP1 DUP4 SLOAD DIV MUL DUP4 MSTORE SWAP2 PUSH1 0x20 ADD SWAP2 PUSH2 0x35BB JUMP JUMPDEST DUP3 ADD SWAP2 SWAP1 PUSH0 MSTORE PUSH1 0x20 PUSH0 KECCAK256 SWAP1 JUMPDEST DUP2 SLOAD DUP2 MSTORE SWAP1 PUSH1 0x1 ADD SWAP1 PUSH1 0x20 ADD DUP1 DUP4 GT PUSH2 0x359E JUMPI DUP3 SWAP1 SUB PUSH1 0x1F AND DUP3 ADD SWAP2 JUMPDEST POP POP POP POP POP SWAP1 DUP1 PUSH1 0x3 ADD PUSH0 SWAP1 SLOAD SWAP1 PUSH2 0x100 EXP SWAP1 DIV PUSH20 0xFFFFFFFFFFFFFFFFFFFFFFFFFFFFFFFFFFFFFFFF AND SWAP1 DUP1 PUSH1 0x4 ADD SLOAD SWAP1 DUP1 PUSH1 0x5 ADD PUSH0 SWAP1 SLOAD SWAP1 PUSH2 0x100 EXP SWAP1 DIV PUSH1 0xFF AND SWAP1 DUP1 PUSH1 0x6 ADD SLOAD SWAP1 DUP1 PUSH1 0x8 ADD SLOAD SWAP1 DUP1 PUSH1 0xA ADD SLOAD SWAP1 DUP1 PUSH1 0xB ADD SLOAD SWAP1 POP DUP11 JUMP JUMPDEST PUSH1 0x2 PUSH1 0x1 SLOAD SUB PUSH2 0x365F JUMPI PUSH1 0x40 MLOAD PUSH32 0x8C379A000000000000000000000000000000000000000000000000000000000 DUP2 MSTORE PUSH1 0x4 ADD PUSH2 0x3656 SWAP1 PUSH2 0x5621 JUMP JUMPDEST PUSH1 0x40 MLOAD DUP1 SWAP2 SUB SWAP1 REVERT JUMPDEST PUSH1 0x2 PUSH1 0x1 DUP2 SWAP1 SSTORE POP JUMP JUMPDEST PUSH0 PUSH1 0x7 PUSH0 DUP2 SLOAD PUSH2 0x3678 SWAP1 PUSH2 0x4A12 JUMP JUMPDEST SWAP2 SWAP1 POP DUP2 SWAP1 SSTORE SWAP1 POP PUSH1 0x40 MLOAD DUP1 PUSH1 0xE0 ADD PUSH1 0x40 MSTORE DUP1 DUP3 DUP2 MSTORE PUSH1 0x20 ADD DUP8 DUP2 MSTORE PUSH1 0x20 ADD DUP7 PUSH20 0xFFFFFFFFFFFFFFFFFFFFFFFFFFFFFFFFFFFFFFFF AND DUP2 MSTORE PUSH1 0x20 ADD DUP6 PUSH20 0xFFFFFFFFFFFFFFFFFFFFFFFFFFFFFFFFFFFFFFFF AND DUP2 MSTORE PUSH1 0x20 ADD DUP5 DUP2 MSTORE PUSH1 0x20 ADD TIMESTAMP DUP2 MSTORE PUSH1 0x20 ADD DUP4 DUP2 MSTORE POP PUSH1 0x6 PUSH0 DUP4 DUP2 MSTORE PUSH1 0x20 ADD SWAP1 DUP2 MSTORE PUSH1 0x20 ADD PUSH0 KECCAK256 PUSH0 DUP3 ADD MLOAD DUP2 PUSH0 ADD SSTORE PUSH1 0x20 DUP3 ADD MLOAD DUP2 PUSH1 0x1 ADD SSTORE PUSH1 0x40 DUP3 ADD MLOAD DUP2 PUSH1 0x2 ADD PUSH0 PUSH2 0x100 EXP DUP2 SLOAD DUP2 PUSH20 0xFFFFFFFFFFFFFFFFFFFFFFFFFFFFFFFFFFFFFFFF MUL NOT AND SWAP1 DUP4 PUSH20 0xFFFFFFFFFFFFFFFFFFFFFFFFFFFFFFFFFFFFFFFF AND MUL OR SWAP1 SSTORE POP PUSH1 0x60 DUP3 ADD MLOAD DUP2 PUSH1 0x3 ADD PUSH0 PUSH2 0x100 EXP DUP2 SLOAD DUP2 PUSH20 0xFFFFFFFFFFFFFFFFFFFFFFFFFFFFFFFFFFFFFFFF MUL NOT AND SWAP1 DUP4 PUSH20 0xFFFFFFFFFFFFFFFFFFFFFFFFFFFFFFFFFFFFFFFF AND MUL OR SWAP1 SSTORE POP PUSH1 0x80 DUP3 ADD MLOAD DUP2 PUSH1 0x4 ADD SSTORE PUSH1 0xA0 DUP3 ADD MLOAD DUP2 PUSH1 0x5 ADD SSTORE PUSH1 0xC0 DUP3 ADD MLOAD DUP2 PUSH1 0x6 ADD SWAP1 DUP2 PUSH2 0x37B7 SWAP2 SWAP1 PUSH2 0x51B7 JUMP JUMPDEST POP SWAP1 POP POP DUP1 PUSH32 0xFDA02462C610E439AB97D0498C3C469E7C643692B25DF1B7EA76FE26F702BD19 DUP4 PUSH1 0x40 MLOAD PUSH2 0x37EB SWAP2 SWAP1 PUSH2 0x563F JUMP JUMPDEST PUSH1 0x40 MLOAD DUP1 SWAP2 SUB SWAP1 LOG2 POP POP POP POP POP POP JUMP JUMPDEST PUSH0 DUP1 PUSH0 SWAP1 POP PUSH0 JUMPDEST DUP4 PUSH1 0x8 ADD SLOAD DUP2 LT ISZERO PUSH2 0x3868 JUMPI DUP4 PUSH1 0x9 ADD PUSH0 DUP3 DUP2 MSTORE PUSH1 0x20 ADD SWAP1 DUP2 MSTORE PUSH1 0x20 ADD PUSH0 KECCAK256 PUSH1 0x3 ADD PUSH0 SWAP1 SLOAD SWAP1 PUSH2 0x100 EXP SWAP1 DIV PUSH1 0xFF AND ISZERO PUSH2 0x385B JUMPI DUP4 PUSH1 0x9 ADD PUSH0 DUP3 DUP2 MSTORE PUSH1 0x20 ADD SWAP1 DUP2 MSTORE PUSH1 0x20 ADD PUSH0 KECCAK256 PUSH1 0x1 ADD SLOAD DUP3 PUSH2 0x3858 SWAP2 SWAP1 PUSH2 0x4858 JUMP JUMPDEST SWAP2 POP JUMPDEST DUP1 DUP1 PUSH1 0x1 ADD SWAP2 POP POP PUSH2 0x3802 JUMP JUMPDEST POP PUSH2 0x2710 DUP2 EQ SWAP2 POP POP SWAP2 SWAP1 POP JUMP JUMPDEST PUSH1 0x1 DUP1 DUP2 SWAP1 SSTORE POP JUMP JUMPDEST PUSH2 0x3887 PUSH2 0x39C7 JUMP JUMPDEST PUSH20 0xFFFFFFFFFFFFFFFFFFFFFFFFFFFFFFFFFFFFFFFF AND PUSH2 0x38A5 PUSH2 0x272A JUMP JUMPDEST PUSH20 0xFFFFFFFFFFFFFFFFFFFFFFFFFFFFFFFFFFFFFFFF AND EQ PUSH2 0x3904 JUMPI PUSH2 0x38C8 PUSH2 0x39C7 JUMP JUMPDEST PUSH1 0x40 MLOAD PUSH32 0x118CDAA700000000000000000000000000000000000000000000000000000000 DUP2 MSTORE PUSH1 0x4 ADD PUSH2 0x38FB SWAP2 SWAP1 PUSH2 0x3FFB JUMP JUMPDEST PUSH1 0x40 MLOAD DUP1 SWAP2 SUB SWAP1 REVERT JUMPDEST JUMP JUMPDEST PUSH0 DUP1 PUSH0 SWAP1 SLOAD SWAP1 PUSH2 0x100 EXP SWAP1 DIV PUSH20 0xFFFFFFFFFFFFFFFFFFFFFFFFFFFFFFFFFFFFFFFF AND SWAP1 POP DUP2 PUSH0 DUP1 PUSH2 0x100 EXP DUP2 SLOAD DUP2 PUSH20 0xFFFFFFFFFFFFFFFFFFFFFFFFFFFFFFFFFFFFFFFF MUL NOT AND SWAP1 DUP4 PUSH20 0xFFFFFFFFFFFFFFFFFFFFFFFFFFFFFFFFFFFFFFFF AND MUL OR SWAP1 SSTORE POP DUP2 PUSH20 0xFFFFFFFFFFFFFFFFFFFFFFFFFFFFFFFFFFFFFFFF AND DUP2 PUSH20 0xFFFFFFFFFFFFFFFFFFFFFFFFFFFFFFFFFFFFFFFF AND PUSH32 0x8BE0079C531659141344CD1FD0A4F28419497F9722A3DAAFE3B4186F6B6457E0 PUSH1 0x40 MLOAD PUSH1 0x40 MLOAD DUP1 SWAP2 SUB SWAP1 LOG3 POP POP JUMP JUMPDEST PUSH0 CALLER SWAP1 POP SWAP1 JUMP JUMPDEST PUSH0 PUSH1 0x40 MLOAD SWAP1 POP SWAP1 JUMP JUMPDEST PUSH0 DUP1 REVERT JUMPDEST PUSH0 DUP1 REVERT JUMPDEST PUSH0 DUP2 SWAP1 POP SWAP2 SWAP1 POP JUMP JUMPDEST PUSH2 0x39F1 DUP2 PUSH2 0x39DF JUMP JUMPDEST DUP2 EQ PUSH2 0x39FB JUMPI PUSH0 DUP1 REVERT JUMPDEST POP JUMP JUMPDEST PUSH0 DUP2 CALLDATALOAD SWAP1 POP PUSH2 0x3A0C DUP2 PUSH2 0x39E8 JUMP JUMPDEST SWAP3 SWAP2 POP POP JUMP JUMPDEST PUSH0 PUSH1 0x20 DUP3 DUP5 SUB SLT ISZERO PUSH2 0x3A27 JUMPI PUSH2 0x3A26 PUSH2 0x39D7 JUMP JUMPDEST JUMPDEST PUSH0 PUSH2 0x3A34 DUP5 DUP3 DUP6 ADD PUSH2 0x39FE JUMP JUMPDEST SWAP2 POP POP SWAP3 SWAP2 POP POP JUMP JUMPDEST PUSH2 0x3A46 DUP2 PUSH2 0x39DF JUMP JUMPDEST DUP3 MSTORE POP POP JUMP JUMPDEST PUSH0 PUSH20 0xFFFFFFFFFFFFFFFFFFFFFFFFFFFFFFFFFFFFFFFF DUP3 AND SWAP1 POP SWAP2 SWAP1 POP JUMP JUMPDEST PUSH0 PUSH2 0x3A75 DUP3 PUSH2 0x3A4C JUMP JUMPDEST SWAP1 POP SWAP2 SWAP1 POP JUMP JUMPDEST PUSH2 0x3A85 DUP2 PUSH2 0x3A6B JUMP JUMPDEST DUP3 MSTORE POP POP JUMP JUMPDEST PUSH0 DUP2 MLOAD SWAP1 POP SWAP2 SWAP1 POP JUMP JUMPDEST PUSH0 DUP3 DUP3 MSTORE PUSH1 0x20 DUP3 ADD SWAP1 POP SWAP3 SWAP2 POP POP JUMP JUMPDEST DUP3 DUP2 DUP4 MCOPY PUSH0 DUP4 DUP4 ADD MSTORE POP POP POP JUMP JUMPDEST PUSH0 PUSH1 0x1F NOT PUSH1 0x1F DUP4 ADD AND SWAP1 POP SWAP2 SWAP1 POP JUMP JUMPDEST PUSH0 PUSH2 0x3ACD DUP3 PUSH2 0x3A8B JUMP JUMPDEST PUSH2 0x3AD7 DUP2 DUP6 PUSH2 0x3A95 JUMP JUMPDEST SWAP4 POP PUSH2 0x3AE7 DUP2 DUP6 PUSH1 0x20 DUP7 ADD PUSH2 0x3AA5 JUMP JUMPDEST PUSH2 0x3AF0 DUP2 PUSH2 0x3AB3 JUMP JUMPDEST DUP5 ADD SWAP2 POP POP SWAP3 SWAP2 POP POP JUMP JUMPDEST PUSH0 PUSH1 0xE0 DUP3 ADD SWAP1 POP PUSH2 0x3B0E PUSH0 DUP4 ADD DUP11 PUSH2 0x3A3D JUMP JUMPDEST PUSH2 0x3B1B PUSH1 0x20 DUP4 ADD DUP10 PUSH2 0x3A3D JUMP JUMPDEST PUSH2 0x3B28 PUSH1 0x40 DUP4 ADD DUP9 PUSH2 0x3A7C JUMP JUMPDEST PUSH2 0x3B35 PUSH1 0x60 DUP4 ADD DUP8 PUSH2 0x3A7C JUMP JUMPDEST PUSH2 0x3B42 PUSH1 0x80 DUP4 ADD DUP7 PUSH2 0x3A3D JUMP JUMPDEST PUSH2 0x3B4F PUSH1 0xA0 DUP4 ADD DUP6 PUSH2 0x3A3D JUMP JUMPDEST DUP2 DUP2 SUB PUSH1 0xC0 DUP4 ADD MSTORE PUSH2 0x3B61 DUP2 DUP5 PUSH2 0x3AC3 JUMP JUMPDEST SWAP1 POP SWAP9 SWAP8 POP POP POP POP POP POP POP POP JUMP JUMPDEST PUSH32 0x4E487B7100000000000000000000000000000000000000000000000000000000 PUSH0 MSTORE PUSH1 0x21 PUSH1 0x4 MSTORE PUSH1 0x24 PUSH0 REVERT JUMPDEST PUSH1 0x4 DUP2 LT PUSH2 0x3BAD JUMPI PUSH2 0x3BAC PUSH2 0x3B6F JUMP JUMPDEST JUMPDEST POP JUMP JUMPDEST PUSH0 DUP2 SWAP1 POP PUSH2 0x3BBD DUP3 PUSH2 0x3B9C JUMP JUMPDEST SWAP2 SWAP1 POP JUMP JUMPDEST PUSH0 PUSH2 0x3BCC DUP3 PUSH2 0x3BB0 JUMP JUMPDEST SWAP1 POP SWAP2 SWAP1 POP JUMP JUMPDEST PUSH2 0x3BDC DUP2 PUSH2 0x3BC2 JUMP JUMPDEST DUP3 MSTORE POP POP JUMP JUMPDEST PUSH0 PUSH2 0x140 DUP3 ADD SWAP1 POP PUSH2 0x3BF6 PUSH0 DUP4 ADD DUP14 PUSH2 0x3A3D JUMP JUMPDEST DUP2 DUP2 SUB PUSH1 0x20 DUP4 ADD MSTORE PUSH2 0x3C08 DUP2 DUP13 PUSH2 0x3AC3 JUMP JUMPDEST SWAP1 POP DUP2 DUP2 SUB PUSH1 0x40 DUP4 ADD MSTORE PUSH2 0x3C1C DUP2 DUP12 PUSH2 0x3AC3 JUMP JUMPDEST SWAP1 POP PUSH2 0x3C2B PUSH1 0x60 DUP4 ADD DUP11 PUSH2 0x3A7C JUMP JUMPDEST PUSH2 0x3C38 PUSH1 0x80 DUP4 ADD DUP10 PUSH2 0x3A3D JUMP JUMPDEST PUSH2 0x3C45 PUSH1 0xA0 DUP4 ADD DUP9 PUSH2 0x3BD3 JUMP JUMPDEST PUSH2 0x3C52 PUSH1 0xC0 DUP4 ADD DUP8 PUSH2 0x3A3D JUMP JUMPDEST PUSH2 0x3C5F PUSH1 0xE0 DUP4 ADD DUP7 PUSH2 0x3A3D JUMP JUMPDEST PUSH2 0x3C6D PUSH2 0x100 DUP4 ADD DUP6 PUSH2 0x3A3D JUMP JUMPDEST PUSH2 0x3C7B PUSH2 0x120 DUP4 ADD DUP5 PUSH2 0x3A3D JUMP JUMPDEST SWAP12 SWAP11 POP POP POP POP POP POP POP POP POP POP POP JUMP JUMPDEST PUSH0 PUSH1 0x20 DUP3 ADD SWAP1 POP PUSH2 0x3C9D PUSH0 DUP4 ADD DUP5 PUSH2 0x3A3D JUMP JUMPDEST SWAP3 SWAP2 POP POP JUMP JUMPDEST PUSH0 PUSH1 0x80 DUP3 ADD SWAP1 POP PUSH2 0x3CB6 PUSH0 DUP4 ADD DUP8 PUSH2 0x3A3D JUMP JUMPDEST PUSH2 0x3CC3 PUSH1 0x20 DUP4 ADD DUP7 PUSH2 0x3A3D JUMP JUMPDEST PUSH2 0x3CD0 PUSH1 0x40 DUP4 ADD DUP6 PUSH2 0x3A3D JUMP JUMPDEST PUSH2 0x3CDD PUSH1 0x60 DUP4 ADD DUP5 PUSH2 0x3A3D JUMP JUMPDEST SWAP6 SWAP5 POP POP POP POP POP JUMP JUMPDEST PUSH0 DUP2 MLOAD SWAP1 POP SWAP2 SWAP1 POP JUMP JUMPDEST PUSH0 DUP3 DUP3 MSTORE PUSH1 0x20 DUP3 ADD SWAP1 POP SWAP3 SWAP2 POP POP JUMP JUMPDEST PUSH0 DUP2 SWAP1 POP PUSH1 0x20 DUP3 ADD SWAP1 POP SWAP2 SWAP1 POP JUMP JUMPDEST PUSH2 0x3D18 DUP2 PUSH2 0x39DF JUMP JUMPDEST DUP3 MSTORE POP POP JUMP JUMPDEST PUSH0 PUSH2 0x3D29 DUP4 DUP4 PUSH2 0x3D0F JUMP JUMPDEST PUSH1 0x20 DUP4 ADD SWAP1 POP SWAP3 SWAP2 POP POP JUMP JUMPDEST PUSH0 PUSH1 0x20 DUP3 ADD SWAP1 POP SWAP2 SWAP1 POP JUMP JUMPDEST PUSH0 PUSH2 0x3D4B DUP3 PUSH2 0x3CE6 JUMP JUMPDEST PUSH2 0x3D55 DUP2 DUP6 PUSH2 0x3CF0 JUMP JUMPDEST SWAP4 POP PUSH2 0x3D60 DUP4 PUSH2 0x3D00 JUMP JUMPDEST DUP1 PUSH0 JUMPDEST DUP4 DUP2 LT ISZERO PUSH2 0x3D90 JUMPI DUP2 MLOAD PUSH2 0x3D77 DUP9 DUP3 PUSH2 0x3D1E JUMP JUMPDEST SWAP8 POP PUSH2 0x3D82 DUP4 PUSH2 0x3D35 JUMP JUMPDEST SWAP3 POP POP PUSH1 0x1 DUP2 ADD SWAP1 POP PUSH2 0x3D63 JUMP JUMPDEST POP DUP6 SWAP4 POP POP POP POP SWAP3 SWAP2 POP POP JUMP JUMPDEST PUSH0 PUSH1 0x20 DUP3 ADD SWAP1 POP DUP2 DUP2 SUB PUSH0 DUP4 ADD MSTORE PUSH2 0x3DB5 DUP2 DUP5 PUSH2 0x3D41 JUMP JUMPDEST SWAP1 POP SWAP3 SWAP2 POP POP JUMP JUMPDEST PUSH0 PUSH2 0x3DC7 DUP3 PUSH2 0x3A4C JUMP JUMPDEST SWAP1 POP SWAP2 SWAP1 POP JUMP JUMPDEST PUSH2 0x3DD7 DUP2 PUSH2 0x3DBD JUMP JUMPDEST DUP2 EQ PUSH2 0x3DE1 JUMPI PUSH0 DUP1 REVERT JUMPDEST POP JUMP JUMPDEST PUSH0 DUP2 CALLDATALOAD SWAP1 POP PUSH2 0x3DF2 DUP2 PUSH2 0x3DCE JUMP JUMPDEST SWAP3 SWAP2 POP POP JUMP JUMPDEST PUSH0 DUP1 PUSH0 PUSH1 0x60 DUP5 DUP7 SUB SLT ISZERO PUSH2 0x3E0F JUMPI PUSH2 0x3E0E PUSH2 0x39D7 JUMP JUMPDEST JUMPDEST PUSH0 PUSH2 0x3E1C DUP7 DUP3 DUP8 ADD PUSH2 0x39FE JUMP JUMPDEST SWAP4 POP POP PUSH1 0x20 PUSH2 0x3E2D DUP7 DUP3 DUP8 ADD PUSH2 0x3DE4 JUMP JUMPDEST SWAP3 POP POP PUSH1 0x40 PUSH2 0x3E3E DUP7 DUP3 DUP8 ADD PUSH2 0x39FE JUMP JUMPDEST SWAP2 POP POP SWAP3 POP SWAP3 POP SWAP3 JUMP JUMPDEST PUSH2 0x3E51 DUP2 PUSH2 0x3A6B JUMP JUMPDEST DUP2 EQ PUSH2 0x3E5B JUMPI PUSH0 DUP1 REVERT JUMPDEST POP JUMP JUMPDEST PUSH0 DUP2 CALLDATALOAD SWAP1 POP PUSH2 0x3E6C DUP2 PUSH2 0x3E48 JUMP JUMPDEST SWAP3 SWAP2 POP POP JUMP JUMPDEST PUSH0 DUP1 PUSH0 PUSH1 0x60 DUP5 DUP7 SUB SLT ISZERO PUSH2 0x3E89 JUMPI PUSH2 0x3E88 PUSH2 0x39D7 JUMP JUMPDEST JUMPDEST PUSH0 PUSH2 0x3E96 DUP7 DUP3 DUP8 ADD PUSH2 0x3E5E JUMP JUMPDEST SWAP4 POP POP PUSH1 0x20 PUSH2 0x3EA7 DUP7 DUP3 DUP8 ADD PUSH2 0x39FE JUMP JUMPDEST SWAP3 POP POP PUSH1 0x40 PUSH2 0x3EB8 DUP7 DUP3 DUP8 ADD PUSH2 0x39FE JUMP JUMPDEST SWAP2 POP POP SWAP3 POP SWAP3 POP SWAP3 JUMP JUMPDEST PUSH0 DUP1 PUSH1 0x40 DUP4 DUP6 SUB SLT ISZERO PUSH2 0x3ED8 JUMPI PUSH2 0x3ED7 PUSH2 0x39D7 JUMP JUMPDEST JUMPDEST PUSH0 PUSH2 0x3EE5 DUP6 DUP3 DUP7 ADD PUSH2 0x39FE JUMP JUMPDEST SWAP3 POP POP PUSH1 0x20 PUSH2 0x3EF6 DUP6 DUP3 DUP7 ADD PUSH2 0x39FE JUMP JUMPDEST SWAP2 POP POP SWAP3 POP SWAP3 SWAP1 POP JUMP JUMPDEST PUSH0 DUP2 ISZERO ISZERO SWAP1 POP SWAP2 SWAP1 POP JUMP JUMPDEST PUSH2 0x3F14 DUP2 PUSH2 0x3F00 JUMP JUMPDEST DUP3 MSTORE POP POP JUMP JUMPDEST PUSH0 PUSH1 0x60 DUP3 ADD SWAP1 POP PUSH2 0x3F2D PUSH0 DUP4 ADD DUP7 PUSH2 0x3A7C JUMP JUMPDEST PUSH2 0x3F3A PUSH1 0x20 DUP4 ADD DUP6 PUSH2 0x3A3D JUMP JUMPDEST PUSH2 0x3F47 PUSH1 0x40 DUP4 ADD DUP5 PUSH2 0x3F0B JUMP JUMPDEST SWAP5 SWAP4 POP POP POP POP JUMP JUMPDEST PUSH0 PUSH1 0x20 DUP3 ADD SWAP1 POP PUSH2 0x3F62 PUSH0 DUP4 ADD DUP5 PUSH2 0x3F0B JUMP JUMPDEST SWAP3 SWAP2 POP POP JUMP JUMPDEST PUSH0 PUSH1 0x80 DUP3 ADD SWAP1 POP PUSH2 0x3F7B PUSH0 DUP4 ADD DUP8 PUSH2 0x3A7C JUMP JUMPDEST PUSH2 0x3F88 PUSH1 0x20 DUP4 ADD DUP7 PUSH2 0x3A3D JUMP JUMPDEST PUSH2 0x3F95 PUSH1 0x40 DUP4 ADD DUP6 PUSH2 0x3A3D JUMP JUMPDEST PUSH2 0x3FA2 PUSH1 0x60 DUP4 ADD DUP5 PUSH2 0x3F0B JUMP JUMPDEST SWAP6 SWAP5 POP POP POP POP POP JUMP JUMPDEST PUSH0 DUP1 PUSH0 PUSH1 0x60 DUP5 DUP7 SUB SLT ISZERO PUSH2 0x3FC2 JUMPI PUSH2 0x3FC1 PUSH2 0x39D7 JUMP JUMPDEST JUMPDEST PUSH0 PUSH2 0x3FCF DUP7 DUP3 DUP8 ADD PUSH2 0x39FE JUMP JUMPDEST SWAP4 POP POP PUSH1 0x20 PUSH2 0x3FE0 DUP7 DUP3 DUP8 ADD PUSH2 0x39FE JUMP JUMPDEST SWAP3 POP POP PUSH1 0x40 PUSH2 0x3FF1 DUP7 DUP3 DUP8 ADD PUSH2 0x39FE JUMP JUMPDEST SWAP2 POP POP SWAP3 POP SWAP3 POP SWAP3 JUMP JUMPDEST PUSH0 PUSH1 0x20 DUP3 ADD SWAP1 POP PUSH2 0x400E PUSH0 DUP4 ADD DUP5 PUSH2 0x3A7C JUMP JUMPDEST SWAP3 SWAP2 POP POP JUMP JUMPDEST PUSH1 0x4 DUP2 LT PUSH2 0x4020 JUMPI PUSH0 DUP1 REVERT JUMPDEST POP JUMP JUMPDEST PUSH0 DUP2 CALLDATALOAD SWAP1 POP PUSH2 0x4031 DUP2 PUSH2 0x4014 JUMP JUMPDEST SWAP3 SWAP2 POP POP JUMP JUMPDEST PUSH0 DUP1 PUSH0 PUSH1 0x60 DUP5 DUP7 SUB SLT ISZERO PUSH2 0x404E JUMPI PUSH2 0x404D PUSH2 0x39D7 JUMP JUMPDEST JUMPDEST PUSH0 PUSH2 0x405B DUP7 DUP3 DUP8 ADD PUSH2 0x4023 JUMP JUMPDEST SWAP4 POP POP PUSH1 0x20 PUSH2 0x406C DUP7 DUP3 DUP8 ADD PUSH2 0x39FE JUMP JUMPDEST SWAP3 POP POP PUSH1 0x40 PUSH2 0x407D DUP7 DUP3 DUP8 ADD PUSH2 0x39FE JUMP JUMPDEST SWAP2 POP POP SWAP3 POP SWAP3 POP SWAP3 JUMP JUMPDEST PUSH0 DUP1 REVERT JUMPDEST PUSH0 DUP1 REVERT JUMPDEST PUSH32 0x4E487B7100000000000000000000000000000000000000000000000000000000 PUSH0 MSTORE PUSH1 0x41 PUSH1 0x4 MSTORE PUSH1 0x24 PUSH0 REVERT JUMPDEST PUSH2 0x40C5 DUP3 PUSH2 0x3AB3 JUMP JUMPDEST DUP2 ADD DUP2 DUP2 LT PUSH8 0xFFFFFFFFFFFFFFFF DUP3 GT OR ISZERO PUSH2 0x40E4 JUMPI PUSH2 0x40E3 PUSH2 0x408F JUMP JUMPDEST JUMPDEST DUP1 PUSH1 0x40 MSTORE POP POP POP JUMP JUMPDEST PUSH0 PUSH2 0x40F6 PUSH2 0x39CE JUMP JUMPDEST SWAP1 POP PUSH2 0x4102 DUP3 DUP3 PUSH2 0x40BC JUMP JUMPDEST SWAP2 SWAP1 POP JUMP JUMPDEST PUSH0 PUSH8 0xFFFFFFFFFFFFFFFF DUP3 GT ISZERO PUSH2 0x4121 JUMPI PUSH2 0x4120 PUSH2 0x408F JUMP JUMPDEST JUMPDEST PUSH2 0x412A DUP3 PUSH2 0x3AB3 JUMP JUMPDEST SWAP1 POP PUSH1 0x20 DUP2 ADD SWAP1 POP SWAP2 SWAP1 POP JUMP JUMPDEST DUP3 DUP2 DUP4 CALLDATACOPY PUSH0 DUP4 DUP4 ADD MSTORE POP POP POP JUMP JUMPDEST PUSH0 PUSH2 0x4157 PUSH2 0x4152 DUP5 PUSH2 0x4107 JUMP JUMPDEST PUSH2 0x40ED JUMP JUMPDEST SWAP1 POP DUP3 DUP2 MSTORE PUSH1 0x20 DUP2 ADD DUP5 DUP5 DUP5 ADD GT ISZERO PUSH2 0x4173 JUMPI PUSH2 0x4172 PUSH2 0x408B JUMP JUMPDEST JUMPDEST PUSH2 0x417E DUP5 DUP3 DUP6 PUSH2 0x4137 JUMP JUMPDEST POP SWAP4 SWAP3 POP POP POP JUMP JUMPDEST PUSH0 DUP3 PUSH1 0x1F DUP4 ADD SLT PUSH2 0x419A JUMPI PUSH2 0x4199 PUSH2 0x4087 JUMP JUMPDEST JUMPDEST DUP2 CALLDATALOAD PUSH2 0x41AA DUP5 DUP3 PUSH1 0x20 DUP7 ADD PUSH2 0x4145 JUMP JUMPDEST SWAP2 POP POP SWAP3 SWAP2 POP POP JUMP JUMPDEST PUSH0 DUP1 PUSH0 PUSH1 0x60 DUP5 DUP7 SUB SLT ISZERO PUSH2 0x41CA JUMPI PUSH2 0x41C9 PUSH2 0x39D7 JUMP JUMPDEST JUMPDEST PUSH0 PUSH2 0x41D7 DUP7 DUP3 DUP8 ADD PUSH2 0x39FE JUMP JUMPDEST SWAP4 POP POP PUSH1 0x20 PUSH2 0x41E8 DUP7 DUP3 DUP8 ADD PUSH2 0x39FE JUMP JUMPDEST SWAP3 POP POP PUSH1 0x40 DUP5 ADD CALLDATALOAD PUSH8 0xFFFFFFFFFFFFFFFF DUP2 GT ISZERO PUSH2 0x4209 JUMPI PUSH2 0x4208 PUSH2 0x39DB JUMP JUMPDEST JUMPDEST PUSH2 0x4215 DUP7 DUP3 DUP8 ADD PUSH2 0x4186 JUMP JUMPDEST SWAP2 POP POP SWAP3 POP SWAP3 POP SWAP3 JUMP JUMPDEST PUSH0 PUSH1 0x60 DUP3 ADD SWAP1 POP PUSH2 0x4232 PUSH0 DUP4 ADD DUP7 PUSH2 0x3A3D JUMP JUMPDEST PUSH2 0x423F PUSH1 0x20 DUP4 ADD DUP6 PUSH2 0x3A3D JUMP JUMPDEST PUSH2 0x424C PUSH1 0x40 DUP4 ADD DUP5 PUSH2 0x3A3D JUMP JUMPDEST SWAP5 SWAP4 POP POP POP POP JUMP JUMPDEST PUSH0 PUSH8 0xFFFFFFFFFFFFFFFF DUP3 GT ISZERO PUSH2 0x426E JUMPI PUSH2 0x426D PUSH2 0x408F JUMP JUMPDEST JUMPDEST PUSH1 0x20 DUP3 MUL SWAP1 POP PUSH1 0x20 DUP2 ADD SWAP1 POP SWAP2 SWAP1 POP JUMP JUMPDEST PUSH0 DUP1 REVERT JUMPDEST PUSH0 PUSH2 0x4295 PUSH2 0x4290 DUP5 PUSH2 0x4254 JUMP JUMPDEST PUSH2 0x40ED JUMP JUMPDEST SWAP1 POP DUP1 DUP4 DUP3 MSTORE PUSH1 0x20 DUP3 ADD SWAP1 POP PUSH1 0x20 DUP5 MUL DUP4 ADD DUP6 DUP2 GT ISZERO PUSH2 0x42B8 JUMPI PUSH2 0x42B7 PUSH2 0x427F JUMP JUMPDEST JUMPDEST DUP4 JUMPDEST DUP2 DUP2 LT ISZERO PUSH2 0x42E1 JUMPI DUP1 PUSH2 0x42CD DUP9 DUP3 PUSH2 0x3DE4 JUMP JUMPDEST DUP5 MSTORE PUSH1 0x20 DUP5 ADD SWAP4 POP POP PUSH1 0x20 DUP2 ADD SWAP1 POP PUSH2 0x42BA JUMP JUMPDEST POP POP POP SWAP4 SWAP3 POP POP POP JUMP JUMPDEST PUSH0 DUP3 PUSH1 0x1F DUP4 ADD SLT PUSH2 0x42FF JUMPI PUSH2 0x42FE PUSH2 0x4087 JUMP JUMPDEST JUMPDEST DUP2 CALLDATALOAD PUSH2 0x430F DUP5 DUP3 PUSH1 0x20 DUP7 ADD PUSH2 0x4283 JUMP JUMPDEST SWAP2 POP POP SWAP3 SWAP2 POP POP JUMP JUMPDEST PUSH0 PUSH8 0xFFFFFFFFFFFFFFFF DUP3 GT ISZERO PUSH2 0x4332 JUMPI PUSH2 0x4331 PUSH2 0x408F JUMP JUMPDEST JUMPDEST PUSH1 0x20 DUP3 MUL SWAP1 POP PUSH1 0x20 DUP2 ADD SWAP1 POP SWAP2 SWAP1 POP JUMP JUMPDEST PUSH0 PUSH2 0x4355 PUSH2 0x4350 DUP5 PUSH2 0x4318 JUMP JUMPDEST PUSH2 0x40ED JUMP JUMPDEST SWAP1 POP DUP1 DUP4 DUP3 MSTORE PUSH1 0x20 DUP3 ADD SWAP1 POP PUSH1 0x20 DUP5 MUL DUP4 ADD DUP6 DUP2 GT ISZERO PUSH2 0x4378 JUMPI PUSH2 0x4377 PUSH2 0x427F JUMP JUMPDEST JUMPDEST DUP4 JUMPDEST DUP2 DUP2 LT ISZERO PUSH2 0x43A1 JUMPI DUP1 PUSH2 0x438D DUP9 DUP3 PUSH2 0x39FE JUMP JUMPDEST DUP5 MSTORE PUSH1 0x20 DUP5 ADD SWAP4 POP POP PUSH1 0x20 DUP2 ADD SWAP1 POP PUSH2 0x437A JUMP JUMPDEST POP POP POP SWAP4 SWAP3 POP POP POP JUMP JUMPDEST PUSH0 DUP3 PUSH1 0x1F DUP4 ADD SLT PUSH2 0x43BF JUMPI PUSH2 0x43BE PUSH2 0x4087 JUMP JUMPDEST JUMPDEST DUP2 CALLDATALOAD PUSH2 0x43CF DUP5 DUP3 PUSH1 0x20 DUP7 ADD PUSH2 0x4343 JUMP JUMPDEST SWAP2 POP POP SWAP3 SWAP2 POP POP JUMP JUMPDEST PUSH0 DUP1 PUSH0 DUP1 PUSH0 PUSH1 0xA0 DUP7 DUP9 SUB SLT ISZERO PUSH2 0x43F1 JUMPI PUSH2 0x43F0 PUSH2 0x39D7 JUMP JUMPDEST JUMPDEST PUSH0 DUP7 ADD CALLDATALOAD PUSH8 0xFFFFFFFFFFFFFFFF DUP2 GT ISZERO PUSH2 0x440E JUMPI PUSH2 0x440D PUSH2 0x39DB JUMP JUMPDEST JUMPDEST PUSH2 0x441A DUP9 DUP3 DUP10 ADD PUSH2 0x4186 JUMP JUMPDEST SWAP6 POP POP PUSH1 0x20 DUP7 ADD CALLDATALOAD PUSH8 0xFFFFFFFFFFFFFFFF DUP2 GT ISZERO PUSH2 0x443B JUMPI PUSH2 0x443A PUSH2 0x39DB JUMP JUMPDEST JUMPDEST PUSH2 0x4447 DUP9 DUP3 DUP10 ADD PUSH2 0x4186 JUMP JUMPDEST SWAP5 POP POP PUSH1 0x40 PUSH2 0x4458 DUP9 DUP3 DUP10 ADD PUSH2 0x39FE JUMP JUMPDEST SWAP4 POP POP PUSH1 0x60 DUP7 ADD CALLDATALOAD PUSH8 0xFFFFFFFFFFFFFFFF DUP2 GT ISZERO PUSH2 0x4479 JUMPI PUSH2 0x4478 PUSH2 0x39DB JUMP JUMPDEST JUMPDEST PUSH2 0x4485 DUP9 DUP3 DUP10 ADD PUSH2 0x42EB JUMP JUMPDEST SWAP3 POP POP PUSH1 0x80 DUP7 ADD CALLDATALOAD PUSH8 0xFFFFFFFFFFFFFFFF DUP2 GT ISZERO PUSH2 0x44A6 JUMPI PUSH2 0x44A5 PUSH2 0x39DB JUMP JUMPDEST JUMPDEST PUSH2 0x44B2 DUP9 DUP3 DUP10 ADD PUSH2 0x43AB JUMP JUMPDEST SWAP2 POP POP SWAP3 SWAP6 POP SWAP3 SWAP6 SWAP1 SWAP4 POP JUMP JUMPDEST PUSH0 PUSH1 0x20 DUP3 DUP5 SUB SLT ISZERO PUSH2 0x44D4 JUMPI PUSH2 0x44D3 PUSH2 0x39D7 JUMP JUMPDEST JUMPDEST PUSH0 PUSH2 0x44E1 DUP5 DUP3 DUP6 ADD PUSH2 0x3E5E JUMP JUMPDEST SWAP2 POP POP SWAP3 SWAP2 POP POP JUMP JUMPDEST PUSH2 0x44F3 DUP2 PUSH2 0x3DBD JUMP JUMPDEST DUP3 MSTORE POP POP JUMP JUMPDEST PUSH0 PUSH2 0x140 DUP3 ADD SWAP1 POP PUSH2 0x450D PUSH0 DUP4 ADD DUP14 PUSH2 0x3A3D JUMP JUMPDEST DUP2 DUP2 SUB PUSH1 0x20 DUP4 ADD MSTORE PUSH2 0x451F DUP2 DUP13 PUSH2 0x3AC3 JUMP JUMPDEST SWAP1 POP DUP2 DUP2 SUB PUSH1 0x40 DUP4 ADD MSTORE PUSH2 0x4533 DUP2 DUP12 PUSH2 0x3AC3 JUMP JUMPDEST SWAP1 POP PUSH2 0x4542 PUSH1 0x60 DUP4 ADD DUP11 PUSH2 0x44EA JUMP JUMPDEST PUSH2 0x454F PUSH1 0x80 DUP4 ADD DUP10 PUSH2 0x3A3D JUMP JUMPDEST PUSH2 0x455C PUSH1 0xA0 DUP4 ADD DUP9 PUSH2 0x3BD3 JUMP JUMPDEST PUSH2 0x4569 PUSH1 0xC0 DUP4 ADD DUP8 PUSH2 0x3A3D JUMP JUMPDEST PUSH2 0x4576 PUSH1 0xE0 DUP4 ADD DUP7 PUSH2 0x3A3D JUMP JUMPDEST PUSH2 0x4584 PUSH2 0x100 DUP4 ADD DUP6 PUSH2 0x3A3D JUMP JUMPDEST PUSH2 0x4592 PUSH2 0x120 DUP4 ADD DUP5 PUSH2 0x3A3D JUMP JUMPDEST SWAP12 SWAP11 POP POP POP POP POP POP POP POP POP POP POP JUMP JUMPDEST PUSH32 0x50726F7065727479206E6F7420617661696C61626C6520666F72207075726368 PUSH0 DUP3 ADD MSTORE PUSH32 0x6173650000000000000000000000000000000000000000000000000000000000 PUSH1 0x20 DUP3 ADD MSTORE POP JUMP JUMPDEST PUSH0 PUSH2 0x45FB PUSH1 0x23 DUP4 PUSH2 0x3A95 JUMP JUMPDEST SWAP2 POP PUSH2 0x4606 DUP3 PUSH2 0x45A1 JUMP JUMPDEST PUSH1 0x40 DUP3 ADD SWAP1 POP SWAP2 SWAP1 POP JUMP JUMPDEST PUSH0 PUSH1 0x20 DUP3 ADD SWAP1 POP DUP2 DUP2 SUB PUSH0 DUP4 ADD MSTORE PUSH2 0x4628 DUP2 PUSH2 0x45EF JUMP JUMPDEST SWAP1 POP SWAP2 SWAP1 POP JUMP JUMPDEST PUSH32 0x4E6F74206120627579657220666F7220746869732070726F7065727479000000 PUSH0 DUP3 ADD MSTORE POP JUMP JUMPDEST PUSH0 PUSH2 0x4663 PUSH1 0x1D DUP4 PUSH2 0x3A95 JUMP JUMPDEST SWAP2 POP PUSH2 0x466E DUP3 PUSH2 0x462F JUMP JUMPDEST PUSH1 0x20 DUP3 ADD SWAP1 POP SWAP2 SWAP1 POP JUMP JUMPDEST PUSH0 PUSH1 0x20 DUP3 ADD SWAP1 POP DUP2 DUP2 SUB PUSH0 DUP4 ADD MSTORE PUSH2 0x4690 DUP2 PUSH2 0x4657 JUMP JUMPDEST SWAP1 POP SWAP2 SWAP1 POP JUMP JUMPDEST PUSH32 0x416C726561647920706169640000000000000000000000000000000000000000 PUSH0 DUP3 ADD MSTORE POP JUMP JUMPDEST PUSH0 PUSH2 0x46CB PUSH1 0xC DUP4 PUSH2 0x3A95 JUMP JUMPDEST SWAP2 POP PUSH2 0x46D6 DUP3 PUSH2 0x4697 JUMP JUMPDEST PUSH1 0x20 DUP3 ADD SWAP1 POP SWAP2 SWAP1 POP JUMP JUMPDEST PUSH0 PUSH1 0x20 DUP3 ADD SWAP1 POP DUP2 DUP2 SUB PUSH0 DUP4 ADD MSTORE PUSH2 0x46F8 DUP2 PUSH2 0x46BF JUMP JUMPDEST SWAP1 POP SWAP2 SWAP1 POP JUMP JUMPDEST PUSH32 0x4E6F7420616C6C20726F79616C747920686F6C64657273206861766520617070 PUSH0 DUP3 ADD MSTORE PUSH32 0x726F766564000000000000000000000000000000000000000000000000000000 PUSH1 0x20 DUP3 ADD MSTORE POP JUMP JUMPDEST PUSH0 PUSH2 0x4759 PUSH1 0x25 DUP4 PUSH2 0x3A95 JUMP JUMPDEST SWAP2 POP PUSH2 0x4764 DUP3 PUSH2 0x46FF JUMP JUMPDEST PUSH1 0x40 DUP3 ADD SWAP1 POP SWAP2 SWAP1 POP JUMP JUMPDEST PUSH0 PUSH1 0x20 DUP3 ADD SWAP1 POP DUP2 DUP2 SUB PUSH0 DUP4 ADD MSTORE PUSH2 0x4786 DUP2 PUSH2 0x474D JUMP JUMPDEST SWAP1 POP SWAP2 SWAP1 POP JUMP JUMPDEST PUSH32 0x4E487B7100000000000000000000000000000000000000000000000000000000 PUSH0 MSTORE PUSH1 0x11 PUSH1 0x4 MSTORE PUSH1 0x24 PUSH0 REVERT JUMPDEST PUSH0 PUSH2 0x47C4 DUP3 PUSH2 0x39DF JUMP JUMPDEST SWAP2 POP PUSH2 0x47CF DUP4 PUSH2 0x39DF JUMP JUMPDEST SWAP3 POP DUP3 DUP3 MUL PUSH2 0x47DD DUP2 PUSH2 0x39DF JUMP JUMPDEST SWAP2 POP DUP3 DUP3 DIV DUP5 EQ DUP4 ISZERO OR PUSH2 0x47F4 JUMPI PUSH2 0x47F3 PUSH2 0x478D JUMP JUMPDEST JUMPDEST POP SWAP3 SWAP2 POP POP JUMP JUMPDEST PUSH32 0x4E487B7100000000000000000000000000000000000000000000000000000000 PUSH0 MSTORE PUSH1 0x12 PUSH1 0x4 MSTORE PUSH1 0x24 PUSH0 REVERT JUMPDEST PUSH0 PUSH2 0x4832 DUP3 PUSH2 0x39DF JUMP JUMPDEST SWAP2 POP PUSH2 0x483D DUP4 PUSH2 0x39DF JUMP JUMPDEST SWAP3 POP DUP3 PUSH2 0x484D JUMPI PUSH2 0x484C PUSH2 0x47FB JUMP JUMPDEST JUMPDEST DUP3 DUP3 DIV SWAP1 POP SWAP3 SWAP2 POP POP JUMP JUMPDEST PUSH0 PUSH2 0x4862 DUP3 PUSH2 0x39DF JUMP JUMPDEST SWAP2 POP PUSH2 0x486D DUP4 PUSH2 0x39DF JUMP JUMPDEST SWAP3 POP DUP3 DUP3 ADD SWAP1 POP DUP1 DUP3 GT ISZERO PUSH2 0x4885 JUMPI PUSH2 0x4884 PUSH2 0x478D JUMP JUMPDEST JUMPDEST SWAP3 SWAP2 POP POP JUMP JUMPDEST PUSH32 0x496E73756666696369656E74207061796D656E74000000000000000000000000 PUSH0 DUP3 ADD MSTORE POP JUMP JUMPDEST PUSH0 PUSH2 0x48BF PUSH1 0x14 DUP4 PUSH2 0x3A95 JUMP JUMPDEST SWAP2 POP PUSH2 0x48CA DUP3 PUSH2 0x488B JUMP JUMPDEST PUSH1 0x20 DUP3 ADD SWAP1 POP SWAP2 SWAP1 POP JUMP JUMPDEST PUSH0 PUSH1 0x20 DUP3 ADD SWAP1 POP DUP2 DUP2 SUB PUSH0 DUP4 ADD MSTORE PUSH2 0x48EC DUP2 PUSH2 0x48B3 JUMP JUMPDEST SWAP1 POP SWAP2 SWAP1 POP JUMP JUMPDEST PUSH0 PUSH2 0x48FD DUP3 PUSH2 0x39DF JUMP JUMPDEST SWAP2 POP PUSH2 0x4908 DUP4 PUSH2 0x39DF JUMP JUMPDEST SWAP3 POP DUP3 DUP3 SUB SWAP1 POP DUP2 DUP2 GT ISZERO PUSH2 0x4920 JUMPI PUSH2 0x491F PUSH2 0x478D JUMP JUMPDEST JUMPDEST SWAP3 SWAP2 POP POP JUMP JUMPDEST PUSH0 PUSH1 0x40 DUP3 ADD SWAP1 POP PUSH2 0x4939 PUSH0 DUP4 ADD DUP6 PUSH2 0x3A3D JUMP JUMPDEST PUSH2 0x4946 PUSH1 0x20 DUP4 ADD DUP5 PUSH2 0x3BD3 JUMP JUMPDEST SWAP4 SWAP3 POP POP POP JUMP JUMPDEST PUSH32 0x5472616E73616374696F6E20646F6573206E6F74206578697374000000000000 PUSH0 DUP3 ADD MSTORE POP JUMP JUMPDEST PUSH0 PUSH2 0x4981 PUSH1 0x1A DUP4 PUSH2 0x3A95 JUMP JUMPDEST SWAP2 POP PUSH2 0x498C DUP3 PUSH2 0x494D JUMP JUMPDEST PUSH1 0x20 DUP3 ADD SWAP1 POP SWAP2 SWAP1 POP JUMP JUMPDEST PUSH0 PUSH1 0x20 DUP3 ADD SWAP1 POP DUP2 DUP2 SUB PUSH0 DUP4 ADD MSTORE PUSH2 0x49AE DUP2 PUSH2 0x4975 JUMP JUMPDEST SWAP1 POP SWAP2 SWAP1 POP JUMP JUMPDEST PUSH32 0x4E487B7100000000000000000000000000000000000000000000000000000000 PUSH0 MSTORE PUSH1 0x22 PUSH1 0x4 MSTORE PUSH1 0x24 PUSH0 REVERT JUMPDEST PUSH0 PUSH1 0x2 DUP3 DIV SWAP1 POP PUSH1 0x1 DUP3 AND DUP1 PUSH2 0x49F9 JUMPI PUSH1 0x7F DUP3 AND SWAP2 POP JUMPDEST PUSH1 0x20 DUP3 LT DUP2 SUB PUSH2 0x4A0C JUMPI PUSH2 0x4A0B PUSH2 0x49B5 JUMP JUMPDEST JUMPDEST POP SWAP2 SWAP1 POP JUMP JUMPDEST PUSH0 PUSH2 0x4A1C DUP3 PUSH2 0x39DF JUMP JUMPDEST SWAP2 POP PUSH32 0xFFFFFFFFFFFFFFFFFFFFFFFFFFFFFFFFFFFFFFFFFFFFFFFFFFFFFFFFFFFFFFFF DUP3 SUB PUSH2 0x4A4E JUMPI PUSH2 0x4A4D PUSH2 0x478D JUMP JUMPDEST JUMPDEST PUSH1 0x1 DUP3 ADD SWAP1 POP SWAP2 SWAP1 POP JUMP JUMPDEST PUSH32 0x4E487B7100000000000000000000000000000000000000000000000000000000 PUSH0 MSTORE PUSH1 0x32 PUSH1 0x4 MSTORE PUSH1 0x24 PUSH0 REVERT JUMPDEST PUSH32 0x4F6E6C79206F776E6572206F722061646D696E2063616E2063616E63656C0000 PUSH0 DUP3 ADD MSTORE POP JUMP JUMPDEST PUSH0 PUSH2 0x4ABA PUSH1 0x1E DUP4 PUSH2 0x3A95 JUMP JUMPDEST SWAP2 POP PUSH2 0x4AC5 DUP3 PUSH2 0x4A86 JUMP JUMPDEST PUSH1 0x20 DUP3 ADD SWAP1 POP SWAP2 SWAP1 POP JUMP JUMPDEST PUSH0 PUSH1 0x20 DUP3 ADD SWAP1 POP DUP2 DUP2 SUB PUSH0 DUP4 ADD MSTORE PUSH2 0x4AE7 DUP2 PUSH2 0x4AAE JUMP JUMPDEST SWAP1 POP SWAP2 SWAP1 POP JUMP JUMPDEST PUSH32 0x50726F7065727479206E6F7420696E20636F7272656374207374617465000000 PUSH0 DUP3 ADD MSTORE POP JUMP JUMPDEST PUSH0 PUSH2 0x4B22 PUSH1 0x1D DUP4 PUSH2 0x3A95 JUMP JUMPDEST SWAP2 POP PUSH2 0x4B2D DUP3 PUSH2 0x4AEE JUMP JUMPDEST PUSH1 0x20 DUP3 ADD SWAP1 POP SWAP2 SWAP1 POP JUMP JUMPDEST PUSH0 PUSH1 0x20 DUP3 ADD SWAP1 POP DUP2 DUP2 SUB PUSH0 DUP4 ADD MSTORE PUSH2 0x4B4F DUP2 PUSH2 0x4B16 JUMP JUMPDEST SWAP1 POP SWAP2 SWAP1 POP JUMP JUMPDEST PUSH32 0x43616E6E6F742063616E63656C3A20627579657273206861766520616C726561 PUSH0 DUP3 ADD MSTORE PUSH32 0x6479207061696400000000000000000000000000000000000000000000000000 PUSH1 0x20 DUP3 ADD MSTORE POP JUMP JUMPDEST PUSH0 PUSH2 0x4BB0 PUSH1 0x27 DUP4 PUSH2 0x3A95 JUMP JUMPDEST SWAP2 POP PUSH2 0x4BBB DUP3 PUSH2 0x4B56 JUMP JUMPDEST PUSH1 0x40 DUP3 ADD SWAP1 POP SWAP2 SWAP1 POP JUMP JUMPDEST PUSH0 PUSH1 0x20 DUP3 ADD SWAP1 POP DUP2 DUP2 SUB PUSH0 DUP4 ADD MSTORE PUSH2 0x4BDD DUP2 PUSH2 0x4BA4 JUMP JUMPDEST SWAP1 POP SWAP2 SWAP1 POP JUMP JUMPDEST PUSH32 0x50726F7065727479206E6F74206C697374656400000000000000000000000000 PUSH0 DUP3 ADD MSTORE POP JUMP JUMPDEST PUSH0 PUSH2 0x4C18 PUSH1 0x13 DUP4 PUSH2 0x3A95 JUMP JUMPDEST SWAP2 POP PUSH2 0x4C23 DUP3 PUSH2 0x4BE4 JUMP JUMPDEST PUSH1 0x20 DUP3 ADD SWAP1 POP SWAP2 SWAP1 POP JUMP JUMPDEST PUSH0 PUSH1 0x20 DUP3 ADD SWAP1 POP DUP2 DUP2 SUB PUSH0 DUP4 ADD MSTORE PUSH2 0x4C45 DUP2 PUSH2 0x4C0C JUMP JUMPDEST SWAP1 POP SWAP2 SWAP1 POP JUMP JUMPDEST PUSH32 0x4E6F74206120726F79616C747920686F6C64657220666F722074686973207072 PUSH0 DUP3 ADD MSTORE PUSH32 0x6F70657274790000000000000000000000000000000000000000000000000000 PUSH1 0x20 DUP3 ADD MSTORE POP JUMP JUMPDEST PUSH0 PUSH2 0x4CA6 PUSH1 0x26 DUP4 PUSH2 0x3A95 JUMP JUMPDEST SWAP2 POP PUSH2 0x4CB1 DUP3 PUSH2 0x4C4C JUMP JUMPDEST PUSH1 0x40 DUP3 ADD SWAP1 POP SWAP2 SWAP1 POP JUMP JUMPDEST PUSH0 PUSH1 0x20 DUP3 ADD SWAP1 POP DUP2 DUP2 SUB PUSH0 DUP4 ADD MSTORE PUSH2 0x4CD3 DUP2 PUSH2 0x4C9A JUMP JUMPDEST SWAP1 POP SWAP2 SWAP1 POP JUMP JUMPDEST PUSH32 0x416C726561647920617070726F76656400000000000000000000000000000000 PUSH0 DUP3 ADD MSTORE POP JUMP JUMPDEST PUSH0 PUSH2 0x4D0E PUSH1 0x10 DUP4 PUSH2 0x3A95 JUMP JUMPDEST SWAP2 POP PUSH2 0x4D19 DUP3 PUSH2 0x4CDA JUMP JUMPDEST PUSH1 0x20 DUP3 ADD SWAP1 POP SWAP2 SWAP1 POP JUMP JUMPDEST PUSH0 PUSH1 0x20 DUP3 ADD SWAP1 POP DUP2 DUP2 SUB PUSH0 DUP4 ADD MSTORE PUSH2 0x4D3B DUP2 PUSH2 0x4D02 JUMP JUMPDEST SWAP1 POP SWAP2 SWAP1 POP JUMP JUMPDEST PUSH32 0x4D6178696D756D20332062757965727320616C6C6F7765640000000000000000 PUSH0 DUP3 ADD MSTORE POP JUMP JUMPDEST PUSH0 PUSH2 0x4D76 PUSH1 0x18 DUP4 PUSH2 0x3A95 JUMP JUMPDEST SWAP2 POP PUSH2 0x4D81 DUP3 PUSH2 0x4D42 JUMP JUMPDEST PUSH1 0x20 DUP3 ADD SWAP1 POP SWAP2 SWAP1 POP JUMP JUMPDEST PUSH0 PUSH1 0x20 DUP3 ADD SWAP1 POP DUP2 DUP2 SUB PUSH0 DUP4 ADD MSTORE PUSH2 0x4DA3 DUP2 PUSH2 0x4D6A JUMP JUMPDEST SWAP1 POP SWAP2 SWAP1 POP JUMP JUMPDEST PUSH32 0x496E76616C69642073686172652070657263656E746167650000000000000000 PUSH0 DUP3 ADD MSTORE POP JUMP JUMPDEST PUSH0 PUSH2 0x4DDE PUSH1 0x18 DUP4 PUSH2 0x3A95 JUMP JUMPDEST SWAP2 POP PUSH2 0x4DE9 DUP3 PUSH2 0x4DAA JUMP JUMPDEST PUSH1 0x20 DUP3 ADD SWAP1 POP SWAP2 SWAP1 POP JUMP JUMPDEST PUSH0 PUSH1 0x20 DUP3 ADD SWAP1 POP DUP2 DUP2 SUB PUSH0 DUP4 ADD MSTORE PUSH2 0x4E0B DUP2 PUSH2 0x4DD2 JUMP JUMPDEST SWAP1 POP SWAP2 SWAP1 POP JUMP JUMPDEST PUSH32 0x546F74616C2073686172652063616E6E6F742065786365656420313030250000 PUSH0 DUP3 ADD MSTORE POP JUMP JUMPDEST PUSH0 PUSH2 0x4E46 PUSH1 0x1E DUP4 PUSH2 0x3A95 JUMP JUMPDEST SWAP2 POP PUSH2 0x4E51 DUP3 PUSH2 0x4E12 JUMP JUMPDEST PUSH1 0x20 DUP3 ADD SWAP1 POP SWAP2 SWAP1 POP JUMP JUMPDEST PUSH0 PUSH1 0x20 DUP3 ADD SWAP1 POP DUP2 DUP2 SUB PUSH0 DUP4 ADD MSTORE PUSH2 0x4E73 DUP2 PUSH2 0x4E3A JUMP JUMPDEST SWAP1 POP SWAP2 SWAP1 POP JUMP JUMPDEST PUSH32 0x496E76616C696420686F6C64657220696E646578000000000000000000000000 PUSH0 DUP3 ADD MSTORE POP JUMP JUMPDEST PUSH0 PUSH2 0x4EAE PUSH1 0x14 DUP4 PUSH2 0x3A95 JUMP JUMPDEST SWAP2 POP PUSH2 0x4EB9 DUP3 PUSH2 0x4E7A JUMP JUMPDEST PUSH1 0x20 DUP3 ADD SWAP1 POP SWAP2 SWAP1 POP JUMP JUMPDEST PUSH0 PUSH1 0x20 DUP3 ADD SWAP1 POP DUP2 DUP2 SUB PUSH0 DUP4 ADD MSTORE PUSH2 0x4EDB DUP2 PUSH2 0x4EA2 JUMP JUMPDEST SWAP1 POP SWAP2 SWAP1 POP JUMP JUMPDEST PUSH32 0x496E76616C696420627579657220696E64657800000000000000000000000000 PUSH0 DUP3 ADD MSTORE POP JUMP JUMPDEST PUSH0 PUSH2 0x4F16 PUSH1 0x13 DUP4 PUSH2 0x3A95 JUMP JUMPDEST SWAP2 POP PUSH2 0x4F21 DUP3 PUSH2 0x4EE2 JUMP JUMPDEST PUSH1 0x20 DUP3 ADD SWAP1 POP SWAP2 SWAP1 POP JUMP JUMPDEST PUSH0 PUSH1 0x20 DUP3 ADD SWAP1 POP DUP2 DUP2 SUB PUSH0 DUP4 ADD MSTORE PUSH2 0x4F43 DUP2 PUSH2 0x4F0A JUMP JUMPDEST SWAP1 POP SWAP2 SWAP1 POP JUMP JUMPDEST PUSH32 0x4665652063616E6E6F7420657863656564203130250000000000000000000000 PUSH0 DUP3 ADD MSTORE POP JUMP JUMPDEST PUSH0 PUSH2 0x4F7E PUSH1 0x15 DUP4 PUSH2 0x3A95 JUMP JUMPDEST SWAP2 POP PUSH2 0x4F89 DUP3 PUSH2 0x4F4A JUMP JUMPDEST PUSH1 0x20 DUP3 ADD SWAP1 POP SWAP2 SWAP1 POP JUMP JUMPDEST PUSH0 PUSH1 0x20 DUP3 ADD SWAP1 POP DUP2 DUP2 SUB PUSH0 DUP4 ADD MSTORE PUSH2 0x4FAB DUP2 PUSH2 0x4F72 JUMP JUMPDEST SWAP1 POP SWAP2 SWAP1 POP JUMP JUMPDEST PUSH32 0x4F6E6C79206F776E65722063616E207570646174652070726F70657274790000 PUSH0 DUP3 ADD MSTORE POP JUMP JUMPDEST PUSH0 PUSH2 0x4FE6 PUSH1 0x1E DUP4 PUSH2 0x3A95 JUMP JUMPDEST SWAP2 POP PUSH2 0x4FF1 DUP3 PUSH2 0x4FB2 JUMP JUMPDEST PUSH1 0x20 DUP3 ADD SWAP1 POP SWAP2 SWAP1 POP JUMP JUMPDEST PUSH0 PUSH1 0x20 DUP3 ADD SWAP1 POP DUP2 DUP2 SUB PUSH0 DUP4 ADD MSTORE PUSH2 0x5013 DUP2 PUSH2 0x4FDA JUMP JUMPDEST SWAP1 POP SWAP2 SWAP1 POP JUMP JUMPDEST PUSH0 DUP2 SWAP1 POP DUP2 PUSH0 MSTORE PUSH1 0x20 PUSH0 KECCAK256 SWAP1 POP SWAP2 SWAP1 POP JUMP JUMPDEST PUSH0 PUSH1 0x20 PUSH1 0x1F DUP4 ADD DIV SWAP1 POP SWAP2 SWAP1 POP JUMP JUMPDEST PUSH0 DUP3 DUP3 SHL SWAP1 POP SWAP3 SWAP2 POP POP JUMP JUMPDEST PUSH0 PUSH1 0x8 DUP4 MUL PUSH2 0x5076 PUSH32 0xFFFFFFFFFFFFFFFFFFFFFFFFFFFFFFFFFFFFFFFFFFFFFFFFFFFFFFFFFFFFFFFF DUP3 PUSH2 0x503B JUMP JUMPDEST PUSH2 0x5080 DUP7 DUP4 PUSH2 0x503B JUMP JUMPDEST SWAP6 POP DUP1 NOT DUP5 AND SWAP4 POP DUP1 DUP7 AND DUP5 OR SWAP3 POP POP POP SWAP4 SWAP3 POP POP POP JUMP JUMPDEST PUSH0 DUP2 SWAP1 POP SWAP2 SWAP1 POP JUMP JUMPDEST PUSH0 PUSH2 0x50BB PUSH2 0x50B6 PUSH2 0x50B1 DUP5 PUSH2 0x39DF JUMP JUMPDEST PUSH2 0x5098 JUMP JUMPDEST PUSH2 0x39DF JUMP JUMPDEST SWAP1 POP SWAP2 SWAP1 POP JUMP JUMPDEST PUSH0 DUP2 SWAP1 POP SWAP2 SWAP1 POP JUMP JUMPDEST PUSH2 0x50D4 DUP4 PUSH2 0x50A1 JUMP JUMPDEST PUSH2 0x50E8 PUSH2 0x50E0 DUP3 PUSH2 0x50C2 JUMP JUMPDEST DUP5 DUP5 SLOAD PUSH2 0x5047 JUMP JUMPDEST DUP3 SSTORE POP POP POP POP JUMP JUMPDEST PUSH0 SWAP1 JUMP JUMPDEST PUSH2 0x50FC PUSH2 0x50F0 JUMP JUMPDEST PUSH2 0x5107 DUP2 DUP5 DUP5 PUSH2 0x50CB JUMP JUMPDEST POP POP POP JUMP JUMPDEST JUMPDEST DUP2 DUP2 LT ISZERO PUSH2 0x512A JUMPI PUSH2 0x511F PUSH0 DUP3 PUSH2 0x50F4 JUMP JUMPDEST PUSH1 0x1 DUP2 ADD SWAP1 POP PUSH2 0x510D JUMP JUMPDEST POP POP JUMP JUMPDEST PUSH1 0x1F DUP3 GT ISZERO PUSH2 0x516F JUMPI PUSH2 0x5140 DUP2 PUSH2 0x501A JUMP JUMPDEST PUSH2 0x5149 DUP5 PUSH2 0x502C JUMP JUMPDEST DUP2 ADD PUSH1 0x20 DUP6 LT ISZERO PUSH2 0x5158 JUMPI DUP2 SWAP1 POP JUMPDEST PUSH2 0x516C PUSH2 0x5164 DUP6 PUSH2 0x502C JUMP JUMPDEST DUP4 ADD DUP3 PUSH2 0x510C JUMP JUMPDEST POP POP JUMPDEST POP POP POP JUMP JUMPDEST PUSH0 DUP3 DUP3 SHR SWAP1 POP SWAP3 SWAP2 POP POP JUMP JUMPDEST PUSH0 PUSH2 0x518F PUSH0 NOT DUP5 PUSH1 0x8 MUL PUSH2 0x5174 JUMP JUMPDEST NOT DUP1 DUP4 AND SWAP2 POP POP SWAP3 SWAP2 POP POP JUMP JUMPDEST PUSH0 PUSH2 0x51A7 DUP4 DUP4 PUSH2 0x5180 JUMP JUMPDEST SWAP2 POP DUP3 PUSH1 0x2 MUL DUP3 OR SWAP1 POP SWAP3 SWAP2 POP POP JUMP JUMPDEST PUSH2 0x51C0 DUP3 PUSH2 0x3A8B JUMP JUMPDEST PUSH8 0xFFFFFFFFFFFFFFFF DUP2 GT ISZERO PUSH2 0x51D9 JUMPI PUSH2 0x51D8 PUSH2 0x408F JUMP JUMPDEST JUMPDEST PUSH2 0x51E3 DUP3 SLOAD PUSH2 0x49E2 JUMP JUMPDEST PUSH2 0x51EE DUP3 DUP3 DUP6 PUSH2 0x512E JUMP JUMPDEST PUSH0 PUSH1 0x20 SWAP1 POP PUSH1 0x1F DUP4 GT PUSH1 0x1 DUP2 EQ PUSH2 0x521F JUMPI PUSH0 DUP5 ISZERO PUSH2 0x520D JUMPI DUP3 DUP8 ADD MLOAD SWAP1 POP JUMPDEST PUSH2 0x5217 DUP6 DUP3 PUSH2 0x519C JUMP JUMPDEST DUP7 SSTORE POP PUSH2 0x527E JUMP JUMPDEST PUSH1 0x1F NOT DUP5 AND PUSH2 0x522D DUP7 PUSH2 0x501A JUMP JUMPDEST PUSH0 JUMPDEST DUP3 DUP2 LT ISZERO PUSH2 0x5254 JUMPI DUP5 DUP10 ADD MLOAD DUP3 SSTORE PUSH1 0x1 DUP3 ADD SWAP2 POP PUSH1 0x20 DUP6 ADD SWAP5 POP PUSH1 0x20 DUP2 ADD SWAP1 POP PUSH2 0x522F JUMP JUMPDEST DUP7 DUP4 LT ISZERO PUSH2 0x5271 JUMPI DUP5 DUP10 ADD MLOAD PUSH2 0x526D PUSH1 0x1F DUP10 AND DUP3 PUSH2 0x5180 JUMP JUMPDEST DUP4 SSTORE POP JUMPDEST PUSH1 0x1 PUSH1 0x2 DUP9 MUL ADD DUP9 SSTORE POP POP POP JUMPDEST POP POP POP POP POP POP JUMP JUMPDEST PUSH32 0x4C697374696E6720666565206E6F742070726F76696465640000000000000000 PUSH0 DUP3 ADD MSTORE POP JUMP JUMPDEST PUSH0 PUSH2 0x52BA PUSH1 0x18 DUP4 PUSH2 0x3A95 JUMP JUMPDEST SWAP2 POP PUSH2 0x52C5 DUP3 PUSH2 0x5286 JUMP JUMPDEST PUSH1 0x20 DUP3 ADD SWAP1 POP SWAP2 SWAP1 POP JUMP JUMPDEST PUSH0 PUSH1 0x20 DUP3 ADD SWAP1 POP DUP2 DUP2 SUB PUSH0 DUP4 ADD MSTORE PUSH2 0x52E7 DUP2 PUSH2 0x52AE JUMP JUMPDEST SWAP1 POP SWAP2 SWAP1 POP JUMP JUMPDEST PUSH32 0x4D6178696D756D203320726F79616C747920686F6C6465727320616C6C6F7765 PUSH0 DUP3 ADD MSTORE PUSH32 0x6400000000000000000000000000000000000000000000000000000000000000 PUSH1 0x20 DUP3 ADD MSTORE POP JUMP JUMPDEST PUSH0 PUSH2 0x5348 PUSH1 0x21 DUP4 PUSH2 0x3A95 JUMP JUMPDEST SWAP2 POP PUSH2 0x5353 DUP3 PUSH2 0x52EE JUMP JUMPDEST PUSH1 0x40 DUP3 ADD SWAP1 POP SWAP2 SWAP1 POP JUMP JUMPDEST PUSH0 PUSH1 0x20 DUP3 ADD SWAP1 POP DUP2 DUP2 SUB PUSH0 DUP4 ADD MSTORE PUSH2 0x5375 DUP2 PUSH2 0x533C JUMP JUMPDEST SWAP1 POP SWAP2 SWAP1 POP JUMP JUMPDEST PUSH32 0x4172726179206C656E677468206D69736D617463680000000000000000000000 PUSH0 DUP3 ADD MSTORE POP JUMP JUMPDEST PUSH0 PUSH2 0x53B0 PUSH1 0x15 DUP4 PUSH2 0x3A95 JUMP JUMPDEST SWAP2 POP PUSH2 0x53BB DUP3 PUSH2 0x537C JUMP JUMPDEST PUSH1 0x20 DUP3 ADD SWAP1 POP SWAP2 SWAP1 POP JUMP JUMPDEST PUSH0 PUSH1 0x20 DUP3 ADD SWAP1 POP DUP2 DUP2 SUB PUSH0 DUP4 ADD MSTORE PUSH2 0x53DD DUP2 PUSH2 0x53A4 JUMP JUMPDEST SWAP1 POP SWAP2 SWAP1 POP JUMP JUMPDEST PUSH32 0x546F74616C20726F79616C74792063616E6E6F74206578636565642035302500 PUSH0 DUP3 ADD MSTORE POP JUMP JUMPDEST PUSH0 PUSH2 0x5418 PUSH1 0x1F DUP4 PUSH2 0x3A95 JUMP JUMPDEST SWAP2 POP PUSH2 0x5423 DUP3 PUSH2 0x53E4 JUMP JUMPDEST PUSH1 0x20 DUP3 ADD SWAP1 POP SWAP2 SWAP1 POP JUMP JUMPDEST PUSH0 PUSH1 0x20 DUP3 ADD SWAP1 POP DUP2 DUP2 SUB PUSH0 DUP4 ADD MSTORE PUSH2 0x5445 DUP2 PUSH2 0x540C JUMP JUMPDEST SWAP1 POP SWAP2 SWAP1 POP JUMP JUMPDEST PUSH32 0x4E6F2045544820746F2077697468647261770000000000000000000000000000 PUSH0 DUP3 ADD MSTORE POP JUMP JUMPDEST PUSH0 PUSH2 0x5480 PUSH1 0x12 DUP4 PUSH2 0x3A95 JUMP JUMPDEST SWAP2 POP PUSH2 0x548B DUP3 PUSH2 0x544C JUMP JUMPDEST PUSH1 0x20 DUP3 ADD SWAP1 POP SWAP2 SWAP1 POP JUMP JUMPDEST PUSH0 PUSH1 0x20 DUP3 ADD SWAP1 POP DUP2 DUP2 SUB PUSH0 DUP4 ADD MSTORE PUSH2 0x54AD DUP2 PUSH2 0x5474 JUMP JUMPDEST SWAP1 POP SWAP2 SWAP1 POP JUMP JUMPDEST PUSH0 DUP2 MLOAD SWAP1 POP PUSH2 0x54C2 DUP2 PUSH2 0x39E8 JUMP JUMPDEST SWAP3 SWAP2 POP POP JUMP JUMPDEST PUSH0 PUSH1 0x20 DUP3 DUP5 SUB SLT ISZERO PUSH2 0x54DD JUMPI PUSH2 0x54DC PUSH2 0x39D7 JUMP JUMPDEST JUMPDEST PUSH0 PUSH2 0x54EA DUP5 DUP3 DUP6 ADD PUSH2 0x54B4 JUMP JUMPDEST SWAP2 POP POP SWAP3 SWAP2 POP POP JUMP JUMPDEST PUSH32 0x4E6F20746F6B656E7320746F2077697468647261770000000000000000000000 PUSH0 DUP3 ADD MSTORE POP JUMP JUMPDEST PUSH0 PUSH2 0x5527 PUSH1 0x15 DUP4 PUSH2 0x3A95 JUMP JUMPDEST SWAP2 POP PUSH2 0x5532 DUP3 PUSH2 0x54F3 JUMP JUMPDEST PUSH1 0x20 DUP3 ADD SWAP1 POP SWAP2 SWAP1 POP JUMP JUMPDEST PUSH0 PUSH1 0x20 DUP3 ADD SWAP1 POP DUP2 DUP2 SUB PUSH0 DUP4 ADD MSTORE PUSH2 0x5554 DUP2 PUSH2 0x551B JUMP JUMPDEST SWAP1 POP SWAP2 SWAP1 POP JUMP JUMPDEST PUSH0 PUSH1 0x40 DUP3 ADD SWAP1 POP PUSH2 0x556E PUSH0 DUP4 ADD DUP6 PUSH2 0x3A7C JUMP JUMPDEST PUSH2 0x557B PUSH1 0x20 DUP4 ADD DUP5 PUSH2 0x3A3D JUMP JUMPDEST SWAP4 SWAP3 POP POP POP JUMP JUMPDEST PUSH2 0x558B DUP2 PUSH2 0x3F00 JUMP JUMPDEST DUP2 EQ PUSH2 0x5595 JUMPI PUSH0 DUP1 REVERT JUMPDEST POP JUMP JUMPDEST PUSH0 DUP2 MLOAD SWAP1 POP PUSH2 0x55A6 DUP2 PUSH2 0x5582 JUMP JUMPDEST SWAP3 SWAP2 POP POP JUMP JUMPDEST PUSH0 PUSH1 0x20 DUP3 DUP5 SUB SLT ISZERO PUSH2 0x55C1 JUMPI PUSH2 0x55C0 PUSH2 0x39D7 JUMP JUMPDEST JUMPDEST PUSH0 PUSH2 0x55CE DUP5 DUP3 DUP6 ADD PUSH2 0x5598 JUMP JUMPDEST SWAP2 POP POP SWAP3 SWAP2 POP POP JUMP JUMPDEST PUSH32 0x5265656E7472616E637947756172643A207265656E7472616E742063616C6C00 PUSH0 DUP3 ADD MSTORE POP JUMP JUMPDEST PUSH0 PUSH2 0x560B PUSH1 0x1F DUP4 PUSH2 0x3A95 JUMP JUMPDEST SWAP2 POP PUSH2 0x5616 DUP3 PUSH2 0x55D7 JUMP JUMPDEST PUSH1 0x20 DUP3 ADD SWAP1 POP SWAP2 SWAP1 POP JUMP JUMPDEST PUSH0 PUSH1 0x20 DUP3 ADD SWAP1 POP DUP2 DUP2 SUB PUSH0 DUP4 ADD MSTORE PUSH2 0x5638 DUP2 PUSH2 0x55FF JUMP JUMPDEST SWAP1 POP SWAP2 SWAP1 POP JUMP JUMPDEST PUSH0 PUSH1 0x20 DUP3 ADD SWAP1 POP DUP2 DUP2 SUB PUSH0 DUP4 ADD MSTORE PUSH2 0x5657 DUP2 DUP5 PUSH2 0x3AC3 JUMP JUMPDEST SWAP1 POP SWAP3 SWAP2 POP POP JUMP INVALID LOG2 PUSH5 0x6970667358 0x22 SLT KECCAK256 0xDA 0x27 PUSH18 0x2A89728750999CB3EBA8EE93534B62080FDB PUSH24 0x18F4F486EEC2C2E53C5064736F6C634300081A0033000000 "
		},
		"gasEstimates": {
			"creation": {
				"codeDepositCost": "4433000",
				"executionCost": "infinite",
				"totalCost": "infinite"
			},
			"external": {
				"addBuyer(uint256,address,uint256)": "infinite",
				"approvePropertySale(uint256)": "infinite",
				"areAllApprovalsInPlace(uint256)": "infinite",
				"buyPropertyShare(uint256)": "infinite",
				"cancelListing(uint256)": "infinite",
				"getBuyerDetails(uint256,uint256)": "infinite",
				"getContractStatistics()": "infinite",
				"getPropertiesByBuyer(address,uint256,uint256)": "infinite",
				"getPropertiesByOwner(address,uint256,uint256)": "infinite",
				"getPropertiesByStatus(uint8,uint256,uint256)": "infinite",
				"getPropertyDetails(uint256)": "infinite",
				"getRoyaltyDistribution(uint256)": "infinite",
				"getRoyaltyHolderDetails(uint256,uint256)": "infinite",
				"getSharePaymentDetails(uint256,uint256)": "infinite",
				"getTotalProperties()": "2478",
				"getTotalTransactions()": "2543",
				"getTransactionDetails(uint256)": "infinite",
				"getTransactionsByProperty(uint256,uint256,uint256)": "infinite",
				"listProperty(string,string,uint256,address[],uint256[])": "infinite",
				"listingFee()": "2514",
				"owner()": "2605",
				"properties(uint256)": "infinite",
				"propertyCount()": "2514",
				"purchaseFee()": "2538",
				"renounceOwnership()": "infinite",
				"transactionCount()": "2470",
				"transactions(uint256)": "infinite",
				"transferOwnership(address)": "infinite",
				"updateListingFee(uint256)": "infinite",
				"updateProperty(uint256,uint256,string)": "infinite",
				"updatePurchaseFee(uint256)": "infinite",
				"withdrawERC20(address)": "infinite",
				"withdrawETH()": "infinite"
			},
			"internal": {
				"_allSharesPurchased(struct RealEstateDApp.Property storage pointer)": "infinite",
				"_recordTransaction(uint256,address,address,uint256,string memory)": "infinite"
			}
		},
		"methodIdentifiers": {
			"addBuyer(uint256,address,uint256)": "4e9798c3",
			"approvePropertySale(uint256)": "3e3ea547",
			"areAllApprovalsInPlace(uint256)": "572f5eed",
			"buyPropertyShare(uint256)": "06ea4e6a",
			"cancelListing(uint256)": "305a67a8",
			"getBuyerDetails(uint256,uint256)": "70e14734",
			"getContractStatistics()": "18089a0c",
			"getPropertiesByBuyer(address,uint256,uint256)": "53bcb3db",
			"getPropertiesByOwner(address,uint256,uint256)": "635e49e5",
			"getPropertiesByStatus(uint8,uint256,uint256)": "90cad32f",
			"getPropertyDetails(uint256)": "126dbe43",
			"getRoyaltyDistribution(uint256)": "27cc8b5d",
			"getRoyaltyHolderDetails(uint256,uint256)": "547ee4ac",
			"getSharePaymentDetails(uint256,uint256)": "bafadc3c",
			"getTotalProperties()": "17aaf5ed",
			"getTotalTransactions()": "b5c604ff",
			"getTransactionDetails(uint256)": "0fa683d3",
			"getTransactionsByProperty(uint256,uint256,uint256)": "7eff2769",
			"listProperty(string,string,uint256,address[],uint256[])": "d78ae22f",
			"listingFee()": "6a1b7ecc",
			"owner()": "8da5cb5b",
			"properties(uint256)": "f7b10808",
			"propertyCount()": "c361a335",
			"purchaseFee()": "14b5e981",
			"renounceOwnership()": "715018a6",
			"transactionCount()": "b77bf600",
			"transactions(uint256)": "9ace38c2",
			"transferOwnership(address)": "f2fde38b",
			"updateListingFee(uint256)": "f79d91ae",
			"updateProperty(uint256,uint256,string)": "a9059be5",
			"updatePurchaseFee(uint256)": "9ca1f363",
			"withdrawERC20(address)": "f4f3b200",
			"withdrawETH()": "e086e5ec"
		}
	},
	"abi": [
		{
			"inputs": [
				{
					"internalType": "uint256",
					"name": "_listingFee",
					"type": "uint256"
				},
				{
					"internalType": "uint256",
					"name": "_purchaseFee",
					"type": "uint256"
				}
			],
			"stateMutability": "nonpayable",
			"type": "constructor"
		},
		{
			"inputs": [
				{
					"internalType": "address",
					"name": "owner",
					"type": "address"
				}
			],
			"name": "OwnableInvalidOwner",
			"type": "error"
		},
		{
			"inputs": [
				{
					"internalType": "address",
					"name": "account",
					"type": "address"
				}
			],
			"name": "OwnableUnauthorizedAccount",
			"type": "error"
		},
		{
			"anonymous": false,
			"inputs": [
				{
					"indexed": true,
					"internalType": "uint256",
					"name": "propertyId",
					"type": "uint256"
				},
				{
					"indexed": true,
					"internalType": "address",
					"name": "buyer",
					"type": "address"
				},
				{
					"indexed": false,
					"internalType": "uint256",
					"name": "sharePercentage",
					"type": "uint256"
				}
			],
			"name": "BuyerAdded",
			"type": "event"
		},
		{
			"anonymous": false,
			"inputs": [
				{
					"indexed": true,
					"internalType": "uint256",
					"name": "propertyId",
					"type": "uint256"
				},
				{
					"indexed": true,
					"internalType": "address",
					"name": "buyer",
					"type": "address"
				},
				{
					"indexed": false,
					"internalType": "uint256",
					"name": "amount",
					"type": "uint256"
				}
			],
			"name": "BuyerPaid",
			"type": "event"
		},
		{
			"anonymous": false,
			"inputs": [
				{
					"indexed": false,
					"internalType": "uint256",
					"name": "newFee",
					"type": "uint256"
				}
			],
			"name": "ListingFeeUpdated",
			"type": "event"
		},
		{
			"anonymous": false,
			"inputs": [
				{
					"indexed": true,
					"internalType": "address",
					"name": "previousOwner",
					"type": "address"
				},
				{
					"indexed": true,
					"internalType": "address",
					"name": "newOwner",
					"type": "address"
				}
			],
			"name": "OwnershipTransferred",
			"type": "event"
		},
		{
			"anonymous": false,
			"inputs": [
				{
					"indexed": true,
					"internalType": "uint256",
					"name": "propertyId",
					"type": "uint256"
				},
				{
					"indexed": true,
					"internalType": "address",
					"name": "owner",
					"type": "address"
				},
				{
					"indexed": false,
					"internalType": "uint256",
					"name": "price",
					"type": "uint256"
				}
			],
			"name": "PropertyListed",
			"type": "event"
		},
		{
			"anonymous": false,
			"inputs": [
				{
					"indexed": true,
					"internalType": "uint256",
					"name": "propertyId",
					"type": "uint256"
				},
				{
					"indexed": true,
					"internalType": "address",
					"name": "buyer",
					"type": "address"
				},
				{
					"indexed": false,
					"internalType": "uint256",
					"name": "amount",
					"type": "uint256"
				}
			],
			"name": "PropertyPurchased",
			"type": "event"
		},
		{
			"anonymous": false,
			"inputs": [
				{
					"indexed": true,
					"internalType": "uint256",
					"name": "propertyId",
					"type": "uint256"
				},
				{
					"indexed": false,
					"internalType": "uint256",
					"name": "price",
					"type": "uint256"
				},
				{
					"indexed": false,
					"internalType": "enum RealEstateDApp.PropertyStatus",
					"name": "status",
					"type": "uint8"
				}
			],
			"name": "PropertyUpdated",
			"type": "event"
		},
		{
			"anonymous": false,
			"inputs": [
				{
					"indexed": false,
					"internalType": "uint256",
					"name": "newFee",
					"type": "uint256"
				}
			],
			"name": "PurchaseFeeUpdated",
			"type": "event"
		},
		{
			"anonymous": false,
			"inputs": [
				{
					"indexed": true,
					"internalType": "uint256",
					"name": "propertyId",
					"type": "uint256"
				},
				{
					"indexed": true,
					"internalType": "address",
					"name": "holder",
					"type": "address"
				},
				{
					"indexed": false,
					"internalType": "uint256",
					"name": "percentage",
					"type": "uint256"
				}
			],
			"name": "RoyaltyApproved",
			"type": "event"
		},
		{
			"anonymous": false,
			"inputs": [
				{
					"indexed": true,
					"internalType": "uint256",
					"name": "propertyId",
					"type": "uint256"
				},
				{
					"indexed": true,
					"internalType": "address",
					"name": "holder",
					"type": "address"
				},
				{
					"indexed": false,
					"internalType": "uint256",
					"name": "amount",
					"type": "uint256"
				}
			],
			"name": "RoyaltyPaid",
			"type": "event"
		},
		{
			"anonymous": false,
			"inputs": [
				{
					"indexed": true,
					"internalType": "uint256",
					"name": "transactionId",
					"type": "uint256"
				},
				{
					"indexed": false,
					"internalType": "string",
					"name": "transactionType",
					"type": "string"
				}
			],
			"name": "TransactionRecorded",
			"type": "event"
		},
		{
			"inputs": [
				{
					"internalType": "uint256",
					"name": "_propertyId",
					"type": "uint256"
				},
				{
					"internalType": "address payable",
					"name": "_buyer",
					"type": "address"
				},
				{
					"internalType": "uint256",
					"name": "_sharePercentage",
					"type": "uint256"
				}
			],
			"name": "addBuyer",
			"outputs": [],
			"stateMutability": "nonpayable",
			"type": "function"
		},
		{
			"inputs": [
				{
					"internalType": "uint256",
					"name": "_propertyId",
					"type": "uint256"
				}
			],
			"name": "approvePropertySale",
			"outputs": [],
			"stateMutability": "nonpayable",
			"type": "function"
		},
		{
			"inputs": [
				{
					"internalType": "uint256",
					"name": "_propertyId",
					"type": "uint256"
				}
			],
			"name": "areAllApprovalsInPlace",
			"outputs": [
				{
					"internalType": "bool",
					"name": "",
					"type": "bool"
				}
			],
			"stateMutability": "view",
			"type": "function"
		},
		{
			"inputs": [
				{
					"internalType": "uint256",
					"name": "_propertyId",
					"type": "uint256"
				}
			],
			"name": "buyPropertyShare",
			"outputs": [],
			"stateMutability": "payable",
			"type": "function"
		},
		{
			"inputs": [
				{
					"internalType": "uint256",
					"name": "_propertyId",
					"type": "uint256"
				}
			],
			"name": "cancelListing",
			"outputs": [],
			"stateMutability": "nonpayable",
			"type": "function"
		},
		{
			"inputs": [
				{
					"internalType": "uint256",
					"name": "_propertyId",
					"type": "uint256"
				},
				{
					"internalType": "uint256",
					"name": "_buyerIndex",
					"type": "uint256"
				}
			],
			"name": "getBuyerDetails",
			"outputs": [
				{
					"internalType": "address",
					"name": "buyerAddress",
					"type": "address"
				},
				{
					"internalType": "uint256",
					"name": "sharePercentage",
					"type": "uint256"
				},
				{
					"internalType": "uint256",
					"name": "amountPaid",
					"type": "uint256"
				},
				{
					"internalType": "bool",
					"name": "hasPaid",
					"type": "bool"
				}
			],
			"stateMutability": "view",
			"type": "function"
		},
		{
			"inputs": [],
			"name": "getContractStatistics",
			"outputs": [
				{
					"internalType": "uint256",
					"name": "totalProperties",
					"type": "uint256"
				},
				{
					"internalType": "uint256",
					"name": "totalTransactions",
					"type": "uint256"
				},
				{
					"internalType": "uint256",
					"name": "listedProperties",
					"type": "uint256"
				},
				{
					"internalType": "uint256",
					"name": "soldProperties",
					"type": "uint256"
				}
			],
			"stateMutability": "view",
			"type": "function"
		},
		{
			"inputs": [
				{
					"internalType": "address",
					"name": "_buyer",
					"type": "address"
				},
				{
					"internalType": "uint256",
					"name": "_limit",
					"type": "uint256"
				},
				{
					"internalType": "uint256",
					"name": "_offset",
					"type": "uint256"
				}
			],
			"name": "getPropertiesByBuyer",
			"outputs": [
				{
					"internalType": "uint256[]",
					"name": "",
					"type": "uint256[]"
				}
			],
			"stateMutability": "view",
			"type": "function"
		},
		{
			"inputs": [
				{
					"internalType": "address",
					"name": "_owner",
					"type": "address"
				},
				{
					"internalType": "uint256",
					"name": "_limit",
					"type": "uint256"
				},
				{
					"internalType": "uint256",
					"name": "_offset",
					"type": "uint256"
				}
			],
			"name": "getPropertiesByOwner",
			"outputs": [
				{
					"internalType": "uint256[]",
					"name": "",
					"type": "uint256[]"
				}
			],
			"stateMutability": "view",
			"type": "function"
		},
		{
			"inputs": [
				{
					"internalType": "enum RealEstateDApp.PropertyStatus",
					"name": "_status",
					"type": "uint8"
				},
				{
					"internalType": "uint256",
					"name": "_limit",
					"type": "uint256"
				},
				{
					"internalType": "uint256",
					"name": "_offset",
					"type": "uint256"
				}
			],
			"name": "getPropertiesByStatus",
			"outputs": [
				{
					"internalType": "uint256[]",
					"name": "",
					"type": "uint256[]"
				}
			],
			"stateMutability": "view",
			"type": "function"
		},
		{
			"inputs": [
				{
					"internalType": "uint256",
					"name": "_propertyId",
					"type": "uint256"
				}
			],
			"name": "getPropertyDetails",
			"outputs": [
				{
					"internalType": "uint256",
					"name": "id",
					"type": "uint256"
				},
				{
					"internalType": "string",
					"name": "uri",
					"type": "string"
				},
				{
					"internalType": "string",
					"name": "virtualTour",
					"type": "string"
				},
				{
					"internalType": "address",
					"name": "owner",
					"type": "address"
				},
				{
					"internalType": "uint256",
					"name": "price",
					"type": "uint256"
				},
				{
					"internalType": "enum RealEstateDApp.PropertyStatus",
					"name": "status",
					"type": "uint8"
				},
				{
					"internalType": "uint256",
					"name": "royaltyHolderCount",
					"type": "uint256"
				},
				{
					"internalType": "uint256",
					"name": "buyerCount",
					"type": "uint256"
				},
				{
					"internalType": "uint256",
					"name": "createdAt",
					"type": "uint256"
				},
				{
					"internalType": "uint256",
					"name": "updatedAt",
					"type": "uint256"
				}
			],
			"stateMutability": "view",
			"type": "function"
		},
		{
			"inputs": [
				{
					"internalType": "uint256",
					"name": "_propertyId",
					"type": "uint256"
				}
			],
			"name": "getRoyaltyDistribution",
			"outputs": [
				{
					"internalType": "uint256[]",
					"name": "",
					"type": "uint256[]"
				}
			],
			"stateMutability": "view",
			"type": "function"
		},
		{
			"inputs": [
				{
					"internalType": "uint256",
					"name": "_propertyId",
					"type": "uint256"
				},
				{
					"internalType": "uint256",
					"name": "_holderIndex",
					"type": "uint256"
				}
			],
			"name": "getRoyaltyHolderDetails",
			"outputs": [
				{
					"internalType": "address",
					"name": "holderAddress",
					"type": "address"
				},
				{
					"internalType": "uint256",
					"name": "percentage",
					"type": "uint256"
				},
				{
					"internalType": "bool",
					"name": "hasApproved",
					"type": "bool"
				}
			],
			"stateMutability": "view",
			"type": "function"
		},
		{
			"inputs": [
				{
					"internalType": "uint256",
					"name": "_propertyId",
					"type": "uint256"
				},
				{
					"internalType": "uint256",
					"name": "_buyerIndex",
					"type": "uint256"
				}
			],
			"name": "getSharePaymentDetails",
			"outputs": [
				{
					"internalType": "uint256",
					"name": "shareAmount",
					"type": "uint256"
				},
				{
					"internalType": "uint256",
					"name": "feeAmount",
					"type": "uint256"
				},
				{
					"internalType": "uint256",
					"name": "totalAmount",
					"type": "uint256"
				}
			],
			"stateMutability": "view",
			"type": "function"
		},
		{
			"inputs": [],
			"name": "getTotalProperties",
			"outputs": [
				{
					"internalType": "uint256",
					"name": "",
					"type": "uint256"
				}
			],
			"stateMutability": "view",
			"type": "function"
		},
		{
			"inputs": [],
			"name": "getTotalTransactions",
			"outputs": [
				{
					"internalType": "uint256",
					"name": "",
					"type": "uint256"
				}
			],
			"stateMutability": "view",
			"type": "function"
		},
		{
			"inputs": [
				{
					"internalType": "uint256",
					"name": "_transactionId",
					"type": "uint256"
				}
			],
			"name": "getTransactionDetails",
			"outputs": [
				{
					"internalType": "uint256",
					"name": "id",
					"type": "uint256"
				},
				{
					"internalType": "uint256",
					"name": "propertyId",
					"type": "uint256"
				},
				{
					"internalType": "address",
					"name": "from",
					"type": "address"
				},
				{
					"internalType": "address",
					"name": "to",
					"type": "address"
				},
				{
					"internalType": "uint256",
					"name": "amount",
					"type": "uint256"
				},
				{
					"internalType": "uint256",
					"name": "timestamp",
					"type": "uint256"
				},
				{
					"internalType": "string",
					"name": "transactionType",
					"type": "string"
				}
			],
			"stateMutability": "view",
			"type": "function"
		},
		{
			"inputs": [
				{
					"internalType": "uint256",
					"name": "_propertyId",
					"type": "uint256"
				},
				{
					"internalType": "uint256",
					"name": "_limit",
					"type": "uint256"
				},
				{
					"internalType": "uint256",
					"name": "_offset",
					"type": "uint256"
				}
			],
			"name": "getTransactionsByProperty",
			"outputs": [
				{
					"internalType": "uint256[]",
					"name": "",
					"type": "uint256[]"
				}
			],
			"stateMutability": "view",
			"type": "function"
		},
		{
			"inputs": [
				{
					"internalType": "string",
					"name": "_propertyUri",
					"type": "string"
				},
				{
					"internalType": "string",
					"name": "_virtualTour",
					"type": "string"
				},
				{
					"internalType": "uint256",
					"name": "_price",
					"type": "uint256"
				},
				{
					"internalType": "address payable[]",
					"name": "_royaltyHolders",
					"type": "address[]"
				},
				{
					"internalType": "uint256[]",
					"name": "_royaltyPercentages",
					"type": "uint256[]"
				}
			],
			"name": "listProperty",
			"outputs": [
				{
					"internalType": "uint256",
					"name": "",
					"type": "uint256"
				}
			],
			"stateMutability": "payable",
			"type": "function"
		},
		{
			"inputs": [],
			"name": "listingFee",
			"outputs": [
				{
					"internalType": "uint256",
					"name": "",
					"type": "uint256"
				}
			],
			"stateMutability": "view",
			"type": "function"
		},
		{
			"inputs": [],
			"name": "owner",
			"outputs": [
				{
					"internalType": "address",
					"name": "",
					"type": "address"
				}
			],
			"stateMutability": "view",
			"type": "function"
		},
		{
			"inputs": [
				{
					"internalType": "uint256",
					"name": "",
					"type": "uint256"
				}
			],
			"name": "properties",
			"outputs": [
				{
					"internalType": "uint256",
					"name": "propertyId",
					"type": "uint256"
				},
				{
					"internalType": "string",
					"name": "propertyUri",
					"type": "string"
				},
				{
					"internalType": "string",
					"name": "virtualTour",
					"type": "string"
				},
				{
					"internalType": "address payable",
					"name": "owner",
					"type": "address"
				},
				{
					"internalType": "uint256",
					"name": "price",
					"type": "uint256"
				},
				{
					"internalType": "enum RealEstateDApp.PropertyStatus",
					"name": "status",
					"type": "uint8"
				},
				{
					"internalType": "uint256",
					"name": "royaltyHolderCount",
					"type": "uint256"
				},
				{
					"internalType": "uint256",
					"name": "buyerCount",
					"type": "uint256"
				},
				{
					"internalType": "uint256",
					"name": "createdAt",
					"type": "uint256"
				},
				{
					"internalType": "uint256",
					"name": "updatedAt",
					"type": "uint256"
				}
			],
			"stateMutability": "view",
			"type": "function"
		},
		{
			"inputs": [],
			"name": "propertyCount",
			"outputs": [
				{
					"internalType": "uint256",
					"name": "",
					"type": "uint256"
				}
			],
			"stateMutability": "view",
			"type": "function"
		},
		{
			"inputs": [],
			"name": "purchaseFee",
			"outputs": [
				{
					"internalType": "uint256",
					"name": "",
					"type": "uint256"
				}
			],
			"stateMutability": "view",
			"type": "function"
		},
		{
			"inputs": [],
			"name": "renounceOwnership",
			"outputs": [],
			"stateMutability": "nonpayable",
			"type": "function"
		},
		{
			"inputs": [],
			"name": "transactionCount",
			"outputs": [
				{
					"internalType": "uint256",
					"name": "",
					"type": "uint256"
				}
			],
			"stateMutability": "view",
			"type": "function"
		},
		{
			"inputs": [
				{
					"internalType": "uint256",
					"name": "",
					"type": "uint256"
				}
			],
			"name": "transactions",
			"outputs": [
				{
					"internalType": "uint256",
					"name": "transactionId",
					"type": "uint256"
				},
				{
					"internalType": "uint256",
					"name": "propertyId",
					"type": "uint256"
				},
				{
					"internalType": "address",
					"name": "from",
					"type": "address"
				},
				{
					"internalType": "address",
					"name": "to",
					"type": "address"
				},
				{
					"internalType": "uint256",
					"name": "amount",
					"type": "uint256"
				},
				{
					"internalType": "uint256",
					"name": "timestamp",
					"type": "uint256"
				},
				{
					"internalType": "string",
					"name": "transactionType",
					"type": "string"
				}
			],
			"stateMutability": "view",
			"type": "function"
		},
		{
			"inputs": [
				{
					"internalType": "address",
					"name": "newOwner",
					"type": "address"
				}
			],
			"name": "transferOwnership",
			"outputs": [],
			"stateMutability": "nonpayable",
			"type": "function"
		},
		{
			"inputs": [
				{
					"internalType": "uint256",
					"name": "_newListingFee",
					"type": "uint256"
				}
			],
			"name": "updateListingFee",
			"outputs": [],
			"stateMutability": "nonpayable",
			"type": "function"
		},
		{
			"inputs": [
				{
					"internalType": "uint256",
					"name": "_propertyId",
					"type": "uint256"
				},
				{
					"internalType": "uint256",
					"name": "_price",
					"type": "uint256"
				},
				{
					"internalType": "string",
					"name": "_propertyUri",
					"type": "string"
				}
			],
			"name": "updateProperty",
			"outputs": [],
			"stateMutability": "nonpayable",
			"type": "function"
		},
		{
			"inputs": [
				{
					"internalType": "uint256",
					"name": "_newPurchaseFee",
					"type": "uint256"
				}
			],
			"name": "updatePurchaseFee",
			"outputs": [],
			"stateMutability": "nonpayable",
			"type": "function"
		},
		{
			"inputs": [
				{
					"internalType": "address",
					"name": "_tokenAddress",
					"type": "address"
				}
			],
			"name": "withdrawERC20",
			"outputs": [],
			"stateMutability": "nonpayable",
			"type": "function"
		},
		{
			"inputs": [],
			"name": "withdrawETH",
			"outputs": [],
			"stateMutability": "nonpayable",
			"type": "function"
		}
	]
}