{
	"data": {
		"bytecode": {
			"linkReferences": {},
			"object": "608060405234801562000010575f80fd5b506040516200580b3803806200580b8339818101604052810190620000369190620001e4565b335f73ffffffffffffffffffffffffffffffffffffffff168173ffffffffffffffffffffffffffffffffffffffff1603620000aa575f6040517f1e4fbdf7000000000000000000000000000000000000000000000000000000008152600401620000a191906200026c565b60405180910390fd5b620000bb81620000e760201b60201c565b506001808190555081600281905550806003819055505f6004819055505f600781905550505062000287565b5f805f9054906101000a900473ffffffffffffffffffffffffffffffffffffffff169050815f806101000a81548173ffffffffffffffffffffffffffffffffffffffff021916908373ffffffffffffffffffffffffffffffffffffffff1602179055508173ffffffffffffffffffffffffffffffffffffffff168173ffffffffffffffffffffffffffffffffffffffff167f8be0079c531659141344cd1fd0a4f28419497f9722a3daafe3b4186f6b6457e060405160405180910390a35050565b5f80fd5b5f819050919050565b620001c081620001ac565b8114620001cb575f80fd5b50565b5f81519050620001de81620001b5565b92915050565b5f8060408385031215620001fd57620001fc620001a8565b5b5f6200020c85828601620001ce565b92505060206200021f85828601620001ce565b9150509250929050565b5f73ffffffffffffffffffffffffffffffffffffffff82169050919050565b5f620002548262000229565b9050919050565b620002668162000248565b82525050565b5f602082019050620002815f8301846200025b565b92915050565b61557680620002955f395ff3fe6080604052600436106101ed575f3560e01c8063715018a61161010c578063b5c604ff1161009f578063e086e5ec1161006e578063e086e5ec14610759578063f2fde38b1461076f578063f4f3b20014610797578063f79d91ae146107bf578063f7b10808146107e7576101ed565b8063b5c604ff1461069d578063b77bf600146106c7578063bafadc3c146106f1578063c361a3351461072f576101ed565b80639ace38c2116100db5780639ace38c2146105db5780639ca1f3631461061d578063a9059be514610645578063b3cdcf211461066d576101ed565b8063715018a6146105235780637eff2769146105395780638da5cb5b1461057557806390cad32f1461059f576101ed565b80633e3ea54711610184578063572f5eed11610153578063572f5eed14610442578063635e49e51461047e5780636a1b7ecc146104ba57806370e14734146104e4576101ed565b80633e3ea547146103785780634e9798c3146103a057806353bcb3db146103c8578063547ee4ac14610404576101ed565b806317aaf5ed116101c057806317aaf5ed146102bd57806318089a0c146102e757806327cc8b5d14610314578063305a67a814610350576101ed565b806306ea4e6a146101f15780630fa683d31461020d578063126dbe431461024f57806314b5e98114610293575b5f80fd5b61020b60048036038101906102069190613934565b61082b565b005b348015610218575f80fd5b50610233600480360381019061022e9190613934565b6110a2565b6040516102469796959493929190613a37565b60405180910390f35b34801561025a575f80fd5b5061027560048036038101906102709190613934565b611206565b60405161028a99989796959493929190613b1e565b60405180910390f35b34801561029e575f80fd5b506102a7611324565b6040516102b49190613bb0565b60405180910390f35b3480156102c8575f80fd5b506102d161132a565b6040516102de9190613bb0565b60405180910390f35b3480156102f2575f80fd5b506102fb611333565b60405161030b9493929190613bc9565b60405180910390f35b34801561031f575f80fd5b5061033a60048036038101906103359190613934565b61142e565b6040516103479190613cc3565b60405180910390f35b34801561035b575f80fd5b5061037660048036038101906103719190613934565b611512565b005b348015610383575f80fd5b5061039e60048036038101906103999190613934565b611776565b005b3480156103ab575f80fd5b506103c660048036038101906103c19190613d1e565b6119df565b005b3480156103d3575f80fd5b506103ee60048036038101906103e99190613d98565b611d55565b6040516103fb9190613cc3565b60405180910390f35b34801561040f575f80fd5b5061042a60048036038101906104259190613de8565b61205d565b60405161043993929190613e40565b60405180910390f35b34801561044d575f80fd5b5061046860048036038101906104639190613934565b612118565b6040516104759190613e75565b60405180910390f35b348015610489575f80fd5b506104a4600480360381019061049f9190613d98565b61218b565b6040516104b19190613cc3565b60405180910390f35b3480156104c5575f80fd5b506104ce61240e565b6040516104db9190613bb0565b60405180910390f35b3480156104ef575f80fd5b5061050a60048036038101906105059190613de8565b612414565b60405161051a9493929190613e8e565b60405180910390f35b34801561052e575f80fd5b506105376124d9565b005b348015610544575f80fd5b5061055f600480360381019061055a9190613ed1565b6124ec565b60405161056c9190613cc3565b60405180910390f35b348015610580575f80fd5b506105896126d9565b6040516105969190613f21565b60405180910390f35b3480156105aa575f80fd5b506105c560048036038101906105c09190613f5d565b612700565b6040516105d29190613cc3565b60405180910390f35b3480156105e6575f80fd5b5061060160048036038101906105fc9190613934565b61294d565b6040516106149796959493929190613a37565b60405180910390f35b348015610628575f80fd5b50610643600480360381019061063e9190613934565b612a4f565b005b348015610650575f80fd5b5061066b600480360381019061066691906140d9565b612add565b005b610687600480360381019061068291906142c9565b612c6c565b6040516106949190613bb0565b60405180910390f35b3480156106a8575f80fd5b506106b16130a2565b6040516106be9190613bb0565b60405180910390f35b3480156106d2575f80fd5b506106db6130ab565b6040516106e89190613bb0565b60405180910390f35b3480156106fc575f80fd5b5061071760048036038101906107129190613de8565b6130b1565b60405161072693929190614381565b60405180910390f35b34801561073a575f80fd5b5061074361317b565b6040516107509190613bb0565b60405180910390f35b348015610764575f80fd5b5061076d613181565b005b34801561077a575f80fd5b50610795600480360381019061079091906143b6565b61321d565b005b3480156107a2575f80fd5b506107bd60048036038101906107b891906143b6565b6132a1565b005b3480156107ca575f80fd5b506107e560048036038101906107e09190613934565b6133f2565b005b3480156107f2575f80fd5b5061080d60048036038101906108089190613934565b61343b565b604051610822999897969594939291906143f0565b60405180910390f35b610833613536565b5f60055f8381526020019081526020015f2090505f600381111561085a57610859613aab565b5b816004015f9054906101000a900460ff16600381111561087d5761087c613aab565b5b14806108bd57506001600381111561089857610897613aab565b5b816004015f9054906101000a900460ff1660038111156108bb576108ba613aab565b5b145b6108fc576040517f08c379a00000000000000000000000000000000000000000000000000000000081526004016108f3906144f2565b60405180910390fd5b5f80805f90505b8360070154811015610995573373ffffffffffffffffffffffffffffffffffffffff16846008015f8381526020019081526020015f205f015f9054906101000a900473ffffffffffffffffffffffffffffffffffffffff1673ffffffffffffffffffffffffffffffffffffffff16036109825760019250809150610995565b808061098d9061453d565b915050610903565b50816109d6576040517f08c379a00000000000000000000000000000000000000000000000000000000081526004016109cd906145ce565b60405180910390fd5b826008015f8281526020019081526020015f206003015f9054906101000a900460ff1615610a39576040517f08c379a0000000000000000000000000000000000000000000000000000000008152600401610a3090614636565b60405180910390fd5b5f5b8360050154811015610abc57836006015f8281526020019081526020015f206002015f9054906101000a900460ff16610aa9576040517f08c379a0000000000000000000000000000000000000000000000000000000008152600401610aa0906146c4565b60405180910390fd5b8080610ab49061453d565b915050610a3b565b505f612710846008015f8481526020019081526020015f20600101548560030154610ae791906146e2565b610af19190614750565b90505f61271060035483610b0591906146e2565b610b0f9190614750565b90505f8183610b1e9190614780565b905080341015610b63576040517f08c379a0000000000000000000000000000000000000000000000000000000008152600401610b5a906147fd565b60405180910390fd5b610b6b6126d9565b73ffffffffffffffffffffffffffffffffffffffff166108fc8390811502906040515f60405180830381858888f19350505050158015610bad573d5f803e3d5ffd5b505f805b8760050154811015610d82575f612710896006015f8481526020019081526020015f206001015487610be391906146e2565b610bed9190614750565b9050886006015f8381526020019081526020015f205f015f9054906101000a900473ffffffffffffffffffffffffffffffffffffffff1673ffffffffffffffffffffffffffffffffffffffff166108fc8290811502906040515f60405180830381858888f19350505050158015610c66573d5f803e3d5ffd5b508083610c739190614780565b9250610ceb8a338b6006015f8681526020019081526020015f205f015f9054906101000a900473ffffffffffffffffffffffffffffffffffffffff16846040518060400160405280600e81526020017f526f79616c74795061796d656e74000000000000000000000000000000000000815250613585565b886006015f8381526020019081526020015f205f015f9054906101000a900473ffffffffffffffffffffffffffffffffffffffff1673ffffffffffffffffffffffffffffffffffffffff168a7ff670029fc6f5302baba881b4ae845d1453acdf752b4c19ed81fe0fa6a686409b83604051610d669190613bb0565b60405180910390a3508080610d7a9061453d565b915050610bb1565b505f8185610d90919061481b565b9050876002015f9054906101000a900473ffffffffffffffffffffffffffffffffffffffff1673ffffffffffffffffffffffffffffffffffffffff166108fc8290811502906040515f60405180830381858888f19350505050158015610df8573d5f803e3d5ffd5b5084886008015f8881526020019081526020015f20600201819055506001886008015f8881526020019081526020015f206003015f6101000a81548160ff021916908315150217905550610ea789338a6002015f9054906101000a900473ffffffffffffffffffffffffffffffffffffffff16886040518060400160405280600881526020017f5075726368617365000000000000000000000000000000000000000000000000815250613585565b5f600190505f5b8960070154811015610efc57896008015f8281526020019081526020015f206003015f9054906101000a900460ff16610ee9575f9150610efc565b8080610ef49061453d565b915050610eae565b50808015610f0f5750610f0e89613717565b5b15610f8f576002896004015f6101000a81548160ff02191690836003811115610f3b57610f3a613aab565b5b0217905550897f2029ff33a5cefa752541f9dd453384df0d463d7c42b66cf937f5112f76d4f5458a600301548b6004015f9054906101000a900460ff16604051610f8692919061484e565b60405180910390a25b4289600a01819055503373ffffffffffffffffffffffffffffffffffffffff168a7f7ddf640afb9f39f7902a7c2b643b23933a73341268a396d5217d82dd7230f6e888604051610fdf9190613bb0565b60405180910390a33373ffffffffffffffffffffffffffffffffffffffff168a7ff447ba1e674406290752c644bdc71e4be50aa21042f65ed5e9a0b140a3835e268860405161102e9190613bb0565b60405180910390a38334111561108e573373ffffffffffffffffffffffffffffffffffffffff166108fc8534611064919061481b565b90811502906040515f60405180830381858888f1935050505015801561108c573d5f803e3d5ffd5b505b50505050505050505061109f613798565b50565b5f805f805f8060605f60065f8a81526020019081526020015f20905088815f015414611103576040517f08c379a00000000000000000000000000000000000000000000000000000000081526004016110fa906148bf565b60405180910390fd5b805f01548160010154826002015f9054906101000a900473ffffffffffffffffffffffffffffffffffffffff16836003015f9054906101000a900473ffffffffffffffffffffffffffffffffffffffff16846004015485600501548660060180805461116e9061490a565b80601f016020809104026020016040519081016040528092919081815260200182805461119a9061490a565b80156111e55780601f106111bc576101008083540402835291602001916111e5565b820191905f5260205f20905b8154815290600101906020018083116111c857829003601f168201915b50505050509050975097509750975097509750975050919395979092949650565b5f60605f805f805f805f8060055f8c81526020019081526020015f209050805f015481600101826002015f9054906101000a900473ffffffffffffffffffffffffffffffffffffffff168360030154846004015f9054906101000a900460ff1685600501548660070154876009015488600a01548780546112869061490a565b80601f01602080910402602001604051908101604052809291908181526020018280546112b29061490a565b80156112fd5780601f106112d4576101008083540402835291602001916112fd565b820191905f5260205f20905b8154815290600101906020018083116112e057829003601f168201915b50505050509750995099509950995099509950995099509950509193959799909294969850565b60035481565b5f600454905090565b5f805f805f805f600190505b6004548111611415575f600381111561135b5761135a613aab565b5b60055f8381526020019081526020015f206004015f9054906101000a900460ff16600381111561138e5761138d613aab565b5b036113a657828061139e9061453d565b935050611402565b600260038111156113ba576113b9613aab565b5b60055f8381526020019081526020015f206004015f9054906101000a900460ff1660038111156113ed576113ec613aab565b5b036114015781806113fd9061453d565b9250505b5b808061140d9061453d565b91505061133f565b5060045460075483839550955095509550505090919293565b60605f60055f8481526020019081526020015f2090505f816005015467ffffffffffffffff81111561146357611462613fb5565b5b6040519080825280602002602001820160405280156114915781602001602082028036833780820191505090505b5090505f5b826005015481101561150757612710836006015f8381526020019081526020015f206001015484600301546114cb91906146e2565b6114d59190614750565b8282815181106114e8576114e761493a565b5b60200260200101818152505080806114ff9061453d565b915050611496565b508092505050919050565b5f60055f8381526020019081526020015f209050806002015f9054906101000a900473ffffffffffffffffffffffffffffffffffffffff1673ffffffffffffffffffffffffffffffffffffffff163373ffffffffffffffffffffffffffffffffffffffff1614806115b557506115866126d9565b73ffffffffffffffffffffffffffffffffffffffff163373ffffffffffffffffffffffffffffffffffffffff16145b6115f4576040517f08c379a00000000000000000000000000000000000000000000000000000000081526004016115eb906149b1565b60405180910390fd5b5f600381111561160757611606613aab565b5b816004015f9054906101000a900460ff16600381111561162a57611629613aab565b5b1461166a576040517f08c379a000000000000000000000000000000000000000000000000000000000815260040161166190614a19565b60405180910390fd5b5f5b81600701548110156116ee57816008015f8281526020019081526020015f206003015f9054906101000a900460ff16156116db576040517f08c379a00000000000000000000000000000000000000000000000000000000081526004016116d290614aa7565b60405180910390fd5b80806116e69061453d565b91505061166c565b506003816004015f6101000a81548160ff0219169083600381111561171657611715613aab565b5b02179055504281600a0181905550817f2029ff33a5cefa752541f9dd453384df0d463d7c42b66cf937f5112f76d4f5458260030154836004015f9054906101000a900460ff1660405161176a92919061484e565b60405180910390a25050565b5f60055f8381526020019081526020015f2090505f600381111561179d5761179c613aab565b5b816004015f9054906101000a900460ff1660038111156117c0576117bf613aab565b5b14611800576040517f08c379a00000000000000000000000000000000000000000000000000000000081526004016117f790614b0f565b60405180910390fd5b5f80805f90505b8360050154811015611899573373ffffffffffffffffffffffffffffffffffffffff16846006015f8381526020019081526020015f205f015f9054906101000a900473ffffffffffffffffffffffffffffffffffffffff1673ffffffffffffffffffffffffffffffffffffffff16036118865760019250809150611899565b80806118919061453d565b915050611807565b50816118da576040517f08c379a00000000000000000000000000000000000000000000000000000000081526004016118d190614b9d565b60405180910390fd5b826006015f8281526020019081526020015f206002015f9054906101000a900460ff161561193d576040517f08c379a000000000000000000000000000000000000000000000000000000000815260040161193490614c05565b60405180910390fd5b6001836006015f8381526020019081526020015f206002015f6101000a81548160ff0219169083151502179055504283600a01819055503373ffffffffffffffffffffffffffffffffffffffff16847ff7a652de63da46d087a8ab25d4a13102e7a74085819fa17527271f9e5e7f9a5c856006015f8581526020019081526020015f20600101546040516119d19190613bb0565b60405180910390a350505050565b5f60055f8581526020019081526020015f2090505f6003811115611a0657611a05613aab565b5b816004015f9054906101000a900460ff166003811115611a2957611a28613aab565b5b14611a69576040517f08c379a0000000000000000000000000000000000000000000000000000000008152600401611a6090614b0f565b60405180910390fd5b6003816007015410611ab0576040517f08c379a0000000000000000000000000000000000000000000000000000000008152600401611aa790614c6d565b60405180910390fd5b5f82118015611ac157506127108211155b611b00576040517f08c379a0000000000000000000000000000000000000000000000000000000008152600401611af790614cd5565b60405180910390fd5b5f8290505f5b8260070154811015611b4957826008015f8281526020019081526020015f206001015482611b349190614780565b91508080611b419061453d565b915050611b06565b50612710811115611b8f576040517f08c379a0000000000000000000000000000000000000000000000000000000008152600401611b8690614d3d565b60405180910390fd5b60405180608001604052808573ffffffffffffffffffffffffffffffffffffffff1681526020018481526020015f81526020015f1515815250826008015f846007015481526020019081526020015f205f820151815f015f6101000a81548173ffffffffffffffffffffffffffffffffffffffff021916908373ffffffffffffffffffffffffffffffffffffffff16021790555060208201518160010155604082015181600201556060820151816003015f6101000a81548160ff021916908315150217905550905050816007015f815480929190611c6d9061453d565b91905055504282600a01819055506127108103611cff576001826004015f6101000a81548160ff02191690836003811115611cab57611caa613aab565b5b0217905550847f2029ff33a5cefa752541f9dd453384df0d463d7c42b66cf937f5112f76d4f5458360030154846004015f9054906101000a900460ff16604051611cf692919061484e565b60405180910390a25b8373ffffffffffffffffffffffffffffffffffffffff16857fc6a942827ee49928926ecf863df111a88a435f513d60ff6c606bbe1c39b5e4e185604051611d469190613bb0565b60405180910390a35050505050565b60605f80600190505b6004548111611e2b575f60055f8381526020019081526020015f2090505f5b8160070154811015611e16578773ffffffffffffffffffffffffffffffffffffffff16826008015f8381526020019081526020015f205f015f9054906101000a900473ffffffffffffffffffffffffffffffffffffffff1673ffffffffffffffffffffffffffffffffffffffff1603611e03578380611dfb9061453d565b945050611e16565b8080611e0e9061453d565b915050611d7d565b50508080611e239061453d565b915050611d5e565b505f8103611e84575f67ffffffffffffffff811115611e4d57611e4c613fb5565b5b604051908082528060200260200182016040528015611e7b5781602001602082028036833780820191505090505b50915050612056565b5f8490508382611e94919061481b565b811115611ec3575f8483611ea8919061481b565b11611eb3575f611ec0565b8382611ebf919061481b565b5b90505b5f8167ffffffffffffffff811115611ede57611edd613fb5565b5b604051908082528060200260200182016040528015611f0c5781602001602082028036833780820191505090505b5090505f8203611f2157809350505050612056565b5f805f600190505b6004548111158015611f3a57508483105b1561204c575f60055f8381526020019081526020015f2090505f805b8260070154811015611fe5578c73ffffffffffffffffffffffffffffffffffffffff16836008015f8381526020019081526020015f205f015f9054906101000a900473ffffffffffffffffffffffffffffffffffffffff1673ffffffffffffffffffffffffffffffffffffffff1603611fd25760019150611fe5565b8080611fdd9061453d565b915050611f56565b5080156120375789841015612007578380611fff9061453d565b945050612036565b8286868151811061201b5761201a61493a565b5b60200260200101818152505084806120329061453d565b9550505b5b505080806120449061453d565b915050611f29565b5082955050505050505b9392505050565b5f805f8060055f8781526020019081526020015f209050806005015485106120ba576040517f08c379a00000000000000000000000000000000000000000000000000000000081526004016120b190614da5565b60405180910390fd5b5f816006015f8781526020019081526020015f209050805f015f9054906101000a900473ffffffffffffffffffffffffffffffffffffffff168160010154826002015f9054906101000a900460ff1694509450945050509250925092565b5f8060055f8481526020019081526020015f2090505f5b816005015481101561217f57816006015f8281526020019081526020015f206002015f9054906101000a900460ff1661216c575f92505050612186565b80806121779061453d565b91505061212f565b5060019150505b919050565b60605f80600190505b6004548111612225578573ffffffffffffffffffffffffffffffffffffffff1660055f8381526020019081526020015f206002015f9054906101000a900473ffffffffffffffffffffffffffffffffffffffff1673ffffffffffffffffffffffffffffffffffffffff160361221257818061220e9061453d565b9250505b808061221d9061453d565b915050612194565b505f810361227e575f67ffffffffffffffff81111561224757612246613fb5565b5b6040519080825280602002602001820160405280156122755781602001602082028036833780820191505090505b50915050612407565b5f849050838261228e919061481b565b8111156122bd575f84836122a2919061481b565b116122ad575f6122ba565b83826122b9919061481b565b5b90505b5f8167ffffffffffffffff8111156122d8576122d7613fb5565b5b6040519080825280602002602001820160405280156123065781602001602082028036833780820191505090505b5090505f820361231b57809350505050612407565b5f805f600190505b600454811115801561233457508483105b156123fd578973ffffffffffffffffffffffffffffffffffffffff1660055f8381526020019081526020015f206002015f9054906101000a900473ffffffffffffffffffffffffffffffffffffffff1673ffffffffffffffffffffffffffffffffffffffff16036123ea57878210156123ba5781806123b29061453d565b9250506123e9565b808484815181106123ce576123cd61493a565b5b60200260200101818152505082806123e59061453d565b9350505b5b80806123f59061453d565b915050612323565b5082955050505050505b9392505050565b60025481565b5f805f805f60055f8881526020019081526020015f20905080600701548610612472576040517f08c379a000000000000000000000000000000000000000000000000000000000815260040161246990614e0d565b60405180910390fd5b5f816008015f8881526020019081526020015f209050805f015f9054906101000a900473ffffffffffffffffffffffffffffffffffffffff1681600101548260020154836003015f9054906101000a900460ff169550955095509550505092959194509250565b6124e16137a1565b6124ea5f613828565b565b60605f80600190505b600754811161253b578560065f8381526020019081526020015f2060010154036125285781806125249061453d565b9250505b80806125339061453d565b9150506124f5565b505f8103612594575f67ffffffffffffffff81111561255d5761255c613fb5565b5b60405190808252806020026020018201604052801561258b5781602001602082028036833780820191505090505b509150506126d2565b5f84905083826125a4919061481b565b8111156125d3575f84836125b8919061481b565b116125c3575f6125d0565b83826125cf919061481b565b5b90505b5f8167ffffffffffffffff8111156125ee576125ed613fb5565b5b60405190808252806020026020018201604052801561261c5781602001602082028036833780820191505090505b5090505f8203612631578093505050506126d2565b5f805f600190505b600754811115801561264a57508483105b156126c8578960065f8381526020019081526020015f2060010154036126b5578782101561268557818061267d9061453d565b9250506126b4565b808484815181106126995761269861493a565b5b60200260200101818152505082806126b09061453d565b9350505b5b80806126c09061453d565b915050612639565b5082955050505050505b9392505050565b5f805f9054906101000a900473ffffffffffffffffffffffffffffffffffffffff16905090565b60605f80600190505b600454811161277f5785600381111561272557612724613aab565b5b60055f8381526020019081526020015f206004015f9054906101000a900460ff16600381111561275857612757613aab565b5b0361276c5781806127689061453d565b9250505b80806127779061453d565b915050612709565b505f81036127d8575f67ffffffffffffffff8111156127a1576127a0613fb5565b5b6040519080825280602002602001820160405280156127cf5781602001602082028036833780820191505090505b50915050612946565b5f84905083826127e8919061481b565b811115612817575f84836127fc919061481b565b11612807575f612814565b8382612813919061481b565b5b90505b5f8167ffffffffffffffff81111561283257612831613fb5565b5b6040519080825280602002602001820160405280156128605781602001602082028036833780820191505090505b5090505f820361287557809350505050612946565b5f805f600190505b600454811115801561288e57508483105b1561293c578960038111156128a6576128a5613aab565b5b60055f8381526020019081526020015f206004015f9054906101000a900460ff1660038111156128d9576128d8613aab565b5b0361292957878210156128f95781806128f19061453d565b925050612928565b8084848151811061290d5761290c61493a565b5b60200260200101818152505082806129249061453d565b9350505b5b80806129349061453d565b91505061287d565b5082955050505050505b9392505050565b6006602052805f5260405f205f91509050805f015490806001015490806002015f9054906101000a900473ffffffffffffffffffffffffffffffffffffffff1690806003015f9054906101000a900473ffffffffffffffffffffffffffffffffffffffff16908060040154908060050154908060060180546129ce9061490a565b80601f01602080910402602001604051908101604052809291908181526020018280546129fa9061490a565b8015612a455780601f10612a1c57610100808354040283529160200191612a45565b820191905f5260205f20905b815481529060010190602001808311612a2857829003601f168201915b5050505050905087565b612a576137a1565b6103e8811115612a9c576040517f08c379a0000000000000000000000000000000000000000000000000000000008152600401612a9390614e75565b60405180910390fd5b806003819055507f14960ebff9e4fbc7ead924642e621a388c55e6db3d20028e92770a29f9a6ac7c81604051612ad29190613bb0565b60405180910390a150565b5f60055f8581526020019081526020015f209050806002015f9054906101000a900473ffffffffffffffffffffffffffffffffffffffff1673ffffffffffffffffffffffffffffffffffffffff163373ffffffffffffffffffffffffffffffffffffffff1614612b82576040517f08c379a0000000000000000000000000000000000000000000000000000000008152600401612b7990614edd565b60405180910390fd5b5f6003811115612b9557612b94613aab565b5b816004015f9054906101000a900460ff166003811115612bb857612bb7613aab565b5b14612bf8576040517f08c379a0000000000000000000000000000000000000000000000000000000008152600401612bef90614b0f565b60405180910390fd5b82816003018190555081816001019081612c129190615098565b504281600a0181905550837f2029ff33a5cefa752541f9dd453384df0d463d7c42b66cf937f5112f76d4f54584836004015f9054906101000a900460ff16604051612c5e92919061484e565b60405180910390a250505050565b5f612c75613536565b600254341015612cba576040517f08c379a0000000000000000000000000000000000000000000000000000000008152600401612cb1906151b1565b60405180910390fd5b600383511115612cff576040517f08c379a0000000000000000000000000000000000000000000000000000000008152600401612cf69061523f565b60405180910390fd5b8151835114612d43576040517f08c379a0000000000000000000000000000000000000000000000000000000008152600401612d3a906152a7565b60405180910390fd5b5f805b8351811015612d8a57838181518110612d6257612d6161493a565b5b602002602001015182612d759190614780565b91508080612d829061453d565b915050612d46565b50611388811115612dd0576040517f08c379a0000000000000000000000000000000000000000000000000000000008152600401612dc79061530f565b60405180910390fd5b612dd86126d9565b73ffffffffffffffffffffffffffffffffffffffff166108fc3490811502906040515f60405180830381858888f19350505050158015612e1a573d5f803e3d5ffd5b505f60045f8154612e2a9061453d565b91905081905590505f60055f8381526020019081526020015f20905081815f018190555087816001019081612e5f9190615098565b5033816002015f6101000a81548173ffffffffffffffffffffffffffffffffffffffff021916908373ffffffffffffffffffffffffffffffffffffffff1602179055508681600301819055505f816004015f6101000a81548160ff02191690836003811115612ed157612ed0613aab565b5b0217905550855181600501819055504281600901819055504281600a01819055505f5b8651811015612ffa576040518060600160405280888381518110612f1b57612f1a61493a565b5b602002602001015173ffffffffffffffffffffffffffffffffffffffff168152602001878381518110612f5157612f5061493a565b5b602002602001015181526020015f1515815250826006015f8381526020019081526020015f205f820151815f015f6101000a81548173ffffffffffffffffffffffffffffffffffffffff021916908373ffffffffffffffffffffffffffffffffffffffff160217905550602082015181600101556040820151816002015f6101000a81548160ff0219169083151502179055509050508080612ff29061453d565b915050612ef4565b5061303d823330346040518060400160405280600781526020017f4c697374696e6700000000000000000000000000000000000000000000000000815250613585565b3373ffffffffffffffffffffffffffffffffffffffff16827f23fb658c1698b92f5fe511a079c17ecf7965cbc3f1b873328c67e2c3c0820f1f896040516130849190613bb0565b60405180910390a381935050505061309a613798565b949350505050565b5f600754905090565b60075481565b5f805f8060055f8781526020019081526020015f2090508060070154851061310e576040517f08c379a000000000000000000000000000000000000000000000000000000000815260040161310590614e0d565b60405180910390fd5b5f816008015f8781526020019081526020015f2090506127108160010154836003015461313b91906146e2565b6131459190614750565b94506127106003548661315891906146e2565b6131629190614750565b935083856131709190614780565b925050509250925092565b60045481565b6131896137a1565b5f4790505f81116131cf576040517f08c379a00000000000000000000000000000000000000000000000000000000081526004016131c690615377565b60405180910390fd5b6131d76126d9565b73ffffffffffffffffffffffffffffffffffffffff166108fc8290811502906040515f60405180830381858888f19350505050158015613219573d5f803e3d5ffd5b5050565b6132256137a1565b5f73ffffffffffffffffffffffffffffffffffffffff168173ffffffffffffffffffffffffffffffffffffffff1603613295575f6040517f1e4fbdf700000000000000000000000000000000000000000000000000000000815260040161328c9190613f21565b60405180910390fd5b61329e81613828565b50565b6132a96137a1565b5f8190505f8173ffffffffffffffffffffffffffffffffffffffff166370a08231306040518263ffffffff1660e01b81526004016132e79190613f21565b602060405180830381865afa158015613302573d5f803e3d5ffd5b505050506040513d601f19601f8201168201806040525081019061332691906153a9565b90505f811161336a576040517f08c379a00000000000000000000000000000000000000000000000000000000081526004016133619061541e565b60405180910390fd5b8173ffffffffffffffffffffffffffffffffffffffff1663a9059cbb61338e6126d9565b836040518363ffffffff1660e01b81526004016133ac92919061543c565b6020604051808303815f875af11580156133c8573d5f803e3d5ffd5b505050506040513d601f19601f820116820180604052508101906133ec919061548d565b50505050565b6133fa6137a1565b806002819055507f5fb4654f1efe30c6141eaa6855ffcb27e0b361d899b05e21b1a4d0b3e71e14db816040516134309190613bb0565b60405180910390a150565b6005602052805f5260405f205f91509050805f0154908060010180546134609061490a565b80601f016020809104026020016040519081016040528092919081815260200182805461348c9061490a565b80156134d75780601f106134ae576101008083540402835291602001916134d7565b820191905f5260205f20905b8154815290600101906020018083116134ba57829003601f168201915b505050505090806002015f9054906101000a900473ffffffffffffffffffffffffffffffffffffffff1690806003015490806004015f9054906101000a900460ff169080600501549080600701549080600901549080600a0154905089565b60026001540361357b576040517f08c379a000000000000000000000000000000000000000000000000000000000815260040161357290615502565b60405180910390fd5b6002600181905550565b5f60075f81546135949061453d565b91905081905590506040518060e001604052808281526020018781526020018673ffffffffffffffffffffffffffffffffffffffff1681526020018573ffffffffffffffffffffffffffffffffffffffff1681526020018481526020014281526020018381525060065f8381526020019081526020015f205f820151815f0155602082015181600101556040820151816002015f6101000a81548173ffffffffffffffffffffffffffffffffffffffff021916908373ffffffffffffffffffffffffffffffffffffffff1602179055506060820151816003015f6101000a81548173ffffffffffffffffffffffffffffffffffffffff021916908373ffffffffffffffffffffffffffffffffffffffff1602179055506080820151816004015560a0820151816005015560c08201518160060190816136d39190615098565b50905050807ffda02462c610e439ab97d0498c3c469e7c643692b25df1b7ea76fe26f702bd19836040516137079190615520565b60405180910390a2505050505050565b5f805f90505f5b836007015481101561378a57836008015f8281526020019081526020015f206003015f9054906101000a900460ff161561377757836008015f8281526020019081526020015f2060010154826137749190614780565b91505b80806137829061453d565b91505061371e565b506127108114915050919050565b60018081905550565b6137a96138e9565b73ffffffffffffffffffffffffffffffffffffffff166137c76126d9565b73ffffffffffffffffffffffffffffffffffffffff1614613826576137ea6138e9565b6040517f118cdaa700000000000000000000000000000000000000000000000000000000815260040161381d9190613f21565b60405180910390fd5b565b5f805f9054906101000a900473ffffffffffffffffffffffffffffffffffffffff169050815f806101000a81548173ffffffffffffffffffffffffffffffffffffffff021916908373ffffffffffffffffffffffffffffffffffffffff1602179055508173ffffffffffffffffffffffffffffffffffffffff168173ffffffffffffffffffffffffffffffffffffffff167f8be0079c531659141344cd1fd0a4f28419497f9722a3daafe3b4186f6b6457e060405160405180910390a35050565b5f33905090565b5f604051905090565b5f80fd5b5f80fd5b5f819050919050565b61391381613901565b811461391d575f80fd5b50565b5f8135905061392e8161390a565b92915050565b5f60208284031215613949576139486138f9565b5b5f61395684828501613920565b91505092915050565b61396881613901565b82525050565b5f73ffffffffffffffffffffffffffffffffffffffff82169050919050565b5f6139978261396e565b9050919050565b6139a78161398d565b82525050565b5f81519050919050565b5f82825260208201905092915050565b5f5b838110156139e45780820151818401526020810190506139c9565b5f8484015250505050565b5f601f19601f8301169050919050565b5f613a09826139ad565b613a1381856139b7565b9350613a238185602086016139c7565b613a2c816139ef565b840191505092915050565b5f60e082019050613a4a5f83018a61395f565b613a57602083018961395f565b613a64604083018861399e565b613a71606083018761399e565b613a7e608083018661395f565b613a8b60a083018561395f565b81810360c0830152613a9d81846139ff565b905098975050505050505050565b7f4e487b71000000000000000000000000000000000000000000000000000000005f52602160045260245ffd5b60048110613ae957613ae8613aab565b5b50565b5f819050613af982613ad8565b919050565b5f613b0882613aec565b9050919050565b613b1881613afe565b82525050565b5f61012082019050613b325f83018c61395f565b8181036020830152613b44818b6139ff565b9050613b53604083018a61399e565b613b60606083018961395f565b613b6d6080830188613b0f565b613b7a60a083018761395f565b613b8760c083018661395f565b613b9460e083018561395f565b613ba261010083018461395f565b9a9950505050505050505050565b5f602082019050613bc35f83018461395f565b92915050565b5f608082019050613bdc5f83018761395f565b613be9602083018661395f565b613bf6604083018561395f565b613c03606083018461395f565b95945050505050565b5f81519050919050565b5f82825260208201905092915050565b5f819050602082019050919050565b613c3e81613901565b82525050565b5f613c4f8383613c35565b60208301905092915050565b5f602082019050919050565b5f613c7182613c0c565b613c7b8185613c16565b9350613c8683613c26565b805f5b83811015613cb6578151613c9d8882613c44565b9750613ca883613c5b565b925050600181019050613c89565b5085935050505092915050565b5f6020820190508181035f830152613cdb8184613c67565b905092915050565b5f613ced8261396e565b9050919050565b613cfd81613ce3565b8114613d07575f80fd5b50565b5f81359050613d1881613cf4565b92915050565b5f805f60608486031215613d3557613d346138f9565b5b5f613d4286828701613920565b9350506020613d5386828701613d0a565b9250506040613d6486828701613920565b9150509250925092565b613d778161398d565b8114613d81575f80fd5b50565b5f81359050613d9281613d6e565b92915050565b5f805f60608486031215613daf57613dae6138f9565b5b5f613dbc86828701613d84565b9350506020613dcd86828701613920565b9250506040613dde86828701613920565b9150509250925092565b5f8060408385031215613dfe57613dfd6138f9565b5b5f613e0b85828601613920565b9250506020613e1c85828601613920565b9150509250929050565b5f8115159050919050565b613e3a81613e26565b82525050565b5f606082019050613e535f83018661399e565b613e60602083018561395f565b613e6d6040830184613e31565b949350505050565b5f602082019050613e885f830184613e31565b92915050565b5f608082019050613ea15f83018761399e565b613eae602083018661395f565b613ebb604083018561395f565b613ec86060830184613e31565b95945050505050565b5f805f60608486031215613ee857613ee76138f9565b5b5f613ef586828701613920565b9350506020613f0686828701613920565b9250506040613f1786828701613920565b9150509250925092565b5f602082019050613f345f83018461399e565b92915050565b60048110613f46575f80fd5b50565b5f81359050613f5781613f3a565b92915050565b5f805f60608486031215613f7457613f736138f9565b5b5f613f8186828701613f49565b9350506020613f9286828701613920565b9250506040613fa386828701613920565b9150509250925092565b5f80fd5b5f80fd5b7f4e487b71000000000000000000000000000000000000000000000000000000005f52604160045260245ffd5b613feb826139ef565b810181811067ffffffffffffffff8211171561400a57614009613fb5565b5b80604052505050565b5f61401c6138f0565b90506140288282613fe2565b919050565b5f67ffffffffffffffff82111561404757614046613fb5565b5b614050826139ef565b9050602081019050919050565b828183375f83830152505050565b5f61407d6140788461402d565b614013565b90508281526020810184848401111561409957614098613fb1565b5b6140a484828561405d565b509392505050565b5f82601f8301126140c0576140bf613fad565b5b81356140d084826020860161406b565b91505092915050565b5f805f606084860312156140f0576140ef6138f9565b5b5f6140fd86828701613920565b935050602061410e86828701613920565b925050604084013567ffffffffffffffff81111561412f5761412e6138fd565b5b61413b868287016140ac565b9150509250925092565b5f67ffffffffffffffff82111561415f5761415e613fb5565b5b602082029050602081019050919050565b5f80fd5b5f61418661418184614145565b614013565b905080838252602082019050602084028301858111156141a9576141a8614170565b5b835b818110156141d257806141be8882613d0a565b8452602084019350506020810190506141ab565b5050509392505050565b5f82601f8301126141f0576141ef613fad565b5b8135614200848260208601614174565b91505092915050565b5f67ffffffffffffffff82111561422357614222613fb5565b5b602082029050602081019050919050565b5f61424661424184614209565b614013565b9050808382526020820190506020840283018581111561426957614268614170565b5b835b81811015614292578061427e8882613920565b84526020840193505060208101905061426b565b5050509392505050565b5f82601f8301126142b0576142af613fad565b5b81356142c0848260208601614234565b91505092915050565b5f805f80608085870312156142e1576142e06138f9565b5b5f85013567ffffffffffffffff8111156142fe576142fd6138fd565b5b61430a878288016140ac565b945050602061431b87828801613920565b935050604085013567ffffffffffffffff81111561433c5761433b6138fd565b5b614348878288016141dc565b925050606085013567ffffffffffffffff811115614369576143686138fd565b5b6143758782880161429c565b91505092959194509250565b5f6060820190506143945f83018661395f565b6143a1602083018561395f565b6143ae604083018461395f565b949350505050565b5f602082840312156143cb576143ca6138f9565b5b5f6143d884828501613d84565b91505092915050565b6143ea81613ce3565b82525050565b5f610120820190506144045f83018c61395f565b8181036020830152614416818b6139ff565b9050614425604083018a6143e1565b614432606083018961395f565b61443f6080830188613b0f565b61444c60a083018761395f565b61445960c083018661395f565b61446660e083018561395f565b61447461010083018461395f565b9a9950505050505050505050565b7f50726f7065727479206e6f7420617661696c61626c6520666f722070757263685f8201527f6173650000000000000000000000000000000000000000000000000000000000602082015250565b5f6144dc6023836139b7565b91506144e782614482565b604082019050919050565b5f6020820190508181035f830152614509816144d0565b9050919050565b7f4e487b71000000000000000000000000000000000000000000000000000000005f52601160045260245ffd5b5f61454782613901565b91507fffffffffffffffffffffffffffffffffffffffffffffffffffffffffffffffff820361457957614578614510565b5b600182019050919050565b7f4e6f74206120627579657220666f7220746869732070726f70657274790000005f82015250565b5f6145b8601d836139b7565b91506145c382614584565b602082019050919050565b5f6020820190508181035f8301526145e5816145ac565b9050919050565b7f416c7265616479207061696400000000000000000000000000000000000000005f82015250565b5f614620600c836139b7565b915061462b826145ec565b602082019050919050565b5f6020820190508181035f83015261464d81614614565b9050919050565b7f4e6f7420616c6c20726f79616c747920686f6c646572732068617665206170705f8201527f726f766564000000000000000000000000000000000000000000000000000000602082015250565b5f6146ae6025836139b7565b91506146b982614654565b604082019050919050565b5f6020820190508181035f8301526146db816146a2565b9050919050565b5f6146ec82613901565b91506146f783613901565b925082820261470581613901565b9150828204841483151761471c5761471b614510565b5b5092915050565b7f4e487b71000000000000000000000000000000000000000000000000000000005f52601260045260245ffd5b5f61475a82613901565b915061476583613901565b92508261477557614774614723565b5b828204905092915050565b5f61478a82613901565b915061479583613901565b92508282019050808211156147ad576147ac614510565b5b92915050565b7f496e73756666696369656e74207061796d656e740000000000000000000000005f82015250565b5f6147e76014836139b7565b91506147f2826147b3565b602082019050919050565b5f6020820190508181035f830152614814816147db565b9050919050565b5f61482582613901565b915061483083613901565b925082820390508181111561484857614847614510565b5b92915050565b5f6040820190506148615f83018561395f565b61486e6020830184613b0f565b9392505050565b7f5472616e73616374696f6e20646f6573206e6f742065786973740000000000005f82015250565b5f6148a9601a836139b7565b91506148b482614875565b602082019050919050565b5f6020820190508181035f8301526148d68161489d565b9050919050565b7f4e487b71000000000000000000000000000000000000000000000000000000005f52602260045260245ffd5b5f600282049050600182168061492157607f821691505b602082108103614934576149336148dd565b5b50919050565b7f4e487b71000000000000000000000000000000000000000000000000000000005f52603260045260245ffd5b7f4f6e6c79206f776e6572206f722061646d696e2063616e2063616e63656c00005f82015250565b5f61499b601e836139b7565b91506149a682614967565b602082019050919050565b5f6020820190508181035f8301526149c88161498f565b9050919050565b7f50726f7065727479206e6f7420696e20636f72726563742073746174650000005f82015250565b5f614a03601d836139b7565b9150614a0e826149cf565b602082019050919050565b5f6020820190508181035f830152614a30816149f7565b9050919050565b7f43616e6e6f742063616e63656c3a20627579657273206861766520616c7265615f8201527f6479207061696400000000000000000000000000000000000000000000000000602082015250565b5f614a916027836139b7565b9150614a9c82614a37565b604082019050919050565b5f6020820190508181035f830152614abe81614a85565b9050919050565b7f50726f7065727479206e6f74206c6973746564000000000000000000000000005f82015250565b5f614af96013836139b7565b9150614b0482614ac5565b602082019050919050565b5f6020820190508181035f830152614b2681614aed565b9050919050565b7f4e6f74206120726f79616c747920686f6c64657220666f7220746869732070725f8201527f6f70657274790000000000000000000000000000000000000000000000000000602082015250565b5f614b876026836139b7565b9150614b9282614b2d565b604082019050919050565b5f6020820190508181035f830152614bb481614b7b565b9050919050565b7f416c726561647920617070726f766564000000000000000000000000000000005f82015250565b5f614bef6010836139b7565b9150614bfa82614bbb565b602082019050919050565b5f6020820190508181035f830152614c1c81614be3565b9050919050565b7f4d6178696d756d20332062757965727320616c6c6f77656400000000000000005f82015250565b5f614c576018836139b7565b9150614c6282614c23565b602082019050919050565b5f6020820190508181035f830152614c8481614c4b565b9050919050565b7f496e76616c69642073686172652070657263656e7461676500000000000000005f82015250565b5f614cbf6018836139b7565b9150614cca82614c8b565b602082019050919050565b5f6020820190508181035f830152614cec81614cb3565b9050919050565b7f546f74616c2073686172652063616e6e6f7420657863656564203130302500005f82015250565b5f614d27601e836139b7565b9150614d3282614cf3565b602082019050919050565b5f6020820190508181035f830152614d5481614d1b565b9050919050565b7f496e76616c696420686f6c64657220696e6465780000000000000000000000005f82015250565b5f614d8f6014836139b7565b9150614d9a82614d5b565b602082019050919050565b5f6020820190508181035f830152614dbc81614d83565b9050919050565b7f496e76616c696420627579657220696e646578000000000000000000000000005f82015250565b5f614df76013836139b7565b9150614e0282614dc3565b602082019050919050565b5f6020820190508181035f830152614e2481614deb565b9050919050565b7f4665652063616e6e6f74206578636565642031302500000000000000000000005f82015250565b5f614e5f6015836139b7565b9150614e6a82614e2b565b602082019050919050565b5f6020820190508181035f830152614e8c81614e53565b9050919050565b7f4f6e6c79206f776e65722063616e207570646174652070726f706572747900005f82015250565b5f614ec7601e836139b7565b9150614ed282614e93565b602082019050919050565b5f6020820190508181035f830152614ef481614ebb565b9050919050565b5f819050815f5260205f209050919050565b5f6020601f8301049050919050565b5f82821b905092915050565b5f60088302614f577fffffffffffffffffffffffffffffffffffffffffffffffffffffffffffffffff82614f1c565b614f618683614f1c565b95508019841693508086168417925050509392505050565b5f819050919050565b5f614f9c614f97614f9284613901565b614f79565b613901565b9050919050565b5f819050919050565b614fb583614f82565b614fc9614fc182614fa3565b848454614f28565b825550505050565b5f90565b614fdd614fd1565b614fe8818484614fac565b505050565b5b8181101561500b576150005f82614fd5565b600181019050614fee565b5050565b601f8211156150505761502181614efb565b61502a84614f0d565b81016020851015615039578190505b61504d61504585614f0d565b830182614fed565b50505b505050565b5f82821c905092915050565b5f6150705f1984600802615055565b1980831691505092915050565b5f6150888383615061565b9150826002028217905092915050565b6150a1826139ad565b67ffffffffffffffff8111156150ba576150b9613fb5565b5b6150c4825461490a565b6150cf82828561500f565b5f60209050601f831160018114615100575f84156150ee578287015190505b6150f8858261507d565b86555061515f565b601f19841661510e86614efb565b5f5b8281101561513557848901518255600182019150602085019450602081019050615110565b86831015615152578489015161514e601f891682615061565b8355505b6001600288020188555050505b505050505050565b7f4c697374696e6720666565206e6f742070726f766964656400000000000000005f82015250565b5f61519b6018836139b7565b91506151a682615167565b602082019050919050565b5f6020820190508181035f8301526151c88161518f565b9050919050565b7f4d6178696d756d203320726f79616c747920686f6c6465727320616c6c6f77655f8201527f6400000000000000000000000000000000000000000000000000000000000000602082015250565b5f6152296021836139b7565b9150615234826151cf565b604082019050919050565b5f6020820190508181035f8301526152568161521d565b9050919050565b7f4172726179206c656e677468206d69736d6174636800000000000000000000005f82015250565b5f6152916015836139b7565b915061529c8261525d565b602082019050919050565b5f6020820190508181035f8301526152be81615285565b9050919050565b7f546f74616c20726f79616c74792063616e6e6f742065786365656420353025005f82015250565b5f6152f9601f836139b7565b9150615304826152c5565b602082019050919050565b5f6020820190508181035f830152615326816152ed565b9050919050565b7f4e6f2045544820746f20776974686472617700000000000000000000000000005f82015250565b5f6153616012836139b7565b915061536c8261532d565b602082019050919050565b5f6020820190508181035f83015261538e81615355565b9050919050565b5f815190506153a38161390a565b92915050565b5f602082840312156153be576153bd6138f9565b5b5f6153cb84828501615395565b91505092915050565b7f4e6f20746f6b656e7320746f20776974686472617700000000000000000000005f82015250565b5f6154086015836139b7565b9150615413826153d4565b602082019050919050565b5f6020820190508181035f830152615435816153fc565b9050919050565b5f60408201905061544f5f83018561399e565b61545c602083018461395f565b9392505050565b61546c81613e26565b8114615476575f80fd5b50565b5f8151905061548781615463565b92915050565b5f602082840312156154a2576154a16138f9565b5b5f6154af84828501615479565b91505092915050565b7f5265656e7472616e637947756172643a207265656e7472616e742063616c6c005f82015250565b5f6154ec601f836139b7565b91506154f7826154b8565b602082019050919050565b5f6020820190508181035f830152615519816154e0565b9050919050565b5f6020820190508181035f83015261553881846139ff565b90509291505056fea26469706673582212204216698556dc3accb1c4cd574fb4d8e1ca374a3188b92a4ae2625a25cd7904f564736f6c63430008140033",
			"opcodes": "PUSH1 0x80 PUSH1 0x40 MSTORE CALLVALUE DUP1 ISZERO PUSH3 0x10 JUMPI PUSH0 DUP1 REVERT JUMPDEST POP PUSH1 0x40 MLOAD PUSH3 0x580B CODESIZE SUB DUP1 PUSH3 0x580B DUP4 CODECOPY DUP2 DUP2 ADD PUSH1 0x40 MSTORE DUP2 ADD SWAP1 PUSH3 0x36 SWAP2 SWAP1 PUSH3 0x1E4 JUMP JUMPDEST CALLER PUSH0 PUSH20 0xFFFFFFFFFFFFFFFFFFFFFFFFFFFFFFFFFFFFFFFF AND DUP2 PUSH20 0xFFFFFFFFFFFFFFFFFFFFFFFFFFFFFFFFFFFFFFFF AND SUB PUSH3 0xAA JUMPI PUSH0 PUSH1 0x40 MLOAD PUSH32 0x1E4FBDF700000000000000000000000000000000000000000000000000000000 DUP2 MSTORE PUSH1 0x4 ADD PUSH3 0xA1 SWAP2 SWAP1 PUSH3 0x26C JUMP JUMPDEST PUSH1 0x40 MLOAD DUP1 SWAP2 SUB SWAP1 REVERT JUMPDEST PUSH3 0xBB DUP2 PUSH3 0xE7 PUSH1 0x20 SHL PUSH1 0x20 SHR JUMP JUMPDEST POP PUSH1 0x1 DUP1 DUP2 SWAP1 SSTORE POP DUP2 PUSH1 0x2 DUP2 SWAP1 SSTORE POP DUP1 PUSH1 0x3 DUP2 SWAP1 SSTORE POP PUSH0 PUSH1 0x4 DUP2 SWAP1 SSTORE POP PUSH0 PUSH1 0x7 DUP2 SWAP1 SSTORE POP POP POP PUSH3 0x287 JUMP JUMPDEST PUSH0 DUP1 PUSH0 SWAP1 SLOAD SWAP1 PUSH2 0x100 EXP SWAP1 DIV PUSH20 0xFFFFFFFFFFFFFFFFFFFFFFFFFFFFFFFFFFFFFFFF AND SWAP1 POP DUP2 PUSH0 DUP1 PUSH2 0x100 EXP DUP2 SLOAD DUP2 PUSH20 0xFFFFFFFFFFFFFFFFFFFFFFFFFFFFFFFFFFFFFFFF MUL NOT AND SWAP1 DUP4 PUSH20 0xFFFFFFFFFFFFFFFFFFFFFFFFFFFFFFFFFFFFFFFF AND MUL OR SWAP1 SSTORE POP DUP2 PUSH20 0xFFFFFFFFFFFFFFFFFFFFFFFFFFFFFFFFFFFFFFFF AND DUP2 PUSH20 0xFFFFFFFFFFFFFFFFFFFFFFFFFFFFFFFFFFFFFFFF AND PUSH32 0x8BE0079C531659141344CD1FD0A4F28419497F9722A3DAAFE3B4186F6B6457E0 PUSH1 0x40 MLOAD PUSH1 0x40 MLOAD DUP1 SWAP2 SUB SWAP1 LOG3 POP POP JUMP JUMPDEST PUSH0 DUP1 REVERT JUMPDEST PUSH0 DUP2 SWAP1 POP SWAP2 SWAP1 POP JUMP JUMPDEST PUSH3 0x1C0 DUP2 PUSH3 0x1AC JUMP JUMPDEST DUP2 EQ PUSH3 0x1CB JUMPI PUSH0 DUP1 REVERT JUMPDEST POP JUMP JUMPDEST PUSH0 DUP2 MLOAD SWAP1 POP PUSH3 0x1DE DUP2 PUSH3 0x1B5 JUMP JUMPDEST SWAP3 SWAP2 POP POP JUMP JUMPDEST PUSH0 DUP1 PUSH1 0x40 DUP4 DUP6 SUB SLT ISZERO PUSH3 0x1FD JUMPI PUSH3 0x1FC PUSH3 0x1A8 JUMP JUMPDEST JUMPDEST PUSH0 PUSH3 0x20C DUP6 DUP3 DUP7 ADD PUSH3 0x1CE JUMP JUMPDEST SWAP3 POP POP PUSH1 0x20 PUSH3 0x21F DUP6 DUP3 DUP7 ADD PUSH3 0x1CE JUMP JUMPDEST SWAP2 POP POP SWAP3 POP SWAP3 SWAP1 POP JUMP JUMPDEST PUSH0 PUSH20 0xFFFFFFFFFFFFFFFFFFFFFFFFFFFFFFFFFFFFFFFF DUP3 AND SWAP1 POP SWAP2 SWAP1 POP JUMP JUMPDEST PUSH0 PUSH3 0x254 DUP3 PUSH3 0x229 JUMP JUMPDEST SWAP1 POP SWAP2 SWAP1 POP JUMP JUMPDEST PUSH3 0x266 DUP2 PUSH3 0x248 JUMP JUMPDEST DUP3 MSTORE POP POP JUMP JUMPDEST PUSH0 PUSH1 0x20 DUP3 ADD SWAP1 POP PUSH3 0x281 PUSH0 DUP4 ADD DUP5 PUSH3 0x25B JUMP JUMPDEST SWAP3 SWAP2 POP POP JUMP JUMPDEST PUSH2 0x5576 DUP1 PUSH3 0x295 PUSH0 CODECOPY PUSH0 RETURN INVALID PUSH1 0x80 PUSH1 0x40 MSTORE PUSH1 0x4 CALLDATASIZE LT PUSH2 0x1ED JUMPI PUSH0 CALLDATALOAD PUSH1 0xE0 SHR DUP1 PUSH4 0x715018A6 GT PUSH2 0x10C JUMPI DUP1 PUSH4 0xB5C604FF GT PUSH2 0x9F JUMPI DUP1 PUSH4 0xE086E5EC GT PUSH2 0x6E JUMPI DUP1 PUSH4 0xE086E5EC EQ PUSH2 0x759 JUMPI DUP1 PUSH4 0xF2FDE38B EQ PUSH2 0x76F JUMPI DUP1 PUSH4 0xF4F3B200 EQ PUSH2 0x797 JUMPI DUP1 PUSH4 0xF79D91AE EQ PUSH2 0x7BF JUMPI DUP1 PUSH4 0xF7B10808 EQ PUSH2 0x7E7 JUMPI PUSH2 0x1ED JUMP JUMPDEST DUP1 PUSH4 0xB5C604FF EQ PUSH2 0x69D JUMPI DUP1 PUSH4 0xB77BF600 EQ PUSH2 0x6C7 JUMPI DUP1 PUSH4 0xBAFADC3C EQ PUSH2 0x6F1 JUMPI DUP1 PUSH4 0xC361A335 EQ PUSH2 0x72F JUMPI PUSH2 0x1ED JUMP JUMPDEST DUP1 PUSH4 0x9ACE38C2 GT PUSH2 0xDB JUMPI DUP1 PUSH4 0x9ACE38C2 EQ PUSH2 0x5DB JUMPI DUP1 PUSH4 0x9CA1F363 EQ PUSH2 0x61D JUMPI DUP1 PUSH4 0xA9059BE5 EQ PUSH2 0x645 JUMPI DUP1 PUSH4 0xB3CDCF21 EQ PUSH2 0x66D JUMPI PUSH2 0x1ED JUMP JUMPDEST DUP1 PUSH4 0x715018A6 EQ PUSH2 0x523 JUMPI DUP1 PUSH4 0x7EFF2769 EQ PUSH2 0x539 JUMPI DUP1 PUSH4 0x8DA5CB5B EQ PUSH2 0x575 JUMPI DUP1 PUSH4 0x90CAD32F EQ PUSH2 0x59F JUMPI PUSH2 0x1ED JUMP JUMPDEST DUP1 PUSH4 0x3E3EA547 GT PUSH2 0x184 JUMPI DUP1 PUSH4 0x572F5EED GT PUSH2 0x153 JUMPI DUP1 PUSH4 0x572F5EED EQ PUSH2 0x442 JUMPI DUP1 PUSH4 0x635E49E5 EQ PUSH2 0x47E JUMPI DUP1 PUSH4 0x6A1B7ECC EQ PUSH2 0x4BA JUMPI DUP1 PUSH4 0x70E14734 EQ PUSH2 0x4E4 JUMPI PUSH2 0x1ED JUMP JUMPDEST DUP1 PUSH4 0x3E3EA547 EQ PUSH2 0x378 JUMPI DUP1 PUSH4 0x4E9798C3 EQ PUSH2 0x3A0 JUMPI DUP1 PUSH4 0x53BCB3DB EQ PUSH2 0x3C8 JUMPI DUP1 PUSH4 0x547EE4AC EQ PUSH2 0x404 JUMPI PUSH2 0x1ED JUMP JUMPDEST DUP1 PUSH4 0x17AAF5ED GT PUSH2 0x1C0 JUMPI DUP1 PUSH4 0x17AAF5ED EQ PUSH2 0x2BD JUMPI DUP1 PUSH4 0x18089A0C EQ PUSH2 0x2E7 JUMPI DUP1 PUSH4 0x27CC8B5D EQ PUSH2 0x314 JUMPI DUP1 PUSH4 0x305A67A8 EQ PUSH2 0x350 JUMPI PUSH2 0x1ED JUMP JUMPDEST DUP1 PUSH4 0x6EA4E6A EQ PUSH2 0x1F1 JUMPI DUP1 PUSH4 0xFA683D3 EQ PUSH2 0x20D JUMPI DUP1 PUSH4 0x126DBE43 EQ PUSH2 0x24F JUMPI DUP1 PUSH4 0x14B5E981 EQ PUSH2 0x293 JUMPI JUMPDEST PUSH0 DUP1 REVERT JUMPDEST PUSH2 0x20B PUSH1 0x4 DUP1 CALLDATASIZE SUB DUP2 ADD SWAP1 PUSH2 0x206 SWAP2 SWAP1 PUSH2 0x3934 JUMP JUMPDEST PUSH2 0x82B JUMP JUMPDEST STOP JUMPDEST CALLVALUE DUP1 ISZERO PUSH2 0x218 JUMPI PUSH0 DUP1 REVERT JUMPDEST POP PUSH2 0x233 PUSH1 0x4 DUP1 CALLDATASIZE SUB DUP2 ADD SWAP1 PUSH2 0x22E SWAP2 SWAP1 PUSH2 0x3934 JUMP JUMPDEST PUSH2 0x10A2 JUMP JUMPDEST PUSH1 0x40 MLOAD PUSH2 0x246 SWAP8 SWAP7 SWAP6 SWAP5 SWAP4 SWAP3 SWAP2 SWAP1 PUSH2 0x3A37 JUMP JUMPDEST PUSH1 0x40 MLOAD DUP1 SWAP2 SUB SWAP1 RETURN JUMPDEST CALLVALUE DUP1 ISZERO PUSH2 0x25A JUMPI PUSH0 DUP1 REVERT JUMPDEST POP PUSH2 0x275 PUSH1 0x4 DUP1 CALLDATASIZE SUB DUP2 ADD SWAP1 PUSH2 0x270 SWAP2 SWAP1 PUSH2 0x3934 JUMP JUMPDEST PUSH2 0x1206 JUMP JUMPDEST PUSH1 0x40 MLOAD PUSH2 0x28A SWAP10 SWAP9 SWAP8 SWAP7 SWAP6 SWAP5 SWAP4 SWAP3 SWAP2 SWAP1 PUSH2 0x3B1E JUMP JUMPDEST PUSH1 0x40 MLOAD DUP1 SWAP2 SUB SWAP1 RETURN JUMPDEST CALLVALUE DUP1 ISZERO PUSH2 0x29E JUMPI PUSH0 DUP1 REVERT JUMPDEST POP PUSH2 0x2A7 PUSH2 0x1324 JUMP JUMPDEST PUSH1 0x40 MLOAD PUSH2 0x2B4 SWAP2 SWAP1 PUSH2 0x3BB0 JUMP JUMPDEST PUSH1 0x40 MLOAD DUP1 SWAP2 SUB SWAP1 RETURN JUMPDEST CALLVALUE DUP1 ISZERO PUSH2 0x2C8 JUMPI PUSH0 DUP1 REVERT JUMPDEST POP PUSH2 0x2D1 PUSH2 0x132A JUMP JUMPDEST PUSH1 0x40 MLOAD PUSH2 0x2DE SWAP2 SWAP1 PUSH2 0x3BB0 JUMP JUMPDEST PUSH1 0x40 MLOAD DUP1 SWAP2 SUB SWAP1 RETURN JUMPDEST CALLVALUE DUP1 ISZERO PUSH2 0x2F2 JUMPI PUSH0 DUP1 REVERT JUMPDEST POP PUSH2 0x2FB PUSH2 0x1333 JUMP JUMPDEST PUSH1 0x40 MLOAD PUSH2 0x30B SWAP5 SWAP4 SWAP3 SWAP2 SWAP1 PUSH2 0x3BC9 JUMP JUMPDEST PUSH1 0x40 MLOAD DUP1 SWAP2 SUB SWAP1 RETURN JUMPDEST CALLVALUE DUP1 ISZERO PUSH2 0x31F JUMPI PUSH0 DUP1 REVERT JUMPDEST POP PUSH2 0x33A PUSH1 0x4 DUP1 CALLDATASIZE SUB DUP2 ADD SWAP1 PUSH2 0x335 SWAP2 SWAP1 PUSH2 0x3934 JUMP JUMPDEST PUSH2 0x142E JUMP JUMPDEST PUSH1 0x40 MLOAD PUSH2 0x347 SWAP2 SWAP1 PUSH2 0x3CC3 JUMP JUMPDEST PUSH1 0x40 MLOAD DUP1 SWAP2 SUB SWAP1 RETURN JUMPDEST CALLVALUE DUP1 ISZERO PUSH2 0x35B JUMPI PUSH0 DUP1 REVERT JUMPDEST POP PUSH2 0x376 PUSH1 0x4 DUP1 CALLDATASIZE SUB DUP2 ADD SWAP1 PUSH2 0x371 SWAP2 SWAP1 PUSH2 0x3934 JUMP JUMPDEST PUSH2 0x1512 JUMP JUMPDEST STOP JUMPDEST CALLVALUE DUP1 ISZERO PUSH2 0x383 JUMPI PUSH0 DUP1 REVERT JUMPDEST POP PUSH2 0x39E PUSH1 0x4 DUP1 CALLDATASIZE SUB DUP2 ADD SWAP1 PUSH2 0x399 SWAP2 SWAP1 PUSH2 0x3934 JUMP JUMPDEST PUSH2 0x1776 JUMP JUMPDEST STOP JUMPDEST CALLVALUE DUP1 ISZERO PUSH2 0x3AB JUMPI PUSH0 DUP1 REVERT JUMPDEST POP PUSH2 0x3C6 PUSH1 0x4 DUP1 CALLDATASIZE SUB DUP2 ADD SWAP1 PUSH2 0x3C1 SWAP2 SWAP1 PUSH2 0x3D1E JUMP JUMPDEST PUSH2 0x19DF JUMP JUMPDEST STOP JUMPDEST CALLVALUE DUP1 ISZERO PUSH2 0x3D3 JUMPI PUSH0 DUP1 REVERT JUMPDEST POP PUSH2 0x3EE PUSH1 0x4 DUP1 CALLDATASIZE SUB DUP2 ADD SWAP1 PUSH2 0x3E9 SWAP2 SWAP1 PUSH2 0x3D98 JUMP JUMPDEST PUSH2 0x1D55 JUMP JUMPDEST PUSH1 0x40 MLOAD PUSH2 0x3FB SWAP2 SWAP1 PUSH2 0x3CC3 JUMP JUMPDEST PUSH1 0x40 MLOAD DUP1 SWAP2 SUB SWAP1 RETURN JUMPDEST CALLVALUE DUP1 ISZERO PUSH2 0x40F JUMPI PUSH0 DUP1 REVERT JUMPDEST POP PUSH2 0x42A PUSH1 0x4 DUP1 CALLDATASIZE SUB DUP2 ADD SWAP1 PUSH2 0x425 SWAP2 SWAP1 PUSH2 0x3DE8 JUMP JUMPDEST PUSH2 0x205D JUMP JUMPDEST PUSH1 0x40 MLOAD PUSH2 0x439 SWAP4 SWAP3 SWAP2 SWAP1 PUSH2 0x3E40 JUMP JUMPDEST PUSH1 0x40 MLOAD DUP1 SWAP2 SUB SWAP1 RETURN JUMPDEST CALLVALUE DUP1 ISZERO PUSH2 0x44D JUMPI PUSH0 DUP1 REVERT JUMPDEST POP PUSH2 0x468 PUSH1 0x4 DUP1 CALLDATASIZE SUB DUP2 ADD SWAP1 PUSH2 0x463 SWAP2 SWAP1 PUSH2 0x3934 JUMP JUMPDEST PUSH2 0x2118 JUMP JUMPDEST PUSH1 0x40 MLOAD PUSH2 0x475 SWAP2 SWAP1 PUSH2 0x3E75 JUMP JUMPDEST PUSH1 0x40 MLOAD DUP1 SWAP2 SUB SWAP1 RETURN JUMPDEST CALLVALUE DUP1 ISZERO PUSH2 0x489 JUMPI PUSH0 DUP1 REVERT JUMPDEST POP PUSH2 0x4A4 PUSH1 0x4 DUP1 CALLDATASIZE SUB DUP2 ADD SWAP1 PUSH2 0x49F SWAP2 SWAP1 PUSH2 0x3D98 JUMP JUMPDEST PUSH2 0x218B JUMP JUMPDEST PUSH1 0x40 MLOAD PUSH2 0x4B1 SWAP2 SWAP1 PUSH2 0x3CC3 JUMP JUMPDEST PUSH1 0x40 MLOAD DUP1 SWAP2 SUB SWAP1 RETURN JUMPDEST CALLVALUE DUP1 ISZERO PUSH2 0x4C5 JUMPI PUSH0 DUP1 REVERT JUMPDEST POP PUSH2 0x4CE PUSH2 0x240E JUMP JUMPDEST PUSH1 0x40 MLOAD PUSH2 0x4DB SWAP2 SWAP1 PUSH2 0x3BB0 JUMP JUMPDEST PUSH1 0x40 MLOAD DUP1 SWAP2 SUB SWAP1 RETURN JUMPDEST CALLVALUE DUP1 ISZERO PUSH2 0x4EF JUMPI PUSH0 DUP1 REVERT JUMPDEST POP PUSH2 0x50A PUSH1 0x4 DUP1 CALLDATASIZE SUB DUP2 ADD SWAP1 PUSH2 0x505 SWAP2 SWAP1 PUSH2 0x3DE8 JUMP JUMPDEST PUSH2 0x2414 JUMP JUMPDEST PUSH1 0x40 MLOAD PUSH2 0x51A SWAP5 SWAP4 SWAP3 SWAP2 SWAP1 PUSH2 0x3E8E JUMP JUMPDEST PUSH1 0x40 MLOAD DUP1 SWAP2 SUB SWAP1 RETURN JUMPDEST CALLVALUE DUP1 ISZERO PUSH2 0x52E JUMPI PUSH0 DUP1 REVERT JUMPDEST POP PUSH2 0x537 PUSH2 0x24D9 JUMP JUMPDEST STOP JUMPDEST CALLVALUE DUP1 ISZERO PUSH2 0x544 JUMPI PUSH0 DUP1 REVERT JUMPDEST POP PUSH2 0x55F PUSH1 0x4 DUP1 CALLDATASIZE SUB DUP2 ADD SWAP1 PUSH2 0x55A SWAP2 SWAP1 PUSH2 0x3ED1 JUMP JUMPDEST PUSH2 0x24EC JUMP JUMPDEST PUSH1 0x40 MLOAD PUSH2 0x56C SWAP2 SWAP1 PUSH2 0x3CC3 JUMP JUMPDEST PUSH1 0x40 MLOAD DUP1 SWAP2 SUB SWAP1 RETURN JUMPDEST CALLVALUE DUP1 ISZERO PUSH2 0x580 JUMPI PUSH0 DUP1 REVERT JUMPDEST POP PUSH2 0x589 PUSH2 0x26D9 JUMP JUMPDEST PUSH1 0x40 MLOAD PUSH2 0x596 SWAP2 SWAP1 PUSH2 0x3F21 JUMP JUMPDEST PUSH1 0x40 MLOAD DUP1 SWAP2 SUB SWAP1 RETURN JUMPDEST CALLVALUE DUP1 ISZERO PUSH2 0x5AA JUMPI PUSH0 DUP1 REVERT JUMPDEST POP PUSH2 0x5C5 PUSH1 0x4 DUP1 CALLDATASIZE SUB DUP2 ADD SWAP1 PUSH2 0x5C0 SWAP2 SWAP1 PUSH2 0x3F5D JUMP JUMPDEST PUSH2 0x2700 JUMP JUMPDEST PUSH1 0x40 MLOAD PUSH2 0x5D2 SWAP2 SWAP1 PUSH2 0x3CC3 JUMP JUMPDEST PUSH1 0x40 MLOAD DUP1 SWAP2 SUB SWAP1 RETURN JUMPDEST CALLVALUE DUP1 ISZERO PUSH2 0x5E6 JUMPI PUSH0 DUP1 REVERT JUMPDEST POP PUSH2 0x601 PUSH1 0x4 DUP1 CALLDATASIZE SUB DUP2 ADD SWAP1 PUSH2 0x5FC SWAP2 SWAP1 PUSH2 0x3934 JUMP JUMPDEST PUSH2 0x294D JUMP JUMPDEST PUSH1 0x40 MLOAD PUSH2 0x614 SWAP8 SWAP7 SWAP6 SWAP5 SWAP4 SWAP3 SWAP2 SWAP1 PUSH2 0x3A37 JUMP JUMPDEST PUSH1 0x40 MLOAD DUP1 SWAP2 SUB SWAP1 RETURN JUMPDEST CALLVALUE DUP1 ISZERO PUSH2 0x628 JUMPI PUSH0 DUP1 REVERT JUMPDEST POP PUSH2 0x643 PUSH1 0x4 DUP1 CALLDATASIZE SUB DUP2 ADD SWAP1 PUSH2 0x63E SWAP2 SWAP1 PUSH2 0x3934 JUMP JUMPDEST PUSH2 0x2A4F JUMP JUMPDEST STOP JUMPDEST CALLVALUE DUP1 ISZERO PUSH2 0x650 JUMPI PUSH0 DUP1 REVERT JUMPDEST POP PUSH2 0x66B PUSH1 0x4 DUP1 CALLDATASIZE SUB DUP2 ADD SWAP1 PUSH2 0x666 SWAP2 SWAP1 PUSH2 0x40D9 JUMP JUMPDEST PUSH2 0x2ADD JUMP JUMPDEST STOP JUMPDEST PUSH2 0x687 PUSH1 0x4 DUP1 CALLDATASIZE SUB DUP2 ADD SWAP1 PUSH2 0x682 SWAP2 SWAP1 PUSH2 0x42C9 JUMP JUMPDEST PUSH2 0x2C6C JUMP JUMPDEST PUSH1 0x40 MLOAD PUSH2 0x694 SWAP2 SWAP1 PUSH2 0x3BB0 JUMP JUMPDEST PUSH1 0x40 MLOAD DUP1 SWAP2 SUB SWAP1 RETURN JUMPDEST CALLVALUE DUP1 ISZERO PUSH2 0x6A8 JUMPI PUSH0 DUP1 REVERT JUMPDEST POP PUSH2 0x6B1 PUSH2 0x30A2 JUMP JUMPDEST PUSH1 0x40 MLOAD PUSH2 0x6BE SWAP2 SWAP1 PUSH2 0x3BB0 JUMP JUMPDEST PUSH1 0x40 MLOAD DUP1 SWAP2 SUB SWAP1 RETURN JUMPDEST CALLVALUE DUP1 ISZERO PUSH2 0x6D2 JUMPI PUSH0 DUP1 REVERT JUMPDEST POP PUSH2 0x6DB PUSH2 0x30AB JUMP JUMPDEST PUSH1 0x40 MLOAD PUSH2 0x6E8 SWAP2 SWAP1 PUSH2 0x3BB0 JUMP JUMPDEST PUSH1 0x40 MLOAD DUP1 SWAP2 SUB SWAP1 RETURN JUMPDEST CALLVALUE DUP1 ISZERO PUSH2 0x6FC JUMPI PUSH0 DUP1 REVERT JUMPDEST POP PUSH2 0x717 PUSH1 0x4 DUP1 CALLDATASIZE SUB DUP2 ADD SWAP1 PUSH2 0x712 SWAP2 SWAP1 PUSH2 0x3DE8 JUMP JUMPDEST PUSH2 0x30B1 JUMP JUMPDEST PUSH1 0x40 MLOAD PUSH2 0x726 SWAP4 SWAP3 SWAP2 SWAP1 PUSH2 0x4381 JUMP JUMPDEST PUSH1 0x40 MLOAD DUP1 SWAP2 SUB SWAP1 RETURN JUMPDEST CALLVALUE DUP1 ISZERO PUSH2 0x73A JUMPI PUSH0 DUP1 REVERT JUMPDEST POP PUSH2 0x743 PUSH2 0x317B JUMP JUMPDEST PUSH1 0x40 MLOAD PUSH2 0x750 SWAP2 SWAP1 PUSH2 0x3BB0 JUMP JUMPDEST PUSH1 0x40 MLOAD DUP1 SWAP2 SUB SWAP1 RETURN JUMPDEST CALLVALUE DUP1 ISZERO PUSH2 0x764 JUMPI PUSH0 DUP1 REVERT JUMPDEST POP PUSH2 0x76D PUSH2 0x3181 JUMP JUMPDEST STOP JUMPDEST CALLVALUE DUP1 ISZERO PUSH2 0x77A JUMPI PUSH0 DUP1 REVERT JUMPDEST POP PUSH2 0x795 PUSH1 0x4 DUP1 CALLDATASIZE SUB DUP2 ADD SWAP1 PUSH2 0x790 SWAP2 SWAP1 PUSH2 0x43B6 JUMP JUMPDEST PUSH2 0x321D JUMP JUMPDEST STOP JUMPDEST CALLVALUE DUP1 ISZERO PUSH2 0x7A2 JUMPI PUSH0 DUP1 REVERT JUMPDEST POP PUSH2 0x7BD PUSH1 0x4 DUP1 CALLDATASIZE SUB DUP2 ADD SWAP1 PUSH2 0x7B8 SWAP2 SWAP1 PUSH2 0x43B6 JUMP JUMPDEST PUSH2 0x32A1 JUMP JUMPDEST STOP JUMPDEST CALLVALUE DUP1 ISZERO PUSH2 0x7CA JUMPI PUSH0 DUP1 REVERT JUMPDEST POP PUSH2 0x7E5 PUSH1 0x4 DUP1 CALLDATASIZE SUB DUP2 ADD SWAP1 PUSH2 0x7E0 SWAP2 SWAP1 PUSH2 0x3934 JUMP JUMPDEST PUSH2 0x33F2 JUMP JUMPDEST STOP JUMPDEST CALLVALUE DUP1 ISZERO PUSH2 0x7F2 JUMPI PUSH0 DUP1 REVERT JUMPDEST POP PUSH2 0x80D PUSH1 0x4 DUP1 CALLDATASIZE SUB DUP2 ADD SWAP1 PUSH2 0x808 SWAP2 SWAP1 PUSH2 0x3934 JUMP JUMPDEST PUSH2 0x343B JUMP JUMPDEST PUSH1 0x40 MLOAD PUSH2 0x822 SWAP10 SWAP9 SWAP8 SWAP7 SWAP6 SWAP5 SWAP4 SWAP3 SWAP2 SWAP1 PUSH2 0x43F0 JUMP JUMPDEST PUSH1 0x40 MLOAD DUP1 SWAP2 SUB SWAP1 RETURN JUMPDEST PUSH2 0x833 PUSH2 0x3536 JUMP JUMPDEST PUSH0 PUSH1 0x5 PUSH0 DUP4 DUP2 MSTORE PUSH1 0x20 ADD SWAP1 DUP2 MSTORE PUSH1 0x20 ADD PUSH0 KECCAK256 SWAP1 POP PUSH0 PUSH1 0x3 DUP2 GT ISZERO PUSH2 0x85A JUMPI PUSH2 0x859 PUSH2 0x3AAB JUMP JUMPDEST JUMPDEST DUP2 PUSH1 0x4 ADD PUSH0 SWAP1 SLOAD SWAP1 PUSH2 0x100 EXP SWAP1 DIV PUSH1 0xFF AND PUSH1 0x3 DUP2 GT ISZERO PUSH2 0x87D JUMPI PUSH2 0x87C PUSH2 0x3AAB JUMP JUMPDEST JUMPDEST EQ DUP1 PUSH2 0x8BD JUMPI POP PUSH1 0x1 PUSH1 0x3 DUP2 GT ISZERO PUSH2 0x898 JUMPI PUSH2 0x897 PUSH2 0x3AAB JUMP JUMPDEST JUMPDEST DUP2 PUSH1 0x4 ADD PUSH0 SWAP1 SLOAD SWAP1 PUSH2 0x100 EXP SWAP1 DIV PUSH1 0xFF AND PUSH1 0x3 DUP2 GT ISZERO PUSH2 0x8BB JUMPI PUSH2 0x8BA PUSH2 0x3AAB JUMP JUMPDEST JUMPDEST EQ JUMPDEST PUSH2 0x8FC JUMPI PUSH1 0x40 MLOAD PUSH32 0x8C379A000000000000000000000000000000000000000000000000000000000 DUP2 MSTORE PUSH1 0x4 ADD PUSH2 0x8F3 SWAP1 PUSH2 0x44F2 JUMP JUMPDEST PUSH1 0x40 MLOAD DUP1 SWAP2 SUB SWAP1 REVERT JUMPDEST PUSH0 DUP1 DUP1 PUSH0 SWAP1 POP JUMPDEST DUP4 PUSH1 0x7 ADD SLOAD DUP2 LT ISZERO PUSH2 0x995 JUMPI CALLER PUSH20 0xFFFFFFFFFFFFFFFFFFFFFFFFFFFFFFFFFFFFFFFF AND DUP5 PUSH1 0x8 ADD PUSH0 DUP4 DUP2 MSTORE PUSH1 0x20 ADD SWAP1 DUP2 MSTORE PUSH1 0x20 ADD PUSH0 KECCAK256 PUSH0 ADD PUSH0 SWAP1 SLOAD SWAP1 PUSH2 0x100 EXP SWAP1 DIV PUSH20 0xFFFFFFFFFFFFFFFFFFFFFFFFFFFFFFFFFFFFFFFF AND PUSH20 0xFFFFFFFFFFFFFFFFFFFFFFFFFFFFFFFFFFFFFFFF AND SUB PUSH2 0x982 JUMPI PUSH1 0x1 SWAP3 POP DUP1 SWAP2 POP PUSH2 0x995 JUMP JUMPDEST DUP1 DUP1 PUSH2 0x98D SWAP1 PUSH2 0x453D JUMP JUMPDEST SWAP2 POP POP PUSH2 0x903 JUMP JUMPDEST POP DUP2 PUSH2 0x9D6 JUMPI PUSH1 0x40 MLOAD PUSH32 0x8C379A000000000000000000000000000000000000000000000000000000000 DUP2 MSTORE PUSH1 0x4 ADD PUSH2 0x9CD SWAP1 PUSH2 0x45CE JUMP JUMPDEST PUSH1 0x40 MLOAD DUP1 SWAP2 SUB SWAP1 REVERT JUMPDEST DUP3 PUSH1 0x8 ADD PUSH0 DUP3 DUP2 MSTORE PUSH1 0x20 ADD SWAP1 DUP2 MSTORE PUSH1 0x20 ADD PUSH0 KECCAK256 PUSH1 0x3 ADD PUSH0 SWAP1 SLOAD SWAP1 PUSH2 0x100 EXP SWAP1 DIV PUSH1 0xFF AND ISZERO PUSH2 0xA39 JUMPI PUSH1 0x40 MLOAD PUSH32 0x8C379A000000000000000000000000000000000000000000000000000000000 DUP2 MSTORE PUSH1 0x4 ADD PUSH2 0xA30 SWAP1 PUSH2 0x4636 JUMP JUMPDEST PUSH1 0x40 MLOAD DUP1 SWAP2 SUB SWAP1 REVERT JUMPDEST PUSH0 JUMPDEST DUP4 PUSH1 0x5 ADD SLOAD DUP2 LT ISZERO PUSH2 0xABC JUMPI DUP4 PUSH1 0x6 ADD PUSH0 DUP3 DUP2 MSTORE PUSH1 0x20 ADD SWAP1 DUP2 MSTORE PUSH1 0x20 ADD PUSH0 KECCAK256 PUSH1 0x2 ADD PUSH0 SWAP1 SLOAD SWAP1 PUSH2 0x100 EXP SWAP1 DIV PUSH1 0xFF AND PUSH2 0xAA9 JUMPI PUSH1 0x40 MLOAD PUSH32 0x8C379A000000000000000000000000000000000000000000000000000000000 DUP2 MSTORE PUSH1 0x4 ADD PUSH2 0xAA0 SWAP1 PUSH2 0x46C4 JUMP JUMPDEST PUSH1 0x40 MLOAD DUP1 SWAP2 SUB SWAP1 REVERT JUMPDEST DUP1 DUP1 PUSH2 0xAB4 SWAP1 PUSH2 0x453D JUMP JUMPDEST SWAP2 POP POP PUSH2 0xA3B JUMP JUMPDEST POP PUSH0 PUSH2 0x2710 DUP5 PUSH1 0x8 ADD PUSH0 DUP5 DUP2 MSTORE PUSH1 0x20 ADD SWAP1 DUP2 MSTORE PUSH1 0x20 ADD PUSH0 KECCAK256 PUSH1 0x1 ADD SLOAD DUP6 PUSH1 0x3 ADD SLOAD PUSH2 0xAE7 SWAP2 SWAP1 PUSH2 0x46E2 JUMP JUMPDEST PUSH2 0xAF1 SWAP2 SWAP1 PUSH2 0x4750 JUMP JUMPDEST SWAP1 POP PUSH0 PUSH2 0x2710 PUSH1 0x3 SLOAD DUP4 PUSH2 0xB05 SWAP2 SWAP1 PUSH2 0x46E2 JUMP JUMPDEST PUSH2 0xB0F SWAP2 SWAP1 PUSH2 0x4750 JUMP JUMPDEST SWAP1 POP PUSH0 DUP2 DUP4 PUSH2 0xB1E SWAP2 SWAP1 PUSH2 0x4780 JUMP JUMPDEST SWAP1 POP DUP1 CALLVALUE LT ISZERO PUSH2 0xB63 JUMPI PUSH1 0x40 MLOAD PUSH32 0x8C379A000000000000000000000000000000000000000000000000000000000 DUP2 MSTORE PUSH1 0x4 ADD PUSH2 0xB5A SWAP1 PUSH2 0x47FD JUMP JUMPDEST PUSH1 0x40 MLOAD DUP1 SWAP2 SUB SWAP1 REVERT JUMPDEST PUSH2 0xB6B PUSH2 0x26D9 JUMP JUMPDEST PUSH20 0xFFFFFFFFFFFFFFFFFFFFFFFFFFFFFFFFFFFFFFFF AND PUSH2 0x8FC DUP4 SWAP1 DUP2 ISZERO MUL SWAP1 PUSH1 0x40 MLOAD PUSH0 PUSH1 0x40 MLOAD DUP1 DUP4 SUB DUP2 DUP6 DUP9 DUP9 CALL SWAP4 POP POP POP POP ISZERO DUP1 ISZERO PUSH2 0xBAD JUMPI RETURNDATASIZE PUSH0 DUP1 RETURNDATACOPY RETURNDATASIZE PUSH0 REVERT JUMPDEST POP PUSH0 DUP1 JUMPDEST DUP8 PUSH1 0x5 ADD SLOAD DUP2 LT ISZERO PUSH2 0xD82 JUMPI PUSH0 PUSH2 0x2710 DUP10 PUSH1 0x6 ADD PUSH0 DUP5 DUP2 MSTORE PUSH1 0x20 ADD SWAP1 DUP2 MSTORE PUSH1 0x20 ADD PUSH0 KECCAK256 PUSH1 0x1 ADD SLOAD DUP8 PUSH2 0xBE3 SWAP2 SWAP1 PUSH2 0x46E2 JUMP JUMPDEST PUSH2 0xBED SWAP2 SWAP1 PUSH2 0x4750 JUMP JUMPDEST SWAP1 POP DUP9 PUSH1 0x6 ADD PUSH0 DUP4 DUP2 MSTORE PUSH1 0x20 ADD SWAP1 DUP2 MSTORE PUSH1 0x20 ADD PUSH0 KECCAK256 PUSH0 ADD PUSH0 SWAP1 SLOAD SWAP1 PUSH2 0x100 EXP SWAP1 DIV PUSH20 0xFFFFFFFFFFFFFFFFFFFFFFFFFFFFFFFFFFFFFFFF AND PUSH20 0xFFFFFFFFFFFFFFFFFFFFFFFFFFFFFFFFFFFFFFFF AND PUSH2 0x8FC DUP3 SWAP1 DUP2 ISZERO MUL SWAP1 PUSH1 0x40 MLOAD PUSH0 PUSH1 0x40 MLOAD DUP1 DUP4 SUB DUP2 DUP6 DUP9 DUP9 CALL SWAP4 POP POP POP POP ISZERO DUP1 ISZERO PUSH2 0xC66 JUMPI RETURNDATASIZE PUSH0 DUP1 RETURNDATACOPY RETURNDATASIZE PUSH0 REVERT JUMPDEST POP DUP1 DUP4 PUSH2 0xC73 SWAP2 SWAP1 PUSH2 0x4780 JUMP JUMPDEST SWAP3 POP PUSH2 0xCEB DUP11 CALLER DUP12 PUSH1 0x6 ADD PUSH0 DUP7 DUP2 MSTORE PUSH1 0x20 ADD SWAP1 DUP2 MSTORE PUSH1 0x20 ADD PUSH0 KECCAK256 PUSH0 ADD PUSH0 SWAP1 SLOAD SWAP1 PUSH2 0x100 EXP SWAP1 DIV PUSH20 0xFFFFFFFFFFFFFFFFFFFFFFFFFFFFFFFFFFFFFFFF AND DUP5 PUSH1 0x40 MLOAD DUP1 PUSH1 0x40 ADD PUSH1 0x40 MSTORE DUP1 PUSH1 0xE DUP2 MSTORE PUSH1 0x20 ADD PUSH32 0x526F79616C74795061796D656E74000000000000000000000000000000000000 DUP2 MSTORE POP PUSH2 0x3585 JUMP JUMPDEST DUP9 PUSH1 0x6 ADD PUSH0 DUP4 DUP2 MSTORE PUSH1 0x20 ADD SWAP1 DUP2 MSTORE PUSH1 0x20 ADD PUSH0 KECCAK256 PUSH0 ADD PUSH0 SWAP1 SLOAD SWAP1 PUSH2 0x100 EXP SWAP1 DIV PUSH20 0xFFFFFFFFFFFFFFFFFFFFFFFFFFFFFFFFFFFFFFFF AND PUSH20 0xFFFFFFFFFFFFFFFFFFFFFFFFFFFFFFFFFFFFFFFF AND DUP11 PUSH32 0xF670029FC6F5302BABA881B4AE845D1453ACDF752B4C19ED81FE0FA6A686409B DUP4 PUSH1 0x40 MLOAD PUSH2 0xD66 SWAP2 SWAP1 PUSH2 0x3BB0 JUMP JUMPDEST PUSH1 0x40 MLOAD DUP1 SWAP2 SUB SWAP1 LOG3 POP DUP1 DUP1 PUSH2 0xD7A SWAP1 PUSH2 0x453D JUMP JUMPDEST SWAP2 POP POP PUSH2 0xBB1 JUMP JUMPDEST POP PUSH0 DUP2 DUP6 PUSH2 0xD90 SWAP2 SWAP1 PUSH2 0x481B JUMP JUMPDEST SWAP1 POP DUP8 PUSH1 0x2 ADD PUSH0 SWAP1 SLOAD SWAP1 PUSH2 0x100 EXP SWAP1 DIV PUSH20 0xFFFFFFFFFFFFFFFFFFFFFFFFFFFFFFFFFFFFFFFF AND PUSH20 0xFFFFFFFFFFFFFFFFFFFFFFFFFFFFFFFFFFFFFFFF AND PUSH2 0x8FC DUP3 SWAP1 DUP2 ISZERO MUL SWAP1 PUSH1 0x40 MLOAD PUSH0 PUSH1 0x40 MLOAD DUP1 DUP4 SUB DUP2 DUP6 DUP9 DUP9 CALL SWAP4 POP POP POP POP ISZERO DUP1 ISZERO PUSH2 0xDF8 JUMPI RETURNDATASIZE PUSH0 DUP1 RETURNDATACOPY RETURNDATASIZE PUSH0 REVERT JUMPDEST POP DUP5 DUP9 PUSH1 0x8 ADD PUSH0 DUP9 DUP2 MSTORE PUSH1 0x20 ADD SWAP1 DUP2 MSTORE PUSH1 0x20 ADD PUSH0 KECCAK256 PUSH1 0x2 ADD DUP2 SWAP1 SSTORE POP PUSH1 0x1 DUP9 PUSH1 0x8 ADD PUSH0 DUP9 DUP2 MSTORE PUSH1 0x20 ADD SWAP1 DUP2 MSTORE PUSH1 0x20 ADD PUSH0 KECCAK256 PUSH1 0x3 ADD PUSH0 PUSH2 0x100 EXP DUP2 SLOAD DUP2 PUSH1 0xFF MUL NOT AND SWAP1 DUP4 ISZERO ISZERO MUL OR SWAP1 SSTORE POP PUSH2 0xEA7 DUP10 CALLER DUP11 PUSH1 0x2 ADD PUSH0 SWAP1 SLOAD SWAP1 PUSH2 0x100 EXP SWAP1 DIV PUSH20 0xFFFFFFFFFFFFFFFFFFFFFFFFFFFFFFFFFFFFFFFF AND DUP9 PUSH1 0x40 MLOAD DUP1 PUSH1 0x40 ADD PUSH1 0x40 MSTORE DUP1 PUSH1 0x8 DUP2 MSTORE PUSH1 0x20 ADD PUSH32 0x5075726368617365000000000000000000000000000000000000000000000000 DUP2 MSTORE POP PUSH2 0x3585 JUMP JUMPDEST PUSH0 PUSH1 0x1 SWAP1 POP PUSH0 JUMPDEST DUP10 PUSH1 0x7 ADD SLOAD DUP2 LT ISZERO PUSH2 0xEFC JUMPI DUP10 PUSH1 0x8 ADD PUSH0 DUP3 DUP2 MSTORE PUSH1 0x20 ADD SWAP1 DUP2 MSTORE PUSH1 0x20 ADD PUSH0 KECCAK256 PUSH1 0x3 ADD PUSH0 SWAP1 SLOAD SWAP1 PUSH2 0x100 EXP SWAP1 DIV PUSH1 0xFF AND PUSH2 0xEE9 JUMPI PUSH0 SWAP2 POP PUSH2 0xEFC JUMP JUMPDEST DUP1 DUP1 PUSH2 0xEF4 SWAP1 PUSH2 0x453D JUMP JUMPDEST SWAP2 POP POP PUSH2 0xEAE JUMP JUMPDEST POP DUP1 DUP1 ISZERO PUSH2 0xF0F JUMPI POP PUSH2 0xF0E DUP10 PUSH2 0x3717 JUMP JUMPDEST JUMPDEST ISZERO PUSH2 0xF8F JUMPI PUSH1 0x2 DUP10 PUSH1 0x4 ADD PUSH0 PUSH2 0x100 EXP DUP2 SLOAD DUP2 PUSH1 0xFF MUL NOT AND SWAP1 DUP4 PUSH1 0x3 DUP2 GT ISZERO PUSH2 0xF3B JUMPI PUSH2 0xF3A PUSH2 0x3AAB JUMP JUMPDEST JUMPDEST MUL OR SWAP1 SSTORE POP DUP10 PUSH32 0x2029FF33A5CEFA752541F9DD453384DF0D463D7C42B66CF937F5112F76D4F545 DUP11 PUSH1 0x3 ADD SLOAD DUP12 PUSH1 0x4 ADD PUSH0 SWAP1 SLOAD SWAP1 PUSH2 0x100 EXP SWAP1 DIV PUSH1 0xFF AND PUSH1 0x40 MLOAD PUSH2 0xF86 SWAP3 SWAP2 SWAP1 PUSH2 0x484E JUMP JUMPDEST PUSH1 0x40 MLOAD DUP1 SWAP2 SUB SWAP1 LOG2 JUMPDEST TIMESTAMP DUP10 PUSH1 0xA ADD DUP2 SWAP1 SSTORE POP CALLER PUSH20 0xFFFFFFFFFFFFFFFFFFFFFFFFFFFFFFFFFFFFFFFF AND DUP11 PUSH32 0x7DDF640AFB9F39F7902A7C2B643B23933A73341268A396D5217D82DD7230F6E8 DUP9 PUSH1 0x40 MLOAD PUSH2 0xFDF SWAP2 SWAP1 PUSH2 0x3BB0 JUMP JUMPDEST PUSH1 0x40 MLOAD DUP1 SWAP2 SUB SWAP1 LOG3 CALLER PUSH20 0xFFFFFFFFFFFFFFFFFFFFFFFFFFFFFFFFFFFFFFFF AND DUP11 PUSH32 0xF447BA1E674406290752C644BDC71E4BE50AA21042F65ED5E9A0B140A3835E26 DUP9 PUSH1 0x40 MLOAD PUSH2 0x102E SWAP2 SWAP1 PUSH2 0x3BB0 JUMP JUMPDEST PUSH1 0x40 MLOAD DUP1 SWAP2 SUB SWAP1 LOG3 DUP4 CALLVALUE GT ISZERO PUSH2 0x108E JUMPI CALLER PUSH20 0xFFFFFFFFFFFFFFFFFFFFFFFFFFFFFFFFFFFFFFFF AND PUSH2 0x8FC DUP6 CALLVALUE PUSH2 0x1064 SWAP2 SWAP1 PUSH2 0x481B JUMP JUMPDEST SWAP1 DUP2 ISZERO MUL SWAP1 PUSH1 0x40 MLOAD PUSH0 PUSH1 0x40 MLOAD DUP1 DUP4 SUB DUP2 DUP6 DUP9 DUP9 CALL SWAP4 POP POP POP POP ISZERO DUP1 ISZERO PUSH2 0x108C JUMPI RETURNDATASIZE PUSH0 DUP1 RETURNDATACOPY RETURNDATASIZE PUSH0 REVERT JUMPDEST POP JUMPDEST POP POP POP POP POP POP POP POP POP PUSH2 0x109F PUSH2 0x3798 JUMP JUMPDEST POP JUMP JUMPDEST PUSH0 DUP1 PUSH0 DUP1 PUSH0 DUP1 PUSH1 0x60 PUSH0 PUSH1 0x6 PUSH0 DUP11 DUP2 MSTORE PUSH1 0x20 ADD SWAP1 DUP2 MSTORE PUSH1 0x20 ADD PUSH0 KECCAK256 SWAP1 POP DUP9 DUP2 PUSH0 ADD SLOAD EQ PUSH2 0x1103 JUMPI PUSH1 0x40 MLOAD PUSH32 0x8C379A000000000000000000000000000000000000000000000000000000000 DUP2 MSTORE PUSH1 0x4 ADD PUSH2 0x10FA SWAP1 PUSH2 0x48BF JUMP JUMPDEST PUSH1 0x40 MLOAD DUP1 SWAP2 SUB SWAP1 REVERT JUMPDEST DUP1 PUSH0 ADD SLOAD DUP2 PUSH1 0x1 ADD SLOAD DUP3 PUSH1 0x2 ADD PUSH0 SWAP1 SLOAD SWAP1 PUSH2 0x100 EXP SWAP1 DIV PUSH20 0xFFFFFFFFFFFFFFFFFFFFFFFFFFFFFFFFFFFFFFFF AND DUP4 PUSH1 0x3 ADD PUSH0 SWAP1 SLOAD SWAP1 PUSH2 0x100 EXP SWAP1 DIV PUSH20 0xFFFFFFFFFFFFFFFFFFFFFFFFFFFFFFFFFFFFFFFF AND DUP5 PUSH1 0x4 ADD SLOAD DUP6 PUSH1 0x5 ADD SLOAD DUP7 PUSH1 0x6 ADD DUP1 DUP1 SLOAD PUSH2 0x116E SWAP1 PUSH2 0x490A JUMP JUMPDEST DUP1 PUSH1 0x1F ADD PUSH1 0x20 DUP1 SWAP2 DIV MUL PUSH1 0x20 ADD PUSH1 0x40 MLOAD SWAP1 DUP2 ADD PUSH1 0x40 MSTORE DUP1 SWAP3 SWAP2 SWAP1 DUP2 DUP2 MSTORE PUSH1 0x20 ADD DUP3 DUP1 SLOAD PUSH2 0x119A SWAP1 PUSH2 0x490A JUMP JUMPDEST DUP1 ISZERO PUSH2 0x11E5 JUMPI DUP1 PUSH1 0x1F LT PUSH2 0x11BC JUMPI PUSH2 0x100 DUP1 DUP4 SLOAD DIV MUL DUP4 MSTORE SWAP2 PUSH1 0x20 ADD SWAP2 PUSH2 0x11E5 JUMP JUMPDEST DUP3 ADD SWAP2 SWAP1 PUSH0 MSTORE PUSH1 0x20 PUSH0 KECCAK256 SWAP1 JUMPDEST DUP2 SLOAD DUP2 MSTORE SWAP1 PUSH1 0x1 ADD SWAP1 PUSH1 0x20 ADD DUP1 DUP4 GT PUSH2 0x11C8 JUMPI DUP3 SWAP1 SUB PUSH1 0x1F AND DUP3 ADD SWAP2 JUMPDEST POP POP POP POP POP SWAP1 POP SWAP8 POP SWAP8 POP SWAP8 POP SWAP8 POP SWAP8 POP SWAP8 POP SWAP8 POP POP SWAP2 SWAP4 SWAP6 SWAP8 SWAP1 SWAP3 SWAP5 SWAP7 POP JUMP JUMPDEST PUSH0 PUSH1 0x60 PUSH0 DUP1 PUSH0 DUP1 PUSH0 DUP1 PUSH0 DUP1 PUSH1 0x5 PUSH0 DUP13 DUP2 MSTORE PUSH1 0x20 ADD SWAP1 DUP2 MSTORE PUSH1 0x20 ADD PUSH0 KECCAK256 SWAP1 POP DUP1 PUSH0 ADD SLOAD DUP2 PUSH1 0x1 ADD DUP3 PUSH1 0x2 ADD PUSH0 SWAP1 SLOAD SWAP1 PUSH2 0x100 EXP SWAP1 DIV PUSH20 0xFFFFFFFFFFFFFFFFFFFFFFFFFFFFFFFFFFFFFFFF AND DUP4 PUSH1 0x3 ADD SLOAD DUP5 PUSH1 0x4 ADD PUSH0 SWAP1 SLOAD SWAP1 PUSH2 0x100 EXP SWAP1 DIV PUSH1 0xFF AND DUP6 PUSH1 0x5 ADD SLOAD DUP7 PUSH1 0x7 ADD SLOAD DUP8 PUSH1 0x9 ADD SLOAD DUP9 PUSH1 0xA ADD SLOAD DUP8 DUP1 SLOAD PUSH2 0x1286 SWAP1 PUSH2 0x490A JUMP JUMPDEST DUP1 PUSH1 0x1F ADD PUSH1 0x20 DUP1 SWAP2 DIV MUL PUSH1 0x20 ADD PUSH1 0x40 MLOAD SWAP1 DUP2 ADD PUSH1 0x40 MSTORE DUP1 SWAP3 SWAP2 SWAP1 DUP2 DUP2 MSTORE PUSH1 0x20 ADD DUP3 DUP1 SLOAD PUSH2 0x12B2 SWAP1 PUSH2 0x490A JUMP JUMPDEST DUP1 ISZERO PUSH2 0x12FD JUMPI DUP1 PUSH1 0x1F LT PUSH2 0x12D4 JUMPI PUSH2 0x100 DUP1 DUP4 SLOAD DIV MUL DUP4 MSTORE SWAP2 PUSH1 0x20 ADD SWAP2 PUSH2 0x12FD JUMP JUMPDEST DUP3 ADD SWAP2 SWAP1 PUSH0 MSTORE PUSH1 0x20 PUSH0 KECCAK256 SWAP1 JUMPDEST DUP2 SLOAD DUP2 MSTORE SWAP1 PUSH1 0x1 ADD SWAP1 PUSH1 0x20 ADD DUP1 DUP4 GT PUSH2 0x12E0 JUMPI DUP3 SWAP1 SUB PUSH1 0x1F AND DUP3 ADD SWAP2 JUMPDEST POP POP POP POP POP SWAP8 POP SWAP10 POP SWAP10 POP SWAP10 POP SWAP10 POP SWAP10 POP SWAP10 POP SWAP10 POP SWAP10 POP SWAP10 POP POP SWAP2 SWAP4 SWAP6 SWAP8 SWAP10 SWAP1 SWAP3 SWAP5 SWAP7 SWAP9 POP JUMP JUMPDEST PUSH1 0x3 SLOAD DUP2 JUMP JUMPDEST PUSH0 PUSH1 0x4 SLOAD SWAP1 POP SWAP1 JUMP JUMPDEST PUSH0 DUP1 PUSH0 DUP1 PUSH0 DUP1 PUSH0 PUSH1 0x1 SWAP1 POP JUMPDEST PUSH1 0x4 SLOAD DUP2 GT PUSH2 0x1415 JUMPI PUSH0 PUSH1 0x3 DUP2 GT ISZERO PUSH2 0x135B JUMPI PUSH2 0x135A PUSH2 0x3AAB JUMP JUMPDEST JUMPDEST PUSH1 0x5 PUSH0 DUP4 DUP2 MSTORE PUSH1 0x20 ADD SWAP1 DUP2 MSTORE PUSH1 0x20 ADD PUSH0 KECCAK256 PUSH1 0x4 ADD PUSH0 SWAP1 SLOAD SWAP1 PUSH2 0x100 EXP SWAP1 DIV PUSH1 0xFF AND PUSH1 0x3 DUP2 GT ISZERO PUSH2 0x138E JUMPI PUSH2 0x138D PUSH2 0x3AAB JUMP JUMPDEST JUMPDEST SUB PUSH2 0x13A6 JUMPI DUP3 DUP1 PUSH2 0x139E SWAP1 PUSH2 0x453D JUMP JUMPDEST SWAP4 POP POP PUSH2 0x1402 JUMP JUMPDEST PUSH1 0x2 PUSH1 0x3 DUP2 GT ISZERO PUSH2 0x13BA JUMPI PUSH2 0x13B9 PUSH2 0x3AAB JUMP JUMPDEST JUMPDEST PUSH1 0x5 PUSH0 DUP4 DUP2 MSTORE PUSH1 0x20 ADD SWAP1 DUP2 MSTORE PUSH1 0x20 ADD PUSH0 KECCAK256 PUSH1 0x4 ADD PUSH0 SWAP1 SLOAD SWAP1 PUSH2 0x100 EXP SWAP1 DIV PUSH1 0xFF AND PUSH1 0x3 DUP2 GT ISZERO PUSH2 0x13ED JUMPI PUSH2 0x13EC PUSH2 0x3AAB JUMP JUMPDEST JUMPDEST SUB PUSH2 0x1401 JUMPI DUP2 DUP1 PUSH2 0x13FD SWAP1 PUSH2 0x453D JUMP JUMPDEST SWAP3 POP POP JUMPDEST JUMPDEST DUP1 DUP1 PUSH2 0x140D SWAP1 PUSH2 0x453D JUMP JUMPDEST SWAP2 POP POP PUSH2 0x133F JUMP JUMPDEST POP PUSH1 0x4 SLOAD PUSH1 0x7 SLOAD DUP4 DUP4 SWAP6 POP SWAP6 POP SWAP6 POP SWAP6 POP POP POP SWAP1 SWAP2 SWAP3 SWAP4 JUMP JUMPDEST PUSH1 0x60 PUSH0 PUSH1 0x5 PUSH0 DUP5 DUP2 MSTORE PUSH1 0x20 ADD SWAP1 DUP2 MSTORE PUSH1 0x20 ADD PUSH0 KECCAK256 SWAP1 POP PUSH0 DUP2 PUSH1 0x5 ADD SLOAD PUSH8 0xFFFFFFFFFFFFFFFF DUP2 GT ISZERO PUSH2 0x1463 JUMPI PUSH2 0x1462 PUSH2 0x3FB5 JUMP JUMPDEST JUMPDEST PUSH1 0x40 MLOAD SWAP1 DUP1 DUP3 MSTORE DUP1 PUSH1 0x20 MUL PUSH1 0x20 ADD DUP3 ADD PUSH1 0x40 MSTORE DUP1 ISZERO PUSH2 0x1491 JUMPI DUP2 PUSH1 0x20 ADD PUSH1 0x20 DUP3 MUL DUP1 CALLDATASIZE DUP4 CALLDATACOPY DUP1 DUP3 ADD SWAP2 POP POP SWAP1 POP JUMPDEST POP SWAP1 POP PUSH0 JUMPDEST DUP3 PUSH1 0x5 ADD SLOAD DUP2 LT ISZERO PUSH2 0x1507 JUMPI PUSH2 0x2710 DUP4 PUSH1 0x6 ADD PUSH0 DUP4 DUP2 MSTORE PUSH1 0x20 ADD SWAP1 DUP2 MSTORE PUSH1 0x20 ADD PUSH0 KECCAK256 PUSH1 0x1 ADD SLOAD DUP5 PUSH1 0x3 ADD SLOAD PUSH2 0x14CB SWAP2 SWAP1 PUSH2 0x46E2 JUMP JUMPDEST PUSH2 0x14D5 SWAP2 SWAP1 PUSH2 0x4750 JUMP JUMPDEST DUP3 DUP3 DUP2 MLOAD DUP2 LT PUSH2 0x14E8 JUMPI PUSH2 0x14E7 PUSH2 0x493A JUMP JUMPDEST JUMPDEST PUSH1 0x20 MUL PUSH1 0x20 ADD ADD DUP2 DUP2 MSTORE POP POP DUP1 DUP1 PUSH2 0x14FF SWAP1 PUSH2 0x453D JUMP JUMPDEST SWAP2 POP POP PUSH2 0x1496 JUMP JUMPDEST POP DUP1 SWAP3 POP POP POP SWAP2 SWAP1 POP JUMP JUMPDEST PUSH0 PUSH1 0x5 PUSH0 DUP4 DUP2 MSTORE PUSH1 0x20 ADD SWAP1 DUP2 MSTORE PUSH1 0x20 ADD PUSH0 KECCAK256 SWAP1 POP DUP1 PUSH1 0x2 ADD PUSH0 SWAP1 SLOAD SWAP1 PUSH2 0x100 EXP SWAP1 DIV PUSH20 0xFFFFFFFFFFFFFFFFFFFFFFFFFFFFFFFFFFFFFFFF AND PUSH20 0xFFFFFFFFFFFFFFFFFFFFFFFFFFFFFFFFFFFFFFFF AND CALLER PUSH20 0xFFFFFFFFFFFFFFFFFFFFFFFFFFFFFFFFFFFFFFFF AND EQ DUP1 PUSH2 0x15B5 JUMPI POP PUSH2 0x1586 PUSH2 0x26D9 JUMP JUMPDEST PUSH20 0xFFFFFFFFFFFFFFFFFFFFFFFFFFFFFFFFFFFFFFFF AND CALLER PUSH20 0xFFFFFFFFFFFFFFFFFFFFFFFFFFFFFFFFFFFFFFFF AND EQ JUMPDEST PUSH2 0x15F4 JUMPI PUSH1 0x40 MLOAD PUSH32 0x8C379A000000000000000000000000000000000000000000000000000000000 DUP2 MSTORE PUSH1 0x4 ADD PUSH2 0x15EB SWAP1 PUSH2 0x49B1 JUMP JUMPDEST PUSH1 0x40 MLOAD DUP1 SWAP2 SUB SWAP1 REVERT JUMPDEST PUSH0 PUSH1 0x3 DUP2 GT ISZERO PUSH2 0x1607 JUMPI PUSH2 0x1606 PUSH2 0x3AAB JUMP JUMPDEST JUMPDEST DUP2 PUSH1 0x4 ADD PUSH0 SWAP1 SLOAD SWAP1 PUSH2 0x100 EXP SWAP1 DIV PUSH1 0xFF AND PUSH1 0x3 DUP2 GT ISZERO PUSH2 0x162A JUMPI PUSH2 0x1629 PUSH2 0x3AAB JUMP JUMPDEST JUMPDEST EQ PUSH2 0x166A JUMPI PUSH1 0x40 MLOAD PUSH32 0x8C379A000000000000000000000000000000000000000000000000000000000 DUP2 MSTORE PUSH1 0x4 ADD PUSH2 0x1661 SWAP1 PUSH2 0x4A19 JUMP JUMPDEST PUSH1 0x40 MLOAD DUP1 SWAP2 SUB SWAP1 REVERT JUMPDEST PUSH0 JUMPDEST DUP2 PUSH1 0x7 ADD SLOAD DUP2 LT ISZERO PUSH2 0x16EE JUMPI DUP2 PUSH1 0x8 ADD PUSH0 DUP3 DUP2 MSTORE PUSH1 0x20 ADD SWAP1 DUP2 MSTORE PUSH1 0x20 ADD PUSH0 KECCAK256 PUSH1 0x3 ADD PUSH0 SWAP1 SLOAD SWAP1 PUSH2 0x100 EXP SWAP1 DIV PUSH1 0xFF AND ISZERO PUSH2 0x16DB JUMPI PUSH1 0x40 MLOAD PUSH32 0x8C379A000000000000000000000000000000000000000000000000000000000 DUP2 MSTORE PUSH1 0x4 ADD PUSH2 0x16D2 SWAP1 PUSH2 0x4AA7 JUMP JUMPDEST PUSH1 0x40 MLOAD DUP1 SWAP2 SUB SWAP1 REVERT JUMPDEST DUP1 DUP1 PUSH2 0x16E6 SWAP1 PUSH2 0x453D JUMP JUMPDEST SWAP2 POP POP PUSH2 0x166C JUMP JUMPDEST POP PUSH1 0x3 DUP2 PUSH1 0x4 ADD PUSH0 PUSH2 0x100 EXP DUP2 SLOAD DUP2 PUSH1 0xFF MUL NOT AND SWAP1 DUP4 PUSH1 0x3 DUP2 GT ISZERO PUSH2 0x1716 JUMPI PUSH2 0x1715 PUSH2 0x3AAB JUMP JUMPDEST JUMPDEST MUL OR SWAP1 SSTORE POP TIMESTAMP DUP2 PUSH1 0xA ADD DUP2 SWAP1 SSTORE POP DUP2 PUSH32 0x2029FF33A5CEFA752541F9DD453384DF0D463D7C42B66CF937F5112F76D4F545 DUP3 PUSH1 0x3 ADD SLOAD DUP4 PUSH1 0x4 ADD PUSH0 SWAP1 SLOAD SWAP1 PUSH2 0x100 EXP SWAP1 DIV PUSH1 0xFF AND PUSH1 0x40 MLOAD PUSH2 0x176A SWAP3 SWAP2 SWAP1 PUSH2 0x484E JUMP JUMPDEST PUSH1 0x40 MLOAD DUP1 SWAP2 SUB SWAP1 LOG2 POP POP JUMP JUMPDEST PUSH0 PUSH1 0x5 PUSH0 DUP4 DUP2 MSTORE PUSH1 0x20 ADD SWAP1 DUP2 MSTORE PUSH1 0x20 ADD PUSH0 KECCAK256 SWAP1 POP PUSH0 PUSH1 0x3 DUP2 GT ISZERO PUSH2 0x179D JUMPI PUSH2 0x179C PUSH2 0x3AAB JUMP JUMPDEST JUMPDEST DUP2 PUSH1 0x4 ADD PUSH0 SWAP1 SLOAD SWAP1 PUSH2 0x100 EXP SWAP1 DIV PUSH1 0xFF AND PUSH1 0x3 DUP2 GT ISZERO PUSH2 0x17C0 JUMPI PUSH2 0x17BF PUSH2 0x3AAB JUMP JUMPDEST JUMPDEST EQ PUSH2 0x1800 JUMPI PUSH1 0x40 MLOAD PUSH32 0x8C379A000000000000000000000000000000000000000000000000000000000 DUP2 MSTORE PUSH1 0x4 ADD PUSH2 0x17F7 SWAP1 PUSH2 0x4B0F JUMP JUMPDEST PUSH1 0x40 MLOAD DUP1 SWAP2 SUB SWAP1 REVERT JUMPDEST PUSH0 DUP1 DUP1 PUSH0 SWAP1 POP JUMPDEST DUP4 PUSH1 0x5 ADD SLOAD DUP2 LT ISZERO PUSH2 0x1899 JUMPI CALLER PUSH20 0xFFFFFFFFFFFFFFFFFFFFFFFFFFFFFFFFFFFFFFFF AND DUP5 PUSH1 0x6 ADD PUSH0 DUP4 DUP2 MSTORE PUSH1 0x20 ADD SWAP1 DUP2 MSTORE PUSH1 0x20 ADD PUSH0 KECCAK256 PUSH0 ADD PUSH0 SWAP1 SLOAD SWAP1 PUSH2 0x100 EXP SWAP1 DIV PUSH20 0xFFFFFFFFFFFFFFFFFFFFFFFFFFFFFFFFFFFFFFFF AND PUSH20 0xFFFFFFFFFFFFFFFFFFFFFFFFFFFFFFFFFFFFFFFF AND SUB PUSH2 0x1886 JUMPI PUSH1 0x1 SWAP3 POP DUP1 SWAP2 POP PUSH2 0x1899 JUMP JUMPDEST DUP1 DUP1 PUSH2 0x1891 SWAP1 PUSH2 0x453D JUMP JUMPDEST SWAP2 POP POP PUSH2 0x1807 JUMP JUMPDEST POP DUP2 PUSH2 0x18DA JUMPI PUSH1 0x40 MLOAD PUSH32 0x8C379A000000000000000000000000000000000000000000000000000000000 DUP2 MSTORE PUSH1 0x4 ADD PUSH2 0x18D1 SWAP1 PUSH2 0x4B9D JUMP JUMPDEST PUSH1 0x40 MLOAD DUP1 SWAP2 SUB SWAP1 REVERT JUMPDEST DUP3 PUSH1 0x6 ADD PUSH0 DUP3 DUP2 MSTORE PUSH1 0x20 ADD SWAP1 DUP2 MSTORE PUSH1 0x20 ADD PUSH0 KECCAK256 PUSH1 0x2 ADD PUSH0 SWAP1 SLOAD SWAP1 PUSH2 0x100 EXP SWAP1 DIV PUSH1 0xFF AND ISZERO PUSH2 0x193D JUMPI PUSH1 0x40 MLOAD PUSH32 0x8C379A000000000000000000000000000000000000000000000000000000000 DUP2 MSTORE PUSH1 0x4 ADD PUSH2 0x1934 SWAP1 PUSH2 0x4C05 JUMP JUMPDEST PUSH1 0x40 MLOAD DUP1 SWAP2 SUB SWAP1 REVERT JUMPDEST PUSH1 0x1 DUP4 PUSH1 0x6 ADD PUSH0 DUP4 DUP2 MSTORE PUSH1 0x20 ADD SWAP1 DUP2 MSTORE PUSH1 0x20 ADD PUSH0 KECCAK256 PUSH1 0x2 ADD PUSH0 PUSH2 0x100 EXP DUP2 SLOAD DUP2 PUSH1 0xFF MUL NOT AND SWAP1 DUP4 ISZERO ISZERO MUL OR SWAP1 SSTORE POP TIMESTAMP DUP4 PUSH1 0xA ADD DUP2 SWAP1 SSTORE POP CALLER PUSH20 0xFFFFFFFFFFFFFFFFFFFFFFFFFFFFFFFFFFFFFFFF AND DUP5 PUSH32 0xF7A652DE63DA46D087A8AB25D4A13102E7A74085819FA17527271F9E5E7F9A5C DUP6 PUSH1 0x6 ADD PUSH0 DUP6 DUP2 MSTORE PUSH1 0x20 ADD SWAP1 DUP2 MSTORE PUSH1 0x20 ADD PUSH0 KECCAK256 PUSH1 0x1 ADD SLOAD PUSH1 0x40 MLOAD PUSH2 0x19D1 SWAP2 SWAP1 PUSH2 0x3BB0 JUMP JUMPDEST PUSH1 0x40 MLOAD DUP1 SWAP2 SUB SWAP1 LOG3 POP POP POP POP JUMP JUMPDEST PUSH0 PUSH1 0x5 PUSH0 DUP6 DUP2 MSTORE PUSH1 0x20 ADD SWAP1 DUP2 MSTORE PUSH1 0x20 ADD PUSH0 KECCAK256 SWAP1 POP PUSH0 PUSH1 0x3 DUP2 GT ISZERO PUSH2 0x1A06 JUMPI PUSH2 0x1A05 PUSH2 0x3AAB JUMP JUMPDEST JUMPDEST DUP2 PUSH1 0x4 ADD PUSH0 SWAP1 SLOAD SWAP1 PUSH2 0x100 EXP SWAP1 DIV PUSH1 0xFF AND PUSH1 0x3 DUP2 GT ISZERO PUSH2 0x1A29 JUMPI PUSH2 0x1A28 PUSH2 0x3AAB JUMP JUMPDEST JUMPDEST EQ PUSH2 0x1A69 JUMPI PUSH1 0x40 MLOAD PUSH32 0x8C379A000000000000000000000000000000000000000000000000000000000 DUP2 MSTORE PUSH1 0x4 ADD PUSH2 0x1A60 SWAP1 PUSH2 0x4B0F JUMP JUMPDEST PUSH1 0x40 MLOAD DUP1 SWAP2 SUB SWAP1 REVERT JUMPDEST PUSH1 0x3 DUP2 PUSH1 0x7 ADD SLOAD LT PUSH2 0x1AB0 JUMPI PUSH1 0x40 MLOAD PUSH32 0x8C379A000000000000000000000000000000000000000000000000000000000 DUP2 MSTORE PUSH1 0x4 ADD PUSH2 0x1AA7 SWAP1 PUSH2 0x4C6D JUMP JUMPDEST PUSH1 0x40 MLOAD DUP1 SWAP2 SUB SWAP1 REVERT JUMPDEST PUSH0 DUP3 GT DUP1 ISZERO PUSH2 0x1AC1 JUMPI POP PUSH2 0x2710 DUP3 GT ISZERO JUMPDEST PUSH2 0x1B00 JUMPI PUSH1 0x40 MLOAD PUSH32 0x8C379A000000000000000000000000000000000000000000000000000000000 DUP2 MSTORE PUSH1 0x4 ADD PUSH2 0x1AF7 SWAP1 PUSH2 0x4CD5 JUMP JUMPDEST PUSH1 0x40 MLOAD DUP1 SWAP2 SUB SWAP1 REVERT JUMPDEST PUSH0 DUP3 SWAP1 POP PUSH0 JUMPDEST DUP3 PUSH1 0x7 ADD SLOAD DUP2 LT ISZERO PUSH2 0x1B49 JUMPI DUP3 PUSH1 0x8 ADD PUSH0 DUP3 DUP2 MSTORE PUSH1 0x20 ADD SWAP1 DUP2 MSTORE PUSH1 0x20 ADD PUSH0 KECCAK256 PUSH1 0x1 ADD SLOAD DUP3 PUSH2 0x1B34 SWAP2 SWAP1 PUSH2 0x4780 JUMP JUMPDEST SWAP2 POP DUP1 DUP1 PUSH2 0x1B41 SWAP1 PUSH2 0x453D JUMP JUMPDEST SWAP2 POP POP PUSH2 0x1B06 JUMP JUMPDEST POP PUSH2 0x2710 DUP2 GT ISZERO PUSH2 0x1B8F JUMPI PUSH1 0x40 MLOAD PUSH32 0x8C379A000000000000000000000000000000000000000000000000000000000 DUP2 MSTORE PUSH1 0x4 ADD PUSH2 0x1B86 SWAP1 PUSH2 0x4D3D JUMP JUMPDEST PUSH1 0x40 MLOAD DUP1 SWAP2 SUB SWAP1 REVERT JUMPDEST PUSH1 0x40 MLOAD DUP1 PUSH1 0x80 ADD PUSH1 0x40 MSTORE DUP1 DUP6 PUSH20 0xFFFFFFFFFFFFFFFFFFFFFFFFFFFFFFFFFFFFFFFF AND DUP2 MSTORE PUSH1 0x20 ADD DUP5 DUP2 MSTORE PUSH1 0x20 ADD PUSH0 DUP2 MSTORE PUSH1 0x20 ADD PUSH0 ISZERO ISZERO DUP2 MSTORE POP DUP3 PUSH1 0x8 ADD PUSH0 DUP5 PUSH1 0x7 ADD SLOAD DUP2 MSTORE PUSH1 0x20 ADD SWAP1 DUP2 MSTORE PUSH1 0x20 ADD PUSH0 KECCAK256 PUSH0 DUP3 ADD MLOAD DUP2 PUSH0 ADD PUSH0 PUSH2 0x100 EXP DUP2 SLOAD DUP2 PUSH20 0xFFFFFFFFFFFFFFFFFFFFFFFFFFFFFFFFFFFFFFFF MUL NOT AND SWAP1 DUP4 PUSH20 0xFFFFFFFFFFFFFFFFFFFFFFFFFFFFFFFFFFFFFFFF AND MUL OR SWAP1 SSTORE POP PUSH1 0x20 DUP3 ADD MLOAD DUP2 PUSH1 0x1 ADD SSTORE PUSH1 0x40 DUP3 ADD MLOAD DUP2 PUSH1 0x2 ADD SSTORE PUSH1 0x60 DUP3 ADD MLOAD DUP2 PUSH1 0x3 ADD PUSH0 PUSH2 0x100 EXP DUP2 SLOAD DUP2 PUSH1 0xFF MUL NOT AND SWAP1 DUP4 ISZERO ISZERO MUL OR SWAP1 SSTORE POP SWAP1 POP POP DUP2 PUSH1 0x7 ADD PUSH0 DUP2 SLOAD DUP1 SWAP3 SWAP2 SWAP1 PUSH2 0x1C6D SWAP1 PUSH2 0x453D JUMP JUMPDEST SWAP2 SWAP1 POP SSTORE POP TIMESTAMP DUP3 PUSH1 0xA ADD DUP2 SWAP1 SSTORE POP PUSH2 0x2710 DUP2 SUB PUSH2 0x1CFF JUMPI PUSH1 0x1 DUP3 PUSH1 0x4 ADD PUSH0 PUSH2 0x100 EXP DUP2 SLOAD DUP2 PUSH1 0xFF MUL NOT AND SWAP1 DUP4 PUSH1 0x3 DUP2 GT ISZERO PUSH2 0x1CAB JUMPI PUSH2 0x1CAA PUSH2 0x3AAB JUMP JUMPDEST JUMPDEST MUL OR SWAP1 SSTORE POP DUP5 PUSH32 0x2029FF33A5CEFA752541F9DD453384DF0D463D7C42B66CF937F5112F76D4F545 DUP4 PUSH1 0x3 ADD SLOAD DUP5 PUSH1 0x4 ADD PUSH0 SWAP1 SLOAD SWAP1 PUSH2 0x100 EXP SWAP1 DIV PUSH1 0xFF AND PUSH1 0x40 MLOAD PUSH2 0x1CF6 SWAP3 SWAP2 SWAP1 PUSH2 0x484E JUMP JUMPDEST PUSH1 0x40 MLOAD DUP1 SWAP2 SUB SWAP1 LOG2 JUMPDEST DUP4 PUSH20 0xFFFFFFFFFFFFFFFFFFFFFFFFFFFFFFFFFFFFFFFF AND DUP6 PUSH32 0xC6A942827EE49928926ECF863DF111A88A435F513D60FF6C606BBE1C39B5E4E1 DUP6 PUSH1 0x40 MLOAD PUSH2 0x1D46 SWAP2 SWAP1 PUSH2 0x3BB0 JUMP JUMPDEST PUSH1 0x40 MLOAD DUP1 SWAP2 SUB SWAP1 LOG3 POP POP POP POP POP JUMP JUMPDEST PUSH1 0x60 PUSH0 DUP1 PUSH1 0x1 SWAP1 POP JUMPDEST PUSH1 0x4 SLOAD DUP2 GT PUSH2 0x1E2B JUMPI PUSH0 PUSH1 0x5 PUSH0 DUP4 DUP2 MSTORE PUSH1 0x20 ADD SWAP1 DUP2 MSTORE PUSH1 0x20 ADD PUSH0 KECCAK256 SWAP1 POP PUSH0 JUMPDEST DUP2 PUSH1 0x7 ADD SLOAD DUP2 LT ISZERO PUSH2 0x1E16 JUMPI DUP8 PUSH20 0xFFFFFFFFFFFFFFFFFFFFFFFFFFFFFFFFFFFFFFFF AND DUP3 PUSH1 0x8 ADD PUSH0 DUP4 DUP2 MSTORE PUSH1 0x20 ADD SWAP1 DUP2 MSTORE PUSH1 0x20 ADD PUSH0 KECCAK256 PUSH0 ADD PUSH0 SWAP1 SLOAD SWAP1 PUSH2 0x100 EXP SWAP1 DIV PUSH20 0xFFFFFFFFFFFFFFFFFFFFFFFFFFFFFFFFFFFFFFFF AND PUSH20 0xFFFFFFFFFFFFFFFFFFFFFFFFFFFFFFFFFFFFFFFF AND SUB PUSH2 0x1E03 JUMPI DUP4 DUP1 PUSH2 0x1DFB SWAP1 PUSH2 0x453D JUMP JUMPDEST SWAP5 POP POP PUSH2 0x1E16 JUMP JUMPDEST DUP1 DUP1 PUSH2 0x1E0E SWAP1 PUSH2 0x453D JUMP JUMPDEST SWAP2 POP POP PUSH2 0x1D7D JUMP JUMPDEST POP POP DUP1 DUP1 PUSH2 0x1E23 SWAP1 PUSH2 0x453D JUMP JUMPDEST SWAP2 POP POP PUSH2 0x1D5E JUMP JUMPDEST POP PUSH0 DUP2 SUB PUSH2 0x1E84 JUMPI PUSH0 PUSH8 0xFFFFFFFFFFFFFFFF DUP2 GT ISZERO PUSH2 0x1E4D JUMPI PUSH2 0x1E4C PUSH2 0x3FB5 JUMP JUMPDEST JUMPDEST PUSH1 0x40 MLOAD SWAP1 DUP1 DUP3 MSTORE DUP1 PUSH1 0x20 MUL PUSH1 0x20 ADD DUP3 ADD PUSH1 0x40 MSTORE DUP1 ISZERO PUSH2 0x1E7B JUMPI DUP2 PUSH1 0x20 ADD PUSH1 0x20 DUP3 MUL DUP1 CALLDATASIZE DUP4 CALLDATACOPY DUP1 DUP3 ADD SWAP2 POP POP SWAP1 POP JUMPDEST POP SWAP2 POP POP PUSH2 0x2056 JUMP JUMPDEST PUSH0 DUP5 SWAP1 POP DUP4 DUP3 PUSH2 0x1E94 SWAP2 SWAP1 PUSH2 0x481B JUMP JUMPDEST DUP2 GT ISZERO PUSH2 0x1EC3 JUMPI PUSH0 DUP5 DUP4 PUSH2 0x1EA8 SWAP2 SWAP1 PUSH2 0x481B JUMP JUMPDEST GT PUSH2 0x1EB3 JUMPI PUSH0 PUSH2 0x1EC0 JUMP JUMPDEST DUP4 DUP3 PUSH2 0x1EBF SWAP2 SWAP1 PUSH2 0x481B JUMP JUMPDEST JUMPDEST SWAP1 POP JUMPDEST PUSH0 DUP2 PUSH8 0xFFFFFFFFFFFFFFFF DUP2 GT ISZERO PUSH2 0x1EDE JUMPI PUSH2 0x1EDD PUSH2 0x3FB5 JUMP JUMPDEST JUMPDEST PUSH1 0x40 MLOAD SWAP1 DUP1 DUP3 MSTORE DUP1 PUSH1 0x20 MUL PUSH1 0x20 ADD DUP3 ADD PUSH1 0x40 MSTORE DUP1 ISZERO PUSH2 0x1F0C JUMPI DUP2 PUSH1 0x20 ADD PUSH1 0x20 DUP3 MUL DUP1 CALLDATASIZE DUP4 CALLDATACOPY DUP1 DUP3 ADD SWAP2 POP POP SWAP1 POP JUMPDEST POP SWAP1 POP PUSH0 DUP3 SUB PUSH2 0x1F21 JUMPI DUP1 SWAP4 POP POP POP POP PUSH2 0x2056 JUMP JUMPDEST PUSH0 DUP1 PUSH0 PUSH1 0x1 SWAP1 POP JUMPDEST PUSH1 0x4 SLOAD DUP2 GT ISZERO DUP1 ISZERO PUSH2 0x1F3A JUMPI POP DUP5 DUP4 LT JUMPDEST ISZERO PUSH2 0x204C JUMPI PUSH0 PUSH1 0x5 PUSH0 DUP4 DUP2 MSTORE PUSH1 0x20 ADD SWAP1 DUP2 MSTORE PUSH1 0x20 ADD PUSH0 KECCAK256 SWAP1 POP PUSH0 DUP1 JUMPDEST DUP3 PUSH1 0x7 ADD SLOAD DUP2 LT ISZERO PUSH2 0x1FE5 JUMPI DUP13 PUSH20 0xFFFFFFFFFFFFFFFFFFFFFFFFFFFFFFFFFFFFFFFF AND DUP4 PUSH1 0x8 ADD PUSH0 DUP4 DUP2 MSTORE PUSH1 0x20 ADD SWAP1 DUP2 MSTORE PUSH1 0x20 ADD PUSH0 KECCAK256 PUSH0 ADD PUSH0 SWAP1 SLOAD SWAP1 PUSH2 0x100 EXP SWAP1 DIV PUSH20 0xFFFFFFFFFFFFFFFFFFFFFFFFFFFFFFFFFFFFFFFF AND PUSH20 0xFFFFFFFFFFFFFFFFFFFFFFFFFFFFFFFFFFFFFFFF AND SUB PUSH2 0x1FD2 JUMPI PUSH1 0x1 SWAP2 POP PUSH2 0x1FE5 JUMP JUMPDEST DUP1 DUP1 PUSH2 0x1FDD SWAP1 PUSH2 0x453D JUMP JUMPDEST SWAP2 POP POP PUSH2 0x1F56 JUMP JUMPDEST POP DUP1 ISZERO PUSH2 0x2037 JUMPI DUP10 DUP5 LT ISZERO PUSH2 0x2007 JUMPI DUP4 DUP1 PUSH2 0x1FFF SWAP1 PUSH2 0x453D JUMP JUMPDEST SWAP5 POP POP PUSH2 0x2036 JUMP JUMPDEST DUP3 DUP7 DUP7 DUP2 MLOAD DUP2 LT PUSH2 0x201B JUMPI PUSH2 0x201A PUSH2 0x493A JUMP JUMPDEST JUMPDEST PUSH1 0x20 MUL PUSH1 0x20 ADD ADD DUP2 DUP2 MSTORE POP POP DUP5 DUP1 PUSH2 0x2032 SWAP1 PUSH2 0x453D JUMP JUMPDEST SWAP6 POP POP JUMPDEST JUMPDEST POP POP DUP1 DUP1 PUSH2 0x2044 SWAP1 PUSH2 0x453D JUMP JUMPDEST SWAP2 POP POP PUSH2 0x1F29 JUMP JUMPDEST POP DUP3 SWAP6 POP POP POP POP POP POP JUMPDEST SWAP4 SWAP3 POP POP POP JUMP JUMPDEST PUSH0 DUP1 PUSH0 DUP1 PUSH1 0x5 PUSH0 DUP8 DUP2 MSTORE PUSH1 0x20 ADD SWAP1 DUP2 MSTORE PUSH1 0x20 ADD PUSH0 KECCAK256 SWAP1 POP DUP1 PUSH1 0x5 ADD SLOAD DUP6 LT PUSH2 0x20BA JUMPI PUSH1 0x40 MLOAD PUSH32 0x8C379A000000000000000000000000000000000000000000000000000000000 DUP2 MSTORE PUSH1 0x4 ADD PUSH2 0x20B1 SWAP1 PUSH2 0x4DA5 JUMP JUMPDEST PUSH1 0x40 MLOAD DUP1 SWAP2 SUB SWAP1 REVERT JUMPDEST PUSH0 DUP2 PUSH1 0x6 ADD PUSH0 DUP8 DUP2 MSTORE PUSH1 0x20 ADD SWAP1 DUP2 MSTORE PUSH1 0x20 ADD PUSH0 KECCAK256 SWAP1 POP DUP1 PUSH0 ADD PUSH0 SWAP1 SLOAD SWAP1 PUSH2 0x100 EXP SWAP1 DIV PUSH20 0xFFFFFFFFFFFFFFFFFFFFFFFFFFFFFFFFFFFFFFFF AND DUP2 PUSH1 0x1 ADD SLOAD DUP3 PUSH1 0x2 ADD PUSH0 SWAP1 SLOAD SWAP1 PUSH2 0x100 EXP SWAP1 DIV PUSH1 0xFF AND SWAP5 POP SWAP5 POP SWAP5 POP POP POP SWAP3 POP SWAP3 POP SWAP3 JUMP JUMPDEST PUSH0 DUP1 PUSH1 0x5 PUSH0 DUP5 DUP2 MSTORE PUSH1 0x20 ADD SWAP1 DUP2 MSTORE PUSH1 0x20 ADD PUSH0 KECCAK256 SWAP1 POP PUSH0 JUMPDEST DUP2 PUSH1 0x5 ADD SLOAD DUP2 LT ISZERO PUSH2 0x217F JUMPI DUP2 PUSH1 0x6 ADD PUSH0 DUP3 DUP2 MSTORE PUSH1 0x20 ADD SWAP1 DUP2 MSTORE PUSH1 0x20 ADD PUSH0 KECCAK256 PUSH1 0x2 ADD PUSH0 SWAP1 SLOAD SWAP1 PUSH2 0x100 EXP SWAP1 DIV PUSH1 0xFF AND PUSH2 0x216C JUMPI PUSH0 SWAP3 POP POP POP PUSH2 0x2186 JUMP JUMPDEST DUP1 DUP1 PUSH2 0x2177 SWAP1 PUSH2 0x453D JUMP JUMPDEST SWAP2 POP POP PUSH2 0x212F JUMP JUMPDEST POP PUSH1 0x1 SWAP2 POP POP JUMPDEST SWAP2 SWAP1 POP JUMP JUMPDEST PUSH1 0x60 PUSH0 DUP1 PUSH1 0x1 SWAP1 POP JUMPDEST PUSH1 0x4 SLOAD DUP2 GT PUSH2 0x2225 JUMPI DUP6 PUSH20 0xFFFFFFFFFFFFFFFFFFFFFFFFFFFFFFFFFFFFFFFF AND PUSH1 0x5 PUSH0 DUP4 DUP2 MSTORE PUSH1 0x20 ADD SWAP1 DUP2 MSTORE PUSH1 0x20 ADD PUSH0 KECCAK256 PUSH1 0x2 ADD PUSH0 SWAP1 SLOAD SWAP1 PUSH2 0x100 EXP SWAP1 DIV PUSH20 0xFFFFFFFFFFFFFFFFFFFFFFFFFFFFFFFFFFFFFFFF AND PUSH20 0xFFFFFFFFFFFFFFFFFFFFFFFFFFFFFFFFFFFFFFFF AND SUB PUSH2 0x2212 JUMPI DUP2 DUP1 PUSH2 0x220E SWAP1 PUSH2 0x453D JUMP JUMPDEST SWAP3 POP POP JUMPDEST DUP1 DUP1 PUSH2 0x221D SWAP1 PUSH2 0x453D JUMP JUMPDEST SWAP2 POP POP PUSH2 0x2194 JUMP JUMPDEST POP PUSH0 DUP2 SUB PUSH2 0x227E JUMPI PUSH0 PUSH8 0xFFFFFFFFFFFFFFFF DUP2 GT ISZERO PUSH2 0x2247 JUMPI PUSH2 0x2246 PUSH2 0x3FB5 JUMP JUMPDEST JUMPDEST PUSH1 0x40 MLOAD SWAP1 DUP1 DUP3 MSTORE DUP1 PUSH1 0x20 MUL PUSH1 0x20 ADD DUP3 ADD PUSH1 0x40 MSTORE DUP1 ISZERO PUSH2 0x2275 JUMPI DUP2 PUSH1 0x20 ADD PUSH1 0x20 DUP3 MUL DUP1 CALLDATASIZE DUP4 CALLDATACOPY DUP1 DUP3 ADD SWAP2 POP POP SWAP1 POP JUMPDEST POP SWAP2 POP POP PUSH2 0x2407 JUMP JUMPDEST PUSH0 DUP5 SWAP1 POP DUP4 DUP3 PUSH2 0x228E SWAP2 SWAP1 PUSH2 0x481B JUMP JUMPDEST DUP2 GT ISZERO PUSH2 0x22BD JUMPI PUSH0 DUP5 DUP4 PUSH2 0x22A2 SWAP2 SWAP1 PUSH2 0x481B JUMP JUMPDEST GT PUSH2 0x22AD JUMPI PUSH0 PUSH2 0x22BA JUMP JUMPDEST DUP4 DUP3 PUSH2 0x22B9 SWAP2 SWAP1 PUSH2 0x481B JUMP JUMPDEST JUMPDEST SWAP1 POP JUMPDEST PUSH0 DUP2 PUSH8 0xFFFFFFFFFFFFFFFF DUP2 GT ISZERO PUSH2 0x22D8 JUMPI PUSH2 0x22D7 PUSH2 0x3FB5 JUMP JUMPDEST JUMPDEST PUSH1 0x40 MLOAD SWAP1 DUP1 DUP3 MSTORE DUP1 PUSH1 0x20 MUL PUSH1 0x20 ADD DUP3 ADD PUSH1 0x40 MSTORE DUP1 ISZERO PUSH2 0x2306 JUMPI DUP2 PUSH1 0x20 ADD PUSH1 0x20 DUP3 MUL DUP1 CALLDATASIZE DUP4 CALLDATACOPY DUP1 DUP3 ADD SWAP2 POP POP SWAP1 POP JUMPDEST POP SWAP1 POP PUSH0 DUP3 SUB PUSH2 0x231B JUMPI DUP1 SWAP4 POP POP POP POP PUSH2 0x2407 JUMP JUMPDEST PUSH0 DUP1 PUSH0 PUSH1 0x1 SWAP1 POP JUMPDEST PUSH1 0x4 SLOAD DUP2 GT ISZERO DUP1 ISZERO PUSH2 0x2334 JUMPI POP DUP5 DUP4 LT JUMPDEST ISZERO PUSH2 0x23FD JUMPI DUP10 PUSH20 0xFFFFFFFFFFFFFFFFFFFFFFFFFFFFFFFFFFFFFFFF AND PUSH1 0x5 PUSH0 DUP4 DUP2 MSTORE PUSH1 0x20 ADD SWAP1 DUP2 MSTORE PUSH1 0x20 ADD PUSH0 KECCAK256 PUSH1 0x2 ADD PUSH0 SWAP1 SLOAD SWAP1 PUSH2 0x100 EXP SWAP1 DIV PUSH20 0xFFFFFFFFFFFFFFFFFFFFFFFFFFFFFFFFFFFFFFFF AND PUSH20 0xFFFFFFFFFFFFFFFFFFFFFFFFFFFFFFFFFFFFFFFF AND SUB PUSH2 0x23EA JUMPI DUP8 DUP3 LT ISZERO PUSH2 0x23BA JUMPI DUP2 DUP1 PUSH2 0x23B2 SWAP1 PUSH2 0x453D JUMP JUMPDEST SWAP3 POP POP PUSH2 0x23E9 JUMP JUMPDEST DUP1 DUP5 DUP5 DUP2 MLOAD DUP2 LT PUSH2 0x23CE JUMPI PUSH2 0x23CD PUSH2 0x493A JUMP JUMPDEST JUMPDEST PUSH1 0x20 MUL PUSH1 0x20 ADD ADD DUP2 DUP2 MSTORE POP POP DUP3 DUP1 PUSH2 0x23E5 SWAP1 PUSH2 0x453D JUMP JUMPDEST SWAP4 POP POP JUMPDEST JUMPDEST DUP1 DUP1 PUSH2 0x23F5 SWAP1 PUSH2 0x453D JUMP JUMPDEST SWAP2 POP POP PUSH2 0x2323 JUMP JUMPDEST POP DUP3 SWAP6 POP POP POP POP POP POP JUMPDEST SWAP4 SWAP3 POP POP POP JUMP JUMPDEST PUSH1 0x2 SLOAD DUP2 JUMP JUMPDEST PUSH0 DUP1 PUSH0 DUP1 PUSH0 PUSH1 0x5 PUSH0 DUP9 DUP2 MSTORE PUSH1 0x20 ADD SWAP1 DUP2 MSTORE PUSH1 0x20 ADD PUSH0 KECCAK256 SWAP1 POP DUP1 PUSH1 0x7 ADD SLOAD DUP7 LT PUSH2 0x2472 JUMPI PUSH1 0x40 MLOAD PUSH32 0x8C379A000000000000000000000000000000000000000000000000000000000 DUP2 MSTORE PUSH1 0x4 ADD PUSH2 0x2469 SWAP1 PUSH2 0x4E0D JUMP JUMPDEST PUSH1 0x40 MLOAD DUP1 SWAP2 SUB SWAP1 REVERT JUMPDEST PUSH0 DUP2 PUSH1 0x8 ADD PUSH0 DUP9 DUP2 MSTORE PUSH1 0x20 ADD SWAP1 DUP2 MSTORE PUSH1 0x20 ADD PUSH0 KECCAK256 SWAP1 POP DUP1 PUSH0 ADD PUSH0 SWAP1 SLOAD SWAP1 PUSH2 0x100 EXP SWAP1 DIV PUSH20 0xFFFFFFFFFFFFFFFFFFFFFFFFFFFFFFFFFFFFFFFF AND DUP2 PUSH1 0x1 ADD SLOAD DUP3 PUSH1 0x2 ADD SLOAD DUP4 PUSH1 0x3 ADD PUSH0 SWAP1 SLOAD SWAP1 PUSH2 0x100 EXP SWAP1 DIV PUSH1 0xFF AND SWAP6 POP SWAP6 POP SWAP6 POP SWAP6 POP POP POP SWAP3 SWAP6 SWAP2 SWAP5 POP SWAP3 POP JUMP JUMPDEST PUSH2 0x24E1 PUSH2 0x37A1 JUMP JUMPDEST PUSH2 0x24EA PUSH0 PUSH2 0x3828 JUMP JUMPDEST JUMP JUMPDEST PUSH1 0x60 PUSH0 DUP1 PUSH1 0x1 SWAP1 POP JUMPDEST PUSH1 0x7 SLOAD DUP2 GT PUSH2 0x253B JUMPI DUP6 PUSH1 0x6 PUSH0 DUP4 DUP2 MSTORE PUSH1 0x20 ADD SWAP1 DUP2 MSTORE PUSH1 0x20 ADD PUSH0 KECCAK256 PUSH1 0x1 ADD SLOAD SUB PUSH2 0x2528 JUMPI DUP2 DUP1 PUSH2 0x2524 SWAP1 PUSH2 0x453D JUMP JUMPDEST SWAP3 POP POP JUMPDEST DUP1 DUP1 PUSH2 0x2533 SWAP1 PUSH2 0x453D JUMP JUMPDEST SWAP2 POP POP PUSH2 0x24F5 JUMP JUMPDEST POP PUSH0 DUP2 SUB PUSH2 0x2594 JUMPI PUSH0 PUSH8 0xFFFFFFFFFFFFFFFF DUP2 GT ISZERO PUSH2 0x255D JUMPI PUSH2 0x255C PUSH2 0x3FB5 JUMP JUMPDEST JUMPDEST PUSH1 0x40 MLOAD SWAP1 DUP1 DUP3 MSTORE DUP1 PUSH1 0x20 MUL PUSH1 0x20 ADD DUP3 ADD PUSH1 0x40 MSTORE DUP1 ISZERO PUSH2 0x258B JUMPI DUP2 PUSH1 0x20 ADD PUSH1 0x20 DUP3 MUL DUP1 CALLDATASIZE DUP4 CALLDATACOPY DUP1 DUP3 ADD SWAP2 POP POP SWAP1 POP JUMPDEST POP SWAP2 POP POP PUSH2 0x26D2 JUMP JUMPDEST PUSH0 DUP5 SWAP1 POP DUP4 DUP3 PUSH2 0x25A4 SWAP2 SWAP1 PUSH2 0x481B JUMP JUMPDEST DUP2 GT ISZERO PUSH2 0x25D3 JUMPI PUSH0 DUP5 DUP4 PUSH2 0x25B8 SWAP2 SWAP1 PUSH2 0x481B JUMP JUMPDEST GT PUSH2 0x25C3 JUMPI PUSH0 PUSH2 0x25D0 JUMP JUMPDEST DUP4 DUP3 PUSH2 0x25CF SWAP2 SWAP1 PUSH2 0x481B JUMP JUMPDEST JUMPDEST SWAP1 POP JUMPDEST PUSH0 DUP2 PUSH8 0xFFFFFFFFFFFFFFFF DUP2 GT ISZERO PUSH2 0x25EE JUMPI PUSH2 0x25ED PUSH2 0x3FB5 JUMP JUMPDEST JUMPDEST PUSH1 0x40 MLOAD SWAP1 DUP1 DUP3 MSTORE DUP1 PUSH1 0x20 MUL PUSH1 0x20 ADD DUP3 ADD PUSH1 0x40 MSTORE DUP1 ISZERO PUSH2 0x261C JUMPI DUP2 PUSH1 0x20 ADD PUSH1 0x20 DUP3 MUL DUP1 CALLDATASIZE DUP4 CALLDATACOPY DUP1 DUP3 ADD SWAP2 POP POP SWAP1 POP JUMPDEST POP SWAP1 POP PUSH0 DUP3 SUB PUSH2 0x2631 JUMPI DUP1 SWAP4 POP POP POP POP PUSH2 0x26D2 JUMP JUMPDEST PUSH0 DUP1 PUSH0 PUSH1 0x1 SWAP1 POP JUMPDEST PUSH1 0x7 SLOAD DUP2 GT ISZERO DUP1 ISZERO PUSH2 0x264A JUMPI POP DUP5 DUP4 LT JUMPDEST ISZERO PUSH2 0x26C8 JUMPI DUP10 PUSH1 0x6 PUSH0 DUP4 DUP2 MSTORE PUSH1 0x20 ADD SWAP1 DUP2 MSTORE PUSH1 0x20 ADD PUSH0 KECCAK256 PUSH1 0x1 ADD SLOAD SUB PUSH2 0x26B5 JUMPI DUP8 DUP3 LT ISZERO PUSH2 0x2685 JUMPI DUP2 DUP1 PUSH2 0x267D SWAP1 PUSH2 0x453D JUMP JUMPDEST SWAP3 POP POP PUSH2 0x26B4 JUMP JUMPDEST DUP1 DUP5 DUP5 DUP2 MLOAD DUP2 LT PUSH2 0x2699 JUMPI PUSH2 0x2698 PUSH2 0x493A JUMP JUMPDEST JUMPDEST PUSH1 0x20 MUL PUSH1 0x20 ADD ADD DUP2 DUP2 MSTORE POP POP DUP3 DUP1 PUSH2 0x26B0 SWAP1 PUSH2 0x453D JUMP JUMPDEST SWAP4 POP POP JUMPDEST JUMPDEST DUP1 DUP1 PUSH2 0x26C0 SWAP1 PUSH2 0x453D JUMP JUMPDEST SWAP2 POP POP PUSH2 0x2639 JUMP JUMPDEST POP DUP3 SWAP6 POP POP POP POP POP POP JUMPDEST SWAP4 SWAP3 POP POP POP JUMP JUMPDEST PUSH0 DUP1 PUSH0 SWAP1 SLOAD SWAP1 PUSH2 0x100 EXP SWAP1 DIV PUSH20 0xFFFFFFFFFFFFFFFFFFFFFFFFFFFFFFFFFFFFFFFF AND SWAP1 POP SWAP1 JUMP JUMPDEST PUSH1 0x60 PUSH0 DUP1 PUSH1 0x1 SWAP1 POP JUMPDEST PUSH1 0x4 SLOAD DUP2 GT PUSH2 0x277F JUMPI DUP6 PUSH1 0x3 DUP2 GT ISZERO PUSH2 0x2725 JUMPI PUSH2 0x2724 PUSH2 0x3AAB JUMP JUMPDEST JUMPDEST PUSH1 0x5 PUSH0 DUP4 DUP2 MSTORE PUSH1 0x20 ADD SWAP1 DUP2 MSTORE PUSH1 0x20 ADD PUSH0 KECCAK256 PUSH1 0x4 ADD PUSH0 SWAP1 SLOAD SWAP1 PUSH2 0x100 EXP SWAP1 DIV PUSH1 0xFF AND PUSH1 0x3 DUP2 GT ISZERO PUSH2 0x2758 JUMPI PUSH2 0x2757 PUSH2 0x3AAB JUMP JUMPDEST JUMPDEST SUB PUSH2 0x276C JUMPI DUP2 DUP1 PUSH2 0x2768 SWAP1 PUSH2 0x453D JUMP JUMPDEST SWAP3 POP POP JUMPDEST DUP1 DUP1 PUSH2 0x2777 SWAP1 PUSH2 0x453D JUMP JUMPDEST SWAP2 POP POP PUSH2 0x2709 JUMP JUMPDEST POP PUSH0 DUP2 SUB PUSH2 0x27D8 JUMPI PUSH0 PUSH8 0xFFFFFFFFFFFFFFFF DUP2 GT ISZERO PUSH2 0x27A1 JUMPI PUSH2 0x27A0 PUSH2 0x3FB5 JUMP JUMPDEST JUMPDEST PUSH1 0x40 MLOAD SWAP1 DUP1 DUP3 MSTORE DUP1 PUSH1 0x20 MUL PUSH1 0x20 ADD DUP3 ADD PUSH1 0x40 MSTORE DUP1 ISZERO PUSH2 0x27CF JUMPI DUP2 PUSH1 0x20 ADD PUSH1 0x20 DUP3 MUL DUP1 CALLDATASIZE DUP4 CALLDATACOPY DUP1 DUP3 ADD SWAP2 POP POP SWAP1 POP JUMPDEST POP SWAP2 POP POP PUSH2 0x2946 JUMP JUMPDEST PUSH0 DUP5 SWAP1 POP DUP4 DUP3 PUSH2 0x27E8 SWAP2 SWAP1 PUSH2 0x481B JUMP JUMPDEST DUP2 GT ISZERO PUSH2 0x2817 JUMPI PUSH0 DUP5 DUP4 PUSH2 0x27FC SWAP2 SWAP1 PUSH2 0x481B JUMP JUMPDEST GT PUSH2 0x2807 JUMPI PUSH0 PUSH2 0x2814 JUMP JUMPDEST DUP4 DUP3 PUSH2 0x2813 SWAP2 SWAP1 PUSH2 0x481B JUMP JUMPDEST JUMPDEST SWAP1 POP JUMPDEST PUSH0 DUP2 PUSH8 0xFFFFFFFFFFFFFFFF DUP2 GT ISZERO PUSH2 0x2832 JUMPI PUSH2 0x2831 PUSH2 0x3FB5 JUMP JUMPDEST JUMPDEST PUSH1 0x40 MLOAD SWAP1 DUP1 DUP3 MSTORE DUP1 PUSH1 0x20 MUL PUSH1 0x20 ADD DUP3 ADD PUSH1 0x40 MSTORE DUP1 ISZERO PUSH2 0x2860 JUMPI DUP2 PUSH1 0x20 ADD PUSH1 0x20 DUP3 MUL DUP1 CALLDATASIZE DUP4 CALLDATACOPY DUP1 DUP3 ADD SWAP2 POP POP SWAP1 POP JUMPDEST POP SWAP1 POP PUSH0 DUP3 SUB PUSH2 0x2875 JUMPI DUP1 SWAP4 POP POP POP POP PUSH2 0x2946 JUMP JUMPDEST PUSH0 DUP1 PUSH0 PUSH1 0x1 SWAP1 POP JUMPDEST PUSH1 0x4 SLOAD DUP2 GT ISZERO DUP1 ISZERO PUSH2 0x288E JUMPI POP DUP5 DUP4 LT JUMPDEST ISZERO PUSH2 0x293C JUMPI DUP10 PUSH1 0x3 DUP2 GT ISZERO PUSH2 0x28A6 JUMPI PUSH2 0x28A5 PUSH2 0x3AAB JUMP JUMPDEST JUMPDEST PUSH1 0x5 PUSH0 DUP4 DUP2 MSTORE PUSH1 0x20 ADD SWAP1 DUP2 MSTORE PUSH1 0x20 ADD PUSH0 KECCAK256 PUSH1 0x4 ADD PUSH0 SWAP1 SLOAD SWAP1 PUSH2 0x100 EXP SWAP1 DIV PUSH1 0xFF AND PUSH1 0x3 DUP2 GT ISZERO PUSH2 0x28D9 JUMPI PUSH2 0x28D8 PUSH2 0x3AAB JUMP JUMPDEST JUMPDEST SUB PUSH2 0x2929 JUMPI DUP8 DUP3 LT ISZERO PUSH2 0x28F9 JUMPI DUP2 DUP1 PUSH2 0x28F1 SWAP1 PUSH2 0x453D JUMP JUMPDEST SWAP3 POP POP PUSH2 0x2928 JUMP JUMPDEST DUP1 DUP5 DUP5 DUP2 MLOAD DUP2 LT PUSH2 0x290D JUMPI PUSH2 0x290C PUSH2 0x493A JUMP JUMPDEST JUMPDEST PUSH1 0x20 MUL PUSH1 0x20 ADD ADD DUP2 DUP2 MSTORE POP POP DUP3 DUP1 PUSH2 0x2924 SWAP1 PUSH2 0x453D JUMP JUMPDEST SWAP4 POP POP JUMPDEST JUMPDEST DUP1 DUP1 PUSH2 0x2934 SWAP1 PUSH2 0x453D JUMP JUMPDEST SWAP2 POP POP PUSH2 0x287D JUMP JUMPDEST POP DUP3 SWAP6 POP POP POP POP POP POP JUMPDEST SWAP4 SWAP3 POP POP POP JUMP JUMPDEST PUSH1 0x6 PUSH1 0x20 MSTORE DUP1 PUSH0 MSTORE PUSH1 0x40 PUSH0 KECCAK256 PUSH0 SWAP2 POP SWAP1 POP DUP1 PUSH0 ADD SLOAD SWAP1 DUP1 PUSH1 0x1 ADD SLOAD SWAP1 DUP1 PUSH1 0x2 ADD PUSH0 SWAP1 SLOAD SWAP1 PUSH2 0x100 EXP SWAP1 DIV PUSH20 0xFFFFFFFFFFFFFFFFFFFFFFFFFFFFFFFFFFFFFFFF AND SWAP1 DUP1 PUSH1 0x3 ADD PUSH0 SWAP1 SLOAD SWAP1 PUSH2 0x100 EXP SWAP1 DIV PUSH20 0xFFFFFFFFFFFFFFFFFFFFFFFFFFFFFFFFFFFFFFFF AND SWAP1 DUP1 PUSH1 0x4 ADD SLOAD SWAP1 DUP1 PUSH1 0x5 ADD SLOAD SWAP1 DUP1 PUSH1 0x6 ADD DUP1 SLOAD PUSH2 0x29CE SWAP1 PUSH2 0x490A JUMP JUMPDEST DUP1 PUSH1 0x1F ADD PUSH1 0x20 DUP1 SWAP2 DIV MUL PUSH1 0x20 ADD PUSH1 0x40 MLOAD SWAP1 DUP2 ADD PUSH1 0x40 MSTORE DUP1 SWAP3 SWAP2 SWAP1 DUP2 DUP2 MSTORE PUSH1 0x20 ADD DUP3 DUP1 SLOAD PUSH2 0x29FA SWAP1 PUSH2 0x490A JUMP JUMPDEST DUP1 ISZERO PUSH2 0x2A45 JUMPI DUP1 PUSH1 0x1F LT PUSH2 0x2A1C JUMPI PUSH2 0x100 DUP1 DUP4 SLOAD DIV MUL DUP4 MSTORE SWAP2 PUSH1 0x20 ADD SWAP2 PUSH2 0x2A45 JUMP JUMPDEST DUP3 ADD SWAP2 SWAP1 PUSH0 MSTORE PUSH1 0x20 PUSH0 KECCAK256 SWAP1 JUMPDEST DUP2 SLOAD DUP2 MSTORE SWAP1 PUSH1 0x1 ADD SWAP1 PUSH1 0x20 ADD DUP1 DUP4 GT PUSH2 0x2A28 JUMPI DUP3 SWAP1 SUB PUSH1 0x1F AND DUP3 ADD SWAP2 JUMPDEST POP POP POP POP POP SWAP1 POP DUP8 JUMP JUMPDEST PUSH2 0x2A57 PUSH2 0x37A1 JUMP JUMPDEST PUSH2 0x3E8 DUP2 GT ISZERO PUSH2 0x2A9C JUMPI PUSH1 0x40 MLOAD PUSH32 0x8C379A000000000000000000000000000000000000000000000000000000000 DUP2 MSTORE PUSH1 0x4 ADD PUSH2 0x2A93 SWAP1 PUSH2 0x4E75 JUMP JUMPDEST PUSH1 0x40 MLOAD DUP1 SWAP2 SUB SWAP1 REVERT JUMPDEST DUP1 PUSH1 0x3 DUP2 SWAP1 SSTORE POP PUSH32 0x14960EBFF9E4FBC7EAD924642E621A388C55E6DB3D20028E92770A29F9A6AC7C DUP2 PUSH1 0x40 MLOAD PUSH2 0x2AD2 SWAP2 SWAP1 PUSH2 0x3BB0 JUMP JUMPDEST PUSH1 0x40 MLOAD DUP1 SWAP2 SUB SWAP1 LOG1 POP JUMP JUMPDEST PUSH0 PUSH1 0x5 PUSH0 DUP6 DUP2 MSTORE PUSH1 0x20 ADD SWAP1 DUP2 MSTORE PUSH1 0x20 ADD PUSH0 KECCAK256 SWAP1 POP DUP1 PUSH1 0x2 ADD PUSH0 SWAP1 SLOAD SWAP1 PUSH2 0x100 EXP SWAP1 DIV PUSH20 0xFFFFFFFFFFFFFFFFFFFFFFFFFFFFFFFFFFFFFFFF AND PUSH20 0xFFFFFFFFFFFFFFFFFFFFFFFFFFFFFFFFFFFFFFFF AND CALLER PUSH20 0xFFFFFFFFFFFFFFFFFFFFFFFFFFFFFFFFFFFFFFFF AND EQ PUSH2 0x2B82 JUMPI PUSH1 0x40 MLOAD PUSH32 0x8C379A000000000000000000000000000000000000000000000000000000000 DUP2 MSTORE PUSH1 0x4 ADD PUSH2 0x2B79 SWAP1 PUSH2 0x4EDD JUMP JUMPDEST PUSH1 0x40 MLOAD DUP1 SWAP2 SUB SWAP1 REVERT JUMPDEST PUSH0 PUSH1 0x3 DUP2 GT ISZERO PUSH2 0x2B95 JUMPI PUSH2 0x2B94 PUSH2 0x3AAB JUMP JUMPDEST JUMPDEST DUP2 PUSH1 0x4 ADD PUSH0 SWAP1 SLOAD SWAP1 PUSH2 0x100 EXP SWAP1 DIV PUSH1 0xFF AND PUSH1 0x3 DUP2 GT ISZERO PUSH2 0x2BB8 JUMPI PUSH2 0x2BB7 PUSH2 0x3AAB JUMP JUMPDEST JUMPDEST EQ PUSH2 0x2BF8 JUMPI PUSH1 0x40 MLOAD PUSH32 0x8C379A000000000000000000000000000000000000000000000000000000000 DUP2 MSTORE PUSH1 0x4 ADD PUSH2 0x2BEF SWAP1 PUSH2 0x4B0F JUMP JUMPDEST PUSH1 0x40 MLOAD DUP1 SWAP2 SUB SWAP1 REVERT JUMPDEST DUP3 DUP2 PUSH1 0x3 ADD DUP2 SWAP1 SSTORE POP DUP2 DUP2 PUSH1 0x1 ADD SWAP1 DUP2 PUSH2 0x2C12 SWAP2 SWAP1 PUSH2 0x5098 JUMP JUMPDEST POP TIMESTAMP DUP2 PUSH1 0xA ADD DUP2 SWAP1 SSTORE POP DUP4 PUSH32 0x2029FF33A5CEFA752541F9DD453384DF0D463D7C42B66CF937F5112F76D4F545 DUP5 DUP4 PUSH1 0x4 ADD PUSH0 SWAP1 SLOAD SWAP1 PUSH2 0x100 EXP SWAP1 DIV PUSH1 0xFF AND PUSH1 0x40 MLOAD PUSH2 0x2C5E SWAP3 SWAP2 SWAP1 PUSH2 0x484E JUMP JUMPDEST PUSH1 0x40 MLOAD DUP1 SWAP2 SUB SWAP1 LOG2 POP POP POP POP JUMP JUMPDEST PUSH0 PUSH2 0x2C75 PUSH2 0x3536 JUMP JUMPDEST PUSH1 0x2 SLOAD CALLVALUE LT ISZERO PUSH2 0x2CBA JUMPI PUSH1 0x40 MLOAD PUSH32 0x8C379A000000000000000000000000000000000000000000000000000000000 DUP2 MSTORE PUSH1 0x4 ADD PUSH2 0x2CB1 SWAP1 PUSH2 0x51B1 JUMP JUMPDEST PUSH1 0x40 MLOAD DUP1 SWAP2 SUB SWAP1 REVERT JUMPDEST PUSH1 0x3 DUP4 MLOAD GT ISZERO PUSH2 0x2CFF JUMPI PUSH1 0x40 MLOAD PUSH32 0x8C379A000000000000000000000000000000000000000000000000000000000 DUP2 MSTORE PUSH1 0x4 ADD PUSH2 0x2CF6 SWAP1 PUSH2 0x523F JUMP JUMPDEST PUSH1 0x40 MLOAD DUP1 SWAP2 SUB SWAP1 REVERT JUMPDEST DUP2 MLOAD DUP4 MLOAD EQ PUSH2 0x2D43 JUMPI PUSH1 0x40 MLOAD PUSH32 0x8C379A000000000000000000000000000000000000000000000000000000000 DUP2 MSTORE PUSH1 0x4 ADD PUSH2 0x2D3A SWAP1 PUSH2 0x52A7 JUMP JUMPDEST PUSH1 0x40 MLOAD DUP1 SWAP2 SUB SWAP1 REVERT JUMPDEST PUSH0 DUP1 JUMPDEST DUP4 MLOAD DUP2 LT ISZERO PUSH2 0x2D8A JUMPI DUP4 DUP2 DUP2 MLOAD DUP2 LT PUSH2 0x2D62 JUMPI PUSH2 0x2D61 PUSH2 0x493A JUMP JUMPDEST JUMPDEST PUSH1 0x20 MUL PUSH1 0x20 ADD ADD MLOAD DUP3 PUSH2 0x2D75 SWAP2 SWAP1 PUSH2 0x4780 JUMP JUMPDEST SWAP2 POP DUP1 DUP1 PUSH2 0x2D82 SWAP1 PUSH2 0x453D JUMP JUMPDEST SWAP2 POP POP PUSH2 0x2D46 JUMP JUMPDEST POP PUSH2 0x1388 DUP2 GT ISZERO PUSH2 0x2DD0 JUMPI PUSH1 0x40 MLOAD PUSH32 0x8C379A000000000000000000000000000000000000000000000000000000000 DUP2 MSTORE PUSH1 0x4 ADD PUSH2 0x2DC7 SWAP1 PUSH2 0x530F JUMP JUMPDEST PUSH1 0x40 MLOAD DUP1 SWAP2 SUB SWAP1 REVERT JUMPDEST PUSH2 0x2DD8 PUSH2 0x26D9 JUMP JUMPDEST PUSH20 0xFFFFFFFFFFFFFFFFFFFFFFFFFFFFFFFFFFFFFFFF AND PUSH2 0x8FC CALLVALUE SWAP1 DUP2 ISZERO MUL SWAP1 PUSH1 0x40 MLOAD PUSH0 PUSH1 0x40 MLOAD DUP1 DUP4 SUB DUP2 DUP6 DUP9 DUP9 CALL SWAP4 POP POP POP POP ISZERO DUP1 ISZERO PUSH2 0x2E1A JUMPI RETURNDATASIZE PUSH0 DUP1 RETURNDATACOPY RETURNDATASIZE PUSH0 REVERT JUMPDEST POP PUSH0 PUSH1 0x4 PUSH0 DUP2 SLOAD PUSH2 0x2E2A SWAP1 PUSH2 0x453D JUMP JUMPDEST SWAP2 SWAP1 POP DUP2 SWAP1 SSTORE SWAP1 POP PUSH0 PUSH1 0x5 PUSH0 DUP4 DUP2 MSTORE PUSH1 0x20 ADD SWAP1 DUP2 MSTORE PUSH1 0x20 ADD PUSH0 KECCAK256 SWAP1 POP DUP2 DUP2 PUSH0 ADD DUP2 SWAP1 SSTORE POP DUP8 DUP2 PUSH1 0x1 ADD SWAP1 DUP2 PUSH2 0x2E5F SWAP2 SWAP1 PUSH2 0x5098 JUMP JUMPDEST POP CALLER DUP2 PUSH1 0x2 ADD PUSH0 PUSH2 0x100 EXP DUP2 SLOAD DUP2 PUSH20 0xFFFFFFFFFFFFFFFFFFFFFFFFFFFFFFFFFFFFFFFF MUL NOT AND SWAP1 DUP4 PUSH20 0xFFFFFFFFFFFFFFFFFFFFFFFFFFFFFFFFFFFFFFFF AND MUL OR SWAP1 SSTORE POP DUP7 DUP2 PUSH1 0x3 ADD DUP2 SWAP1 SSTORE POP PUSH0 DUP2 PUSH1 0x4 ADD PUSH0 PUSH2 0x100 EXP DUP2 SLOAD DUP2 PUSH1 0xFF MUL NOT AND SWAP1 DUP4 PUSH1 0x3 DUP2 GT ISZERO PUSH2 0x2ED1 JUMPI PUSH2 0x2ED0 PUSH2 0x3AAB JUMP JUMPDEST JUMPDEST MUL OR SWAP1 SSTORE POP DUP6 MLOAD DUP2 PUSH1 0x5 ADD DUP2 SWAP1 SSTORE POP TIMESTAMP DUP2 PUSH1 0x9 ADD DUP2 SWAP1 SSTORE POP TIMESTAMP DUP2 PUSH1 0xA ADD DUP2 SWAP1 SSTORE POP PUSH0 JUMPDEST DUP7 MLOAD DUP2 LT ISZERO PUSH2 0x2FFA JUMPI PUSH1 0x40 MLOAD DUP1 PUSH1 0x60 ADD PUSH1 0x40 MSTORE DUP1 DUP9 DUP4 DUP2 MLOAD DUP2 LT PUSH2 0x2F1B JUMPI PUSH2 0x2F1A PUSH2 0x493A JUMP JUMPDEST JUMPDEST PUSH1 0x20 MUL PUSH1 0x20 ADD ADD MLOAD PUSH20 0xFFFFFFFFFFFFFFFFFFFFFFFFFFFFFFFFFFFFFFFF AND DUP2 MSTORE PUSH1 0x20 ADD DUP8 DUP4 DUP2 MLOAD DUP2 LT PUSH2 0x2F51 JUMPI PUSH2 0x2F50 PUSH2 0x493A JUMP JUMPDEST JUMPDEST PUSH1 0x20 MUL PUSH1 0x20 ADD ADD MLOAD DUP2 MSTORE PUSH1 0x20 ADD PUSH0 ISZERO ISZERO DUP2 MSTORE POP DUP3 PUSH1 0x6 ADD PUSH0 DUP4 DUP2 MSTORE PUSH1 0x20 ADD SWAP1 DUP2 MSTORE PUSH1 0x20 ADD PUSH0 KECCAK256 PUSH0 DUP3 ADD MLOAD DUP2 PUSH0 ADD PUSH0 PUSH2 0x100 EXP DUP2 SLOAD DUP2 PUSH20 0xFFFFFFFFFFFFFFFFFFFFFFFFFFFFFFFFFFFFFFFF MUL NOT AND SWAP1 DUP4 PUSH20 0xFFFFFFFFFFFFFFFFFFFFFFFFFFFFFFFFFFFFFFFF AND MUL OR SWAP1 SSTORE POP PUSH1 0x20 DUP3 ADD MLOAD DUP2 PUSH1 0x1 ADD SSTORE PUSH1 0x40 DUP3 ADD MLOAD DUP2 PUSH1 0x2 ADD PUSH0 PUSH2 0x100 EXP DUP2 SLOAD DUP2 PUSH1 0xFF MUL NOT AND SWAP1 DUP4 ISZERO ISZERO MUL OR SWAP1 SSTORE POP SWAP1 POP POP DUP1 DUP1 PUSH2 0x2FF2 SWAP1 PUSH2 0x453D JUMP JUMPDEST SWAP2 POP POP PUSH2 0x2EF4 JUMP JUMPDEST POP PUSH2 0x303D DUP3 CALLER ADDRESS CALLVALUE PUSH1 0x40 MLOAD DUP1 PUSH1 0x40 ADD PUSH1 0x40 MSTORE DUP1 PUSH1 0x7 DUP2 MSTORE PUSH1 0x20 ADD PUSH32 0x4C697374696E6700000000000000000000000000000000000000000000000000 DUP2 MSTORE POP PUSH2 0x3585 JUMP JUMPDEST CALLER PUSH20 0xFFFFFFFFFFFFFFFFFFFFFFFFFFFFFFFFFFFFFFFF AND DUP3 PUSH32 0x23FB658C1698B92F5FE511A079C17ECF7965CBC3F1B873328C67E2C3C0820F1F DUP10 PUSH1 0x40 MLOAD PUSH2 0x3084 SWAP2 SWAP1 PUSH2 0x3BB0 JUMP JUMPDEST PUSH1 0x40 MLOAD DUP1 SWAP2 SUB SWAP1 LOG3 DUP2 SWAP4 POP POP POP POP PUSH2 0x309A PUSH2 0x3798 JUMP JUMPDEST SWAP5 SWAP4 POP POP POP POP JUMP JUMPDEST PUSH0 PUSH1 0x7 SLOAD SWAP1 POP SWAP1 JUMP JUMPDEST PUSH1 0x7 SLOAD DUP2 JUMP JUMPDEST PUSH0 DUP1 PUSH0 DUP1 PUSH1 0x5 PUSH0 DUP8 DUP2 MSTORE PUSH1 0x20 ADD SWAP1 DUP2 MSTORE PUSH1 0x20 ADD PUSH0 KECCAK256 SWAP1 POP DUP1 PUSH1 0x7 ADD SLOAD DUP6 LT PUSH2 0x310E JUMPI PUSH1 0x40 MLOAD PUSH32 0x8C379A000000000000000000000000000000000000000000000000000000000 DUP2 MSTORE PUSH1 0x4 ADD PUSH2 0x3105 SWAP1 PUSH2 0x4E0D JUMP JUMPDEST PUSH1 0x40 MLOAD DUP1 SWAP2 SUB SWAP1 REVERT JUMPDEST PUSH0 DUP2 PUSH1 0x8 ADD PUSH0 DUP8 DUP2 MSTORE PUSH1 0x20 ADD SWAP1 DUP2 MSTORE PUSH1 0x20 ADD PUSH0 KECCAK256 SWAP1 POP PUSH2 0x2710 DUP2 PUSH1 0x1 ADD SLOAD DUP4 PUSH1 0x3 ADD SLOAD PUSH2 0x313B SWAP2 SWAP1 PUSH2 0x46E2 JUMP JUMPDEST PUSH2 0x3145 SWAP2 SWAP1 PUSH2 0x4750 JUMP JUMPDEST SWAP5 POP PUSH2 0x2710 PUSH1 0x3 SLOAD DUP7 PUSH2 0x3158 SWAP2 SWAP1 PUSH2 0x46E2 JUMP JUMPDEST PUSH2 0x3162 SWAP2 SWAP1 PUSH2 0x4750 JUMP JUMPDEST SWAP4 POP DUP4 DUP6 PUSH2 0x3170 SWAP2 SWAP1 PUSH2 0x4780 JUMP JUMPDEST SWAP3 POP POP POP SWAP3 POP SWAP3 POP SWAP3 JUMP JUMPDEST PUSH1 0x4 SLOAD DUP2 JUMP JUMPDEST PUSH2 0x3189 PUSH2 0x37A1 JUMP JUMPDEST PUSH0 SELFBALANCE SWAP1 POP PUSH0 DUP2 GT PUSH2 0x31CF JUMPI PUSH1 0x40 MLOAD PUSH32 0x8C379A000000000000000000000000000000000000000000000000000000000 DUP2 MSTORE PUSH1 0x4 ADD PUSH2 0x31C6 SWAP1 PUSH2 0x5377 JUMP JUMPDEST PUSH1 0x40 MLOAD DUP1 SWAP2 SUB SWAP1 REVERT JUMPDEST PUSH2 0x31D7 PUSH2 0x26D9 JUMP JUMPDEST PUSH20 0xFFFFFFFFFFFFFFFFFFFFFFFFFFFFFFFFFFFFFFFF AND PUSH2 0x8FC DUP3 SWAP1 DUP2 ISZERO MUL SWAP1 PUSH1 0x40 MLOAD PUSH0 PUSH1 0x40 MLOAD DUP1 DUP4 SUB DUP2 DUP6 DUP9 DUP9 CALL SWAP4 POP POP POP POP ISZERO DUP1 ISZERO PUSH2 0x3219 JUMPI RETURNDATASIZE PUSH0 DUP1 RETURNDATACOPY RETURNDATASIZE PUSH0 REVERT JUMPDEST POP POP JUMP JUMPDEST PUSH2 0x3225 PUSH2 0x37A1 JUMP JUMPDEST PUSH0 PUSH20 0xFFFFFFFFFFFFFFFFFFFFFFFFFFFFFFFFFFFFFFFF AND DUP2 PUSH20 0xFFFFFFFFFFFFFFFFFFFFFFFFFFFFFFFFFFFFFFFF AND SUB PUSH2 0x3295 JUMPI PUSH0 PUSH1 0x40 MLOAD PUSH32 0x1E4FBDF700000000000000000000000000000000000000000000000000000000 DUP2 MSTORE PUSH1 0x4 ADD PUSH2 0x328C SWAP2 SWAP1 PUSH2 0x3F21 JUMP JUMPDEST PUSH1 0x40 MLOAD DUP1 SWAP2 SUB SWAP1 REVERT JUMPDEST PUSH2 0x329E DUP2 PUSH2 0x3828 JUMP JUMPDEST POP JUMP JUMPDEST PUSH2 0x32A9 PUSH2 0x37A1 JUMP JUMPDEST PUSH0 DUP2 SWAP1 POP PUSH0 DUP2 PUSH20 0xFFFFFFFFFFFFFFFFFFFFFFFFFFFFFFFFFFFFFFFF AND PUSH4 0x70A08231 ADDRESS PUSH1 0x40 MLOAD DUP3 PUSH4 0xFFFFFFFF AND PUSH1 0xE0 SHL DUP2 MSTORE PUSH1 0x4 ADD PUSH2 0x32E7 SWAP2 SWAP1 PUSH2 0x3F21 JUMP JUMPDEST PUSH1 0x20 PUSH1 0x40 MLOAD DUP1 DUP4 SUB DUP2 DUP7 GAS STATICCALL ISZERO DUP1 ISZERO PUSH2 0x3302 JUMPI RETURNDATASIZE PUSH0 DUP1 RETURNDATACOPY RETURNDATASIZE PUSH0 REVERT JUMPDEST POP POP POP POP PUSH1 0x40 MLOAD RETURNDATASIZE PUSH1 0x1F NOT PUSH1 0x1F DUP3 ADD AND DUP3 ADD DUP1 PUSH1 0x40 MSTORE POP DUP2 ADD SWAP1 PUSH2 0x3326 SWAP2 SWAP1 PUSH2 0x53A9 JUMP JUMPDEST SWAP1 POP PUSH0 DUP2 GT PUSH2 0x336A JUMPI PUSH1 0x40 MLOAD PUSH32 0x8C379A000000000000000000000000000000000000000000000000000000000 DUP2 MSTORE PUSH1 0x4 ADD PUSH2 0x3361 SWAP1 PUSH2 0x541E JUMP JUMPDEST PUSH1 0x40 MLOAD DUP1 SWAP2 SUB SWAP1 REVERT JUMPDEST DUP2 PUSH20 0xFFFFFFFFFFFFFFFFFFFFFFFFFFFFFFFFFFFFFFFF AND PUSH4 0xA9059CBB PUSH2 0x338E PUSH2 0x26D9 JUMP JUMPDEST DUP4 PUSH1 0x40 MLOAD DUP4 PUSH4 0xFFFFFFFF AND PUSH1 0xE0 SHL DUP2 MSTORE PUSH1 0x4 ADD PUSH2 0x33AC SWAP3 SWAP2 SWAP1 PUSH2 0x543C JUMP JUMPDEST PUSH1 0x20 PUSH1 0x40 MLOAD DUP1 DUP4 SUB DUP2 PUSH0 DUP8 GAS CALL ISZERO DUP1 ISZERO PUSH2 0x33C8 JUMPI RETURNDATASIZE PUSH0 DUP1 RETURNDATACOPY RETURNDATASIZE PUSH0 REVERT JUMPDEST POP POP POP POP PUSH1 0x40 MLOAD RETURNDATASIZE PUSH1 0x1F NOT PUSH1 0x1F DUP3 ADD AND DUP3 ADD DUP1 PUSH1 0x40 MSTORE POP DUP2 ADD SWAP1 PUSH2 0x33EC SWAP2 SWAP1 PUSH2 0x548D JUMP JUMPDEST POP POP POP POP JUMP JUMPDEST PUSH2 0x33FA PUSH2 0x37A1 JUMP JUMPDEST DUP1 PUSH1 0x2 DUP2 SWAP1 SSTORE POP PUSH32 0x5FB4654F1EFE30C6141EAA6855FFCB27E0B361D899B05E21B1A4D0B3E71E14DB DUP2 PUSH1 0x40 MLOAD PUSH2 0x3430 SWAP2 SWAP1 PUSH2 0x3BB0 JUMP JUMPDEST PUSH1 0x40 MLOAD DUP1 SWAP2 SUB SWAP1 LOG1 POP JUMP JUMPDEST PUSH1 0x5 PUSH1 0x20 MSTORE DUP1 PUSH0 MSTORE PUSH1 0x40 PUSH0 KECCAK256 PUSH0 SWAP2 POP SWAP1 POP DUP1 PUSH0 ADD SLOAD SWAP1 DUP1 PUSH1 0x1 ADD DUP1 SLOAD PUSH2 0x3460 SWAP1 PUSH2 0x490A JUMP JUMPDEST DUP1 PUSH1 0x1F ADD PUSH1 0x20 DUP1 SWAP2 DIV MUL PUSH1 0x20 ADD PUSH1 0x40 MLOAD SWAP1 DUP2 ADD PUSH1 0x40 MSTORE DUP1 SWAP3 SWAP2 SWAP1 DUP2 DUP2 MSTORE PUSH1 0x20 ADD DUP3 DUP1 SLOAD PUSH2 0x348C SWAP1 PUSH2 0x490A JUMP JUMPDEST DUP1 ISZERO PUSH2 0x34D7 JUMPI DUP1 PUSH1 0x1F LT PUSH2 0x34AE JUMPI PUSH2 0x100 DUP1 DUP4 SLOAD DIV MUL DUP4 MSTORE SWAP2 PUSH1 0x20 ADD SWAP2 PUSH2 0x34D7 JUMP JUMPDEST DUP3 ADD SWAP2 SWAP1 PUSH0 MSTORE PUSH1 0x20 PUSH0 KECCAK256 SWAP1 JUMPDEST DUP2 SLOAD DUP2 MSTORE SWAP1 PUSH1 0x1 ADD SWAP1 PUSH1 0x20 ADD DUP1 DUP4 GT PUSH2 0x34BA JUMPI DUP3 SWAP1 SUB PUSH1 0x1F AND DUP3 ADD SWAP2 JUMPDEST POP POP POP POP POP SWAP1 DUP1 PUSH1 0x2 ADD PUSH0 SWAP1 SLOAD SWAP1 PUSH2 0x100 EXP SWAP1 DIV PUSH20 0xFFFFFFFFFFFFFFFFFFFFFFFFFFFFFFFFFFFFFFFF AND SWAP1 DUP1 PUSH1 0x3 ADD SLOAD SWAP1 DUP1 PUSH1 0x4 ADD PUSH0 SWAP1 SLOAD SWAP1 PUSH2 0x100 EXP SWAP1 DIV PUSH1 0xFF AND SWAP1 DUP1 PUSH1 0x5 ADD SLOAD SWAP1 DUP1 PUSH1 0x7 ADD SLOAD SWAP1 DUP1 PUSH1 0x9 ADD SLOAD SWAP1 DUP1 PUSH1 0xA ADD SLOAD SWAP1 POP DUP10 JUMP JUMPDEST PUSH1 0x2 PUSH1 0x1 SLOAD SUB PUSH2 0x357B JUMPI PUSH1 0x40 MLOAD PUSH32 0x8C379A000000000000000000000000000000000000000000000000000000000 DUP2 MSTORE PUSH1 0x4 ADD PUSH2 0x3572 SWAP1 PUSH2 0x5502 JUMP JUMPDEST PUSH1 0x40 MLOAD DUP1 SWAP2 SUB SWAP1 REVERT JUMPDEST PUSH1 0x2 PUSH1 0x1 DUP2 SWAP1 SSTORE POP JUMP JUMPDEST PUSH0 PUSH1 0x7 PUSH0 DUP2 SLOAD PUSH2 0x3594 SWAP1 PUSH2 0x453D JUMP JUMPDEST SWAP2 SWAP1 POP DUP2 SWAP1 SSTORE SWAP1 POP PUSH1 0x40 MLOAD DUP1 PUSH1 0xE0 ADD PUSH1 0x40 MSTORE DUP1 DUP3 DUP2 MSTORE PUSH1 0x20 ADD DUP8 DUP2 MSTORE PUSH1 0x20 ADD DUP7 PUSH20 0xFFFFFFFFFFFFFFFFFFFFFFFFFFFFFFFFFFFFFFFF AND DUP2 MSTORE PUSH1 0x20 ADD DUP6 PUSH20 0xFFFFFFFFFFFFFFFFFFFFFFFFFFFFFFFFFFFFFFFF AND DUP2 MSTORE PUSH1 0x20 ADD DUP5 DUP2 MSTORE PUSH1 0x20 ADD TIMESTAMP DUP2 MSTORE PUSH1 0x20 ADD DUP4 DUP2 MSTORE POP PUSH1 0x6 PUSH0 DUP4 DUP2 MSTORE PUSH1 0x20 ADD SWAP1 DUP2 MSTORE PUSH1 0x20 ADD PUSH0 KECCAK256 PUSH0 DUP3 ADD MLOAD DUP2 PUSH0 ADD SSTORE PUSH1 0x20 DUP3 ADD MLOAD DUP2 PUSH1 0x1 ADD SSTORE PUSH1 0x40 DUP3 ADD MLOAD DUP2 PUSH1 0x2 ADD PUSH0 PUSH2 0x100 EXP DUP2 SLOAD DUP2 PUSH20 0xFFFFFFFFFFFFFFFFFFFFFFFFFFFFFFFFFFFFFFFF MUL NOT AND SWAP1 DUP4 PUSH20 0xFFFFFFFFFFFFFFFFFFFFFFFFFFFFFFFFFFFFFFFF AND MUL OR SWAP1 SSTORE POP PUSH1 0x60 DUP3 ADD MLOAD DUP2 PUSH1 0x3 ADD PUSH0 PUSH2 0x100 EXP DUP2 SLOAD DUP2 PUSH20 0xFFFFFFFFFFFFFFFFFFFFFFFFFFFFFFFFFFFFFFFF MUL NOT AND SWAP1 DUP4 PUSH20 0xFFFFFFFFFFFFFFFFFFFFFFFFFFFFFFFFFFFFFFFF AND MUL OR SWAP1 SSTORE POP PUSH1 0x80 DUP3 ADD MLOAD DUP2 PUSH1 0x4 ADD SSTORE PUSH1 0xA0 DUP3 ADD MLOAD DUP2 PUSH1 0x5 ADD SSTORE PUSH1 0xC0 DUP3 ADD MLOAD DUP2 PUSH1 0x6 ADD SWAP1 DUP2 PUSH2 0x36D3 SWAP2 SWAP1 PUSH2 0x5098 JUMP JUMPDEST POP SWAP1 POP POP DUP1 PUSH32 0xFDA02462C610E439AB97D0498C3C469E7C643692B25DF1B7EA76FE26F702BD19 DUP4 PUSH1 0x40 MLOAD PUSH2 0x3707 SWAP2 SWAP1 PUSH2 0x5520 JUMP JUMPDEST PUSH1 0x40 MLOAD DUP1 SWAP2 SUB SWAP1 LOG2 POP POP POP POP POP POP JUMP JUMPDEST PUSH0 DUP1 PUSH0 SWAP1 POP PUSH0 JUMPDEST DUP4 PUSH1 0x7 ADD SLOAD DUP2 LT ISZERO PUSH2 0x378A JUMPI DUP4 PUSH1 0x8 ADD PUSH0 DUP3 DUP2 MSTORE PUSH1 0x20 ADD SWAP1 DUP2 MSTORE PUSH1 0x20 ADD PUSH0 KECCAK256 PUSH1 0x3 ADD PUSH0 SWAP1 SLOAD SWAP1 PUSH2 0x100 EXP SWAP1 DIV PUSH1 0xFF AND ISZERO PUSH2 0x3777 JUMPI DUP4 PUSH1 0x8 ADD PUSH0 DUP3 DUP2 MSTORE PUSH1 0x20 ADD SWAP1 DUP2 MSTORE PUSH1 0x20 ADD PUSH0 KECCAK256 PUSH1 0x1 ADD SLOAD DUP3 PUSH2 0x3774 SWAP2 SWAP1 PUSH2 0x4780 JUMP JUMPDEST SWAP2 POP JUMPDEST DUP1 DUP1 PUSH2 0x3782 SWAP1 PUSH2 0x453D JUMP JUMPDEST SWAP2 POP POP PUSH2 0x371E JUMP JUMPDEST POP PUSH2 0x2710 DUP2 EQ SWAP2 POP POP SWAP2 SWAP1 POP JUMP JUMPDEST PUSH1 0x1 DUP1 DUP2 SWAP1 SSTORE POP JUMP JUMPDEST PUSH2 0x37A9 PUSH2 0x38E9 JUMP JUMPDEST PUSH20 0xFFFFFFFFFFFFFFFFFFFFFFFFFFFFFFFFFFFFFFFF AND PUSH2 0x37C7 PUSH2 0x26D9 JUMP JUMPDEST PUSH20 0xFFFFFFFFFFFFFFFFFFFFFFFFFFFFFFFFFFFFFFFF AND EQ PUSH2 0x3826 JUMPI PUSH2 0x37EA PUSH2 0x38E9 JUMP JUMPDEST PUSH1 0x40 MLOAD PUSH32 0x118CDAA700000000000000000000000000000000000000000000000000000000 DUP2 MSTORE PUSH1 0x4 ADD PUSH2 0x381D SWAP2 SWAP1 PUSH2 0x3F21 JUMP JUMPDEST PUSH1 0x40 MLOAD DUP1 SWAP2 SUB SWAP1 REVERT JUMPDEST JUMP JUMPDEST PUSH0 DUP1 PUSH0 SWAP1 SLOAD SWAP1 PUSH2 0x100 EXP SWAP1 DIV PUSH20 0xFFFFFFFFFFFFFFFFFFFFFFFFFFFFFFFFFFFFFFFF AND SWAP1 POP DUP2 PUSH0 DUP1 PUSH2 0x100 EXP DUP2 SLOAD DUP2 PUSH20 0xFFFFFFFFFFFFFFFFFFFFFFFFFFFFFFFFFFFFFFFF MUL NOT AND SWAP1 DUP4 PUSH20 0xFFFFFFFFFFFFFFFFFFFFFFFFFFFFFFFFFFFFFFFF AND MUL OR SWAP1 SSTORE POP DUP2 PUSH20 0xFFFFFFFFFFFFFFFFFFFFFFFFFFFFFFFFFFFFFFFF AND DUP2 PUSH20 0xFFFFFFFFFFFFFFFFFFFFFFFFFFFFFFFFFFFFFFFF AND PUSH32 0x8BE0079C531659141344CD1FD0A4F28419497F9722A3DAAFE3B4186F6B6457E0 PUSH1 0x40 MLOAD PUSH1 0x40 MLOAD DUP1 SWAP2 SUB SWAP1 LOG3 POP POP JUMP JUMPDEST PUSH0 CALLER SWAP1 POP SWAP1 JUMP JUMPDEST PUSH0 PUSH1 0x40 MLOAD SWAP1 POP SWAP1 JUMP JUMPDEST PUSH0 DUP1 REVERT JUMPDEST PUSH0 DUP1 REVERT JUMPDEST PUSH0 DUP2 SWAP1 POP SWAP2 SWAP1 POP JUMP JUMPDEST PUSH2 0x3913 DUP2 PUSH2 0x3901 JUMP JUMPDEST DUP2 EQ PUSH2 0x391D JUMPI PUSH0 DUP1 REVERT JUMPDEST POP JUMP JUMPDEST PUSH0 DUP2 CALLDATALOAD SWAP1 POP PUSH2 0x392E DUP2 PUSH2 0x390A JUMP JUMPDEST SWAP3 SWAP2 POP POP JUMP JUMPDEST PUSH0 PUSH1 0x20 DUP3 DUP5 SUB SLT ISZERO PUSH2 0x3949 JUMPI PUSH2 0x3948 PUSH2 0x38F9 JUMP JUMPDEST JUMPDEST PUSH0 PUSH2 0x3956 DUP5 DUP3 DUP6 ADD PUSH2 0x3920 JUMP JUMPDEST SWAP2 POP POP SWAP3 SWAP2 POP POP JUMP JUMPDEST PUSH2 0x3968 DUP2 PUSH2 0x3901 JUMP JUMPDEST DUP3 MSTORE POP POP JUMP JUMPDEST PUSH0 PUSH20 0xFFFFFFFFFFFFFFFFFFFFFFFFFFFFFFFFFFFFFFFF DUP3 AND SWAP1 POP SWAP2 SWAP1 POP JUMP JUMPDEST PUSH0 PUSH2 0x3997 DUP3 PUSH2 0x396E JUMP JUMPDEST SWAP1 POP SWAP2 SWAP1 POP JUMP JUMPDEST PUSH2 0x39A7 DUP2 PUSH2 0x398D JUMP JUMPDEST DUP3 MSTORE POP POP JUMP JUMPDEST PUSH0 DUP2 MLOAD SWAP1 POP SWAP2 SWAP1 POP JUMP JUMPDEST PUSH0 DUP3 DUP3 MSTORE PUSH1 0x20 DUP3 ADD SWAP1 POP SWAP3 SWAP2 POP POP JUMP JUMPDEST PUSH0 JUMPDEST DUP4 DUP2 LT ISZERO PUSH2 0x39E4 JUMPI DUP1 DUP3 ADD MLOAD DUP2 DUP5 ADD MSTORE PUSH1 0x20 DUP2 ADD SWAP1 POP PUSH2 0x39C9 JUMP JUMPDEST PUSH0 DUP5 DUP5 ADD MSTORE POP POP POP POP JUMP JUMPDEST PUSH0 PUSH1 0x1F NOT PUSH1 0x1F DUP4 ADD AND SWAP1 POP SWAP2 SWAP1 POP JUMP JUMPDEST PUSH0 PUSH2 0x3A09 DUP3 PUSH2 0x39AD JUMP JUMPDEST PUSH2 0x3A13 DUP2 DUP6 PUSH2 0x39B7 JUMP JUMPDEST SWAP4 POP PUSH2 0x3A23 DUP2 DUP6 PUSH1 0x20 DUP7 ADD PUSH2 0x39C7 JUMP JUMPDEST PUSH2 0x3A2C DUP2 PUSH2 0x39EF JUMP JUMPDEST DUP5 ADD SWAP2 POP POP SWAP3 SWAP2 POP POP JUMP JUMPDEST PUSH0 PUSH1 0xE0 DUP3 ADD SWAP1 POP PUSH2 0x3A4A PUSH0 DUP4 ADD DUP11 PUSH2 0x395F JUMP JUMPDEST PUSH2 0x3A57 PUSH1 0x20 DUP4 ADD DUP10 PUSH2 0x395F JUMP JUMPDEST PUSH2 0x3A64 PUSH1 0x40 DUP4 ADD DUP9 PUSH2 0x399E JUMP JUMPDEST PUSH2 0x3A71 PUSH1 0x60 DUP4 ADD DUP8 PUSH2 0x399E JUMP JUMPDEST PUSH2 0x3A7E PUSH1 0x80 DUP4 ADD DUP7 PUSH2 0x395F JUMP JUMPDEST PUSH2 0x3A8B PUSH1 0xA0 DUP4 ADD DUP6 PUSH2 0x395F JUMP JUMPDEST DUP2 DUP2 SUB PUSH1 0xC0 DUP4 ADD MSTORE PUSH2 0x3A9D DUP2 DUP5 PUSH2 0x39FF JUMP JUMPDEST SWAP1 POP SWAP9 SWAP8 POP POP POP POP POP POP POP POP JUMP JUMPDEST PUSH32 0x4E487B7100000000000000000000000000000000000000000000000000000000 PUSH0 MSTORE PUSH1 0x21 PUSH1 0x4 MSTORE PUSH1 0x24 PUSH0 REVERT JUMPDEST PUSH1 0x4 DUP2 LT PUSH2 0x3AE9 JUMPI PUSH2 0x3AE8 PUSH2 0x3AAB JUMP JUMPDEST JUMPDEST POP JUMP JUMPDEST PUSH0 DUP2 SWAP1 POP PUSH2 0x3AF9 DUP3 PUSH2 0x3AD8 JUMP JUMPDEST SWAP2 SWAP1 POP JUMP JUMPDEST PUSH0 PUSH2 0x3B08 DUP3 PUSH2 0x3AEC JUMP JUMPDEST SWAP1 POP SWAP2 SWAP1 POP JUMP JUMPDEST PUSH2 0x3B18 DUP2 PUSH2 0x3AFE JUMP JUMPDEST DUP3 MSTORE POP POP JUMP JUMPDEST PUSH0 PUSH2 0x120 DUP3 ADD SWAP1 POP PUSH2 0x3B32 PUSH0 DUP4 ADD DUP13 PUSH2 0x395F JUMP JUMPDEST DUP2 DUP2 SUB PUSH1 0x20 DUP4 ADD MSTORE PUSH2 0x3B44 DUP2 DUP12 PUSH2 0x39FF JUMP JUMPDEST SWAP1 POP PUSH2 0x3B53 PUSH1 0x40 DUP4 ADD DUP11 PUSH2 0x399E JUMP JUMPDEST PUSH2 0x3B60 PUSH1 0x60 DUP4 ADD DUP10 PUSH2 0x395F JUMP JUMPDEST PUSH2 0x3B6D PUSH1 0x80 DUP4 ADD DUP9 PUSH2 0x3B0F JUMP JUMPDEST PUSH2 0x3B7A PUSH1 0xA0 DUP4 ADD DUP8 PUSH2 0x395F JUMP JUMPDEST PUSH2 0x3B87 PUSH1 0xC0 DUP4 ADD DUP7 PUSH2 0x395F JUMP JUMPDEST PUSH2 0x3B94 PUSH1 0xE0 DUP4 ADD DUP6 PUSH2 0x395F JUMP JUMPDEST PUSH2 0x3BA2 PUSH2 0x100 DUP4 ADD DUP5 PUSH2 0x395F JUMP JUMPDEST SWAP11 SWAP10 POP POP POP POP POP POP POP POP POP POP JUMP JUMPDEST PUSH0 PUSH1 0x20 DUP3 ADD SWAP1 POP PUSH2 0x3BC3 PUSH0 DUP4 ADD DUP5 PUSH2 0x395F JUMP JUMPDEST SWAP3 SWAP2 POP POP JUMP JUMPDEST PUSH0 PUSH1 0x80 DUP3 ADD SWAP1 POP PUSH2 0x3BDC PUSH0 DUP4 ADD DUP8 PUSH2 0x395F JUMP JUMPDEST PUSH2 0x3BE9 PUSH1 0x20 DUP4 ADD DUP7 PUSH2 0x395F JUMP JUMPDEST PUSH2 0x3BF6 PUSH1 0x40 DUP4 ADD DUP6 PUSH2 0x395F JUMP JUMPDEST PUSH2 0x3C03 PUSH1 0x60 DUP4 ADD DUP5 PUSH2 0x395F JUMP JUMPDEST SWAP6 SWAP5 POP POP POP POP POP JUMP JUMPDEST PUSH0 DUP2 MLOAD SWAP1 POP SWAP2 SWAP1 POP JUMP JUMPDEST PUSH0 DUP3 DUP3 MSTORE PUSH1 0x20 DUP3 ADD SWAP1 POP SWAP3 SWAP2 POP POP JUMP JUMPDEST PUSH0 DUP2 SWAP1 POP PUSH1 0x20 DUP3 ADD SWAP1 POP SWAP2 SWAP1 POP JUMP JUMPDEST PUSH2 0x3C3E DUP2 PUSH2 0x3901 JUMP JUMPDEST DUP3 MSTORE POP POP JUMP JUMPDEST PUSH0 PUSH2 0x3C4F DUP4 DUP4 PUSH2 0x3C35 JUMP JUMPDEST PUSH1 0x20 DUP4 ADD SWAP1 POP SWAP3 SWAP2 POP POP JUMP JUMPDEST PUSH0 PUSH1 0x20 DUP3 ADD SWAP1 POP SWAP2 SWAP1 POP JUMP JUMPDEST PUSH0 PUSH2 0x3C71 DUP3 PUSH2 0x3C0C JUMP JUMPDEST PUSH2 0x3C7B DUP2 DUP6 PUSH2 0x3C16 JUMP JUMPDEST SWAP4 POP PUSH2 0x3C86 DUP4 PUSH2 0x3C26 JUMP JUMPDEST DUP1 PUSH0 JUMPDEST DUP4 DUP2 LT ISZERO PUSH2 0x3CB6 JUMPI DUP2 MLOAD PUSH2 0x3C9D DUP9 DUP3 PUSH2 0x3C44 JUMP JUMPDEST SWAP8 POP PUSH2 0x3CA8 DUP4 PUSH2 0x3C5B JUMP JUMPDEST SWAP3 POP POP PUSH1 0x1 DUP2 ADD SWAP1 POP PUSH2 0x3C89 JUMP JUMPDEST POP DUP6 SWAP4 POP POP POP POP SWAP3 SWAP2 POP POP JUMP JUMPDEST PUSH0 PUSH1 0x20 DUP3 ADD SWAP1 POP DUP2 DUP2 SUB PUSH0 DUP4 ADD MSTORE PUSH2 0x3CDB DUP2 DUP5 PUSH2 0x3C67 JUMP JUMPDEST SWAP1 POP SWAP3 SWAP2 POP POP JUMP JUMPDEST PUSH0 PUSH2 0x3CED DUP3 PUSH2 0x396E JUMP JUMPDEST SWAP1 POP SWAP2 SWAP1 POP JUMP JUMPDEST PUSH2 0x3CFD DUP2 PUSH2 0x3CE3 JUMP JUMPDEST DUP2 EQ PUSH2 0x3D07 JUMPI PUSH0 DUP1 REVERT JUMPDEST POP JUMP JUMPDEST PUSH0 DUP2 CALLDATALOAD SWAP1 POP PUSH2 0x3D18 DUP2 PUSH2 0x3CF4 JUMP JUMPDEST SWAP3 SWAP2 POP POP JUMP JUMPDEST PUSH0 DUP1 PUSH0 PUSH1 0x60 DUP5 DUP7 SUB SLT ISZERO PUSH2 0x3D35 JUMPI PUSH2 0x3D34 PUSH2 0x38F9 JUMP JUMPDEST JUMPDEST PUSH0 PUSH2 0x3D42 DUP7 DUP3 DUP8 ADD PUSH2 0x3920 JUMP JUMPDEST SWAP4 POP POP PUSH1 0x20 PUSH2 0x3D53 DUP7 DUP3 DUP8 ADD PUSH2 0x3D0A JUMP JUMPDEST SWAP3 POP POP PUSH1 0x40 PUSH2 0x3D64 DUP7 DUP3 DUP8 ADD PUSH2 0x3920 JUMP JUMPDEST SWAP2 POP POP SWAP3 POP SWAP3 POP SWAP3 JUMP JUMPDEST PUSH2 0x3D77 DUP2 PUSH2 0x398D JUMP JUMPDEST DUP2 EQ PUSH2 0x3D81 JUMPI PUSH0 DUP1 REVERT JUMPDEST POP JUMP JUMPDEST PUSH0 DUP2 CALLDATALOAD SWAP1 POP PUSH2 0x3D92 DUP2 PUSH2 0x3D6E JUMP JUMPDEST SWAP3 SWAP2 POP POP JUMP JUMPDEST PUSH0 DUP1 PUSH0 PUSH1 0x60 DUP5 DUP7 SUB SLT ISZERO PUSH2 0x3DAF JUMPI PUSH2 0x3DAE PUSH2 0x38F9 JUMP JUMPDEST JUMPDEST PUSH0 PUSH2 0x3DBC DUP7 DUP3 DUP8 ADD PUSH2 0x3D84 JUMP JUMPDEST SWAP4 POP POP PUSH1 0x20 PUSH2 0x3DCD DUP7 DUP3 DUP8 ADD PUSH2 0x3920 JUMP JUMPDEST SWAP3 POP POP PUSH1 0x40 PUSH2 0x3DDE DUP7 DUP3 DUP8 ADD PUSH2 0x3920 JUMP JUMPDEST SWAP2 POP POP SWAP3 POP SWAP3 POP SWAP3 JUMP JUMPDEST PUSH0 DUP1 PUSH1 0x40 DUP4 DUP6 SUB SLT ISZERO PUSH2 0x3DFE JUMPI PUSH2 0x3DFD PUSH2 0x38F9 JUMP JUMPDEST JUMPDEST PUSH0 PUSH2 0x3E0B DUP6 DUP3 DUP7 ADD PUSH2 0x3920 JUMP JUMPDEST SWAP3 POP POP PUSH1 0x20 PUSH2 0x3E1C DUP6 DUP3 DUP7 ADD PUSH2 0x3920 JUMP JUMPDEST SWAP2 POP POP SWAP3 POP SWAP3 SWAP1 POP JUMP JUMPDEST PUSH0 DUP2 ISZERO ISZERO SWAP1 POP SWAP2 SWAP1 POP JUMP JUMPDEST PUSH2 0x3E3A DUP2 PUSH2 0x3E26 JUMP JUMPDEST DUP3 MSTORE POP POP JUMP JUMPDEST PUSH0 PUSH1 0x60 DUP3 ADD SWAP1 POP PUSH2 0x3E53 PUSH0 DUP4 ADD DUP7 PUSH2 0x399E JUMP JUMPDEST PUSH2 0x3E60 PUSH1 0x20 DUP4 ADD DUP6 PUSH2 0x395F JUMP JUMPDEST PUSH2 0x3E6D PUSH1 0x40 DUP4 ADD DUP5 PUSH2 0x3E31 JUMP JUMPDEST SWAP5 SWAP4 POP POP POP POP JUMP JUMPDEST PUSH0 PUSH1 0x20 DUP3 ADD SWAP1 POP PUSH2 0x3E88 PUSH0 DUP4 ADD DUP5 PUSH2 0x3E31 JUMP JUMPDEST SWAP3 SWAP2 POP POP JUMP JUMPDEST PUSH0 PUSH1 0x80 DUP3 ADD SWAP1 POP PUSH2 0x3EA1 PUSH0 DUP4 ADD DUP8 PUSH2 0x399E JUMP JUMPDEST PUSH2 0x3EAE PUSH1 0x20 DUP4 ADD DUP7 PUSH2 0x395F JUMP JUMPDEST PUSH2 0x3EBB PUSH1 0x40 DUP4 ADD DUP6 PUSH2 0x395F JUMP JUMPDEST PUSH2 0x3EC8 PUSH1 0x60 DUP4 ADD DUP5 PUSH2 0x3E31 JUMP JUMPDEST SWAP6 SWAP5 POP POP POP POP POP JUMP JUMPDEST PUSH0 DUP1 PUSH0 PUSH1 0x60 DUP5 DUP7 SUB SLT ISZERO PUSH2 0x3EE8 JUMPI PUSH2 0x3EE7 PUSH2 0x38F9 JUMP JUMPDEST JUMPDEST PUSH0 PUSH2 0x3EF5 DUP7 DUP3 DUP8 ADD PUSH2 0x3920 JUMP JUMPDEST SWAP4 POP POP PUSH1 0x20 PUSH2 0x3F06 DUP7 DUP3 DUP8 ADD PUSH2 0x3920 JUMP JUMPDEST SWAP3 POP POP PUSH1 0x40 PUSH2 0x3F17 DUP7 DUP3 DUP8 ADD PUSH2 0x3920 JUMP JUMPDEST SWAP2 POP POP SWAP3 POP SWAP3 POP SWAP3 JUMP JUMPDEST PUSH0 PUSH1 0x20 DUP3 ADD SWAP1 POP PUSH2 0x3F34 PUSH0 DUP4 ADD DUP5 PUSH2 0x399E JUMP JUMPDEST SWAP3 SWAP2 POP POP JUMP JUMPDEST PUSH1 0x4 DUP2 LT PUSH2 0x3F46 JUMPI PUSH0 DUP1 REVERT JUMPDEST POP JUMP JUMPDEST PUSH0 DUP2 CALLDATALOAD SWAP1 POP PUSH2 0x3F57 DUP2 PUSH2 0x3F3A JUMP JUMPDEST SWAP3 SWAP2 POP POP JUMP JUMPDEST PUSH0 DUP1 PUSH0 PUSH1 0x60 DUP5 DUP7 SUB SLT ISZERO PUSH2 0x3F74 JUMPI PUSH2 0x3F73 PUSH2 0x38F9 JUMP JUMPDEST JUMPDEST PUSH0 PUSH2 0x3F81 DUP7 DUP3 DUP8 ADD PUSH2 0x3F49 JUMP JUMPDEST SWAP4 POP POP PUSH1 0x20 PUSH2 0x3F92 DUP7 DUP3 DUP8 ADD PUSH2 0x3920 JUMP JUMPDEST SWAP3 POP POP PUSH1 0x40 PUSH2 0x3FA3 DUP7 DUP3 DUP8 ADD PUSH2 0x3920 JUMP JUMPDEST SWAP2 POP POP SWAP3 POP SWAP3 POP SWAP3 JUMP JUMPDEST PUSH0 DUP1 REVERT JUMPDEST PUSH0 DUP1 REVERT JUMPDEST PUSH32 0x4E487B7100000000000000000000000000000000000000000000000000000000 PUSH0 MSTORE PUSH1 0x41 PUSH1 0x4 MSTORE PUSH1 0x24 PUSH0 REVERT JUMPDEST PUSH2 0x3FEB DUP3 PUSH2 0x39EF JUMP JUMPDEST DUP2 ADD DUP2 DUP2 LT PUSH8 0xFFFFFFFFFFFFFFFF DUP3 GT OR ISZERO PUSH2 0x400A JUMPI PUSH2 0x4009 PUSH2 0x3FB5 JUMP JUMPDEST JUMPDEST DUP1 PUSH1 0x40 MSTORE POP POP POP JUMP JUMPDEST PUSH0 PUSH2 0x401C PUSH2 0x38F0 JUMP JUMPDEST SWAP1 POP PUSH2 0x4028 DUP3 DUP3 PUSH2 0x3FE2 JUMP JUMPDEST SWAP2 SWAP1 POP JUMP JUMPDEST PUSH0 PUSH8 0xFFFFFFFFFFFFFFFF DUP3 GT ISZERO PUSH2 0x4047 JUMPI PUSH2 0x4046 PUSH2 0x3FB5 JUMP JUMPDEST JUMPDEST PUSH2 0x4050 DUP3 PUSH2 0x39EF JUMP JUMPDEST SWAP1 POP PUSH1 0x20 DUP2 ADD SWAP1 POP SWAP2 SWAP1 POP JUMP JUMPDEST DUP3 DUP2 DUP4 CALLDATACOPY PUSH0 DUP4 DUP4 ADD MSTORE POP POP POP JUMP JUMPDEST PUSH0 PUSH2 0x407D PUSH2 0x4078 DUP5 PUSH2 0x402D JUMP JUMPDEST PUSH2 0x4013 JUMP JUMPDEST SWAP1 POP DUP3 DUP2 MSTORE PUSH1 0x20 DUP2 ADD DUP5 DUP5 DUP5 ADD GT ISZERO PUSH2 0x4099 JUMPI PUSH2 0x4098 PUSH2 0x3FB1 JUMP JUMPDEST JUMPDEST PUSH2 0x40A4 DUP5 DUP3 DUP6 PUSH2 0x405D JUMP JUMPDEST POP SWAP4 SWAP3 POP POP POP JUMP JUMPDEST PUSH0 DUP3 PUSH1 0x1F DUP4 ADD SLT PUSH2 0x40C0 JUMPI PUSH2 0x40BF PUSH2 0x3FAD JUMP JUMPDEST JUMPDEST DUP2 CALLDATALOAD PUSH2 0x40D0 DUP5 DUP3 PUSH1 0x20 DUP7 ADD PUSH2 0x406B JUMP JUMPDEST SWAP2 POP POP SWAP3 SWAP2 POP POP JUMP JUMPDEST PUSH0 DUP1 PUSH0 PUSH1 0x60 DUP5 DUP7 SUB SLT ISZERO PUSH2 0x40F0 JUMPI PUSH2 0x40EF PUSH2 0x38F9 JUMP JUMPDEST JUMPDEST PUSH0 PUSH2 0x40FD DUP7 DUP3 DUP8 ADD PUSH2 0x3920 JUMP JUMPDEST SWAP4 POP POP PUSH1 0x20 PUSH2 0x410E DUP7 DUP3 DUP8 ADD PUSH2 0x3920 JUMP JUMPDEST SWAP3 POP POP PUSH1 0x40 DUP5 ADD CALLDATALOAD PUSH8 0xFFFFFFFFFFFFFFFF DUP2 GT ISZERO PUSH2 0x412F JUMPI PUSH2 0x412E PUSH2 0x38FD JUMP JUMPDEST JUMPDEST PUSH2 0x413B DUP7 DUP3 DUP8 ADD PUSH2 0x40AC JUMP JUMPDEST SWAP2 POP POP SWAP3 POP SWAP3 POP SWAP3 JUMP JUMPDEST PUSH0 PUSH8 0xFFFFFFFFFFFFFFFF DUP3 GT ISZERO PUSH2 0x415F JUMPI PUSH2 0x415E PUSH2 0x3FB5 JUMP JUMPDEST JUMPDEST PUSH1 0x20 DUP3 MUL SWAP1 POP PUSH1 0x20 DUP2 ADD SWAP1 POP SWAP2 SWAP1 POP JUMP JUMPDEST PUSH0 DUP1 REVERT JUMPDEST PUSH0 PUSH2 0x4186 PUSH2 0x4181 DUP5 PUSH2 0x4145 JUMP JUMPDEST PUSH2 0x4013 JUMP JUMPDEST SWAP1 POP DUP1 DUP4 DUP3 MSTORE PUSH1 0x20 DUP3 ADD SWAP1 POP PUSH1 0x20 DUP5 MUL DUP4 ADD DUP6 DUP2 GT ISZERO PUSH2 0x41A9 JUMPI PUSH2 0x41A8 PUSH2 0x4170 JUMP JUMPDEST JUMPDEST DUP4 JUMPDEST DUP2 DUP2 LT ISZERO PUSH2 0x41D2 JUMPI DUP1 PUSH2 0x41BE DUP9 DUP3 PUSH2 0x3D0A JUMP JUMPDEST DUP5 MSTORE PUSH1 0x20 DUP5 ADD SWAP4 POP POP PUSH1 0x20 DUP2 ADD SWAP1 POP PUSH2 0x41AB JUMP JUMPDEST POP POP POP SWAP4 SWAP3 POP POP POP JUMP JUMPDEST PUSH0 DUP3 PUSH1 0x1F DUP4 ADD SLT PUSH2 0x41F0 JUMPI PUSH2 0x41EF PUSH2 0x3FAD JUMP JUMPDEST JUMPDEST DUP2 CALLDATALOAD PUSH2 0x4200 DUP5 DUP3 PUSH1 0x20 DUP7 ADD PUSH2 0x4174 JUMP JUMPDEST SWAP2 POP POP SWAP3 SWAP2 POP POP JUMP JUMPDEST PUSH0 PUSH8 0xFFFFFFFFFFFFFFFF DUP3 GT ISZERO PUSH2 0x4223 JUMPI PUSH2 0x4222 PUSH2 0x3FB5 JUMP JUMPDEST JUMPDEST PUSH1 0x20 DUP3 MUL SWAP1 POP PUSH1 0x20 DUP2 ADD SWAP1 POP SWAP2 SWAP1 POP JUMP JUMPDEST PUSH0 PUSH2 0x4246 PUSH2 0x4241 DUP5 PUSH2 0x4209 JUMP JUMPDEST PUSH2 0x4013 JUMP JUMPDEST SWAP1 POP DUP1 DUP4 DUP3 MSTORE PUSH1 0x20 DUP3 ADD SWAP1 POP PUSH1 0x20 DUP5 MUL DUP4 ADD DUP6 DUP2 GT ISZERO PUSH2 0x4269 JUMPI PUSH2 0x4268 PUSH2 0x4170 JUMP JUMPDEST JUMPDEST DUP4 JUMPDEST DUP2 DUP2 LT ISZERO PUSH2 0x4292 JUMPI DUP1 PUSH2 0x427E DUP9 DUP3 PUSH2 0x3920 JUMP JUMPDEST DUP5 MSTORE PUSH1 0x20 DUP5 ADD SWAP4 POP POP PUSH1 0x20 DUP2 ADD SWAP1 POP PUSH2 0x426B JUMP JUMPDEST POP POP POP SWAP4 SWAP3 POP POP POP JUMP JUMPDEST PUSH0 DUP3 PUSH1 0x1F DUP4 ADD SLT PUSH2 0x42B0 JUMPI PUSH2 0x42AF PUSH2 0x3FAD JUMP JUMPDEST JUMPDEST DUP2 CALLDATALOAD PUSH2 0x42C0 DUP5 DUP3 PUSH1 0x20 DUP7 ADD PUSH2 0x4234 JUMP JUMPDEST SWAP2 POP POP SWAP3 SWAP2 POP POP JUMP JUMPDEST PUSH0 DUP1 PUSH0 DUP1 PUSH1 0x80 DUP6 DUP8 SUB SLT ISZERO PUSH2 0x42E1 JUMPI PUSH2 0x42E0 PUSH2 0x38F9 JUMP JUMPDEST JUMPDEST PUSH0 DUP6 ADD CALLDATALOAD PUSH8 0xFFFFFFFFFFFFFFFF DUP2 GT ISZERO PUSH2 0x42FE JUMPI PUSH2 0x42FD PUSH2 0x38FD JUMP JUMPDEST JUMPDEST PUSH2 0x430A DUP8 DUP3 DUP9 ADD PUSH2 0x40AC JUMP JUMPDEST SWAP5 POP POP PUSH1 0x20 PUSH2 0x431B DUP8 DUP3 DUP9 ADD PUSH2 0x3920 JUMP JUMPDEST SWAP4 POP POP PUSH1 0x40 DUP6 ADD CALLDATALOAD PUSH8 0xFFFFFFFFFFFFFFFF DUP2 GT ISZERO PUSH2 0x433C JUMPI PUSH2 0x433B PUSH2 0x38FD JUMP JUMPDEST JUMPDEST PUSH2 0x4348 DUP8 DUP3 DUP9 ADD PUSH2 0x41DC JUMP JUMPDEST SWAP3 POP POP PUSH1 0x60 DUP6 ADD CALLDATALOAD PUSH8 0xFFFFFFFFFFFFFFFF DUP2 GT ISZERO PUSH2 0x4369 JUMPI PUSH2 0x4368 PUSH2 0x38FD JUMP JUMPDEST JUMPDEST PUSH2 0x4375 DUP8 DUP3 DUP9 ADD PUSH2 0x429C JUMP JUMPDEST SWAP2 POP POP SWAP3 SWAP6 SWAP2 SWAP5 POP SWAP3 POP JUMP JUMPDEST PUSH0 PUSH1 0x60 DUP3 ADD SWAP1 POP PUSH2 0x4394 PUSH0 DUP4 ADD DUP7 PUSH2 0x395F JUMP JUMPDEST PUSH2 0x43A1 PUSH1 0x20 DUP4 ADD DUP6 PUSH2 0x395F JUMP JUMPDEST PUSH2 0x43AE PUSH1 0x40 DUP4 ADD DUP5 PUSH2 0x395F JUMP JUMPDEST SWAP5 SWAP4 POP POP POP POP JUMP JUMPDEST PUSH0 PUSH1 0x20 DUP3 DUP5 SUB SLT ISZERO PUSH2 0x43CB JUMPI PUSH2 0x43CA PUSH2 0x38F9 JUMP JUMPDEST JUMPDEST PUSH0 PUSH2 0x43D8 DUP5 DUP3 DUP6 ADD PUSH2 0x3D84 JUMP JUMPDEST SWAP2 POP POP SWAP3 SWAP2 POP POP JUMP JUMPDEST PUSH2 0x43EA DUP2 PUSH2 0x3CE3 JUMP JUMPDEST DUP3 MSTORE POP POP JUMP JUMPDEST PUSH0 PUSH2 0x120 DUP3 ADD SWAP1 POP PUSH2 0x4404 PUSH0 DUP4 ADD DUP13 PUSH2 0x395F JUMP JUMPDEST DUP2 DUP2 SUB PUSH1 0x20 DUP4 ADD MSTORE PUSH2 0x4416 DUP2 DUP12 PUSH2 0x39FF JUMP JUMPDEST SWAP1 POP PUSH2 0x4425 PUSH1 0x40 DUP4 ADD DUP11 PUSH2 0x43E1 JUMP JUMPDEST PUSH2 0x4432 PUSH1 0x60 DUP4 ADD DUP10 PUSH2 0x395F JUMP JUMPDEST PUSH2 0x443F PUSH1 0x80 DUP4 ADD DUP9 PUSH2 0x3B0F JUMP JUMPDEST PUSH2 0x444C PUSH1 0xA0 DUP4 ADD DUP8 PUSH2 0x395F JUMP JUMPDEST PUSH2 0x4459 PUSH1 0xC0 DUP4 ADD DUP7 PUSH2 0x395F JUMP JUMPDEST PUSH2 0x4466 PUSH1 0xE0 DUP4 ADD DUP6 PUSH2 0x395F JUMP JUMPDEST PUSH2 0x4474 PUSH2 0x100 DUP4 ADD DUP5 PUSH2 0x395F JUMP JUMPDEST SWAP11 SWAP10 POP POP POP POP POP POP POP POP POP POP JUMP JUMPDEST PUSH32 0x50726F7065727479206E6F7420617661696C61626C6520666F72207075726368 PUSH0 DUP3 ADD MSTORE PUSH32 0x6173650000000000000000000000000000000000000000000000000000000000 PUSH1 0x20 DUP3 ADD MSTORE POP JUMP JUMPDEST PUSH0 PUSH2 0x44DC PUSH1 0x23 DUP4 PUSH2 0x39B7 JUMP JUMPDEST SWAP2 POP PUSH2 0x44E7 DUP3 PUSH2 0x4482 JUMP JUMPDEST PUSH1 0x40 DUP3 ADD SWAP1 POP SWAP2 SWAP1 POP JUMP JUMPDEST PUSH0 PUSH1 0x20 DUP3 ADD SWAP1 POP DUP2 DUP2 SUB PUSH0 DUP4 ADD MSTORE PUSH2 0x4509 DUP2 PUSH2 0x44D0 JUMP JUMPDEST SWAP1 POP SWAP2 SWAP1 POP JUMP JUMPDEST PUSH32 0x4E487B7100000000000000000000000000000000000000000000000000000000 PUSH0 MSTORE PUSH1 0x11 PUSH1 0x4 MSTORE PUSH1 0x24 PUSH0 REVERT JUMPDEST PUSH0 PUSH2 0x4547 DUP3 PUSH2 0x3901 JUMP JUMPDEST SWAP2 POP PUSH32 0xFFFFFFFFFFFFFFFFFFFFFFFFFFFFFFFFFFFFFFFFFFFFFFFFFFFFFFFFFFFFFFFF DUP3 SUB PUSH2 0x4579 JUMPI PUSH2 0x4578 PUSH2 0x4510 JUMP JUMPDEST JUMPDEST PUSH1 0x1 DUP3 ADD SWAP1 POP SWAP2 SWAP1 POP JUMP JUMPDEST PUSH32 0x4E6F74206120627579657220666F7220746869732070726F7065727479000000 PUSH0 DUP3 ADD MSTORE POP JUMP JUMPDEST PUSH0 PUSH2 0x45B8 PUSH1 0x1D DUP4 PUSH2 0x39B7 JUMP JUMPDEST SWAP2 POP PUSH2 0x45C3 DUP3 PUSH2 0x4584 JUMP JUMPDEST PUSH1 0x20 DUP3 ADD SWAP1 POP SWAP2 SWAP1 POP JUMP JUMPDEST PUSH0 PUSH1 0x20 DUP3 ADD SWAP1 POP DUP2 DUP2 SUB PUSH0 DUP4 ADD MSTORE PUSH2 0x45E5 DUP2 PUSH2 0x45AC JUMP JUMPDEST SWAP1 POP SWAP2 SWAP1 POP JUMP JUMPDEST PUSH32 0x416C726561647920706169640000000000000000000000000000000000000000 PUSH0 DUP3 ADD MSTORE POP JUMP JUMPDEST PUSH0 PUSH2 0x4620 PUSH1 0xC DUP4 PUSH2 0x39B7 JUMP JUMPDEST SWAP2 POP PUSH2 0x462B DUP3 PUSH2 0x45EC JUMP JUMPDEST PUSH1 0x20 DUP3 ADD SWAP1 POP SWAP2 SWAP1 POP JUMP JUMPDEST PUSH0 PUSH1 0x20 DUP3 ADD SWAP1 POP DUP2 DUP2 SUB PUSH0 DUP4 ADD MSTORE PUSH2 0x464D DUP2 PUSH2 0x4614 JUMP JUMPDEST SWAP1 POP SWAP2 SWAP1 POP JUMP JUMPDEST PUSH32 0x4E6F7420616C6C20726F79616C747920686F6C64657273206861766520617070 PUSH0 DUP3 ADD MSTORE PUSH32 0x726F766564000000000000000000000000000000000000000000000000000000 PUSH1 0x20 DUP3 ADD MSTORE POP JUMP JUMPDEST PUSH0 PUSH2 0x46AE PUSH1 0x25 DUP4 PUSH2 0x39B7 JUMP JUMPDEST SWAP2 POP PUSH2 0x46B9 DUP3 PUSH2 0x4654 JUMP JUMPDEST PUSH1 0x40 DUP3 ADD SWAP1 POP SWAP2 SWAP1 POP JUMP JUMPDEST PUSH0 PUSH1 0x20 DUP3 ADD SWAP1 POP DUP2 DUP2 SUB PUSH0 DUP4 ADD MSTORE PUSH2 0x46DB DUP2 PUSH2 0x46A2 JUMP JUMPDEST SWAP1 POP SWAP2 SWAP1 POP JUMP JUMPDEST PUSH0 PUSH2 0x46EC DUP3 PUSH2 0x3901 JUMP JUMPDEST SWAP2 POP PUSH2 0x46F7 DUP4 PUSH2 0x3901 JUMP JUMPDEST SWAP3 POP DUP3 DUP3 MUL PUSH2 0x4705 DUP2 PUSH2 0x3901 JUMP JUMPDEST SWAP2 POP DUP3 DUP3 DIV DUP5 EQ DUP4 ISZERO OR PUSH2 0x471C JUMPI PUSH2 0x471B PUSH2 0x4510 JUMP JUMPDEST JUMPDEST POP SWAP3 SWAP2 POP POP JUMP JUMPDEST PUSH32 0x4E487B7100000000000000000000000000000000000000000000000000000000 PUSH0 MSTORE PUSH1 0x12 PUSH1 0x4 MSTORE PUSH1 0x24 PUSH0 REVERT JUMPDEST PUSH0 PUSH2 0x475A DUP3 PUSH2 0x3901 JUMP JUMPDEST SWAP2 POP PUSH2 0x4765 DUP4 PUSH2 0x3901 JUMP JUMPDEST SWAP3 POP DUP3 PUSH2 0x4775 JUMPI PUSH2 0x4774 PUSH2 0x4723 JUMP JUMPDEST JUMPDEST DUP3 DUP3 DIV SWAP1 POP SWAP3 SWAP2 POP POP JUMP JUMPDEST PUSH0 PUSH2 0x478A DUP3 PUSH2 0x3901 JUMP JUMPDEST SWAP2 POP PUSH2 0x4795 DUP4 PUSH2 0x3901 JUMP JUMPDEST SWAP3 POP DUP3 DUP3 ADD SWAP1 POP DUP1 DUP3 GT ISZERO PUSH2 0x47AD JUMPI PUSH2 0x47AC PUSH2 0x4510 JUMP JUMPDEST JUMPDEST SWAP3 SWAP2 POP POP JUMP JUMPDEST PUSH32 0x496E73756666696369656E74207061796D656E74000000000000000000000000 PUSH0 DUP3 ADD MSTORE POP JUMP JUMPDEST PUSH0 PUSH2 0x47E7 PUSH1 0x14 DUP4 PUSH2 0x39B7 JUMP JUMPDEST SWAP2 POP PUSH2 0x47F2 DUP3 PUSH2 0x47B3 JUMP JUMPDEST PUSH1 0x20 DUP3 ADD SWAP1 POP SWAP2 SWAP1 POP JUMP JUMPDEST PUSH0 PUSH1 0x20 DUP3 ADD SWAP1 POP DUP2 DUP2 SUB PUSH0 DUP4 ADD MSTORE PUSH2 0x4814 DUP2 PUSH2 0x47DB JUMP JUMPDEST SWAP1 POP SWAP2 SWAP1 POP JUMP JUMPDEST PUSH0 PUSH2 0x4825 DUP3 PUSH2 0x3901 JUMP JUMPDEST SWAP2 POP PUSH2 0x4830 DUP4 PUSH2 0x3901 JUMP JUMPDEST SWAP3 POP DUP3 DUP3 SUB SWAP1 POP DUP2 DUP2 GT ISZERO PUSH2 0x4848 JUMPI PUSH2 0x4847 PUSH2 0x4510 JUMP JUMPDEST JUMPDEST SWAP3 SWAP2 POP POP JUMP JUMPDEST PUSH0 PUSH1 0x40 DUP3 ADD SWAP1 POP PUSH2 0x4861 PUSH0 DUP4 ADD DUP6 PUSH2 0x395F JUMP JUMPDEST PUSH2 0x486E PUSH1 0x20 DUP4 ADD DUP5 PUSH2 0x3B0F JUMP JUMPDEST SWAP4 SWAP3 POP POP POP JUMP JUMPDEST PUSH32 0x5472616E73616374696F6E20646F6573206E6F74206578697374000000000000 PUSH0 DUP3 ADD MSTORE POP JUMP JUMPDEST PUSH0 PUSH2 0x48A9 PUSH1 0x1A DUP4 PUSH2 0x39B7 JUMP JUMPDEST SWAP2 POP PUSH2 0x48B4 DUP3 PUSH2 0x4875 JUMP JUMPDEST PUSH1 0x20 DUP3 ADD SWAP1 POP SWAP2 SWAP1 POP JUMP JUMPDEST PUSH0 PUSH1 0x20 DUP3 ADD SWAP1 POP DUP2 DUP2 SUB PUSH0 DUP4 ADD MSTORE PUSH2 0x48D6 DUP2 PUSH2 0x489D JUMP JUMPDEST SWAP1 POP SWAP2 SWAP1 POP JUMP JUMPDEST PUSH32 0x4E487B7100000000000000000000000000000000000000000000000000000000 PUSH0 MSTORE PUSH1 0x22 PUSH1 0x4 MSTORE PUSH1 0x24 PUSH0 REVERT JUMPDEST PUSH0 PUSH1 0x2 DUP3 DIV SWAP1 POP PUSH1 0x1 DUP3 AND DUP1 PUSH2 0x4921 JUMPI PUSH1 0x7F DUP3 AND SWAP2 POP JUMPDEST PUSH1 0x20 DUP3 LT DUP2 SUB PUSH2 0x4934 JUMPI PUSH2 0x4933 PUSH2 0x48DD JUMP JUMPDEST JUMPDEST POP SWAP2 SWAP1 POP JUMP JUMPDEST PUSH32 0x4E487B7100000000000000000000000000000000000000000000000000000000 PUSH0 MSTORE PUSH1 0x32 PUSH1 0x4 MSTORE PUSH1 0x24 PUSH0 REVERT JUMPDEST PUSH32 0x4F6E6C79206F776E6572206F722061646D696E2063616E2063616E63656C0000 PUSH0 DUP3 ADD MSTORE POP JUMP JUMPDEST PUSH0 PUSH2 0x499B PUSH1 0x1E DUP4 PUSH2 0x39B7 JUMP JUMPDEST SWAP2 POP PUSH2 0x49A6 DUP3 PUSH2 0x4967 JUMP JUMPDEST PUSH1 0x20 DUP3 ADD SWAP1 POP SWAP2 SWAP1 POP JUMP JUMPDEST PUSH0 PUSH1 0x20 DUP3 ADD SWAP1 POP DUP2 DUP2 SUB PUSH0 DUP4 ADD MSTORE PUSH2 0x49C8 DUP2 PUSH2 0x498F JUMP JUMPDEST SWAP1 POP SWAP2 SWAP1 POP JUMP JUMPDEST PUSH32 0x50726F7065727479206E6F7420696E20636F7272656374207374617465000000 PUSH0 DUP3 ADD MSTORE POP JUMP JUMPDEST PUSH0 PUSH2 0x4A03 PUSH1 0x1D DUP4 PUSH2 0x39B7 JUMP JUMPDEST SWAP2 POP PUSH2 0x4A0E DUP3 PUSH2 0x49CF JUMP JUMPDEST PUSH1 0x20 DUP3 ADD SWAP1 POP SWAP2 SWAP1 POP JUMP JUMPDEST PUSH0 PUSH1 0x20 DUP3 ADD SWAP1 POP DUP2 DUP2 SUB PUSH0 DUP4 ADD MSTORE PUSH2 0x4A30 DUP2 PUSH2 0x49F7 JUMP JUMPDEST SWAP1 POP SWAP2 SWAP1 POP JUMP JUMPDEST PUSH32 0x43616E6E6F742063616E63656C3A20627579657273206861766520616C726561 PUSH0 DUP3 ADD MSTORE PUSH32 0x6479207061696400000000000000000000000000000000000000000000000000 PUSH1 0x20 DUP3 ADD MSTORE POP JUMP JUMPDEST PUSH0 PUSH2 0x4A91 PUSH1 0x27 DUP4 PUSH2 0x39B7 JUMP JUMPDEST SWAP2 POP PUSH2 0x4A9C DUP3 PUSH2 0x4A37 JUMP JUMPDEST PUSH1 0x40 DUP3 ADD SWAP1 POP SWAP2 SWAP1 POP JUMP JUMPDEST PUSH0 PUSH1 0x20 DUP3 ADD SWAP1 POP DUP2 DUP2 SUB PUSH0 DUP4 ADD MSTORE PUSH2 0x4ABE DUP2 PUSH2 0x4A85 JUMP JUMPDEST SWAP1 POP SWAP2 SWAP1 POP JUMP JUMPDEST PUSH32 0x50726F7065727479206E6F74206C697374656400000000000000000000000000 PUSH0 DUP3 ADD MSTORE POP JUMP JUMPDEST PUSH0 PUSH2 0x4AF9 PUSH1 0x13 DUP4 PUSH2 0x39B7 JUMP JUMPDEST SWAP2 POP PUSH2 0x4B04 DUP3 PUSH2 0x4AC5 JUMP JUMPDEST PUSH1 0x20 DUP3 ADD SWAP1 POP SWAP2 SWAP1 POP JUMP JUMPDEST PUSH0 PUSH1 0x20 DUP3 ADD SWAP1 POP DUP2 DUP2 SUB PUSH0 DUP4 ADD MSTORE PUSH2 0x4B26 DUP2 PUSH2 0x4AED JUMP JUMPDEST SWAP1 POP SWAP2 SWAP1 POP JUMP JUMPDEST PUSH32 0x4E6F74206120726F79616C747920686F6C64657220666F722074686973207072 PUSH0 DUP3 ADD MSTORE PUSH32 0x6F70657274790000000000000000000000000000000000000000000000000000 PUSH1 0x20 DUP3 ADD MSTORE POP JUMP JUMPDEST PUSH0 PUSH2 0x4B87 PUSH1 0x26 DUP4 PUSH2 0x39B7 JUMP JUMPDEST SWAP2 POP PUSH2 0x4B92 DUP3 PUSH2 0x4B2D JUMP JUMPDEST PUSH1 0x40 DUP3 ADD SWAP1 POP SWAP2 SWAP1 POP JUMP JUMPDEST PUSH0 PUSH1 0x20 DUP3 ADD SWAP1 POP DUP2 DUP2 SUB PUSH0 DUP4 ADD MSTORE PUSH2 0x4BB4 DUP2 PUSH2 0x4B7B JUMP JUMPDEST SWAP1 POP SWAP2 SWAP1 POP JUMP JUMPDEST PUSH32 0x416C726561647920617070726F76656400000000000000000000000000000000 PUSH0 DUP3 ADD MSTORE POP JUMP JUMPDEST PUSH0 PUSH2 0x4BEF PUSH1 0x10 DUP4 PUSH2 0x39B7 JUMP JUMPDEST SWAP2 POP PUSH2 0x4BFA DUP3 PUSH2 0x4BBB JUMP JUMPDEST PUSH1 0x20 DUP3 ADD SWAP1 POP SWAP2 SWAP1 POP JUMP JUMPDEST PUSH0 PUSH1 0x20 DUP3 ADD SWAP1 POP DUP2 DUP2 SUB PUSH0 DUP4 ADD MSTORE PUSH2 0x4C1C DUP2 PUSH2 0x4BE3 JUMP JUMPDEST SWAP1 POP SWAP2 SWAP1 POP JUMP JUMPDEST PUSH32 0x4D6178696D756D20332062757965727320616C6C6F7765640000000000000000 PUSH0 DUP3 ADD MSTORE POP JUMP JUMPDEST PUSH0 PUSH2 0x4C57 PUSH1 0x18 DUP4 PUSH2 0x39B7 JUMP JUMPDEST SWAP2 POP PUSH2 0x4C62 DUP3 PUSH2 0x4C23 JUMP JUMPDEST PUSH1 0x20 DUP3 ADD SWAP1 POP SWAP2 SWAP1 POP JUMP JUMPDEST PUSH0 PUSH1 0x20 DUP3 ADD SWAP1 POP DUP2 DUP2 SUB PUSH0 DUP4 ADD MSTORE PUSH2 0x4C84 DUP2 PUSH2 0x4C4B JUMP JUMPDEST SWAP1 POP SWAP2 SWAP1 POP JUMP JUMPDEST PUSH32 0x496E76616C69642073686172652070657263656E746167650000000000000000 PUSH0 DUP3 ADD MSTORE POP JUMP JUMPDEST PUSH0 PUSH2 0x4CBF PUSH1 0x18 DUP4 PUSH2 0x39B7 JUMP JUMPDEST SWAP2 POP PUSH2 0x4CCA DUP3 PUSH2 0x4C8B JUMP JUMPDEST PUSH1 0x20 DUP3 ADD SWAP1 POP SWAP2 SWAP1 POP JUMP JUMPDEST PUSH0 PUSH1 0x20 DUP3 ADD SWAP1 POP DUP2 DUP2 SUB PUSH0 DUP4 ADD MSTORE PUSH2 0x4CEC DUP2 PUSH2 0x4CB3 JUMP JUMPDEST SWAP1 POP SWAP2 SWAP1 POP JUMP JUMPDEST PUSH32 0x546F74616C2073686172652063616E6E6F742065786365656420313030250000 PUSH0 DUP3 ADD MSTORE POP JUMP JUMPDEST PUSH0 PUSH2 0x4D27 PUSH1 0x1E DUP4 PUSH2 0x39B7 JUMP JUMPDEST SWAP2 POP PUSH2 0x4D32 DUP3 PUSH2 0x4CF3 JUMP JUMPDEST PUSH1 0x20 DUP3 ADD SWAP1 POP SWAP2 SWAP1 POP JUMP JUMPDEST PUSH0 PUSH1 0x20 DUP3 ADD SWAP1 POP DUP2 DUP2 SUB PUSH0 DUP4 ADD MSTORE PUSH2 0x4D54 DUP2 PUSH2 0x4D1B JUMP JUMPDEST SWAP1 POP SWAP2 SWAP1 POP JUMP JUMPDEST PUSH32 0x496E76616C696420686F6C64657220696E646578000000000000000000000000 PUSH0 DUP3 ADD MSTORE POP JUMP JUMPDEST PUSH0 PUSH2 0x4D8F PUSH1 0x14 DUP4 PUSH2 0x39B7 JUMP JUMPDEST SWAP2 POP PUSH2 0x4D9A DUP3 PUSH2 0x4D5B JUMP JUMPDEST PUSH1 0x20 DUP3 ADD SWAP1 POP SWAP2 SWAP1 POP JUMP JUMPDEST PUSH0 PUSH1 0x20 DUP3 ADD SWAP1 POP DUP2 DUP2 SUB PUSH0 DUP4 ADD MSTORE PUSH2 0x4DBC DUP2 PUSH2 0x4D83 JUMP JUMPDEST SWAP1 POP SWAP2 SWAP1 POP JUMP JUMPDEST PUSH32 0x496E76616C696420627579657220696E64657800000000000000000000000000 PUSH0 DUP3 ADD MSTORE POP JUMP JUMPDEST PUSH0 PUSH2 0x4DF7 PUSH1 0x13 DUP4 PUSH2 0x39B7 JUMP JUMPDEST SWAP2 POP PUSH2 0x4E02 DUP3 PUSH2 0x4DC3 JUMP JUMPDEST PUSH1 0x20 DUP3 ADD SWAP1 POP SWAP2 SWAP1 POP JUMP JUMPDEST PUSH0 PUSH1 0x20 DUP3 ADD SWAP1 POP DUP2 DUP2 SUB PUSH0 DUP4 ADD MSTORE PUSH2 0x4E24 DUP2 PUSH2 0x4DEB JUMP JUMPDEST SWAP1 POP SWAP2 SWAP1 POP JUMP JUMPDEST PUSH32 0x4665652063616E6E6F7420657863656564203130250000000000000000000000 PUSH0 DUP3 ADD MSTORE POP JUMP JUMPDEST PUSH0 PUSH2 0x4E5F PUSH1 0x15 DUP4 PUSH2 0x39B7 JUMP JUMPDEST SWAP2 POP PUSH2 0x4E6A DUP3 PUSH2 0x4E2B JUMP JUMPDEST PUSH1 0x20 DUP3 ADD SWAP1 POP SWAP2 SWAP1 POP JUMP JUMPDEST PUSH0 PUSH1 0x20 DUP3 ADD SWAP1 POP DUP2 DUP2 SUB PUSH0 DUP4 ADD MSTORE PUSH2 0x4E8C DUP2 PUSH2 0x4E53 JUMP JUMPDEST SWAP1 POP SWAP2 SWAP1 POP JUMP JUMPDEST PUSH32 0x4F6E6C79206F776E65722063616E207570646174652070726F70657274790000 PUSH0 DUP3 ADD MSTORE POP JUMP JUMPDEST PUSH0 PUSH2 0x4EC7 PUSH1 0x1E DUP4 PUSH2 0x39B7 JUMP JUMPDEST SWAP2 POP PUSH2 0x4ED2 DUP3 PUSH2 0x4E93 JUMP JUMPDEST PUSH1 0x20 DUP3 ADD SWAP1 POP SWAP2 SWAP1 POP JUMP JUMPDEST PUSH0 PUSH1 0x20 DUP3 ADD SWAP1 POP DUP2 DUP2 SUB PUSH0 DUP4 ADD MSTORE PUSH2 0x4EF4 DUP2 PUSH2 0x4EBB JUMP JUMPDEST SWAP1 POP SWAP2 SWAP1 POP JUMP JUMPDEST PUSH0 DUP2 SWAP1 POP DUP2 PUSH0 MSTORE PUSH1 0x20 PUSH0 KECCAK256 SWAP1 POP SWAP2 SWAP1 POP JUMP JUMPDEST PUSH0 PUSH1 0x20 PUSH1 0x1F DUP4 ADD DIV SWAP1 POP SWAP2 SWAP1 POP JUMP JUMPDEST PUSH0 DUP3 DUP3 SHL SWAP1 POP SWAP3 SWAP2 POP POP JUMP JUMPDEST PUSH0 PUSH1 0x8 DUP4 MUL PUSH2 0x4F57 PUSH32 0xFFFFFFFFFFFFFFFFFFFFFFFFFFFFFFFFFFFFFFFFFFFFFFFFFFFFFFFFFFFFFFFF DUP3 PUSH2 0x4F1C JUMP JUMPDEST PUSH2 0x4F61 DUP7 DUP4 PUSH2 0x4F1C JUMP JUMPDEST SWAP6 POP DUP1 NOT DUP5 AND SWAP4 POP DUP1 DUP7 AND DUP5 OR SWAP3 POP POP POP SWAP4 SWAP3 POP POP POP JUMP JUMPDEST PUSH0 DUP2 SWAP1 POP SWAP2 SWAP1 POP JUMP JUMPDEST PUSH0 PUSH2 0x4F9C PUSH2 0x4F97 PUSH2 0x4F92 DUP5 PUSH2 0x3901 JUMP JUMPDEST PUSH2 0x4F79 JUMP JUMPDEST PUSH2 0x3901 JUMP JUMPDEST SWAP1 POP SWAP2 SWAP1 POP JUMP JUMPDEST PUSH0 DUP2 SWAP1 POP SWAP2 SWAP1 POP JUMP JUMPDEST PUSH2 0x4FB5 DUP4 PUSH2 0x4F82 JUMP JUMPDEST PUSH2 0x4FC9 PUSH2 0x4FC1 DUP3 PUSH2 0x4FA3 JUMP JUMPDEST DUP5 DUP5 SLOAD PUSH2 0x4F28 JUMP JUMPDEST DUP3 SSTORE POP POP POP POP JUMP JUMPDEST PUSH0 SWAP1 JUMP JUMPDEST PUSH2 0x4FDD PUSH2 0x4FD1 JUMP JUMPDEST PUSH2 0x4FE8 DUP2 DUP5 DUP5 PUSH2 0x4FAC JUMP JUMPDEST POP POP POP JUMP JUMPDEST JUMPDEST DUP2 DUP2 LT ISZERO PUSH2 0x500B JUMPI PUSH2 0x5000 PUSH0 DUP3 PUSH2 0x4FD5 JUMP JUMPDEST PUSH1 0x1 DUP2 ADD SWAP1 POP PUSH2 0x4FEE JUMP JUMPDEST POP POP JUMP JUMPDEST PUSH1 0x1F DUP3 GT ISZERO PUSH2 0x5050 JUMPI PUSH2 0x5021 DUP2 PUSH2 0x4EFB JUMP JUMPDEST PUSH2 0x502A DUP5 PUSH2 0x4F0D JUMP JUMPDEST DUP2 ADD PUSH1 0x20 DUP6 LT ISZERO PUSH2 0x5039 JUMPI DUP2 SWAP1 POP JUMPDEST PUSH2 0x504D PUSH2 0x5045 DUP6 PUSH2 0x4F0D JUMP JUMPDEST DUP4 ADD DUP3 PUSH2 0x4FED JUMP JUMPDEST POP POP JUMPDEST POP POP POP JUMP JUMPDEST PUSH0 DUP3 DUP3 SHR SWAP1 POP SWAP3 SWAP2 POP POP JUMP JUMPDEST PUSH0 PUSH2 0x5070 PUSH0 NOT DUP5 PUSH1 0x8 MUL PUSH2 0x5055 JUMP JUMPDEST NOT DUP1 DUP4 AND SWAP2 POP POP SWAP3 SWAP2 POP POP JUMP JUMPDEST PUSH0 PUSH2 0x5088 DUP4 DUP4 PUSH2 0x5061 JUMP JUMPDEST SWAP2 POP DUP3 PUSH1 0x2 MUL DUP3 OR SWAP1 POP SWAP3 SWAP2 POP POP JUMP JUMPDEST PUSH2 0x50A1 DUP3 PUSH2 0x39AD JUMP JUMPDEST PUSH8 0xFFFFFFFFFFFFFFFF DUP2 GT ISZERO PUSH2 0x50BA JUMPI PUSH2 0x50B9 PUSH2 0x3FB5 JUMP JUMPDEST JUMPDEST PUSH2 0x50C4 DUP3 SLOAD PUSH2 0x490A JUMP JUMPDEST PUSH2 0x50CF DUP3 DUP3 DUP6 PUSH2 0x500F JUMP JUMPDEST PUSH0 PUSH1 0x20 SWAP1 POP PUSH1 0x1F DUP4 GT PUSH1 0x1 DUP2 EQ PUSH2 0x5100 JUMPI PUSH0 DUP5 ISZERO PUSH2 0x50EE JUMPI DUP3 DUP8 ADD MLOAD SWAP1 POP JUMPDEST PUSH2 0x50F8 DUP6 DUP3 PUSH2 0x507D JUMP JUMPDEST DUP7 SSTORE POP PUSH2 0x515F JUMP JUMPDEST PUSH1 0x1F NOT DUP5 AND PUSH2 0x510E DUP7 PUSH2 0x4EFB JUMP JUMPDEST PUSH0 JUMPDEST DUP3 DUP2 LT ISZERO PUSH2 0x5135 JUMPI DUP5 DUP10 ADD MLOAD DUP3 SSTORE PUSH1 0x1 DUP3 ADD SWAP2 POP PUSH1 0x20 DUP6 ADD SWAP5 POP PUSH1 0x20 DUP2 ADD SWAP1 POP PUSH2 0x5110 JUMP JUMPDEST DUP7 DUP4 LT ISZERO PUSH2 0x5152 JUMPI DUP5 DUP10 ADD MLOAD PUSH2 0x514E PUSH1 0x1F DUP10 AND DUP3 PUSH2 0x5061 JUMP JUMPDEST DUP4 SSTORE POP JUMPDEST PUSH1 0x1 PUSH1 0x2 DUP9 MUL ADD DUP9 SSTORE POP POP POP JUMPDEST POP POP POP POP POP POP JUMP JUMPDEST PUSH32 0x4C697374696E6720666565206E6F742070726F76696465640000000000000000 PUSH0 DUP3 ADD MSTORE POP JUMP JUMPDEST PUSH0 PUSH2 0x519B PUSH1 0x18 DUP4 PUSH2 0x39B7 JUMP JUMPDEST SWAP2 POP PUSH2 0x51A6 DUP3 PUSH2 0x5167 JUMP JUMPDEST PUSH1 0x20 DUP3 ADD SWAP1 POP SWAP2 SWAP1 POP JUMP JUMPDEST PUSH0 PUSH1 0x20 DUP3 ADD SWAP1 POP DUP2 DUP2 SUB PUSH0 DUP4 ADD MSTORE PUSH2 0x51C8 DUP2 PUSH2 0x518F JUMP JUMPDEST SWAP1 POP SWAP2 SWAP1 POP JUMP JUMPDEST PUSH32 0x4D6178696D756D203320726F79616C747920686F6C6465727320616C6C6F7765 PUSH0 DUP3 ADD MSTORE PUSH32 0x6400000000000000000000000000000000000000000000000000000000000000 PUSH1 0x20 DUP3 ADD MSTORE POP JUMP JUMPDEST PUSH0 PUSH2 0x5229 PUSH1 0x21 DUP4 PUSH2 0x39B7 JUMP JUMPDEST SWAP2 POP PUSH2 0x5234 DUP3 PUSH2 0x51CF JUMP JUMPDEST PUSH1 0x40 DUP3 ADD SWAP1 POP SWAP2 SWAP1 POP JUMP JUMPDEST PUSH0 PUSH1 0x20 DUP3 ADD SWAP1 POP DUP2 DUP2 SUB PUSH0 DUP4 ADD MSTORE PUSH2 0x5256 DUP2 PUSH2 0x521D JUMP JUMPDEST SWAP1 POP SWAP2 SWAP1 POP JUMP JUMPDEST PUSH32 0x4172726179206C656E677468206D69736D617463680000000000000000000000 PUSH0 DUP3 ADD MSTORE POP JUMP JUMPDEST PUSH0 PUSH2 0x5291 PUSH1 0x15 DUP4 PUSH2 0x39B7 JUMP JUMPDEST SWAP2 POP PUSH2 0x529C DUP3 PUSH2 0x525D JUMP JUMPDEST PUSH1 0x20 DUP3 ADD SWAP1 POP SWAP2 SWAP1 POP JUMP JUMPDEST PUSH0 PUSH1 0x20 DUP3 ADD SWAP1 POP DUP2 DUP2 SUB PUSH0 DUP4 ADD MSTORE PUSH2 0x52BE DUP2 PUSH2 0x5285 JUMP JUMPDEST SWAP1 POP SWAP2 SWAP1 POP JUMP JUMPDEST PUSH32 0x546F74616C20726F79616C74792063616E6E6F74206578636565642035302500 PUSH0 DUP3 ADD MSTORE POP JUMP JUMPDEST PUSH0 PUSH2 0x52F9 PUSH1 0x1F DUP4 PUSH2 0x39B7 JUMP JUMPDEST SWAP2 POP PUSH2 0x5304 DUP3 PUSH2 0x52C5 JUMP JUMPDEST PUSH1 0x20 DUP3 ADD SWAP1 POP SWAP2 SWAP1 POP JUMP JUMPDEST PUSH0 PUSH1 0x20 DUP3 ADD SWAP1 POP DUP2 DUP2 SUB PUSH0 DUP4 ADD MSTORE PUSH2 0x5326 DUP2 PUSH2 0x52ED JUMP JUMPDEST SWAP1 POP SWAP2 SWAP1 POP JUMP JUMPDEST PUSH32 0x4E6F2045544820746F2077697468647261770000000000000000000000000000 PUSH0 DUP3 ADD MSTORE POP JUMP JUMPDEST PUSH0 PUSH2 0x5361 PUSH1 0x12 DUP4 PUSH2 0x39B7 JUMP JUMPDEST SWAP2 POP PUSH2 0x536C DUP3 PUSH2 0x532D JUMP JUMPDEST PUSH1 0x20 DUP3 ADD SWAP1 POP SWAP2 SWAP1 POP JUMP JUMPDEST PUSH0 PUSH1 0x20 DUP3 ADD SWAP1 POP DUP2 DUP2 SUB PUSH0 DUP4 ADD MSTORE PUSH2 0x538E DUP2 PUSH2 0x5355 JUMP JUMPDEST SWAP1 POP SWAP2 SWAP1 POP JUMP JUMPDEST PUSH0 DUP2 MLOAD SWAP1 POP PUSH2 0x53A3 DUP2 PUSH2 0x390A JUMP JUMPDEST SWAP3 SWAP2 POP POP JUMP JUMPDEST PUSH0 PUSH1 0x20 DUP3 DUP5 SUB SLT ISZERO PUSH2 0x53BE JUMPI PUSH2 0x53BD PUSH2 0x38F9 JUMP JUMPDEST JUMPDEST PUSH0 PUSH2 0x53CB DUP5 DUP3 DUP6 ADD PUSH2 0x5395 JUMP JUMPDEST SWAP2 POP POP SWAP3 SWAP2 POP POP JUMP JUMPDEST PUSH32 0x4E6F20746F6B656E7320746F2077697468647261770000000000000000000000 PUSH0 DUP3 ADD MSTORE POP JUMP JUMPDEST PUSH0 PUSH2 0x5408 PUSH1 0x15 DUP4 PUSH2 0x39B7 JUMP JUMPDEST SWAP2 POP PUSH2 0x5413 DUP3 PUSH2 0x53D4 JUMP JUMPDEST PUSH1 0x20 DUP3 ADD SWAP1 POP SWAP2 SWAP1 POP JUMP JUMPDEST PUSH0 PUSH1 0x20 DUP3 ADD SWAP1 POP DUP2 DUP2 SUB PUSH0 DUP4 ADD MSTORE PUSH2 0x5435 DUP2 PUSH2 0x53FC JUMP JUMPDEST SWAP1 POP SWAP2 SWAP1 POP JUMP JUMPDEST PUSH0 PUSH1 0x40 DUP3 ADD SWAP1 POP PUSH2 0x544F PUSH0 DUP4 ADD DUP6 PUSH2 0x399E JUMP JUMPDEST PUSH2 0x545C PUSH1 0x20 DUP4 ADD DUP5 PUSH2 0x395F JUMP JUMPDEST SWAP4 SWAP3 POP POP POP JUMP JUMPDEST PUSH2 0x546C DUP2 PUSH2 0x3E26 JUMP JUMPDEST DUP2 EQ PUSH2 0x5476 JUMPI PUSH0 DUP1 REVERT JUMPDEST POP JUMP JUMPDEST PUSH0 DUP2 MLOAD SWAP1 POP PUSH2 0x5487 DUP2 PUSH2 0x5463 JUMP JUMPDEST SWAP3 SWAP2 POP POP JUMP JUMPDEST PUSH0 PUSH1 0x20 DUP3 DUP5 SUB SLT ISZERO PUSH2 0x54A2 JUMPI PUSH2 0x54A1 PUSH2 0x38F9 JUMP JUMPDEST JUMPDEST PUSH0 PUSH2 0x54AF DUP5 DUP3 DUP6 ADD PUSH2 0x5479 JUMP JUMPDEST SWAP2 POP POP SWAP3 SWAP2 POP POP JUMP JUMPDEST PUSH32 0x5265656E7472616E637947756172643A207265656E7472616E742063616C6C00 PUSH0 DUP3 ADD MSTORE POP JUMP JUMPDEST PUSH0 PUSH2 0x54EC PUSH1 0x1F DUP4 PUSH2 0x39B7 JUMP JUMPDEST SWAP2 POP PUSH2 0x54F7 DUP3 PUSH2 0x54B8 JUMP JUMPDEST PUSH1 0x20 DUP3 ADD SWAP1 POP SWAP2 SWAP1 POP JUMP JUMPDEST PUSH0 PUSH1 0x20 DUP3 ADD SWAP1 POP DUP2 DUP2 SUB PUSH0 DUP4 ADD MSTORE PUSH2 0x5519 DUP2 PUSH2 0x54E0 JUMP JUMPDEST SWAP1 POP SWAP2 SWAP1 POP JUMP JUMPDEST PUSH0 PUSH1 0x20 DUP3 ADD SWAP1 POP DUP2 DUP2 SUB PUSH0 DUP4 ADD MSTORE PUSH2 0x5538 DUP2 DUP5 PUSH2 0x39FF JUMP JUMPDEST SWAP1 POP SWAP3 SWAP2 POP POP JUMP INVALID LOG2 PUSH5 0x6970667358 0x22 SLT KECCAK256 TIMESTAMP AND PUSH10 0x8556DC3ACCB1C4CD574F 0xB4 0xD8 0xE1 0xCA CALLDATACOPY 0x4A BALANCE DUP9 0xB9 0x2A 0x4A 0xE2 PUSH3 0x5A25CD PUSH26 0x4F564736F6C6343000814003300000000000000000000000000 "
		},
		"gasEstimates": {
			"creation": {
				"codeDepositCost": "4375600",
				"executionCost": "infinite",
				"totalCost": "infinite"
			},
			"external": {
				"addBuyer(uint256,address,uint256)": "infinite",
				"approvePropertySale(uint256)": "infinite",
				"areAllApprovalsInPlace(uint256)": "infinite",
				"buyPropertyShare(uint256)": "infinite",
				"cancelListing(uint256)": "infinite",
				"getBuyerDetails(uint256,uint256)": "infinite",
				"getContractStatistics()": "infinite",
				"getPropertiesByBuyer(address,uint256,uint256)": "infinite",
				"getPropertiesByOwner(address,uint256,uint256)": "infinite",
				"getPropertiesByStatus(uint8,uint256,uint256)": "infinite",
				"getPropertyDetails(uint256)": "infinite",
				"getRoyaltyDistribution(uint256)": "infinite",
				"getRoyaltyHolderDetails(uint256,uint256)": "infinite",
				"getSharePaymentDetails(uint256,uint256)": "infinite",
				"getTotalProperties()": "2478",
				"getTotalTransactions()": "2477",
				"getTransactionDetails(uint256)": "infinite",
				"getTransactionsByProperty(uint256,uint256,uint256)": "infinite",
				"listProperty(string,uint256,address[],uint256[])": "infinite",
				"listingFee()": "2514",
				"owner()": "2605",
				"properties(uint256)": "infinite",
				"propertyCount()": "2536",
				"purchaseFee()": "2538",
				"renounceOwnership()": "infinite",
				"transactionCount()": "2492",
				"transactions(uint256)": "infinite",
				"transferOwnership(address)": "infinite",
				"updateListingFee(uint256)": "infinite",
				"updateProperty(uint256,uint256,string)": "infinite",
				"updatePurchaseFee(uint256)": "infinite",
				"withdrawERC20(address)": "infinite",
				"withdrawETH()": "infinite"
			},
			"internal": {
				"_allSharesPurchased(struct RealEstateDApp.Property storage pointer)": "infinite",
				"_recordTransaction(uint256,address,address,uint256,string memory)": "infinite"
			}
		},
		"methodIdentifiers": {
			"addBuyer(uint256,address,uint256)": "4e9798c3",
			"approvePropertySale(uint256)": "3e3ea547",
			"areAllApprovalsInPlace(uint256)": "572f5eed",
			"buyPropertyShare(uint256)": "06ea4e6a",
			"cancelListing(uint256)": "305a67a8",
			"getBuyerDetails(uint256,uint256)": "70e14734",
			"getContractStatistics()": "18089a0c",
			"getPropertiesByBuyer(address,uint256,uint256)": "53bcb3db",
			"getPropertiesByOwner(address,uint256,uint256)": "635e49e5",
			"getPropertiesByStatus(uint8,uint256,uint256)": "90cad32f",
			"getPropertyDetails(uint256)": "126dbe43",
			"getRoyaltyDistribution(uint256)": "27cc8b5d",
			"getRoyaltyHolderDetails(uint256,uint256)": "547ee4ac",
			"getSharePaymentDetails(uint256,uint256)": "bafadc3c",
			"getTotalProperties()": "17aaf5ed",
			"getTotalTransactions()": "b5c604ff",
			"getTransactionDetails(uint256)": "0fa683d3",
			"getTransactionsByProperty(uint256,uint256,uint256)": "7eff2769",
			"listProperty(string,uint256,address[],uint256[])": "b3cdcf21",
			"listingFee()": "6a1b7ecc",
			"owner()": "8da5cb5b",
			"properties(uint256)": "f7b10808",
			"propertyCount()": "c361a335",
			"purchaseFee()": "14b5e981",
			"renounceOwnership()": "715018a6",
			"transactionCount()": "b77bf600",
			"transactions(uint256)": "9ace38c2",
			"transferOwnership(address)": "f2fde38b",
			"updateListingFee(uint256)": "f79d91ae",
			"updateProperty(uint256,uint256,string)": "a9059be5",
			"updatePurchaseFee(uint256)": "9ca1f363",
			"withdrawERC20(address)": "f4f3b200",
			"withdrawETH()": "e086e5ec"
		}
	},
	"abi": [
		{
			"inputs": [
				{
					"internalType": "uint256",
					"name": "_listingFee",
					"type": "uint256"
				},
				{
					"internalType": "uint256",
					"name": "_purchaseFee",
					"type": "uint256"
				}
			],
			"stateMutability": "nonpayable",
			"type": "constructor"
		},
		{
			"inputs": [
				{
					"internalType": "address",
					"name": "owner",
					"type": "address"
				}
			],
			"name": "OwnableInvalidOwner",
			"type": "error"
		},
		{
			"inputs": [
				{
					"internalType": "address",
					"name": "account",
					"type": "address"
				}
			],
			"name": "OwnableUnauthorizedAccount",
			"type": "error"
		},
		{
			"anonymous": false,
			"inputs": [
				{
					"indexed": true,
					"internalType": "uint256",
					"name": "propertyId",
					"type": "uint256"
				},
				{
					"indexed": true,
					"internalType": "address",
					"name": "buyer",
					"type": "address"
				},
				{
					"indexed": false,
					"internalType": "uint256",
					"name": "sharePercentage",
					"type": "uint256"
				}
			],
			"name": "BuyerAdded",
			"type": "event"
		},
		{
			"anonymous": false,
			"inputs": [
				{
					"indexed": true,
					"internalType": "uint256",
					"name": "propertyId",
					"type": "uint256"
				},
				{
					"indexed": true,
					"internalType": "address",
					"name": "buyer",
					"type": "address"
				},
				{
					"indexed": false,
					"internalType": "uint256",
					"name": "amount",
					"type": "uint256"
				}
			],
			"name": "BuyerPaid",
			"type": "event"
		},
		{
			"anonymous": false,
			"inputs": [
				{
					"indexed": false,
					"internalType": "uint256",
					"name": "newFee",
					"type": "uint256"
				}
			],
			"name": "ListingFeeUpdated",
			"type": "event"
		},
		{
			"anonymous": false,
			"inputs": [
				{
					"indexed": true,
					"internalType": "address",
					"name": "previousOwner",
					"type": "address"
				},
				{
					"indexed": true,
					"internalType": "address",
					"name": "newOwner",
					"type": "address"
				}
			],
			"name": "OwnershipTransferred",
			"type": "event"
		},
		{
			"anonymous": false,
			"inputs": [
				{
					"indexed": true,
					"internalType": "uint256",
					"name": "propertyId",
					"type": "uint256"
				},
				{
					"indexed": true,
					"internalType": "address",
					"name": "owner",
					"type": "address"
				},
				{
					"indexed": false,
					"internalType": "uint256",
					"name": "price",
					"type": "uint256"
				}
			],
			"name": "PropertyListed",
			"type": "event"
		},
		{
			"anonymous": false,
			"inputs": [
				{
					"indexed": true,
					"internalType": "uint256",
					"name": "propertyId",
					"type": "uint256"
				},
				{
					"indexed": true,
					"internalType": "address",
					"name": "buyer",
					"type": "address"
				},
				{
					"indexed": false,
					"internalType": "uint256",
					"name": "amount",
					"type": "uint256"
				}
			],
			"name": "PropertyPurchased",
			"type": "event"
		},
		{
			"anonymous": false,
			"inputs": [
				{
					"indexed": true,
					"internalType": "uint256",
					"name": "propertyId",
					"type": "uint256"
				},
				{
					"indexed": false,
					"internalType": "uint256",
					"name": "price",
					"type": "uint256"
				},
				{
					"indexed": false,
					"internalType": "enum RealEstateDApp.PropertyStatus",
					"name": "status",
					"type": "uint8"
				}
			],
			"name": "PropertyUpdated",
			"type": "event"
		},
		{
			"anonymous": false,
			"inputs": [
				{
					"indexed": false,
					"internalType": "uint256",
					"name": "newFee",
					"type": "uint256"
				}
			],
			"name": "PurchaseFeeUpdated",
			"type": "event"
		},
		{
			"anonymous": false,
			"inputs": [
				{
					"indexed": true,
					"internalType": "uint256",
					"name": "propertyId",
					"type": "uint256"
				},
				{
					"indexed": true,
					"internalType": "address",
					"name": "holder",
					"type": "address"
				},
				{
					"indexed": false,
					"internalType": "uint256",
					"name": "percentage",
					"type": "uint256"
				}
			],
			"name": "RoyaltyApproved",
			"type": "event"
		},
		{
			"anonymous": false,
			"inputs": [
				{
					"indexed": true,
					"internalType": "uint256",
					"name": "propertyId",
					"type": "uint256"
				},
				{
					"indexed": true,
					"internalType": "address",
					"name": "holder",
					"type": "address"
				},
				{
					"indexed": false,
					"internalType": "uint256",
					"name": "amount",
					"type": "uint256"
				}
			],
			"name": "RoyaltyPaid",
			"type": "event"
		},
		{
			"anonymous": false,
			"inputs": [
				{
					"indexed": true,
					"internalType": "uint256",
					"name": "transactionId",
					"type": "uint256"
				},
				{
					"indexed": false,
					"internalType": "string",
					"name": "transactionType",
					"type": "string"
				}
			],
			"name": "TransactionRecorded",
			"type": "event"
		},
		{
			"inputs": [
				{
					"internalType": "uint256",
					"name": "_propertyId",
					"type": "uint256"
				},
				{
					"internalType": "address payable",
					"name": "_buyer",
					"type": "address"
				},
				{
					"internalType": "uint256",
					"name": "_sharePercentage",
					"type": "uint256"
				}
			],
			"name": "addBuyer",
			"outputs": [],
			"stateMutability": "nonpayable",
			"type": "function"
		},
		{
			"inputs": [
				{
					"internalType": "uint256",
					"name": "_propertyId",
					"type": "uint256"
				}
			],
			"name": "approvePropertySale",
			"outputs": [],
			"stateMutability": "nonpayable",
			"type": "function"
		},
		{
			"inputs": [
				{
					"internalType": "uint256",
					"name": "_propertyId",
					"type": "uint256"
				}
			],
			"name": "areAllApprovalsInPlace",
			"outputs": [
				{
					"internalType": "bool",
					"name": "",
					"type": "bool"
				}
			],
			"stateMutability": "view",
			"type": "function"
		},
		{
			"inputs": [
				{
					"internalType": "uint256",
					"name": "_propertyId",
					"type": "uint256"
				}
			],
			"name": "buyPropertyShare",
			"outputs": [],
			"stateMutability": "payable",
			"type": "function"
		},
		{
			"inputs": [
				{
					"internalType": "uint256",
					"name": "_propertyId",
					"type": "uint256"
				}
			],
			"name": "cancelListing",
			"outputs": [],
			"stateMutability": "nonpayable",
			"type": "function"
		},
		{
			"inputs": [
				{
					"internalType": "uint256",
					"name": "_propertyId",
					"type": "uint256"
				},
				{
					"internalType": "uint256",
					"name": "_buyerIndex",
					"type": "uint256"
				}
			],
			"name": "getBuyerDetails",
			"outputs": [
				{
					"internalType": "address",
					"name": "buyerAddress",
					"type": "address"
				},
				{
					"internalType": "uint256",
					"name": "sharePercentage",
					"type": "uint256"
				},
				{
					"internalType": "uint256",
					"name": "amountPaid",
					"type": "uint256"
				},
				{
					"internalType": "bool",
					"name": "hasPaid",
					"type": "bool"
				}
			],
			"stateMutability": "view",
			"type": "function"
		},
		{
			"inputs": [],
			"name": "getContractStatistics",
			"outputs": [
				{
					"internalType": "uint256",
					"name": "totalProperties",
					"type": "uint256"
				},
				{
					"internalType": "uint256",
					"name": "totalTransactions",
					"type": "uint256"
				},
				{
					"internalType": "uint256",
					"name": "listedProperties",
					"type": "uint256"
				},
				{
					"internalType": "uint256",
					"name": "soldProperties",
					"type": "uint256"
				}
			],
			"stateMutability": "view",
			"type": "function"
		},
		{
			"inputs": [
				{
					"internalType": "address",
					"name": "_buyer",
					"type": "address"
				},
				{
					"internalType": "uint256",
					"name": "_limit",
					"type": "uint256"
				},
				{
					"internalType": "uint256",
					"name": "_offset",
					"type": "uint256"
				}
			],
			"name": "getPropertiesByBuyer",
			"outputs": [
				{
					"internalType": "uint256[]",
					"name": "",
					"type": "uint256[]"
				}
			],
			"stateMutability": "view",
			"type": "function"
		},
		{
			"inputs": [
				{
					"internalType": "address",
					"name": "_owner",
					"type": "address"
				},
				{
					"internalType": "uint256",
					"name": "_limit",
					"type": "uint256"
				},
				{
					"internalType": "uint256",
					"name": "_offset",
					"type": "uint256"
				}
			],
			"name": "getPropertiesByOwner",
			"outputs": [
				{
					"internalType": "uint256[]",
					"name": "",
					"type": "uint256[]"
				}
			],
			"stateMutability": "view",
			"type": "function"
		},
		{
			"inputs": [
				{
					"internalType": "enum RealEstateDApp.PropertyStatus",
					"name": "_status",
					"type": "uint8"
				},
				{
					"internalType": "uint256",
					"name": "_limit",
					"type": "uint256"
				},
				{
					"internalType": "uint256",
					"name": "_offset",
					"type": "uint256"
				}
			],
			"name": "getPropertiesByStatus",
			"outputs": [
				{
					"internalType": "uint256[]",
					"name": "",
					"type": "uint256[]"
				}
			],
			"stateMutability": "view",
			"type": "function"
		},
		{
			"inputs": [
				{
					"internalType": "uint256",
					"name": "_propertyId",
					"type": "uint256"
				}
			],
			"name": "getPropertyDetails",
			"outputs": [
				{
					"internalType": "uint256",
					"name": "id",
					"type": "uint256"
				},
				{
					"internalType": "string",
					"name": "uri",
					"type": "string"
				},
				{
					"internalType": "address",
					"name": "owner",
					"type": "address"
				},
				{
					"internalType": "uint256",
					"name": "price",
					"type": "uint256"
				},
				{
					"internalType": "enum RealEstateDApp.PropertyStatus",
					"name": "status",
					"type": "uint8"
				},
				{
					"internalType": "uint256",
					"name": "royaltyHolderCount",
					"type": "uint256"
				},
				{
					"internalType": "uint256",
					"name": "buyerCount",
					"type": "uint256"
				},
				{
					"internalType": "uint256",
					"name": "createdAt",
					"type": "uint256"
				},
				{
					"internalType": "uint256",
					"name": "updatedAt",
					"type": "uint256"
				}
			],
			"stateMutability": "view",
			"type": "function"
		},
		{
			"inputs": [
				{
					"internalType": "uint256",
					"name": "_propertyId",
					"type": "uint256"
				}
			],
			"name": "getRoyaltyDistribution",
			"outputs": [
				{
					"internalType": "uint256[]",
					"name": "",
					"type": "uint256[]"
				}
			],
			"stateMutability": "view",
			"type": "function"
		},
		{
			"inputs": [
				{
					"internalType": "uint256",
					"name": "_propertyId",
					"type": "uint256"
				},
				{
					"internalType": "uint256",
					"name": "_holderIndex",
					"type": "uint256"
				}
			],
			"name": "getRoyaltyHolderDetails",
			"outputs": [
				{
					"internalType": "address",
					"name": "holderAddress",
					"type": "address"
				},
				{
					"internalType": "uint256",
					"name": "percentage",
					"type": "uint256"
				},
				{
					"internalType": "bool",
					"name": "hasApproved",
					"type": "bool"
				}
			],
			"stateMutability": "view",
			"type": "function"
		},
		{
			"inputs": [
				{
					"internalType": "uint256",
					"name": "_propertyId",
					"type": "uint256"
				},
				{
					"internalType": "uint256",
					"name": "_buyerIndex",
					"type": "uint256"
				}
			],
			"name": "getSharePaymentDetails",
			"outputs": [
				{
					"internalType": "uint256",
					"name": "shareAmount",
					"type": "uint256"
				},
				{
					"internalType": "uint256",
					"name": "feeAmount",
					"type": "uint256"
				},
				{
					"internalType": "uint256",
					"name": "totalAmount",
					"type": "uint256"
				}
			],
			"stateMutability": "view",
			"type": "function"
		},
		{
			"inputs": [],
			"name": "getTotalProperties",
			"outputs": [
				{
					"internalType": "uint256",
					"name": "",
					"type": "uint256"
				}
			],
			"stateMutability": "view",
			"type": "function"
		},
		{
			"inputs": [],
			"name": "getTotalTransactions",
			"outputs": [
				{
					"internalType": "uint256",
					"name": "",
					"type": "uint256"
				}
			],
			"stateMutability": "view",
			"type": "function"
		},
		{
			"inputs": [
				{
					"internalType": "uint256",
					"name": "_transactionId",
					"type": "uint256"
				}
			],
			"name": "getTransactionDetails",
			"outputs": [
				{
					"internalType": "uint256",
					"name": "id",
					"type": "uint256"
				},
				{
					"internalType": "uint256",
					"name": "propertyId",
					"type": "uint256"
				},
				{
					"internalType": "address",
					"name": "from",
					"type": "address"
				},
				{
					"internalType": "address",
					"name": "to",
					"type": "address"
				},
				{
					"internalType": "uint256",
					"name": "amount",
					"type": "uint256"
				},
				{
					"internalType": "uint256",
					"name": "timestamp",
					"type": "uint256"
				},
				{
					"internalType": "string",
					"name": "transactionType",
					"type": "string"
				}
			],
			"stateMutability": "view",
			"type": "function"
		},
		{
			"inputs": [
				{
					"internalType": "uint256",
					"name": "_propertyId",
					"type": "uint256"
				},
				{
					"internalType": "uint256",
					"name": "_limit",
					"type": "uint256"
				},
				{
					"internalType": "uint256",
					"name": "_offset",
					"type": "uint256"
				}
			],
			"name": "getTransactionsByProperty",
			"outputs": [
				{
					"internalType": "uint256[]",
					"name": "",
					"type": "uint256[]"
				}
			],
			"stateMutability": "view",
			"type": "function"
		},
		{
			"inputs": [
				{
					"internalType": "string",
					"name": "_propertyUri",
					"type": "string"
				},
				{
					"internalType": "uint256",
					"name": "_price",
					"type": "uint256"
				},
				{
					"internalType": "address payable[]",
					"name": "_royaltyHolders",
					"type": "address[]"
				},
				{
					"internalType": "uint256[]",
					"name": "_royaltyPercentages",
					"type": "uint256[]"
				}
			],
			"name": "listProperty",
			"outputs": [
				{
					"internalType": "uint256",
					"name": "",
					"type": "uint256"
				}
			],
			"stateMutability": "payable",
			"type": "function"
		},
		{
			"inputs": [],
			"name": "listingFee",
			"outputs": [
				{
					"internalType": "uint256",
					"name": "",
					"type": "uint256"
				}
			],
			"stateMutability": "view",
			"type": "function"
		},
		{
			"inputs": [],
			"name": "owner",
			"outputs": [
				{
					"internalType": "address",
					"name": "",
					"type": "address"
				}
			],
			"stateMutability": "view",
			"type": "function"
		},
		{
			"inputs": [
				{
					"internalType": "uint256",
					"name": "",
					"type": "uint256"
				}
			],
			"name": "properties",
			"outputs": [
				{
					"internalType": "uint256",
					"name": "propertyId",
					"type": "uint256"
				},
				{
					"internalType": "string",
					"name": "propertyUri",
					"type": "string"
				},
				{
					"internalType": "address payable",
					"name": "owner",
					"type": "address"
				},
				{
					"internalType": "uint256",
					"name": "price",
					"type": "uint256"
				},
				{
					"internalType": "enum RealEstateDApp.PropertyStatus",
					"name": "status",
					"type": "uint8"
				},
				{
					"internalType": "uint256",
					"name": "royaltyHolderCount",
					"type": "uint256"
				},
				{
					"internalType": "uint256",
					"name": "buyerCount",
					"type": "uint256"
				},
				{
					"internalType": "uint256",
					"name": "createdAt",
					"type": "uint256"
				},
				{
					"internalType": "uint256",
					"name": "updatedAt",
					"type": "uint256"
				}
			],
			"stateMutability": "view",
			"type": "function"
		},
		{
			"inputs": [],
			"name": "propertyCount",
			"outputs": [
				{
					"internalType": "uint256",
					"name": "",
					"type": "uint256"
				}
			],
			"stateMutability": "view",
			"type": "function"
		},
		{
			"inputs": [],
			"name": "purchaseFee",
			"outputs": [
				{
					"internalType": "uint256",
					"name": "",
					"type": "uint256"
				}
			],
			"stateMutability": "view",
			"type": "function"
		},
		{
			"inputs": [],
			"name": "renounceOwnership",
			"outputs": [],
			"stateMutability": "nonpayable",
			"type": "function"
		},
		{
			"inputs": [],
			"name": "transactionCount",
			"outputs": [
				{
					"internalType": "uint256",
					"name": "",
					"type": "uint256"
				}
			],
			"stateMutability": "view",
			"type": "function"
		},
		{
			"inputs": [
				{
					"internalType": "uint256",
					"name": "",
					"type": "uint256"
				}
			],
			"name": "transactions",
			"outputs": [
				{
					"internalType": "uint256",
					"name": "transactionId",
					"type": "uint256"
				},
				{
					"internalType": "uint256",
					"name": "propertyId",
					"type": "uint256"
				},
				{
					"internalType": "address",
					"name": "from",
					"type": "address"
				},
				{
					"internalType": "address",
					"name": "to",
					"type": "address"
				},
				{
					"internalType": "uint256",
					"name": "amount",
					"type": "uint256"
				},
				{
					"internalType": "uint256",
					"name": "timestamp",
					"type": "uint256"
				},
				{
					"internalType": "string",
					"name": "transactionType",
					"type": "string"
				}
			],
			"stateMutability": "view",
			"type": "function"
		},
		{
			"inputs": [
				{
					"internalType": "address",
					"name": "newOwner",
					"type": "address"
				}
			],
			"name": "transferOwnership",
			"outputs": [],
			"stateMutability": "nonpayable",
			"type": "function"
		},
		{
			"inputs": [
				{
					"internalType": "uint256",
					"name": "_newListingFee",
					"type": "uint256"
				}
			],
			"name": "updateListingFee",
			"outputs": [],
			"stateMutability": "nonpayable",
			"type": "function"
		},
		{
			"inputs": [
				{
					"internalType": "uint256",
					"name": "_propertyId",
					"type": "uint256"
				},
				{
					"internalType": "uint256",
					"name": "_price",
					"type": "uint256"
				},
				{
					"internalType": "string",
					"name": "_propertyUri",
					"type": "string"
				}
			],
			"name": "updateProperty",
			"outputs": [],
			"stateMutability": "nonpayable",
			"type": "function"
		},
		{
			"inputs": [
				{
					"internalType": "uint256",
					"name": "_newPurchaseFee",
					"type": "uint256"
				}
			],
			"name": "updatePurchaseFee",
			"outputs": [],
			"stateMutability": "nonpayable",
			"type": "function"
		},
		{
			"inputs": [
				{
					"internalType": "address",
					"name": "_tokenAddress",
					"type": "address"
				}
			],
			"name": "withdrawERC20",
			"outputs": [],
			"stateMutability": "nonpayable",
			"type": "function"
		},
		{
			"inputs": [],
			"name": "withdrawETH",
			"outputs": [],
			"stateMutability": "nonpayable",
			"type": "function"
		}
	]
}